{"abi":[{"inputs":[{"internalType":"uint256","name":"","type":"uint256"}],"name":"campaigns","outputs":[{"internalType":"address","name":"","type":"address"}],"stateMutability":"view","type":"function"},{"inputs":[{"internalType":"uint256","name":"minimum","type":"uint256"},{"internalType":"uint256","name":"targetToAchieve","type":"uint256"},{"internalType":"string","name":"campaignName","type":"string"},{"internalType":"string","name":"campaignDescription","type":"string"},{"internalType":"string","name":"campaignImageURL","type":"string"}],"name":"createCampaign","outputs":[],"stateMutability":"nonpayable","type":"function"},{"inputs":[],"name":"getDeployedCampaigns","outputs":[{"internalType":"address[]","name":"","type":"address[]"}],"stateMutability":"view","type":"function"}],"devdoc":{"kind":"dev","methods":{},"version":1},"evm":{"assembly":"    /* \"Campaign.sol\":58:762  contract FactoryCampaign {... */\n  mstore(0x40, 0x80)\n  callvalue\n  dup1\n  iszero\n  tag_1\n  jumpi\n  0x00\n  dup1\n  revert\ntag_1:\n  pop\n  dataSize(sub_0)\n  dup1\n  dataOffset(sub_0)\n  0x00\n  codecopy\n  0x00\n  return\nstop\n\nsub_0: assembly {\n        /* \"Campaign.sol\":58:762  contract FactoryCampaign {... */\n      mstore(0x40, 0x80)\n      callvalue\n      dup1\n      iszero\n      tag_1\n      jumpi\n      0x00\n      dup1\n      revert\n    tag_1:\n      pop\n      jumpi(tag_2, lt(calldatasize, 0x04))\n      shr(0xe0, calldataload(0x00))\n      dup1\n      0x141961bc\n      eq\n      tag_3\n      jumpi\n      dup1\n      0x4acb9d4f\n      eq\n      tag_4\n      jumpi\n      dup1\n      0x71572a56\n      eq\n      tag_5\n      jumpi\n    tag_2:\n      0x00\n      dup1\n      revert\n        /* \"Campaign.sol\":89:115  address[] public campaigns */\n    tag_3:\n      tag_6\n      0x04\n      dup1\n      calldatasize\n      sub\n      dup2\n      add\n      swap1\n      tag_7\n      swap2\n      swap1\n      tag_8\n      jump\t// in\n    tag_7:\n      tag_9\n      jump\t// in\n    tag_6:\n      mload(0x40)\n      tag_10\n      swap2\n      swap1\n      tag_11\n      jump\t// in\n    tag_10:\n      mload(0x40)\n      dup1\n      swap2\n      sub\n      swap1\n      return\n        /* \"Campaign.sol\":656:760  function getDeployedCampaigns() public view returns (address[] memory) {... */\n    tag_4:\n      tag_12\n      tag_13\n      jump\t// in\n    tag_12:\n      mload(0x40)\n      tag_14\n      swap2\n      swap1\n      tag_15\n      jump\t// in\n    tag_14:\n      mload(0x40)\n      dup1\n      swap2\n      sub\n      swap1\n      return\n        /* \"Campaign.sol\":122:650  function createCampaign(... */\n    tag_5:\n      tag_16\n      0x04\n      dup1\n      calldatasize\n      sub\n      dup2\n      add\n      swap1\n      tag_17\n      swap2\n      swap1\n      tag_18\n      jump\t// in\n    tag_17:\n      tag_19\n      jump\t// in\n    tag_16:\n      stop\n        /* \"Campaign.sol\":89:115  address[] public campaigns */\n    tag_9:\n      0x00\n      dup2\n      dup2\n      sload\n      dup2\n      lt\n      tag_20\n      jumpi\n      0x00\n      dup1\n      revert\n    tag_20:\n      swap1\n      0x00\n      mstore\n      keccak256(0x00, 0x20)\n      add\n      0x00\n      swap2\n      pop\n      sload\n      swap1\n      0x0100\n      exp\n      swap1\n      div\n      0xffffffffffffffffffffffffffffffffffffffff\n      and\n      dup2\n      jump\t// out\n        /* \"Campaign.sol\":656:760  function getDeployedCampaigns() public view returns (address[] memory) {... */\n    tag_13:\n        /* \"Campaign.sol\":709:725  address[] memory */\n      0x60\n        /* \"Campaign.sol\":744:753  campaigns */\n      0x00\n        /* \"Campaign.sol\":737:753  return campaigns */\n      dup1\n      sload\n      dup1\n      0x20\n      mul\n      0x20\n      add\n      mload(0x40)\n      swap1\n      dup2\n      add\n      0x40\n      mstore\n      dup1\n      swap3\n      swap2\n      swap1\n      dup2\n      dup2\n      mstore\n      0x20\n      add\n      dup3\n      dup1\n      sload\n      dup1\n      iszero\n      tag_23\n      jumpi\n      0x20\n      mul\n      dup3\n      add\n      swap2\n      swap1\n      0x00\n      mstore\n      keccak256(0x00, 0x20)\n      swap1\n    tag_24:\n      dup2\n      0x00\n      swap1\n      sload\n      swap1\n      0x0100\n      exp\n      swap1\n      div\n      0xffffffffffffffffffffffffffffffffffffffff\n      and\n      0xffffffffffffffffffffffffffffffffffffffff\n      and\n      dup2\n      mstore\n      0x20\n      add\n      swap1\n      0x01\n      add\n      swap1\n      dup1\n      dup4\n      gt\n      tag_24\n      jumpi\n    tag_23:\n      pop\n      pop\n      pop\n      pop\n      pop\n      swap1\n      pop\n        /* \"Campaign.sol\":656:760  function getDeployedCampaigns() public view returns (address[] memory) {... */\n      swap1\n      jump\t// out\n        /* \"Campaign.sol\":122:650  function createCampaign(... */\n    tag_19:\n        /* \"Campaign.sol\":340:359  address newCampaign */\n      0x00\n        /* \"Campaign.sol\":413:420  minimum */\n      dup6\n        /* \"Campaign.sol\":438:453  targetToAchieve */\n      dup6\n        /* \"Campaign.sol\":471:483  campaignName */\n      dup6\n        /* \"Campaign.sol\":501:520  campaignDescription */\n      dup6\n        /* \"Campaign.sol\":538:554  campaignImageURL */\n      dup6\n        /* \"Campaign.sol\":572:582  msg.sender */\n      caller\n        /* \"Campaign.sol\":383:596  new Campaign(... */\n      mload(0x40)\n      tag_26\n      swap1\n      tag_27\n      jump\t// in\n    tag_26:\n      tag_28\n      swap7\n      swap6\n      swap5\n      swap4\n      swap3\n      swap2\n      swap1\n      tag_29\n      jump\t// in\n    tag_28:\n      mload(0x40)\n      dup1\n      swap2\n      sub\n      swap1\n      0x00\n      create\n      dup1\n      iszero\n      dup1\n      iszero\n      tag_30\n      jumpi\n      returndatasize\n      0x00\n      dup1\n      returndatacopy\n      revert(0x00, returndatasize)\n    tag_30:\n      pop\n        /* \"Campaign.sol\":340:606  address newCampaign = address(... */\n      swap1\n      pop\n        /* \"Campaign.sol\":616:625  campaigns */\n      0x00\n        /* \"Campaign.sol\":631:642  newCampaign */\n      dup2\n        /* \"Campaign.sol\":616:643  campaigns.push(newCampaign) */\n      swap1\n      dup1\n      0x01\n      dup2\n      sload\n      add\n      dup1\n      dup3\n      sstore\n      dup1\n      swap2\n      pop\n      pop\n      0x01\n      swap1\n      sub\n      swap1\n      0x00\n      mstore\n      keccak256(0x00, 0x20)\n      add\n      0x00\n      swap1\n      swap2\n      swap1\n      swap2\n      swap1\n      swap2\n      0x0100\n      exp\n      dup2\n      sload\n      dup2\n      0xffffffffffffffffffffffffffffffffffffffff\n      mul\n      not\n      and\n      swap1\n      dup4\n      0xffffffffffffffffffffffffffffffffffffffff\n      and\n      mul\n      or\n      swap1\n      sstore\n      pop\n        /* \"Campaign.sol\":330:650  {... */\n      pop\n        /* \"Campaign.sol\":122:650  function createCampaign(... */\n      pop\n      pop\n      pop\n      pop\n      pop\n      jump\t// out\n    tag_27:\n      dataSize(sub_0)\n      dup1\n      dataOffset(sub_0)\n      dup4\n      codecopy\n      add\n      swap1\n      jump\t// out\n        /* \"#utility.yul\":7:82   */\n    tag_32:\n        /* \"#utility.yul\":40:46   */\n      0x00\n        /* \"#utility.yul\":73:75   */\n      0x40\n        /* \"#utility.yul\":67:76   */\n      mload\n        /* \"#utility.yul\":57:76   */\n      swap1\n      pop\n        /* \"#utility.yul\":7:82   */\n      swap1\n      jump\t// out\n        /* \"#utility.yul\":88:205   */\n    tag_33:\n        /* \"#utility.yul\":197:198   */\n      0x00\n        /* \"#utility.yul\":194:195   */\n      dup1\n        /* \"#utility.yul\":187:199   */\n      revert\n        /* \"#utility.yul\":211:328   */\n    tag_34:\n        /* \"#utility.yul\":320:321   */\n      0x00\n        /* \"#utility.yul\":317:318   */\n      dup1\n        /* \"#utility.yul\":310:322   */\n      revert\n        /* \"#utility.yul\":334:411   */\n    tag_35:\n        /* \"#utility.yul\":371:378   */\n      0x00\n        /* \"#utility.yul\":400:405   */\n      dup2\n        /* \"#utility.yul\":389:405   */\n      swap1\n      pop\n        /* \"#utility.yul\":334:411   */\n      swap2\n      swap1\n      pop\n      jump\t// out\n        /* \"#utility.yul\":417:539   */\n    tag_36:\n        /* \"#utility.yul\":490:514   */\n      tag_69\n        /* \"#utility.yul\":508:513   */\n      dup2\n        /* \"#utility.yul\":490:514   */\n      tag_35\n      jump\t// in\n    tag_69:\n        /* \"#utility.yul\":483:488   */\n      dup2\n        /* \"#utility.yul\":480:515   */\n      eq\n        /* \"#utility.yul\":470:533   */\n      tag_70\n      jumpi\n        /* \"#utility.yul\":529:530   */\n      0x00\n        /* \"#utility.yul\":526:527   */\n      dup1\n        /* \"#utility.yul\":519:531   */\n      revert\n        /* \"#utility.yul\":470:533   */\n    tag_70:\n        /* \"#utility.yul\":417:539   */\n      pop\n      jump\t// out\n        /* \"#utility.yul\":545:684   */\n    tag_37:\n        /* \"#utility.yul\":591:596   */\n      0x00\n        /* \"#utility.yul\":629:635   */\n      dup2\n        /* \"#utility.yul\":616:636   */\n      calldataload\n        /* \"#utility.yul\":607:636   */\n      swap1\n      pop\n        /* \"#utility.yul\":645:678   */\n      tag_72\n        /* \"#utility.yul\":672:677   */\n      dup2\n        /* \"#utility.yul\":645:678   */\n      tag_36\n      jump\t// in\n    tag_72:\n        /* \"#utility.yul\":545:684   */\n      swap3\n      swap2\n      pop\n      pop\n      jump\t// out\n        /* \"#utility.yul\":690:1019   */\n    tag_8:\n        /* \"#utility.yul\":749:755   */\n      0x00\n        /* \"#utility.yul\":798:800   */\n      0x20\n        /* \"#utility.yul\":786:795   */\n      dup3\n        /* \"#utility.yul\":777:784   */\n      dup5\n        /* \"#utility.yul\":773:796   */\n      sub\n        /* \"#utility.yul\":769:801   */\n      slt\n        /* \"#utility.yul\":766:885   */\n      iszero\n      tag_74\n      jumpi\n        /* \"#utility.yul\":804:883   */\n      tag_75\n      tag_33\n      jump\t// in\n    tag_75:\n        /* \"#utility.yul\":766:885   */\n    tag_74:\n        /* \"#utility.yul\":924:925   */\n      0x00\n        /* \"#utility.yul\":949:1002   */\n      tag_76\n        /* \"#utility.yul\":994:1001   */\n      dup5\n        /* \"#utility.yul\":985:991   */\n      dup3\n        /* \"#utility.yul\":974:983   */\n      dup6\n        /* \"#utility.yul\":970:992   */\n      add\n        /* \"#utility.yul\":949:1002   */\n      tag_37\n      jump\t// in\n    tag_76:\n        /* \"#utility.yul\":939:1002   */\n      swap2\n      pop\n        /* \"#utility.yul\":895:1012   */\n      pop\n        /* \"#utility.yul\":690:1019   */\n      swap3\n      swap2\n      pop\n      pop\n      jump\t// out\n        /* \"#utility.yul\":1025:1151   */\n    tag_38:\n        /* \"#utility.yul\":1062:1069   */\n      0x00\n        /* \"#utility.yul\":1102:1144   */\n      0xffffffffffffffffffffffffffffffffffffffff\n        /* \"#utility.yul\":1095:1100   */\n      dup3\n        /* \"#utility.yul\":1091:1145   */\n      and\n        /* \"#utility.yul\":1080:1145   */\n      swap1\n      pop\n        /* \"#utility.yul\":1025:1151   */\n      swap2\n      swap1\n      pop\n      jump\t// out\n        /* \"#utility.yul\":1157:1253   */\n    tag_39:\n        /* \"#utility.yul\":1194:1201   */\n      0x00\n        /* \"#utility.yul\":1223:1247   */\n      tag_79\n        /* \"#utility.yul\":1241:1246   */\n      dup3\n        /* \"#utility.yul\":1223:1247   */\n      tag_38\n      jump\t// in\n    tag_79:\n        /* \"#utility.yul\":1212:1247   */\n      swap1\n      pop\n        /* \"#utility.yul\":1157:1253   */\n      swap2\n      swap1\n      pop\n      jump\t// out\n        /* \"#utility.yul\":1259:1377   */\n    tag_40:\n        /* \"#utility.yul\":1346:1370   */\n      tag_81\n        /* \"#utility.yul\":1364:1369   */\n      dup2\n        /* \"#utility.yul\":1346:1370   */\n      tag_39\n      jump\t// in\n    tag_81:\n        /* \"#utility.yul\":1341:1344   */\n      dup3\n        /* \"#utility.yul\":1334:1371   */\n      mstore\n        /* \"#utility.yul\":1259:1377   */\n      pop\n      pop\n      jump\t// out\n        /* \"#utility.yul\":1383:1605   */\n    tag_11:\n        /* \"#utility.yul\":1476:1480   */\n      0x00\n        /* \"#utility.yul\":1514:1516   */\n      0x20\n        /* \"#utility.yul\":1503:1512   */\n      dup3\n        /* \"#utility.yul\":1499:1517   */\n      add\n        /* \"#utility.yul\":1491:1517   */\n      swap1\n      pop\n        /* \"#utility.yul\":1527:1598   */\n      tag_83\n        /* \"#utility.yul\":1595:1596   */\n      0x00\n        /* \"#utility.yul\":1584:1593   */\n      dup4\n        /* \"#utility.yul\":1580:1597   */\n      add\n        /* \"#utility.yul\":1571:1577   */\n      dup5\n        /* \"#utility.yul\":1527:1598   */\n      tag_40\n      jump\t// in\n    tag_83:\n        /* \"#utility.yul\":1383:1605   */\n      swap3\n      swap2\n      pop\n      pop\n      jump\t// out\n        /* \"#utility.yul\":1611:1725   */\n    tag_41:\n        /* \"#utility.yul\":1678:1684   */\n      0x00\n        /* \"#utility.yul\":1712:1717   */\n      dup2\n        /* \"#utility.yul\":1706:1718   */\n      mload\n        /* \"#utility.yul\":1696:1718   */\n      swap1\n      pop\n        /* \"#utility.yul\":1611:1725   */\n      swap2\n      swap1\n      pop\n      jump\t// out\n        /* \"#utility.yul\":1731:1915   */\n    tag_42:\n        /* \"#utility.yul\":1830:1841   */\n      0x00\n        /* \"#utility.yul\":1864:1870   */\n      dup3\n        /* \"#utility.yul\":1859:1862   */\n      dup3\n        /* \"#utility.yul\":1852:1871   */\n      mstore\n        /* \"#utility.yul\":1904:1908   */\n      0x20\n        /* \"#utility.yul\":1899:1902   */\n      dup3\n        /* \"#utility.yul\":1895:1909   */\n      add\n        /* \"#utility.yul\":1880:1909   */\n      swap1\n      pop\n        /* \"#utility.yul\":1731:1915   */\n      swap3\n      swap2\n      pop\n      pop\n      jump\t// out\n        /* \"#utility.yul\":1921:2053   */\n    tag_43:\n        /* \"#utility.yul\":1988:1992   */\n      0x00\n        /* \"#utility.yul\":2011:2014   */\n      dup2\n        /* \"#utility.yul\":2003:2014   */\n      swap1\n      pop\n        /* \"#utility.yul\":2041:2045   */\n      0x20\n        /* \"#utility.yul\":2036:2039   */\n      dup3\n        /* \"#utility.yul\":2032:2046   */\n      add\n        /* \"#utility.yul\":2024:2046   */\n      swap1\n      pop\n        /* \"#utility.yul\":1921:2053   */\n      swap2\n      swap1\n      pop\n      jump\t// out\n        /* \"#utility.yul\":2059:2167   */\n    tag_44:\n        /* \"#utility.yul\":2136:2160   */\n      tag_88\n        /* \"#utility.yul\":2154:2159   */\n      dup2\n        /* \"#utility.yul\":2136:2160   */\n      tag_39\n      jump\t// in\n    tag_88:\n        /* \"#utility.yul\":2131:2134   */\n      dup3\n        /* \"#utility.yul\":2124:2161   */\n      mstore\n        /* \"#utility.yul\":2059:2167   */\n      pop\n      pop\n      jump\t// out\n        /* \"#utility.yul\":2173:2352   */\n    tag_45:\n        /* \"#utility.yul\":2242:2252   */\n      0x00\n        /* \"#utility.yul\":2263:2309   */\n      tag_90\n        /* \"#utility.yul\":2305:2308   */\n      dup4\n        /* \"#utility.yul\":2297:2303   */\n      dup4\n        /* \"#utility.yul\":2263:2309   */\n      tag_44\n      jump\t// in\n    tag_90:\n        /* \"#utility.yul\":2341:2345   */\n      0x20\n        /* \"#utility.yul\":2336:2339   */\n      dup4\n        /* \"#utility.yul\":2332:2346   */\n      add\n        /* \"#utility.yul\":2318:2346   */\n      swap1\n      pop\n        /* \"#utility.yul\":2173:2352   */\n      swap3\n      swap2\n      pop\n      pop\n      jump\t// out\n        /* \"#utility.yul\":2358:2471   */\n    tag_46:\n        /* \"#utility.yul\":2428:2432   */\n      0x00\n        /* \"#utility.yul\":2460:2464   */\n      0x20\n        /* \"#utility.yul\":2455:2458   */\n      dup3\n        /* \"#utility.yul\":2451:2465   */\n      add\n        /* \"#utility.yul\":2443:2465   */\n      swap1\n      pop\n        /* \"#utility.yul\":2358:2471   */\n      swap2\n      swap1\n      pop\n      jump\t// out\n        /* \"#utility.yul\":2507:3239   */\n    tag_47:\n        /* \"#utility.yul\":2626:2629   */\n      0x00\n        /* \"#utility.yul\":2655:2709   */\n      tag_93\n        /* \"#utility.yul\":2703:2708   */\n      dup3\n        /* \"#utility.yul\":2655:2709   */\n      tag_41\n      jump\t// in\n    tag_93:\n        /* \"#utility.yul\":2725:2811   */\n      tag_94\n        /* \"#utility.yul\":2804:2810   */\n      dup2\n        /* \"#utility.yul\":2799:2802   */\n      dup6\n        /* \"#utility.yul\":2725:2811   */\n      tag_42\n      jump\t// in\n    tag_94:\n        /* \"#utility.yul\":2718:2811   */\n      swap4\n      pop\n        /* \"#utility.yul\":2835:2891   */\n      tag_95\n        /* \"#utility.yul\":2885:2890   */\n      dup4\n        /* \"#utility.yul\":2835:2891   */\n      tag_43\n      jump\t// in\n    tag_95:\n        /* \"#utility.yul\":2914:2921   */\n      dup1\n        /* \"#utility.yul\":2945:2946   */\n      0x00\n        /* \"#utility.yul\":2930:3214   */\n    tag_96:\n        /* \"#utility.yul\":2955:2961   */\n      dup4\n        /* \"#utility.yul\":2952:2953   */\n      dup2\n        /* \"#utility.yul\":2949:2962   */\n      lt\n        /* \"#utility.yul\":2930:3214   */\n      iszero\n      tag_98\n      jumpi\n        /* \"#utility.yul\":3031:3037   */\n      dup2\n        /* \"#utility.yul\":3025:3038   */\n      mload\n        /* \"#utility.yul\":3058:3121   */\n      tag_99\n        /* \"#utility.yul\":3117:3120   */\n      dup9\n        /* \"#utility.yul\":3102:3115   */\n      dup3\n        /* \"#utility.yul\":3058:3121   */\n      tag_45\n      jump\t// in\n    tag_99:\n        /* \"#utility.yul\":3051:3121   */\n      swap8\n      pop\n        /* \"#utility.yul\":3144:3204   */\n      tag_100\n        /* \"#utility.yul\":3197:3203   */\n      dup4\n        /* \"#utility.yul\":3144:3204   */\n      tag_46\n      jump\t// in\n    tag_100:\n        /* \"#utility.yul\":3134:3204   */\n      swap3\n      pop\n        /* \"#utility.yul\":2990:3214   */\n      pop\n        /* \"#utility.yul\":2977:2978   */\n      0x01\n        /* \"#utility.yul\":2974:2975   */\n      dup2\n        /* \"#utility.yul\":2970:2979   */\n      add\n        /* \"#utility.yul\":2965:2979   */\n      swap1\n      pop\n        /* \"#utility.yul\":2930:3214   */\n      jump(tag_96)\n    tag_98:\n        /* \"#utility.yul\":2934:2948   */\n      pop\n        /* \"#utility.yul\":3230:3233   */\n      dup6\n        /* \"#utility.yul\":3223:3233   */\n      swap4\n      pop\n        /* \"#utility.yul\":2631:3239   */\n      pop\n      pop\n      pop\n        /* \"#utility.yul\":2507:3239   */\n      swap3\n      swap2\n      pop\n      pop\n      jump\t// out\n        /* \"#utility.yul\":3245:3618   */\n    tag_15:\n        /* \"#utility.yul\":3388:3392   */\n      0x00\n        /* \"#utility.yul\":3426:3428   */\n      0x20\n        /* \"#utility.yul\":3415:3424   */\n      dup3\n        /* \"#utility.yul\":3411:3429   */\n      add\n        /* \"#utility.yul\":3403:3429   */\n      swap1\n      pop\n        /* \"#utility.yul\":3475:3484   */\n      dup2\n        /* \"#utility.yul\":3469:3473   */\n      dup2\n        /* \"#utility.yul\":3465:3485   */\n      sub\n        /* \"#utility.yul\":3461:3462   */\n      0x00\n        /* \"#utility.yul\":3450:3459   */\n      dup4\n        /* \"#utility.yul\":3446:3463   */\n      add\n        /* \"#utility.yul\":3439:3486   */\n      mstore\n        /* \"#utility.yul\":3503:3611   */\n      tag_102\n        /* \"#utility.yul\":3606:3610   */\n      dup2\n        /* \"#utility.yul\":3597:3603   */\n      dup5\n        /* \"#utility.yul\":3503:3611   */\n      tag_47\n      jump\t// in\n    tag_102:\n        /* \"#utility.yul\":3495:3611   */\n      swap1\n      pop\n        /* \"#utility.yul\":3245:3618   */\n      swap3\n      swap2\n      pop\n      pop\n      jump\t// out\n        /* \"#utility.yul\":3624:3741   */\n    tag_48:\n        /* \"#utility.yul\":3733:3734   */\n      0x00\n        /* \"#utility.yul\":3730:3731   */\n      dup1\n        /* \"#utility.yul\":3723:3735   */\n      revert\n        /* \"#utility.yul\":3747:3864   */\n    tag_49:\n        /* \"#utility.yul\":3856:3857   */\n      0x00\n        /* \"#utility.yul\":3853:3854   */\n      dup1\n        /* \"#utility.yul\":3846:3858   */\n      revert\n        /* \"#utility.yul\":3870:3972   */\n    tag_50:\n        /* \"#utility.yul\":3911:3917   */\n      0x00\n        /* \"#utility.yul\":3962:3964   */\n      0x1f\n        /* \"#utility.yul\":3958:3965   */\n      not\n        /* \"#utility.yul\":3953:3955   */\n      0x1f\n        /* \"#utility.yul\":3946:3951   */\n      dup4\n        /* \"#utility.yul\":3942:3956   */\n      add\n        /* \"#utility.yul\":3938:3966   */\n      and\n        /* \"#utility.yul\":3928:3966   */\n      swap1\n      pop\n        /* \"#utility.yul\":3870:3972   */\n      swap2\n      swap1\n      pop\n      jump\t// out\n        /* \"#utility.yul\":3978:4158   */\n    tag_51:\n        /* \"#utility.yul\":4026:4103   */\n      0x4e487b7100000000000000000000000000000000000000000000000000000000\n        /* \"#utility.yul\":4023:4024   */\n      0x00\n        /* \"#utility.yul\":4016:4104   */\n      mstore\n        /* \"#utility.yul\":4123:4127   */\n      0x41\n        /* \"#utility.yul\":4120:4121   */\n      0x04\n        /* \"#utility.yul\":4113:4128   */\n      mstore\n        /* \"#utility.yul\":4147:4151   */\n      0x24\n        /* \"#utility.yul\":4144:4145   */\n      0x00\n        /* \"#utility.yul\":4137:4152   */\n      revert\n        /* \"#utility.yul\":4164:4445   */\n    tag_52:\n        /* \"#utility.yul\":4247:4274   */\n      tag_108\n        /* \"#utility.yul\":4269:4273   */\n      dup3\n        /* \"#utility.yul\":4247:4274   */\n      tag_50\n      jump\t// in\n    tag_108:\n        /* \"#utility.yul\":4239:4245   */\n      dup2\n        /* \"#utility.yul\":4235:4275   */\n      add\n        /* \"#utility.yul\":4377:4383   */\n      dup2\n        /* \"#utility.yul\":4365:4375   */\n      dup2\n        /* \"#utility.yul\":4362:4384   */\n      lt\n        /* \"#utility.yul\":4341:4359   */\n      0xffffffffffffffff\n        /* \"#utility.yul\":4329:4339   */\n      dup3\n        /* \"#utility.yul\":4326:4360   */\n      gt\n        /* \"#utility.yul\":4323:4385   */\n      or\n        /* \"#utility.yul\":4320:4408   */\n      iszero\n      tag_109\n      jumpi\n        /* \"#utility.yul\":4388:4406   */\n      tag_110\n      tag_51\n      jump\t// in\n    tag_110:\n        /* \"#utility.yul\":4320:4408   */\n    tag_109:\n        /* \"#utility.yul\":4428:4438   */\n      dup1\n        /* \"#utility.yul\":4424:4426   */\n      0x40\n        /* \"#utility.yul\":4417:4439   */\n      mstore\n        /* \"#utility.yul\":4207:4445   */\n      pop\n        /* \"#utility.yul\":4164:4445   */\n      pop\n      pop\n      jump\t// out\n        /* \"#utility.yul\":4451:4580   */\n    tag_53:\n        /* \"#utility.yul\":4485:4491   */\n      0x00\n        /* \"#utility.yul\":4512:4532   */\n      tag_112\n      tag_32\n      jump\t// in\n    tag_112:\n        /* \"#utility.yul\":4502:4532   */\n      swap1\n      pop\n        /* \"#utility.yul\":4541:4574   */\n      tag_113\n        /* \"#utility.yul\":4569:4573   */\n      dup3\n        /* \"#utility.yul\":4561:4567   */\n      dup3\n        /* \"#utility.yul\":4541:4574   */\n      tag_52\n      jump\t// in\n    tag_113:\n        /* \"#utility.yul\":4451:4580   */\n      swap2\n      swap1\n      pop\n      jump\t// out\n        /* \"#utility.yul\":4586:4894   */\n    tag_54:\n        /* \"#utility.yul\":4648:4652   */\n      0x00\n        /* \"#utility.yul\":4738:4756   */\n      0xffffffffffffffff\n        /* \"#utility.yul\":4730:4736   */\n      dup3\n        /* \"#utility.yul\":4727:4757   */\n      gt\n        /* \"#utility.yul\":4724:4780   */\n      iszero\n      tag_115\n      jumpi\n        /* \"#utility.yul\":4760:4778   */\n      tag_116\n      tag_51\n      jump\t// in\n    tag_116:\n        /* \"#utility.yul\":4724:4780   */\n    tag_115:\n        /* \"#utility.yul\":4798:4827   */\n      tag_117\n        /* \"#utility.yul\":4820:4826   */\n      dup3\n        /* \"#utility.yul\":4798:4827   */\n      tag_50\n      jump\t// in\n    tag_117:\n        /* \"#utility.yul\":4790:4827   */\n      swap1\n      pop\n        /* \"#utility.yul\":4882:4886   */\n      0x20\n        /* \"#utility.yul\":4876:4880   */\n      dup2\n        /* \"#utility.yul\":4872:4887   */\n      add\n        /* \"#utility.yul\":4864:4887   */\n      swap1\n      pop\n        /* \"#utility.yul\":4586:4894   */\n      swap2\n      swap1\n      pop\n      jump\t// out\n        /* \"#utility.yul\":4900:5046   */\n    tag_55:\n        /* \"#utility.yul\":4997:5003   */\n      dup3\n        /* \"#utility.yul\":4992:4995   */\n      dup2\n        /* \"#utility.yul\":4987:4990   */\n      dup4\n        /* \"#utility.yul\":4974:5004   */\n      calldatacopy\n        /* \"#utility.yul\":5038:5039   */\n      0x00\n        /* \"#utility.yul\":5029:5035   */\n      dup4\n        /* \"#utility.yul\":5024:5027   */\n      dup4\n        /* \"#utility.yul\":5020:5036   */\n      add\n        /* \"#utility.yul\":5013:5040   */\n      mstore\n        /* \"#utility.yul\":4900:5046   */\n      pop\n      pop\n      pop\n      jump\t// out\n        /* \"#utility.yul\":5052:5477   */\n    tag_56:\n        /* \"#utility.yul\":5130:5135   */\n      0x00\n        /* \"#utility.yul\":5155:5221   */\n      tag_120\n        /* \"#utility.yul\":5171:5220   */\n      tag_121\n        /* \"#utility.yul\":5213:5219   */\n      dup5\n        /* \"#utility.yul\":5171:5220   */\n      tag_54\n      jump\t// in\n    tag_121:\n        /* \"#utility.yul\":5155:5221   */\n      tag_53\n      jump\t// in\n    tag_120:\n        /* \"#utility.yul\":5146:5221   */\n      swap1\n      pop\n        /* \"#utility.yul\":5244:5250   */\n      dup3\n        /* \"#utility.yul\":5237:5242   */\n      dup2\n        /* \"#utility.yul\":5230:5251   */\n      mstore\n        /* \"#utility.yul\":5282:5286   */\n      0x20\n        /* \"#utility.yul\":5275:5280   */\n      dup2\n        /* \"#utility.yul\":5271:5287   */\n      add\n        /* \"#utility.yul\":5320:5323   */\n      dup5\n        /* \"#utility.yul\":5311:5317   */\n      dup5\n        /* \"#utility.yul\":5306:5309   */\n      dup5\n        /* \"#utility.yul\":5302:5318   */\n      add\n        /* \"#utility.yul\":5299:5324   */\n      gt\n        /* \"#utility.yul\":5296:5408   */\n      iszero\n      tag_122\n      jumpi\n        /* \"#utility.yul\":5327:5406   */\n      tag_123\n      tag_49\n      jump\t// in\n    tag_123:\n        /* \"#utility.yul\":5296:5408   */\n    tag_122:\n        /* \"#utility.yul\":5417:5471   */\n      tag_124\n        /* \"#utility.yul\":5464:5470   */\n      dup5\n        /* \"#utility.yul\":5459:5462   */\n      dup3\n        /* \"#utility.yul\":5454:5457   */\n      dup6\n        /* \"#utility.yul\":5417:5471   */\n      tag_55\n      jump\t// in\n    tag_124:\n        /* \"#utility.yul\":5136:5477   */\n      pop\n        /* \"#utility.yul\":5052:5477   */\n      swap4\n      swap3\n      pop\n      pop\n      pop\n      jump\t// out\n        /* \"#utility.yul\":5497:5837   */\n    tag_57:\n        /* \"#utility.yul\":5553:5558   */\n      0x00\n        /* \"#utility.yul\":5602:5605   */\n      dup3\n        /* \"#utility.yul\":5595:5599   */\n      0x1f\n        /* \"#utility.yul\":5587:5593   */\n      dup4\n        /* \"#utility.yul\":5583:5600   */\n      add\n        /* \"#utility.yul\":5579:5606   */\n      slt\n        /* \"#utility.yul\":5569:5691   */\n      tag_126\n      jumpi\n        /* \"#utility.yul\":5610:5689   */\n      tag_127\n      tag_48\n      jump\t// in\n    tag_127:\n        /* \"#utility.yul\":5569:5691   */\n    tag_126:\n        /* \"#utility.yul\":5727:5733   */\n      dup2\n        /* \"#utility.yul\":5714:5734   */\n      calldataload\n        /* \"#utility.yul\":5752:5831   */\n      tag_128\n        /* \"#utility.yul\":5827:5830   */\n      dup5\n        /* \"#utility.yul\":5819:5825   */\n      dup3\n        /* \"#utility.yul\":5812:5816   */\n      0x20\n        /* \"#utility.yul\":5804:5810   */\n      dup7\n        /* \"#utility.yul\":5800:5817   */\n      add\n        /* \"#utility.yul\":5752:5831   */\n      tag_56\n      jump\t// in\n    tag_128:\n        /* \"#utility.yul\":5743:5831   */\n      swap2\n      pop\n        /* \"#utility.yul\":5559:5837   */\n      pop\n        /* \"#utility.yul\":5497:5837   */\n      swap3\n      swap2\n      pop\n      pop\n      jump\t// out\n        /* \"#utility.yul\":5843:7294   */\n    tag_18:\n        /* \"#utility.yul\":5968:5974   */\n      0x00\n        /* \"#utility.yul\":5976:5982   */\n      dup1\n        /* \"#utility.yul\":5984:5990   */\n      0x00\n        /* \"#utility.yul\":5992:5998   */\n      dup1\n        /* \"#utility.yul\":6000:6006   */\n      0x00\n        /* \"#utility.yul\":6049:6052   */\n      0xa0\n        /* \"#utility.yul\":6037:6046   */\n      dup7\n        /* \"#utility.yul\":6028:6035   */\n      dup9\n        /* \"#utility.yul\":6024:6047   */\n      sub\n        /* \"#utility.yul\":6020:6053   */\n      slt\n        /* \"#utility.yul\":6017:6137   */\n      iszero\n      tag_130\n      jumpi\n        /* \"#utility.yul\":6056:6135   */\n      tag_131\n      tag_33\n      jump\t// in\n    tag_131:\n        /* \"#utility.yul\":6017:6137   */\n    tag_130:\n        /* \"#utility.yul\":6176:6177   */\n      0x00\n        /* \"#utility.yul\":6201:6254   */\n      tag_132\n        /* \"#utility.yul\":6246:6253   */\n      dup9\n        /* \"#utility.yul\":6237:6243   */\n      dup3\n        /* \"#utility.yul\":6226:6235   */\n      dup10\n        /* \"#utility.yul\":6222:6244   */\n      add\n        /* \"#utility.yul\":6201:6254   */\n      tag_37\n      jump\t// in\n    tag_132:\n        /* \"#utility.yul\":6191:6254   */\n      swap6\n      pop\n        /* \"#utility.yul\":6147:6264   */\n      pop\n        /* \"#utility.yul\":6303:6305   */\n      0x20\n        /* \"#utility.yul\":6329:6382   */\n      tag_133\n        /* \"#utility.yul\":6374:6381   */\n      dup9\n        /* \"#utility.yul\":6365:6371   */\n      dup3\n        /* \"#utility.yul\":6354:6363   */\n      dup10\n        /* \"#utility.yul\":6350:6372   */\n      add\n        /* \"#utility.yul\":6329:6382   */\n      tag_37\n      jump\t// in\n    tag_133:\n        /* \"#utility.yul\":6319:6382   */\n      swap5\n      pop\n        /* \"#utility.yul\":6274:6392   */\n      pop\n        /* \"#utility.yul\":6459:6461   */\n      0x40\n        /* \"#utility.yul\":6448:6457   */\n      dup7\n        /* \"#utility.yul\":6444:6462   */\n      add\n        /* \"#utility.yul\":6431:6463   */\n      calldataload\n        /* \"#utility.yul\":6490:6508   */\n      0xffffffffffffffff\n        /* \"#utility.yul\":6482:6488   */\n      dup2\n        /* \"#utility.yul\":6479:6509   */\n      gt\n        /* \"#utility.yul\":6476:6593   */\n      iszero\n      tag_134\n      jumpi\n        /* \"#utility.yul\":6512:6591   */\n      tag_135\n      tag_34\n      jump\t// in\n    tag_135:\n        /* \"#utility.yul\":6476:6593   */\n    tag_134:\n        /* \"#utility.yul\":6617:6680   */\n      tag_136\n        /* \"#utility.yul\":6672:6679   */\n      dup9\n        /* \"#utility.yul\":6663:6669   */\n      dup3\n        /* \"#utility.yul\":6652:6661   */\n      dup10\n        /* \"#utility.yul\":6648:6670   */\n      add\n        /* \"#utility.yul\":6617:6680   */\n      tag_57\n      jump\t// in\n    tag_136:\n        /* \"#utility.yul\":6607:6680   */\n      swap4\n      pop\n        /* \"#utility.yul\":6402:6690   */\n      pop\n        /* \"#utility.yul\":6757:6759   */\n      0x60\n        /* \"#utility.yul\":6746:6755   */\n      dup7\n        /* \"#utility.yul\":6742:6760   */\n      add\n        /* \"#utility.yul\":6729:6761   */\n      calldataload\n        /* \"#utility.yul\":6788:6806   */\n      0xffffffffffffffff\n        /* \"#utility.yul\":6780:6786   */\n      dup2\n        /* \"#utility.yul\":6777:6807   */\n      gt\n        /* \"#utility.yul\":6774:6891   */\n      iszero\n      tag_137\n      jumpi\n        /* \"#utility.yul\":6810:6889   */\n      tag_138\n      tag_34\n      jump\t// in\n    tag_138:\n        /* \"#utility.yul\":6774:6891   */\n    tag_137:\n        /* \"#utility.yul\":6915:6978   */\n      tag_139\n        /* \"#utility.yul\":6970:6977   */\n      dup9\n        /* \"#utility.yul\":6961:6967   */\n      dup3\n        /* \"#utility.yul\":6950:6959   */\n      dup10\n        /* \"#utility.yul\":6946:6968   */\n      add\n        /* \"#utility.yul\":6915:6978   */\n      tag_57\n      jump\t// in\n    tag_139:\n        /* \"#utility.yul\":6905:6978   */\n      swap3\n      pop\n        /* \"#utility.yul\":6700:6988   */\n      pop\n        /* \"#utility.yul\":7055:7058   */\n      0x80\n        /* \"#utility.yul\":7044:7053   */\n      dup7\n        /* \"#utility.yul\":7040:7059   */\n      add\n        /* \"#utility.yul\":7027:7060   */\n      calldataload\n        /* \"#utility.yul\":7087:7105   */\n      0xffffffffffffffff\n        /* \"#utility.yul\":7079:7085   */\n      dup2\n        /* \"#utility.yul\":7076:7106   */\n      gt\n        /* \"#utility.yul\":7073:7190   */\n      iszero\n      tag_140\n      jumpi\n        /* \"#utility.yul\":7109:7188   */\n      tag_141\n      tag_34\n      jump\t// in\n    tag_141:\n        /* \"#utility.yul\":7073:7190   */\n    tag_140:\n        /* \"#utility.yul\":7214:7277   */\n      tag_142\n        /* \"#utility.yul\":7269:7276   */\n      dup9\n        /* \"#utility.yul\":7260:7266   */\n      dup3\n        /* \"#utility.yul\":7249:7258   */\n      dup10\n        /* \"#utility.yul\":7245:7267   */\n      add\n        /* \"#utility.yul\":7214:7277   */\n      tag_57\n      jump\t// in\n    tag_142:\n        /* \"#utility.yul\":7204:7277   */\n      swap2\n      pop\n        /* \"#utility.yul\":6998:7287   */\n      pop\n        /* \"#utility.yul\":5843:7294   */\n      swap3\n      swap6\n      pop\n      swap3\n      swap6\n      swap1\n      swap4\n      pop\n      jump\t// out\n        /* \"#utility.yul\":7300:7418   */\n    tag_58:\n        /* \"#utility.yul\":7387:7411   */\n      tag_144\n        /* \"#utility.yul\":7405:7410   */\n      dup2\n        /* \"#utility.yul\":7387:7411   */\n      tag_35\n      jump\t// in\n    tag_144:\n        /* \"#utility.yul\":7382:7385   */\n      dup3\n        /* \"#utility.yul\":7375:7412   */\n      mstore\n        /* \"#utility.yul\":7300:7418   */\n      pop\n      pop\n      jump\t// out\n        /* \"#utility.yul\":7424:7523   */\n    tag_59:\n        /* \"#utility.yul\":7476:7482   */\n      0x00\n        /* \"#utility.yul\":7510:7515   */\n      dup2\n        /* \"#utility.yul\":7504:7516   */\n      mload\n        /* \"#utility.yul\":7494:7516   */\n      swap1\n      pop\n        /* \"#utility.yul\":7424:7523   */\n      swap2\n      swap1\n      pop\n      jump\t// out\n        /* \"#utility.yul\":7529:7698   */\n    tag_60:\n        /* \"#utility.yul\":7613:7624   */\n      0x00\n        /* \"#utility.yul\":7647:7653   */\n      dup3\n        /* \"#utility.yul\":7642:7645   */\n      dup3\n        /* \"#utility.yul\":7635:7654   */\n      mstore\n        /* \"#utility.yul\":7687:7691   */\n      0x20\n        /* \"#utility.yul\":7682:7685   */\n      dup3\n        /* \"#utility.yul\":7678:7692   */\n      add\n        /* \"#utility.yul\":7663:7692   */\n      swap1\n      pop\n        /* \"#utility.yul\":7529:7698   */\n      swap3\n      swap2\n      pop\n      pop\n      jump\t// out\n        /* \"#utility.yul\":7704:7950   */\n    tag_61:\n        /* \"#utility.yul\":7785:7786   */\n      0x00\n        /* \"#utility.yul\":7795:7908   */\n    tag_148:\n        /* \"#utility.yul\":7809:7815   */\n      dup4\n        /* \"#utility.yul\":7806:7807   */\n      dup2\n        /* \"#utility.yul\":7803:7816   */\n      lt\n        /* \"#utility.yul\":7795:7908   */\n      iszero\n      tag_150\n      jumpi\n        /* \"#utility.yul\":7894:7895   */\n      dup1\n        /* \"#utility.yul\":7889:7892   */\n      dup3\n        /* \"#utility.yul\":7885:7896   */\n      add\n        /* \"#utility.yul\":7879:7897   */\n      mload\n        /* \"#utility.yul\":7875:7876   */\n      dup2\n        /* \"#utility.yul\":7870:7873   */\n      dup5\n        /* \"#utility.yul\":7866:7877   */\n      add\n        /* \"#utility.yul\":7859:7898   */\n      mstore\n        /* \"#utility.yul\":7831:7833   */\n      0x20\n        /* \"#utility.yul\":7828:7829   */\n      dup2\n        /* \"#utility.yul\":7824:7834   */\n      add\n        /* \"#utility.yul\":7819:7834   */\n      swap1\n      pop\n        /* \"#utility.yul\":7795:7908   */\n      jump(tag_148)\n    tag_150:\n        /* \"#utility.yul\":7942:7943   */\n      0x00\n        /* \"#utility.yul\":7933:7939   */\n      dup5\n        /* \"#utility.yul\":7928:7931   */\n      dup5\n        /* \"#utility.yul\":7924:7940   */\n      add\n        /* \"#utility.yul\":7917:7944   */\n      mstore\n        /* \"#utility.yul\":7766:7950   */\n      pop\n        /* \"#utility.yul\":7704:7950   */\n      pop\n      pop\n      pop\n      jump\t// out\n        /* \"#utility.yul\":7956:8333   */\n    tag_62:\n        /* \"#utility.yul\":8044:8047   */\n      0x00\n        /* \"#utility.yul\":8072:8111   */\n      tag_152\n        /* \"#utility.yul\":8105:8110   */\n      dup3\n        /* \"#utility.yul\":8072:8111   */\n      tag_59\n      jump\t// in\n    tag_152:\n        /* \"#utility.yul\":8127:8198   */\n      tag_153\n        /* \"#utility.yul\":8191:8197   */\n      dup2\n        /* \"#utility.yul\":8186:8189   */\n      dup6\n        /* \"#utility.yul\":8127:8198   */\n      tag_60\n      jump\t// in\n    tag_153:\n        /* \"#utility.yul\":8120:8198   */\n      swap4\n      pop\n        /* \"#utility.yul\":8207:8272   */\n      tag_154\n        /* \"#utility.yul\":8265:8271   */\n      dup2\n        /* \"#utility.yul\":8260:8263   */\n      dup6\n        /* \"#utility.yul\":8253:8257   */\n      0x20\n        /* \"#utility.yul\":8246:8251   */\n      dup7\n        /* \"#utility.yul\":8242:8258   */\n      add\n        /* \"#utility.yul\":8207:8272   */\n      tag_61\n      jump\t// in\n    tag_154:\n        /* \"#utility.yul\":8297:8326   */\n      tag_155\n        /* \"#utility.yul\":8319:8325   */\n      dup2\n        /* \"#utility.yul\":8297:8326   */\n      tag_50\n      jump\t// in\n    tag_155:\n        /* \"#utility.yul\":8292:8295   */\n      dup5\n        /* \"#utility.yul\":8288:8327   */\n      add\n        /* \"#utility.yul\":8281:8327   */\n      swap2\n      pop\n        /* \"#utility.yul\":8048:8333   */\n      pop\n        /* \"#utility.yul\":7956:8333   */\n      swap3\n      swap2\n      pop\n      pop\n      jump\t// out\n        /* \"#utility.yul\":8339:9387   */\n    tag_29:\n        /* \"#utility.yul\":8632:8636   */\n      0x00\n        /* \"#utility.yul\":8670:8673   */\n      0xc0\n        /* \"#utility.yul\":8659:8668   */\n      dup3\n        /* \"#utility.yul\":8655:8674   */\n      add\n        /* \"#utility.yul\":8647:8674   */\n      swap1\n      pop\n        /* \"#utility.yul\":8684:8755   */\n      tag_157\n        /* \"#utility.yul\":8752:8753   */\n      0x00\n        /* \"#utility.yul\":8741:8750   */\n      dup4\n        /* \"#utility.yul\":8737:8754   */\n      add\n        /* \"#utility.yul\":8728:8734   */\n      dup10\n        /* \"#utility.yul\":8684:8755   */\n      tag_58\n      jump\t// in\n    tag_157:\n        /* \"#utility.yul\":8765:8837   */\n      tag_158\n        /* \"#utility.yul\":8833:8835   */\n      0x20\n        /* \"#utility.yul\":8822:8831   */\n      dup4\n        /* \"#utility.yul\":8818:8836   */\n      add\n        /* \"#utility.yul\":8809:8815   */\n      dup9\n        /* \"#utility.yul\":8765:8837   */\n      tag_58\n      jump\t// in\n    tag_158:\n        /* \"#utility.yul\":8884:8893   */\n      dup2\n        /* \"#utility.yul\":8878:8882   */\n      dup2\n        /* \"#utility.yul\":8874:8894   */\n      sub\n        /* \"#utility.yul\":8869:8871   */\n      0x40\n        /* \"#utility.yul\":8858:8867   */\n      dup4\n        /* \"#utility.yul\":8854:8872   */\n      add\n        /* \"#utility.yul\":8847:8895   */\n      mstore\n        /* \"#utility.yul\":8912:8990   */\n      tag_159\n        /* \"#utility.yul\":8985:8989   */\n      dup2\n        /* \"#utility.yul\":8976:8982   */\n      dup8\n        /* \"#utility.yul\":8912:8990   */\n      tag_62\n      jump\t// in\n    tag_159:\n        /* \"#utility.yul\":8904:8990   */\n      swap1\n      pop\n        /* \"#utility.yul\":9037:9046   */\n      dup2\n        /* \"#utility.yul\":9031:9035   */\n      dup2\n        /* \"#utility.yul\":9027:9047   */\n      sub\n        /* \"#utility.yul\":9022:9024   */\n      0x60\n        /* \"#utility.yul\":9011:9020   */\n      dup4\n        /* \"#utility.yul\":9007:9025   */\n      add\n        /* \"#utility.yul\":9000:9048   */\n      mstore\n        /* \"#utility.yul\":9065:9143   */\n      tag_160\n        /* \"#utility.yul\":9138:9142   */\n      dup2\n        /* \"#utility.yul\":9129:9135   */\n      dup7\n        /* \"#utility.yul\":9065:9143   */\n      tag_62\n      jump\t// in\n    tag_160:\n        /* \"#utility.yul\":9057:9143   */\n      swap1\n      pop\n        /* \"#utility.yul\":9191:9200   */\n      dup2\n        /* \"#utility.yul\":9185:9189   */\n      dup2\n        /* \"#utility.yul\":9181:9201   */\n      sub\n        /* \"#utility.yul\":9175:9178   */\n      0x80\n        /* \"#utility.yul\":9164:9173   */\n      dup4\n        /* \"#utility.yul\":9160:9179   */\n      add\n        /* \"#utility.yul\":9153:9202   */\n      mstore\n        /* \"#utility.yul\":9219:9297   */\n      tag_161\n        /* \"#utility.yul\":9292:9296   */\n      dup2\n        /* \"#utility.yul\":9283:9289   */\n      dup6\n        /* \"#utility.yul\":9219:9297   */\n      tag_62\n      jump\t// in\n    tag_161:\n        /* \"#utility.yul\":9211:9297   */\n      swap1\n      pop\n        /* \"#utility.yul\":9307:9380   */\n      tag_162\n        /* \"#utility.yul\":9375:9378   */\n      0xa0\n        /* \"#utility.yul\":9364:9373   */\n      dup4\n        /* \"#utility.yul\":9360:9379   */\n      add\n        /* \"#utility.yul\":9351:9357   */\n      dup5\n        /* \"#utility.yul\":9307:9380   */\n      tag_40\n      jump\t// in\n    tag_162:\n        /* \"#utility.yul\":8339:9387   */\n      swap8\n      swap7\n      pop\n      pop\n      pop\n      pop\n      pop\n      pop\n      pop\n      jump\t// out\n    stop\n\n    sub_0: assembly {\n            /* \"Campaign.sol\":764:5796  contract Campaign {... */\n          mstore(0x40, 0x80)\n            /* \"Campaign.sol\":1370:1371  0 */\n          0x00\n            /* \"Campaign.sol\":1340:1371  uint public amountCollected = 0 */\n          0x0a\n          sstore\n            /* \"Campaign.sol\":1405:1406  0 */\n          0x00\n            /* \"Campaign.sol\":1377:1406  uint private sigmaXSquare = 0 */\n          0x0b\n          sstore\n            /* \"Campaign.sol\":1413:1823  constructor(... */\n          callvalue\n          dup1\n          iszero\n          tag_1\n          jumpi\n          0x00\n          dup1\n          revert\n        tag_1:\n          pop\n          mload(0x40)\n          sub(codesize, bytecodeSize)\n          dup1\n          bytecodeSize\n          dup4\n          codecopy\n          dup2\n          dup2\n          add\n          0x40\n          mstore\n          dup2\n          add\n          swap1\n          tag_2\n          swap2\n          swap1\n          tag_3\n          jump\t// in\n        tag_2:\n            /* \"Campaign.sol\":1631:1638  minimum */\n          dup6\n            /* \"Campaign.sol\":1613:1628  minContribution */\n          0x07\n            /* \"Campaign.sol\":1613:1638  minContribution = minimum */\n          dup2\n          swap1\n          sstore\n          pop\n            /* \"Campaign.sol\":1658:1665  creator */\n          dup1\n            /* \"Campaign.sol\":1648:1655  manager */\n          0x02\n          0x00\n            /* \"Campaign.sol\":1648:1665  manager = creator */\n          0x0100\n          exp\n          dup2\n          sload\n          dup2\n          0xffffffffffffffffffffffffffffffffffffffff\n          mul\n          not\n          and\n          swap1\n          dup4\n          0xffffffffffffffffffffffffffffffffffffffff\n          and\n          mul\n          or\n          swap1\n          sstore\n          pop\n            /* \"Campaign.sol\":1690:1694  name */\n          dup4\n            /* \"Campaign.sol\":1675:1687  campaignName */\n          0x03\n            /* \"Campaign.sol\":1675:1694  campaignName = name */\n          swap1\n          dup2\n          tag_6\n          swap2\n          swap1\n          tag_7\n          jump\t// in\n        tag_6:\n          pop\n            /* \"Campaign.sol\":1726:1737  description */\n          dup3\n            /* \"Campaign.sol\":1704:1723  campaignDescription */\n          0x04\n            /* \"Campaign.sol\":1704:1737  campaignDescription = description */\n          swap1\n          dup2\n          tag_8\n          swap2\n          swap1\n          tag_7\n          jump\t// in\n        tag_8:\n          pop\n            /* \"Campaign.sol\":1766:1774  imageURL */\n          dup2\n            /* \"Campaign.sol\":1747:1763  campaignImageURL */\n          0x05\n            /* \"Campaign.sol\":1747:1774  campaignImageURL = imageURL */\n          swap1\n          dup2\n          tag_9\n          swap2\n          swap1\n          tag_7\n          jump\t// in\n        tag_9:\n          pop\n            /* \"Campaign.sol\":1801:1816  targetToAchieve */\n          dup5\n            /* \"Campaign.sol\":1784:1798  campaignTarget */\n          0x06\n            /* \"Campaign.sol\":1784:1816  campaignTarget = targetToAchieve */\n          dup2\n          swap1\n          sstore\n          pop\n            /* \"Campaign.sol\":1413:1823  constructor(... */\n          pop\n          pop\n          pop\n          pop\n          pop\n          pop\n            /* \"Campaign.sol\":764:5796  contract Campaign {... */\n          jump(tag_10)\n            /* \"#utility.yul\":7:82   */\n        tag_11:\n            /* \"#utility.yul\":40:46   */\n          0x00\n            /* \"#utility.yul\":73:75   */\n          0x40\n            /* \"#utility.yul\":67:76   */\n          mload\n            /* \"#utility.yul\":57:76   */\n          swap1\n          pop\n            /* \"#utility.yul\":7:82   */\n          swap1\n          jump\t// out\n            /* \"#utility.yul\":88:205   */\n        tag_12:\n            /* \"#utility.yul\":197:198   */\n          0x00\n            /* \"#utility.yul\":194:195   */\n          dup1\n            /* \"#utility.yul\":187:199   */\n          revert\n            /* \"#utility.yul\":211:328   */\n        tag_13:\n            /* \"#utility.yul\":320:321   */\n          0x00\n            /* \"#utility.yul\":317:318   */\n          dup1\n            /* \"#utility.yul\":310:322   */\n          revert\n            /* \"#utility.yul\":334:411   */\n        tag_14:\n            /* \"#utility.yul\":371:378   */\n          0x00\n            /* \"#utility.yul\":400:405   */\n          dup2\n            /* \"#utility.yul\":389:405   */\n          swap1\n          pop\n            /* \"#utility.yul\":334:411   */\n          swap2\n          swap1\n          pop\n          jump\t// out\n            /* \"#utility.yul\":417:539   */\n        tag_15:\n            /* \"#utility.yul\":490:514   */\n          tag_55\n            /* \"#utility.yul\":508:513   */\n          dup2\n            /* \"#utility.yul\":490:514   */\n          tag_14\n          jump\t// in\n        tag_55:\n            /* \"#utility.yul\":483:488   */\n          dup2\n            /* \"#utility.yul\":480:515   */\n          eq\n            /* \"#utility.yul\":470:533   */\n          tag_56\n          jumpi\n            /* \"#utility.yul\":529:530   */\n          0x00\n            /* \"#utility.yul\":526:527   */\n          dup1\n            /* \"#utility.yul\":519:531   */\n          revert\n            /* \"#utility.yul\":470:533   */\n        tag_56:\n            /* \"#utility.yul\":417:539   */\n          pop\n          jump\t// out\n            /* \"#utility.yul\":545:688   */\n        tag_16:\n            /* \"#utility.yul\":602:607   */\n          0x00\n            /* \"#utility.yul\":633:639   */\n          dup2\n            /* \"#utility.yul\":627:640   */\n          mload\n            /* \"#utility.yul\":618:640   */\n          swap1\n          pop\n            /* \"#utility.yul\":649:682   */\n          tag_58\n            /* \"#utility.yul\":676:681   */\n          dup2\n            /* \"#utility.yul\":649:682   */\n          tag_15\n          jump\t// in\n        tag_58:\n            /* \"#utility.yul\":545:688   */\n          swap3\n          swap2\n          pop\n          pop\n          jump\t// out\n            /* \"#utility.yul\":694:811   */\n        tag_17:\n            /* \"#utility.yul\":803:804   */\n          0x00\n            /* \"#utility.yul\":800:801   */\n          dup1\n            /* \"#utility.yul\":793:805   */\n          revert\n            /* \"#utility.yul\":817:934   */\n        tag_18:\n            /* \"#utility.yul\":926:927   */\n          0x00\n            /* \"#utility.yul\":923:924   */\n          dup1\n            /* \"#utility.yul\":916:928   */\n          revert\n            /* \"#utility.yul\":940:1042   */\n        tag_19:\n            /* \"#utility.yul\":981:987   */\n          0x00\n            /* \"#utility.yul\":1032:1034   */\n          0x1f\n            /* \"#utility.yul\":1028:1035   */\n          not\n            /* \"#utility.yul\":1023:1025   */\n          0x1f\n            /* \"#utility.yul\":1016:1021   */\n          dup4\n            /* \"#utility.yul\":1012:1026   */\n          add\n            /* \"#utility.yul\":1008:1036   */\n          and\n            /* \"#utility.yul\":998:1036   */\n          swap1\n          pop\n            /* \"#utility.yul\":940:1042   */\n          swap2\n          swap1\n          pop\n          jump\t// out\n            /* \"#utility.yul\":1048:1228   */\n        tag_20:\n            /* \"#utility.yul\":1096:1173   */\n          0x4e487b7100000000000000000000000000000000000000000000000000000000\n            /* \"#utility.yul\":1093:1094   */\n          0x00\n            /* \"#utility.yul\":1086:1174   */\n          mstore\n            /* \"#utility.yul\":1193:1197   */\n          0x41\n            /* \"#utility.yul\":1190:1191   */\n          0x04\n            /* \"#utility.yul\":1183:1198   */\n          mstore\n            /* \"#utility.yul\":1217:1221   */\n          0x24\n            /* \"#utility.yul\":1214:1215   */\n          0x00\n            /* \"#utility.yul\":1207:1222   */\n          revert\n            /* \"#utility.yul\":1234:1515   */\n        tag_21:\n            /* \"#utility.yul\":1317:1344   */\n          tag_64\n            /* \"#utility.yul\":1339:1343   */\n          dup3\n            /* \"#utility.yul\":1317:1344   */\n          tag_19\n          jump\t// in\n        tag_64:\n            /* \"#utility.yul\":1309:1315   */\n          dup2\n            /* \"#utility.yul\":1305:1345   */\n          add\n            /* \"#utility.yul\":1447:1453   */\n          dup2\n            /* \"#utility.yul\":1435:1445   */\n          dup2\n            /* \"#utility.yul\":1432:1454   */\n          lt\n            /* \"#utility.yul\":1411:1429   */\n          0xffffffffffffffff\n            /* \"#utility.yul\":1399:1409   */\n          dup3\n            /* \"#utility.yul\":1396:1430   */\n          gt\n            /* \"#utility.yul\":1393:1455   */\n          or\n            /* \"#utility.yul\":1390:1478   */\n          iszero\n          tag_65\n          jumpi\n            /* \"#utility.yul\":1458:1476   */\n          tag_66\n          tag_20\n          jump\t// in\n        tag_66:\n            /* \"#utility.yul\":1390:1478   */\n        tag_65:\n            /* \"#utility.yul\":1498:1508   */\n          dup1\n            /* \"#utility.yul\":1494:1496   */\n          0x40\n            /* \"#utility.yul\":1487:1509   */\n          mstore\n            /* \"#utility.yul\":1277:1515   */\n          pop\n            /* \"#utility.yul\":1234:1515   */\n          pop\n          pop\n          jump\t// out\n            /* \"#utility.yul\":1521:1650   */\n        tag_22:\n            /* \"#utility.yul\":1555:1561   */\n          0x00\n            /* \"#utility.yul\":1582:1602   */\n          tag_68\n          tag_11\n          jump\t// in\n        tag_68:\n            /* \"#utility.yul\":1572:1602   */\n          swap1\n          pop\n            /* \"#utility.yul\":1611:1644   */\n          tag_69\n            /* \"#utility.yul\":1639:1643   */\n          dup3\n            /* \"#utility.yul\":1631:1637   */\n          dup3\n            /* \"#utility.yul\":1611:1644   */\n          tag_21\n          jump\t// in\n        tag_69:\n            /* \"#utility.yul\":1521:1650   */\n          swap2\n          swap1\n          pop\n          jump\t// out\n            /* \"#utility.yul\":1656:1964   */\n        tag_23:\n            /* \"#utility.yul\":1718:1722   */\n          0x00\n            /* \"#utility.yul\":1808:1826   */\n          0xffffffffffffffff\n            /* \"#utility.yul\":1800:1806   */\n          dup3\n            /* \"#utility.yul\":1797:1827   */\n          gt\n            /* \"#utility.yul\":1794:1850   */\n          iszero\n          tag_71\n          jumpi\n            /* \"#utility.yul\":1830:1848   */\n          tag_72\n          tag_20\n          jump\t// in\n        tag_72:\n            /* \"#utility.yul\":1794:1850   */\n        tag_71:\n            /* \"#utility.yul\":1868:1897   */\n          tag_73\n            /* \"#utility.yul\":1890:1896   */\n          dup3\n            /* \"#utility.yul\":1868:1897   */\n          tag_19\n          jump\t// in\n        tag_73:\n            /* \"#utility.yul\":1860:1897   */\n          swap1\n          pop\n            /* \"#utility.yul\":1952:1956   */\n          0x20\n            /* \"#utility.yul\":1946:1950   */\n          dup2\n            /* \"#utility.yul\":1942:1957   */\n          add\n            /* \"#utility.yul\":1934:1957   */\n          swap1\n          pop\n            /* \"#utility.yul\":1656:1964   */\n          swap2\n          swap1\n          pop\n          jump\t// out\n            /* \"#utility.yul\":1970:2216   */\n        tag_24:\n            /* \"#utility.yul\":2051:2052   */\n          0x00\n            /* \"#utility.yul\":2061:2174   */\n        tag_75:\n            /* \"#utility.yul\":2075:2081   */\n          dup4\n            /* \"#utility.yul\":2072:2073   */\n          dup2\n            /* \"#utility.yul\":2069:2082   */\n          lt\n            /* \"#utility.yul\":2061:2174   */\n          iszero\n          tag_77\n          jumpi\n            /* \"#utility.yul\":2160:2161   */\n          dup1\n            /* \"#utility.yul\":2155:2158   */\n          dup3\n            /* \"#utility.yul\":2151:2162   */\n          add\n            /* \"#utility.yul\":2145:2163   */\n          mload\n            /* \"#utility.yul\":2141:2142   */\n          dup2\n            /* \"#utility.yul\":2136:2139   */\n          dup5\n            /* \"#utility.yul\":2132:2143   */\n          add\n            /* \"#utility.yul\":2125:2164   */\n          mstore\n            /* \"#utility.yul\":2097:2099   */\n          0x20\n            /* \"#utility.yul\":2094:2095   */\n          dup2\n            /* \"#utility.yul\":2090:2100   */\n          add\n            /* \"#utility.yul\":2085:2100   */\n          swap1\n          pop\n            /* \"#utility.yul\":2061:2174   */\n          jump(tag_75)\n        tag_77:\n            /* \"#utility.yul\":2208:2209   */\n          0x00\n            /* \"#utility.yul\":2199:2205   */\n          dup5\n            /* \"#utility.yul\":2194:2197   */\n          dup5\n            /* \"#utility.yul\":2190:2206   */\n          add\n            /* \"#utility.yul\":2183:2210   */\n          mstore\n            /* \"#utility.yul\":2032:2216   */\n          pop\n            /* \"#utility.yul\":1970:2216   */\n          pop\n          pop\n          pop\n          jump\t// out\n            /* \"#utility.yul\":2222:2656   */\n        tag_25:\n            /* \"#utility.yul\":2311:2316   */\n          0x00\n            /* \"#utility.yul\":2336:2402   */\n          tag_79\n            /* \"#utility.yul\":2352:2401   */\n          tag_80\n            /* \"#utility.yul\":2394:2400   */\n          dup5\n            /* \"#utility.yul\":2352:2401   */\n          tag_23\n          jump\t// in\n        tag_80:\n            /* \"#utility.yul\":2336:2402   */\n          tag_22\n          jump\t// in\n        tag_79:\n            /* \"#utility.yul\":2327:2402   */\n          swap1\n          pop\n            /* \"#utility.yul\":2425:2431   */\n          dup3\n            /* \"#utility.yul\":2418:2423   */\n          dup2\n            /* \"#utility.yul\":2411:2432   */\n          mstore\n            /* \"#utility.yul\":2463:2467   */\n          0x20\n            /* \"#utility.yul\":2456:2461   */\n          dup2\n            /* \"#utility.yul\":2452:2468   */\n          add\n            /* \"#utility.yul\":2501:2504   */\n          dup5\n            /* \"#utility.yul\":2492:2498   */\n          dup5\n            /* \"#utility.yul\":2487:2490   */\n          dup5\n            /* \"#utility.yul\":2483:2499   */\n          add\n            /* \"#utility.yul\":2480:2505   */\n          gt\n            /* \"#utility.yul\":2477:2589   */\n          iszero\n          tag_81\n          jumpi\n            /* \"#utility.yul\":2508:2587   */\n          tag_82\n          tag_18\n          jump\t// in\n        tag_82:\n            /* \"#utility.yul\":2477:2589   */\n        tag_81:\n            /* \"#utility.yul\":2598:2650   */\n          tag_83\n            /* \"#utility.yul\":2643:2649   */\n          dup5\n            /* \"#utility.yul\":2638:2641   */\n          dup3\n            /* \"#utility.yul\":2633:2636   */\n          dup6\n            /* \"#utility.yul\":2598:2650   */\n          tag_24\n          jump\t// in\n        tag_83:\n            /* \"#utility.yul\":2317:2656   */\n          pop\n            /* \"#utility.yul\":2222:2656   */\n          swap4\n          swap3\n          pop\n          pop\n          pop\n          jump\t// out\n            /* \"#utility.yul\":2676:3031   */\n        tag_26:\n            /* \"#utility.yul\":2743:2748   */\n          0x00\n            /* \"#utility.yul\":2792:2795   */\n          dup3\n            /* \"#utility.yul\":2785:2789   */\n          0x1f\n            /* \"#utility.yul\":2777:2783   */\n          dup4\n            /* \"#utility.yul\":2773:2790   */\n          add\n            /* \"#utility.yul\":2769:2796   */\n          slt\n            /* \"#utility.yul\":2759:2881   */\n          tag_85\n          jumpi\n            /* \"#utility.yul\":2800:2879   */\n          tag_86\n          tag_17\n          jump\t// in\n        tag_86:\n            /* \"#utility.yul\":2759:2881   */\n        tag_85:\n            /* \"#utility.yul\":2910:2916   */\n          dup2\n            /* \"#utility.yul\":2904:2917   */\n          mload\n            /* \"#utility.yul\":2935:3025   */\n          tag_87\n            /* \"#utility.yul\":3021:3024   */\n          dup5\n            /* \"#utility.yul\":3013:3019   */\n          dup3\n            /* \"#utility.yul\":3006:3010   */\n          0x20\n            /* \"#utility.yul\":2998:3004   */\n          dup7\n            /* \"#utility.yul\":2994:3011   */\n          add\n            /* \"#utility.yul\":2935:3025   */\n          tag_25\n          jump\t// in\n        tag_87:\n            /* \"#utility.yul\":2926:3025   */\n          swap2\n          pop\n            /* \"#utility.yul\":2749:3031   */\n          pop\n            /* \"#utility.yul\":2676:3031   */\n          swap3\n          swap2\n          pop\n          pop\n          jump\t// out\n            /* \"#utility.yul\":3037:3163   */\n        tag_27:\n            /* \"#utility.yul\":3074:3081   */\n          0x00\n            /* \"#utility.yul\":3114:3156   */\n          0xffffffffffffffffffffffffffffffffffffffff\n            /* \"#utility.yul\":3107:3112   */\n          dup3\n            /* \"#utility.yul\":3103:3157   */\n          and\n            /* \"#utility.yul\":3092:3157   */\n          swap1\n          pop\n            /* \"#utility.yul\":3037:3163   */\n          swap2\n          swap1\n          pop\n          jump\t// out\n            /* \"#utility.yul\":3169:3265   */\n        tag_28:\n            /* \"#utility.yul\":3206:3213   */\n          0x00\n            /* \"#utility.yul\":3235:3259   */\n          tag_90\n            /* \"#utility.yul\":3253:3258   */\n          dup3\n            /* \"#utility.yul\":3235:3259   */\n          tag_27\n          jump\t// in\n        tag_90:\n            /* \"#utility.yul\":3224:3259   */\n          swap1\n          pop\n            /* \"#utility.yul\":3169:3265   */\n          swap2\n          swap1\n          pop\n          jump\t// out\n            /* \"#utility.yul\":3271:3393   */\n        tag_29:\n            /* \"#utility.yul\":3344:3368   */\n          tag_92\n            /* \"#utility.yul\":3362:3367   */\n          dup2\n            /* \"#utility.yul\":3344:3368   */\n          tag_28\n          jump\t// in\n        tag_92:\n            /* \"#utility.yul\":3337:3342   */\n          dup2\n            /* \"#utility.yul\":3334:3369   */\n          eq\n            /* \"#utility.yul\":3324:3387   */\n          tag_93\n          jumpi\n            /* \"#utility.yul\":3383:3384   */\n          0x00\n            /* \"#utility.yul\":3380:3381   */\n          dup1\n            /* \"#utility.yul\":3373:3385   */\n          revert\n            /* \"#utility.yul\":3324:3387   */\n        tag_93:\n            /* \"#utility.yul\":3271:3393   */\n          pop\n          jump\t// out\n            /* \"#utility.yul\":3399:3542   */\n        tag_30:\n            /* \"#utility.yul\":3456:3461   */\n          0x00\n            /* \"#utility.yul\":3487:3493   */\n          dup2\n            /* \"#utility.yul\":3481:3494   */\n          mload\n            /* \"#utility.yul\":3472:3494   */\n          swap1\n          pop\n            /* \"#utility.yul\":3503:3536   */\n          tag_95\n            /* \"#utility.yul\":3530:3535   */\n          dup2\n            /* \"#utility.yul\":3503:3536   */\n          tag_29\n          jump\t// in\n        tag_95:\n            /* \"#utility.yul\":3399:3542   */\n          swap3\n          swap2\n          pop\n          pop\n          jump\t// out\n            /* \"#utility.yul\":3548:5201   */\n        tag_3:\n            /* \"#utility.yul\":3693:3699   */\n          0x00\n            /* \"#utility.yul\":3701:3707   */\n          dup1\n            /* \"#utility.yul\":3709:3715   */\n          0x00\n            /* \"#utility.yul\":3717:3723   */\n          dup1\n            /* \"#utility.yul\":3725:3731   */\n          0x00\n            /* \"#utility.yul\":3733:3739   */\n          dup1\n            /* \"#utility.yul\":3782:3785   */\n          0xc0\n            /* \"#utility.yul\":3770:3779   */\n          dup8\n            /* \"#utility.yul\":3761:3768   */\n          dup10\n            /* \"#utility.yul\":3757:3780   */\n          sub\n            /* \"#utility.yul\":3753:3786   */\n          slt\n            /* \"#utility.yul\":3750:3870   */\n          iszero\n          tag_97\n          jumpi\n            /* \"#utility.yul\":3789:3868   */\n          tag_98\n          tag_12\n          jump\t// in\n        tag_98:\n            /* \"#utility.yul\":3750:3870   */\n        tag_97:\n            /* \"#utility.yul\":3909:3910   */\n          0x00\n            /* \"#utility.yul\":3934:3998   */\n          tag_99\n            /* \"#utility.yul\":3990:3997   */\n          dup10\n            /* \"#utility.yul\":3981:3987   */\n          dup3\n            /* \"#utility.yul\":3970:3979   */\n          dup11\n            /* \"#utility.yul\":3966:3988   */\n          add\n            /* \"#utility.yul\":3934:3998   */\n          tag_16\n          jump\t// in\n        tag_99:\n            /* \"#utility.yul\":3924:3998   */\n          swap7\n          pop\n            /* \"#utility.yul\":3880:4008   */\n          pop\n            /* \"#utility.yul\":4047:4049   */\n          0x20\n            /* \"#utility.yul\":4073:4137   */\n          tag_100\n            /* \"#utility.yul\":4129:4136   */\n          dup10\n            /* \"#utility.yul\":4120:4126   */\n          dup3\n            /* \"#utility.yul\":4109:4118   */\n          dup11\n            /* \"#utility.yul\":4105:4127   */\n          add\n            /* \"#utility.yul\":4073:4137   */\n          tag_16\n          jump\t// in\n        tag_100:\n            /* \"#utility.yul\":4063:4137   */\n          swap6\n          pop\n            /* \"#utility.yul\":4018:4147   */\n          pop\n            /* \"#utility.yul\":4207:4209   */\n          0x40\n            /* \"#utility.yul\":4196:4205   */\n          dup8\n            /* \"#utility.yul\":4192:4210   */\n          add\n            /* \"#utility.yul\":4186:4211   */\n          mload\n            /* \"#utility.yul\":4238:4256   */\n          0xffffffffffffffff\n            /* \"#utility.yul\":4230:4236   */\n          dup2\n            /* \"#utility.yul\":4227:4257   */\n          gt\n            /* \"#utility.yul\":4224:4341   */\n          iszero\n          tag_101\n          jumpi\n            /* \"#utility.yul\":4260:4339   */\n          tag_102\n          tag_13\n          jump\t// in\n        tag_102:\n            /* \"#utility.yul\":4224:4341   */\n        tag_101:\n            /* \"#utility.yul\":4365:4439   */\n          tag_103\n            /* \"#utility.yul\":4431:4438   */\n          dup10\n            /* \"#utility.yul\":4422:4428   */\n          dup3\n            /* \"#utility.yul\":4411:4420   */\n          dup11\n            /* \"#utility.yul\":4407:4429   */\n          add\n            /* \"#utility.yul\":4365:4439   */\n          tag_26\n          jump\t// in\n        tag_103:\n            /* \"#utility.yul\":4355:4439   */\n          swap5\n          pop\n            /* \"#utility.yul\":4157:4449   */\n          pop\n            /* \"#utility.yul\":4509:4511   */\n          0x60\n            /* \"#utility.yul\":4498:4507   */\n          dup8\n            /* \"#utility.yul\":4494:4512   */\n          add\n            /* \"#utility.yul\":4488:4513   */\n          mload\n            /* \"#utility.yul\":4540:4558   */\n          0xffffffffffffffff\n            /* \"#utility.yul\":4532:4538   */\n          dup2\n            /* \"#utility.yul\":4529:4559   */\n          gt\n            /* \"#utility.yul\":4526:4643   */\n          iszero\n          tag_104\n          jumpi\n            /* \"#utility.yul\":4562:4641   */\n          tag_105\n          tag_13\n          jump\t// in\n        tag_105:\n            /* \"#utility.yul\":4526:4643   */\n        tag_104:\n            /* \"#utility.yul\":4667:4741   */\n          tag_106\n            /* \"#utility.yul\":4733:4740   */\n          dup10\n            /* \"#utility.yul\":4724:4730   */\n          dup3\n            /* \"#utility.yul\":4713:4722   */\n          dup11\n            /* \"#utility.yul\":4709:4731   */\n          add\n            /* \"#utility.yul\":4667:4741   */\n          tag_26\n          jump\t// in\n        tag_106:\n            /* \"#utility.yul\":4657:4741   */\n          swap4\n          pop\n            /* \"#utility.yul\":4459:4751   */\n          pop\n            /* \"#utility.yul\":4811:4814   */\n          0x80\n            /* \"#utility.yul\":4800:4809   */\n          dup8\n            /* \"#utility.yul\":4796:4815   */\n          add\n            /* \"#utility.yul\":4790:4816   */\n          mload\n            /* \"#utility.yul\":4843:4861   */\n          0xffffffffffffffff\n            /* \"#utility.yul\":4835:4841   */\n          dup2\n            /* \"#utility.yul\":4832:4862   */\n          gt\n            /* \"#utility.yul\":4829:4946   */\n          iszero\n          tag_107\n          jumpi\n            /* \"#utility.yul\":4865:4944   */\n          tag_108\n          tag_13\n          jump\t// in\n        tag_108:\n            /* \"#utility.yul\":4829:4946   */\n        tag_107:\n            /* \"#utility.yul\":4970:5044   */\n          tag_109\n            /* \"#utility.yul\":5036:5043   */\n          dup10\n            /* \"#utility.yul\":5027:5033   */\n          dup3\n            /* \"#utility.yul\":5016:5025   */\n          dup11\n            /* \"#utility.yul\":5012:5034   */\n          add\n            /* \"#utility.yul\":4970:5044   */\n          tag_26\n          jump\t// in\n        tag_109:\n            /* \"#utility.yul\":4960:5044   */\n          swap3\n          pop\n            /* \"#utility.yul\":4761:5054   */\n          pop\n            /* \"#utility.yul\":5093:5096   */\n          0xa0\n            /* \"#utility.yul\":5120:5184   */\n          tag_110\n            /* \"#utility.yul\":5176:5183   */\n          dup10\n            /* \"#utility.yul\":5167:5173   */\n          dup3\n            /* \"#utility.yul\":5156:5165   */\n          dup11\n            /* \"#utility.yul\":5152:5174   */\n          add\n            /* \"#utility.yul\":5120:5184   */\n          tag_30\n          jump\t// in\n        tag_110:\n            /* \"#utility.yul\":5110:5184   */\n          swap2\n          pop\n            /* \"#utility.yul\":5064:5194   */\n          pop\n            /* \"#utility.yul\":3548:5201   */\n          swap3\n          swap6\n          pop\n          swap3\n          swap6\n          pop\n          swap3\n          swap6\n          jump\t// out\n            /* \"#utility.yul\":5207:5306   */\n        tag_31:\n            /* \"#utility.yul\":5259:5265   */\n          0x00\n            /* \"#utility.yul\":5293:5298   */\n          dup2\n            /* \"#utility.yul\":5287:5299   */\n          mload\n            /* \"#utility.yul\":5277:5299   */\n          swap1\n          pop\n            /* \"#utility.yul\":5207:5306   */\n          swap2\n          swap1\n          pop\n          jump\t// out\n            /* \"#utility.yul\":5312:5492   */\n        tag_32:\n            /* \"#utility.yul\":5360:5437   */\n          0x4e487b7100000000000000000000000000000000000000000000000000000000\n            /* \"#utility.yul\":5357:5358   */\n          0x00\n            /* \"#utility.yul\":5350:5438   */\n          mstore\n            /* \"#utility.yul\":5457:5461   */\n          0x22\n            /* \"#utility.yul\":5454:5455   */\n          0x04\n            /* \"#utility.yul\":5447:5462   */\n          mstore\n            /* \"#utility.yul\":5481:5485   */\n          0x24\n            /* \"#utility.yul\":5478:5479   */\n          0x00\n            /* \"#utility.yul\":5471:5486   */\n          revert\n            /* \"#utility.yul\":5498:5818   */\n        tag_33:\n            /* \"#utility.yul\":5542:5548   */\n          0x00\n            /* \"#utility.yul\":5579:5580   */\n          0x02\n            /* \"#utility.yul\":5573:5577   */\n          dup3\n            /* \"#utility.yul\":5569:5581   */\n          div\n            /* \"#utility.yul\":5559:5581   */\n          swap1\n          pop\n            /* \"#utility.yul\":5626:5627   */\n          0x01\n            /* \"#utility.yul\":5620:5624   */\n          dup3\n            /* \"#utility.yul\":5616:5628   */\n          and\n            /* \"#utility.yul\":5647:5665   */\n          dup1\n            /* \"#utility.yul\":5637:5718   */\n          tag_114\n          jumpi\n            /* \"#utility.yul\":5703:5707   */\n          0x7f\n            /* \"#utility.yul\":5695:5701   */\n          dup3\n            /* \"#utility.yul\":5691:5708   */\n          and\n            /* \"#utility.yul\":5681:5708   */\n          swap2\n          pop\n            /* \"#utility.yul\":5637:5718   */\n        tag_114:\n            /* \"#utility.yul\":5765:5767   */\n          0x20\n            /* \"#utility.yul\":5757:5763   */\n          dup3\n            /* \"#utility.yul\":5754:5768   */\n          lt\n            /* \"#utility.yul\":5734:5752   */\n          dup2\n            /* \"#utility.yul\":5731:5769   */\n          sub\n            /* \"#utility.yul\":5728:5812   */\n          tag_115\n          jumpi\n            /* \"#utility.yul\":5784:5802   */\n          tag_116\n          tag_32\n          jump\t// in\n        tag_116:\n            /* \"#utility.yul\":5728:5812   */\n        tag_115:\n            /* \"#utility.yul\":5549:5818   */\n          pop\n            /* \"#utility.yul\":5498:5818   */\n          swap2\n          swap1\n          pop\n          jump\t// out\n            /* \"#utility.yul\":5824:5965   */\n        tag_34:\n            /* \"#utility.yul\":5873:5877   */\n          0x00\n            /* \"#utility.yul\":5896:5899   */\n          dup2\n            /* \"#utility.yul\":5888:5899   */\n          swap1\n          pop\n            /* \"#utility.yul\":5919:5922   */\n          dup2\n            /* \"#utility.yul\":5916:5917   */\n          0x00\n            /* \"#utility.yul\":5909:5923   */\n          mstore\n            /* \"#utility.yul\":5953:5957   */\n          0x20\n            /* \"#utility.yul\":5950:5951   */\n          0x00\n            /* \"#utility.yul\":5940:5958   */\n          keccak256\n            /* \"#utility.yul\":5932:5958   */\n          swap1\n          pop\n            /* \"#utility.yul\":5824:5965   */\n          swap2\n          swap1\n          pop\n          jump\t// out\n            /* \"#utility.yul\":5971:6064   */\n        tag_35:\n            /* \"#utility.yul\":6008:6014   */\n          0x00\n            /* \"#utility.yul\":6055:6057   */\n          0x20\n            /* \"#utility.yul\":6050:6052   */\n          0x1f\n            /* \"#utility.yul\":6043:6048   */\n          dup4\n            /* \"#utility.yul\":6039:6053   */\n          add\n            /* \"#utility.yul\":6035:6058   */\n          div\n            /* \"#utility.yul\":6025:6058   */\n          swap1\n          pop\n            /* \"#utility.yul\":5971:6064   */\n          swap2\n          swap1\n          pop\n          jump\t// out\n            /* \"#utility.yul\":6070:6177   */\n        tag_36:\n            /* \"#utility.yul\":6114:6122   */\n          0x00\n            /* \"#utility.yul\":6164:6169   */\n          dup3\n            /* \"#utility.yul\":6158:6162   */\n          dup3\n            /* \"#utility.yul\":6154:6170   */\n          shl\n            /* \"#utility.yul\":6133:6170   */\n          swap1\n          pop\n            /* \"#utility.yul\":6070:6177   */\n          swap3\n          swap2\n          pop\n          pop\n          jump\t// out\n            /* \"#utility.yul\":6183:6576   */\n        tag_37:\n            /* \"#utility.yul\":6252:6258   */\n          0x00\n            /* \"#utility.yul\":6302:6303   */\n          0x08\n            /* \"#utility.yul\":6290:6300   */\n          dup4\n            /* \"#utility.yul\":6286:6304   */\n          mul\n            /* \"#utility.yul\":6325:6422   */\n          tag_121\n            /* \"#utility.yul\":6355:6421   */\n          0xffffffffffffffffffffffffffffffffffffffffffffffffffffffffffffffff\n            /* \"#utility.yul\":6344:6353   */\n          dup3\n            /* \"#utility.yul\":6325:6422   */\n          tag_36\n          jump\t// in\n        tag_121:\n            /* \"#utility.yul\":6443:6482   */\n          tag_122\n            /* \"#utility.yul\":6473:6481   */\n          dup7\n            /* \"#utility.yul\":6462:6471   */\n          dup4\n            /* \"#utility.yul\":6443:6482   */\n          tag_36\n          jump\t// in\n        tag_122:\n            /* \"#utility.yul\":6431:6482   */\n          swap6\n          pop\n            /* \"#utility.yul\":6515:6519   */\n          dup1\n            /* \"#utility.yul\":6511:6520   */\n          not\n            /* \"#utility.yul\":6504:6509   */\n          dup5\n            /* \"#utility.yul\":6500:6521   */\n          and\n            /* \"#utility.yul\":6491:6521   */\n          swap4\n          pop\n            /* \"#utility.yul\":6564:6568   */\n          dup1\n            /* \"#utility.yul\":6554:6562   */\n          dup7\n            /* \"#utility.yul\":6550:6569   */\n          and\n            /* \"#utility.yul\":6543:6548   */\n          dup5\n            /* \"#utility.yul\":6540:6570   */\n          or\n            /* \"#utility.yul\":6530:6570   */\n          swap3\n          pop\n            /* \"#utility.yul\":6259:6576   */\n          pop\n          pop\n            /* \"#utility.yul\":6183:6576   */\n          swap4\n          swap3\n          pop\n          pop\n          pop\n          jump\t// out\n            /* \"#utility.yul\":6582:6642   */\n        tag_38:\n            /* \"#utility.yul\":6610:6613   */\n          0x00\n            /* \"#utility.yul\":6631:6636   */\n          dup2\n            /* \"#utility.yul\":6624:6636   */\n          swap1\n          pop\n            /* \"#utility.yul\":6582:6642   */\n          swap2\n          swap1\n          pop\n          jump\t// out\n            /* \"#utility.yul\":6648:6790   */\n        tag_39:\n            /* \"#utility.yul\":6698:6707   */\n          0x00\n            /* \"#utility.yul\":6731:6784   */\n          tag_125\n            /* \"#utility.yul\":6749:6783   */\n          tag_126\n            /* \"#utility.yul\":6758:6782   */\n          tag_127\n            /* \"#utility.yul\":6776:6781   */\n          dup5\n            /* \"#utility.yul\":6758:6782   */\n          tag_14\n          jump\t// in\n        tag_127:\n            /* \"#utility.yul\":6749:6783   */\n          tag_38\n          jump\t// in\n        tag_126:\n            /* \"#utility.yul\":6731:6784   */\n          tag_14\n          jump\t// in\n        tag_125:\n            /* \"#utility.yul\":6718:6784   */\n          swap1\n          pop\n            /* \"#utility.yul\":6648:6790   */\n          swap2\n          swap1\n          pop\n          jump\t// out\n            /* \"#utility.yul\":6796:6871   */\n        tag_40:\n            /* \"#utility.yul\":6839:6842   */\n          0x00\n            /* \"#utility.yul\":6860:6865   */\n          dup2\n            /* \"#utility.yul\":6853:6865   */\n          swap1\n          pop\n            /* \"#utility.yul\":6796:6871   */\n          swap2\n          swap1\n          pop\n          jump\t// out\n            /* \"#utility.yul\":6877:7146   */\n        tag_41:\n            /* \"#utility.yul\":6987:7026   */\n          tag_130\n            /* \"#utility.yul\":7018:7025   */\n          dup4\n            /* \"#utility.yul\":6987:7026   */\n          tag_39\n          jump\t// in\n        tag_130:\n            /* \"#utility.yul\":7048:7139   */\n          tag_131\n            /* \"#utility.yul\":7097:7138   */\n          tag_132\n            /* \"#utility.yul\":7121:7137   */\n          dup3\n            /* \"#utility.yul\":7097:7138   */\n          tag_40\n          jump\t// in\n        tag_132:\n            /* \"#utility.yul\":7089:7095   */\n          dup5\n            /* \"#utility.yul\":7082:7086   */\n          dup5\n            /* \"#utility.yul\":7076:7087   */\n          sload\n            /* \"#utility.yul\":7048:7139   */\n          tag_37\n          jump\t// in\n        tag_131:\n            /* \"#utility.yul\":7042:7046   */\n          dup3\n            /* \"#utility.yul\":7035:7140   */\n          sstore\n            /* \"#utility.yul\":6953:7146   */\n          pop\n            /* \"#utility.yul\":6877:7146   */\n          pop\n          pop\n          pop\n          jump\t// out\n            /* \"#utility.yul\":7152:7225   */\n        tag_42:\n            /* \"#utility.yul\":7197:7200   */\n          0x00\n            /* \"#utility.yul\":7152:7225   */\n          swap1\n          jump\t// out\n            /* \"#utility.yul\":7231:7420   */\n        tag_43:\n            /* \"#utility.yul\":7308:7340   */\n          tag_135\n          tag_42\n          jump\t// in\n        tag_135:\n            /* \"#utility.yul\":7349:7414   */\n          tag_136\n            /* \"#utility.yul\":7407:7413   */\n          dup2\n            /* \"#utility.yul\":7399:7405   */\n          dup5\n            /* \"#utility.yul\":7393:7397   */\n          dup5\n            /* \"#utility.yul\":7349:7414   */\n          tag_41\n          jump\t// in\n        tag_136:\n            /* \"#utility.yul\":7284:7420   */\n          pop\n            /* \"#utility.yul\":7231:7420   */\n          pop\n          pop\n          jump\t// out\n            /* \"#utility.yul\":7426:7612   */\n        tag_44:\n            /* \"#utility.yul\":7486:7606   */\n        tag_138:\n            /* \"#utility.yul\":7503:7506   */\n          dup2\n            /* \"#utility.yul\":7496:7501   */\n          dup2\n            /* \"#utility.yul\":7493:7507   */\n          lt\n            /* \"#utility.yul\":7486:7606   */\n          iszero\n          tag_140\n          jumpi\n            /* \"#utility.yul\":7557:7596   */\n          tag_141\n            /* \"#utility.yul\":7594:7595   */\n          0x00\n            /* \"#utility.yul\":7587:7592   */\n          dup3\n            /* \"#utility.yul\":7557:7596   */\n          tag_43\n          jump\t// in\n        tag_141:\n            /* \"#utility.yul\":7530:7531   */\n          0x01\n            /* \"#utility.yul\":7523:7528   */\n          dup2\n            /* \"#utility.yul\":7519:7532   */\n          add\n            /* \"#utility.yul\":7510:7532   */\n          swap1\n          pop\n            /* \"#utility.yul\":7486:7606   */\n          jump(tag_138)\n        tag_140:\n            /* \"#utility.yul\":7426:7612   */\n          pop\n          pop\n          jump\t// out\n            /* \"#utility.yul\":7618:8161   */\n        tag_45:\n            /* \"#utility.yul\":7719:7721   */\n          0x1f\n            /* \"#utility.yul\":7714:7717   */\n          dup3\n            /* \"#utility.yul\":7711:7722   */\n          gt\n            /* \"#utility.yul\":7708:8154   */\n          iszero\n          tag_143\n          jumpi\n            /* \"#utility.yul\":7753:7791   */\n          tag_144\n            /* \"#utility.yul\":7785:7790   */\n          dup2\n            /* \"#utility.yul\":7753:7791   */\n          tag_34\n          jump\t// in\n        tag_144:\n            /* \"#utility.yul\":7837:7866   */\n          tag_145\n            /* \"#utility.yul\":7855:7865   */\n          dup5\n            /* \"#utility.yul\":7837:7866   */\n          tag_35\n          jump\t// in\n        tag_145:\n            /* \"#utility.yul\":7827:7835   */\n          dup2\n            /* \"#utility.yul\":7823:7867   */\n          add\n            /* \"#utility.yul\":8020:8022   */\n          0x20\n            /* \"#utility.yul\":8008:8018   */\n          dup6\n            /* \"#utility.yul\":8005:8023   */\n          lt\n            /* \"#utility.yul\":8002:8051   */\n          iszero\n          tag_146\n          jumpi\n            /* \"#utility.yul\":8041:8049   */\n          dup2\n            /* \"#utility.yul\":8026:8049   */\n          swap1\n          pop\n            /* \"#utility.yul\":8002:8051   */\n        tag_146:\n            /* \"#utility.yul\":8064:8144   */\n          tag_147\n            /* \"#utility.yul\":8120:8142   */\n          tag_148\n            /* \"#utility.yul\":8138:8141   */\n          dup6\n            /* \"#utility.yul\":8120:8142   */\n          tag_35\n          jump\t// in\n        tag_148:\n            /* \"#utility.yul\":8110:8118   */\n          dup4\n            /* \"#utility.yul\":8106:8143   */\n          add\n            /* \"#utility.yul\":8093:8104   */\n          dup3\n            /* \"#utility.yul\":8064:8144   */\n          tag_44\n          jump\t// in\n        tag_147:\n            /* \"#utility.yul\":7723:8154   */\n          pop\n          pop\n            /* \"#utility.yul\":7708:8154   */\n        tag_143:\n            /* \"#utility.yul\":7618:8161   */\n          pop\n          pop\n          pop\n          jump\t// out\n            /* \"#utility.yul\":8167:8284   */\n        tag_46:\n            /* \"#utility.yul\":8221:8229   */\n          0x00\n            /* \"#utility.yul\":8271:8276   */\n          dup3\n            /* \"#utility.yul\":8265:8269   */\n          dup3\n            /* \"#utility.yul\":8261:8277   */\n          shr\n            /* \"#utility.yul\":8240:8277   */\n          swap1\n          pop\n            /* \"#utility.yul\":8167:8284   */\n          swap3\n          swap2\n          pop\n          pop\n          jump\t// out\n            /* \"#utility.yul\":8290:8459   */\n        tag_47:\n            /* \"#utility.yul\":8334:8340   */\n          0x00\n            /* \"#utility.yul\":8367:8418   */\n          tag_151\n            /* \"#utility.yul\":8415:8416   */\n          0x00\n            /* \"#utility.yul\":8411:8417   */\n          not\n            /* \"#utility.yul\":8403:8408   */\n          dup5\n            /* \"#utility.yul\":8400:8401   */\n          0x08\n            /* \"#utility.yul\":8396:8409   */\n          mul\n            /* \"#utility.yul\":8367:8418   */\n          tag_46\n          jump\t// in\n        tag_151:\n            /* \"#utility.yul\":8363:8419   */\n          not\n            /* \"#utility.yul\":8448:8452   */\n          dup1\n            /* \"#utility.yul\":8442:8446   */\n          dup4\n            /* \"#utility.yul\":8438:8453   */\n          and\n            /* \"#utility.yul\":8428:8453   */\n          swap2\n          pop\n            /* \"#utility.yul\":8341:8459   */\n          pop\n            /* \"#utility.yul\":8290:8459   */\n          swap3\n          swap2\n          pop\n          pop\n          jump\t// out\n            /* \"#utility.yul\":8464:8759   */\n        tag_48:\n            /* \"#utility.yul\":8540:8544   */\n          0x00\n            /* \"#utility.yul\":8686:8715   */\n          tag_153\n            /* \"#utility.yul\":8711:8714   */\n          dup4\n            /* \"#utility.yul\":8705:8709   */\n          dup4\n            /* \"#utility.yul\":8686:8715   */\n          tag_47\n          jump\t// in\n        tag_153:\n            /* \"#utility.yul\":8678:8715   */\n          swap2\n          pop\n            /* \"#utility.yul\":8748:8751   */\n          dup3\n            /* \"#utility.yul\":8745:8746   */\n          0x02\n            /* \"#utility.yul\":8741:8752   */\n          mul\n            /* \"#utility.yul\":8735:8739   */\n          dup3\n            /* \"#utility.yul\":8732:8753   */\n          or\n            /* \"#utility.yul\":8724:8753   */\n          swap1\n          pop\n            /* \"#utility.yul\":8464:8759   */\n          swap3\n          swap2\n          pop\n          pop\n          jump\t// out\n            /* \"#utility.yul\":8764:10159   */\n        tag_7:\n            /* \"#utility.yul\":8881:8918   */\n          tag_155\n            /* \"#utility.yul\":8914:8917   */\n          dup3\n            /* \"#utility.yul\":8881:8918   */\n          tag_31\n          jump\t// in\n        tag_155:\n            /* \"#utility.yul\":8983:9001   */\n          0xffffffffffffffff\n            /* \"#utility.yul\":8975:8981   */\n          dup2\n            /* \"#utility.yul\":8972:9002   */\n          gt\n            /* \"#utility.yul\":8969:9025   */\n          iszero\n          tag_156\n          jumpi\n            /* \"#utility.yul\":9005:9023   */\n          tag_157\n          tag_20\n          jump\t// in\n        tag_157:\n            /* \"#utility.yul\":8969:9025   */\n        tag_156:\n            /* \"#utility.yul\":9049:9087   */\n          tag_158\n            /* \"#utility.yul\":9081:9085   */\n          dup3\n            /* \"#utility.yul\":9075:9086   */\n          sload\n            /* \"#utility.yul\":9049:9087   */\n          tag_33\n          jump\t// in\n        tag_158:\n            /* \"#utility.yul\":9134:9201   */\n          tag_159\n            /* \"#utility.yul\":9194:9200   */\n          dup3\n            /* \"#utility.yul\":9186:9192   */\n          dup3\n            /* \"#utility.yul\":9180:9184   */\n          dup6\n            /* \"#utility.yul\":9134:9201   */\n          tag_45\n          jump\t// in\n        tag_159:\n            /* \"#utility.yul\":9228:9229   */\n          0x00\n            /* \"#utility.yul\":9252:9256   */\n          0x20\n            /* \"#utility.yul\":9239:9256   */\n          swap1\n          pop\n            /* \"#utility.yul\":9284:9286   */\n          0x1f\n            /* \"#utility.yul\":9276:9282   */\n          dup4\n            /* \"#utility.yul\":9273:9287   */\n          gt\n            /* \"#utility.yul\":9301:9302   */\n          0x01\n            /* \"#utility.yul\":9296:9914   */\n          dup2\n          eq\n          tag_161\n          jumpi\n            /* \"#utility.yul\":9958:9959   */\n          0x00\n            /* \"#utility.yul\":9975:9981   */\n          dup5\n            /* \"#utility.yul\":9972:10049   */\n          iszero\n          tag_162\n          jumpi\n            /* \"#utility.yul\":10024:10033   */\n          dup3\n            /* \"#utility.yul\":10019:10022   */\n          dup8\n            /* \"#utility.yul\":10015:10034   */\n          add\n            /* \"#utility.yul\":10009:10035   */\n          mload\n            /* \"#utility.yul\":10000:10035   */\n          swap1\n          pop\n            /* \"#utility.yul\":9972:10049   */\n        tag_162:\n            /* \"#utility.yul\":10075:10142   */\n          tag_163\n            /* \"#utility.yul\":10135:10141   */\n          dup6\n            /* \"#utility.yul\":10128:10133   */\n          dup3\n            /* \"#utility.yul\":10075:10142   */\n          tag_48\n          jump\t// in\n        tag_163:\n            /* \"#utility.yul\":10069:10073   */\n          dup7\n            /* \"#utility.yul\":10062:10143   */\n          sstore\n            /* \"#utility.yul\":9931:10153   */\n          pop\n            /* \"#utility.yul\":9266:10153   */\n          jump(tag_160)\n            /* \"#utility.yul\":9296:9914   */\n        tag_161:\n            /* \"#utility.yul\":9348:9352   */\n          0x1f\n            /* \"#utility.yul\":9344:9353   */\n          not\n            /* \"#utility.yul\":9336:9342   */\n          dup5\n            /* \"#utility.yul\":9332:9354   */\n          and\n            /* \"#utility.yul\":9382:9419   */\n          tag_164\n            /* \"#utility.yul\":9414:9418   */\n          dup7\n            /* \"#utility.yul\":9382:9419   */\n          tag_34\n          jump\t// in\n        tag_164:\n            /* \"#utility.yul\":9441:9442   */\n          0x00\n            /* \"#utility.yul\":9455:9663   */\n        tag_165:\n            /* \"#utility.yul\":9469:9476   */\n          dup3\n            /* \"#utility.yul\":9466:9467   */\n          dup2\n            /* \"#utility.yul\":9463:9477   */\n          lt\n            /* \"#utility.yul\":9455:9663   */\n          iszero\n          tag_167\n          jumpi\n            /* \"#utility.yul\":9548:9557   */\n          dup5\n            /* \"#utility.yul\":9543:9546   */\n          dup10\n            /* \"#utility.yul\":9539:9558   */\n          add\n            /* \"#utility.yul\":9533:9559   */\n          mload\n            /* \"#utility.yul\":9525:9531   */\n          dup3\n            /* \"#utility.yul\":9518:9560   */\n          sstore\n            /* \"#utility.yul\":9599:9600   */\n          0x01\n            /* \"#utility.yul\":9591:9597   */\n          dup3\n            /* \"#utility.yul\":9587:9601   */\n          add\n            /* \"#utility.yul\":9577:9601   */\n          swap2\n          pop\n            /* \"#utility.yul\":9646:9648   */\n          0x20\n            /* \"#utility.yul\":9635:9644   */\n          dup6\n            /* \"#utility.yul\":9631:9649   */\n          add\n            /* \"#utility.yul\":9618:9649   */\n          swap5\n          pop\n            /* \"#utility.yul\":9492:9496   */\n          0x20\n            /* \"#utility.yul\":9489:9490   */\n          dup2\n            /* \"#utility.yul\":9485:9497   */\n          add\n            /* \"#utility.yul\":9480:9497   */\n          swap1\n          pop\n            /* \"#utility.yul\":9455:9663   */\n          jump(tag_165)\n        tag_167:\n            /* \"#utility.yul\":9691:9697   */\n          dup7\n            /* \"#utility.yul\":9682:9689   */\n          dup4\n            /* \"#utility.yul\":9679:9698   */\n          lt\n            /* \"#utility.yul\":9676:9855   */\n          iszero\n          tag_168\n          jumpi\n            /* \"#utility.yul\":9749:9758   */\n          dup5\n            /* \"#utility.yul\":9744:9747   */\n          dup10\n            /* \"#utility.yul\":9740:9759   */\n          add\n            /* \"#utility.yul\":9734:9760   */\n          mload\n            /* \"#utility.yul\":9792:9840   */\n          tag_169\n            /* \"#utility.yul\":9834:9838   */\n          0x1f\n            /* \"#utility.yul\":9826:9832   */\n          dup10\n            /* \"#utility.yul\":9822:9839   */\n          and\n            /* \"#utility.yul\":9811:9820   */\n          dup3\n            /* \"#utility.yul\":9792:9840   */\n          tag_47\n          jump\t// in\n        tag_169:\n            /* \"#utility.yul\":9784:9790   */\n          dup4\n            /* \"#utility.yul\":9777:9841   */\n          sstore\n            /* \"#utility.yul\":9699:9855   */\n          pop\n            /* \"#utility.yul\":9676:9855   */\n        tag_168:\n            /* \"#utility.yul\":9901:9902   */\n          0x01\n            /* \"#utility.yul\":9897:9898   */\n          0x02\n            /* \"#utility.yul\":9889:9895   */\n          dup9\n            /* \"#utility.yul\":9885:9899   */\n          mul\n            /* \"#utility.yul\":9881:9903   */\n          add\n            /* \"#utility.yul\":9875:9879   */\n          dup9\n            /* \"#utility.yul\":9868:9904   */\n          sstore\n            /* \"#utility.yul\":9303:9914   */\n          pop\n          pop\n          pop\n            /* \"#utility.yul\":9266:10153   */\n        tag_160:\n          pop\n            /* \"#utility.yul\":8856:10159   */\n          pop\n          pop\n          pop\n            /* \"#utility.yul\":8764:10159   */\n          pop\n          pop\n          jump\t// out\n            /* \"Campaign.sol\":764:5796  contract Campaign {... */\n        tag_10:\n          dataSize(sub_0)\n          dup1\n          dataOffset(sub_0)\n          0x00\n          codecopy\n          0x00\n          return\n        stop\n\n        sub_0: assembly {\n                /* \"Campaign.sol\":764:5796  contract Campaign {... */\n              mstore(0x40, 0x80)\n              jumpi(tag_1, lt(calldatasize, 0x04))\n              shr(0xe0, calldataload(0x00))\n              dup1\n              0x702645de\n              gt\n              tag_21\n              jumpi\n              dup1\n              0xaaffadf3\n              gt\n              tag_22\n              jumpi\n              dup1\n              0xaaffadf3\n              eq\n              tag_16\n              jumpi\n              dup1\n              0xc56a3e88\n              eq\n              tag_17\n              jumpi\n              dup1\n              0xd7bb99ba\n              eq\n              tag_18\n              jumpi\n              dup1\n              0xd7d1bbdb\n              eq\n              tag_19\n              jumpi\n              dup1\n              0xf99ea1a5\n              eq\n              tag_20\n              jumpi\n              jump(tag_1)\n            tag_22:\n              dup1\n              0x702645de\n              eq\n              tag_11\n              jumpi\n              dup1\n              0x81d12c58\n              eq\n              tag_12\n              jumpi\n              dup1\n              0x8813ce12\n              eq\n              tag_13\n              jumpi\n              dup1\n              0x8a9cfd55\n              eq\n              tag_14\n              jumpi\n              dup1\n              0x8ad5f358\n              eq\n              tag_15\n              jumpi\n              jump(tag_1)\n            tag_21:\n              dup1\n              0x34b66460\n              gt\n              tag_23\n              jumpi\n              dup1\n              0x34b66460\n              eq\n              tag_6\n              jumpi\n              dup1\n              0x3c746b26\n              eq\n              tag_7\n              jumpi\n              dup1\n              0x4051ddac\n              eq\n              tag_8\n              jumpi\n              dup1\n              0x481c6a75\n              eq\n              tag_9\n              jumpi\n              dup1\n              0x6f412a61\n              eq\n              tag_10\n              jumpi\n              jump(tag_1)\n            tag_23:\n              dup1\n              0x03441006\n              eq\n              tag_2\n              jumpi\n              dup1\n              0x0724fda9\n              eq\n              tag_3\n              jumpi\n              dup1\n              0x110842cb\n              eq\n              tag_4\n              jumpi\n              dup1\n              0x332f7acf\n              eq\n              tag_5\n              jumpi\n            tag_1:\n              0x00\n              dup1\n              revert\n                /* \"Campaign.sol\":4657:5073  function finalizeRequest(uint requestIdx) public restrictToManager {... */\n            tag_2:\n              callvalue\n              dup1\n              iszero\n              tag_24\n              jumpi\n              0x00\n              dup1\n              revert\n            tag_24:\n              pop\n              tag_25\n              0x04\n              dup1\n              calldatasize\n              sub\n              dup2\n              add\n              swap1\n              tag_26\n              swap2\n              swap1\n              tag_27\n              jump\t// in\n            tag_26:\n              tag_28\n              jump\t// in\n            tag_25:\n              stop\n                /* \"Campaign.sol\":1084:1110  string public campaignName */\n            tag_3:\n              callvalue\n              dup1\n              iszero\n              tag_29\n              jumpi\n              0x00\n              dup1\n              revert\n            tag_29:\n              pop\n              tag_30\n              tag_31\n              jump\t// in\n            tag_30:\n              mload(0x40)\n              tag_32\n              swap2\n              swap1\n              tag_33\n              jump\t// in\n            tag_32:\n              mload(0x40)\n              dup1\n              swap2\n              sub\n              swap1\n              return\n                /* \"Campaign.sol\":1116:1149  string public campaignDescription */\n            tag_4:\n              callvalue\n              dup1\n              iszero\n              tag_34\n              jumpi\n              0x00\n              dup1\n              revert\n            tag_34:\n              pop\n              tag_35\n              tag_36\n              jump\t// in\n            tag_35:\n              mload(0x40)\n              tag_37\n              swap2\n              swap1\n              tag_33\n              jump\t// in\n            tag_37:\n              mload(0x40)\n              dup1\n              swap2\n              sub\n              swap1\n              return\n                /* \"Campaign.sol\":1340:1371  uint public amountCollected = 0 */\n            tag_5:\n              callvalue\n              dup1\n              iszero\n              tag_38\n              jumpi\n              0x00\n              dup1\n              revert\n            tag_38:\n              pop\n              tag_39\n              tag_40\n              jump\t// in\n            tag_39:\n              mload(0x40)\n              tag_41\n              swap2\n              swap1\n              tag_42\n              jump\t// in\n            tag_41:\n              mload(0x40)\n              dup1\n              swap2\n              sub\n              swap1\n              return\n                /* \"Campaign.sol\":1256:1300  mapping(address => uint) public contributers */\n            tag_6:\n              callvalue\n              dup1\n              iszero\n              tag_43\n              jumpi\n              0x00\n              dup1\n              revert\n            tag_43:\n              pop\n              tag_44\n              0x04\n              dup1\n              calldatasize\n              sub\n              dup2\n              add\n              swap1\n              tag_45\n              swap2\n              swap1\n              tag_46\n              jump\t// in\n            tag_45:\n              tag_47\n              jump\t// in\n            tag_44:\n              mload(0x40)\n              tag_48\n              swap2\n              swap1\n              tag_42\n              jump\t// in\n            tag_48:\n              mload(0x40)\n              dup1\n              swap2\n              sub\n              swap1\n              return\n                /* \"Campaign.sol\":3512:4651  function checkApprovalStatus(... */\n            tag_7:\n              callvalue\n              dup1\n              iszero\n              tag_49\n              jumpi\n              0x00\n              dup1\n              revert\n            tag_49:\n              pop\n              tag_50\n              0x04\n              dup1\n              calldatasize\n              sub\n              dup2\n              add\n              swap1\n              tag_51\n              swap2\n              swap1\n              tag_27\n              jump\t// in\n            tag_51:\n              tag_52\n              jump\t// in\n            tag_50:\n              mload(0x40)\n              tag_53\n              swap2\n              swap1\n              tag_33\n              jump\t// in\n            tag_53:\n              mload(0x40)\n              dup1\n              swap2\n              sub\n              swap1\n              return\n                /* \"Campaign.sol\":5079:5694  function getSummary()... */\n            tag_8:\n              callvalue\n              dup1\n              iszero\n              tag_54\n              jumpi\n              0x00\n              dup1\n              revert\n            tag_54:\n              pop\n              tag_55\n              tag_56\n              jump\t// in\n            tag_55:\n              mload(0x40)\n              tag_57\n              swap11\n              swap10\n              swap9\n              swap8\n              swap7\n              swap6\n              swap5\n              swap4\n              swap3\n              swap2\n              swap1\n              tag_58\n              jump\t// in\n            tag_57:\n              mload(0x40)\n              dup1\n              swap2\n              sub\n              swap1\n              return\n                /* \"Campaign.sol\":1056:1078  address public manager */\n            tag_9:\n              callvalue\n              dup1\n              iszero\n              tag_59\n              jumpi\n              0x00\n              dup1\n              revert\n            tag_59:\n              pop\n              tag_60\n              tag_61\n              jump\t// in\n            tag_60:\n              mload(0x40)\n              tag_62\n              swap2\n              swap1\n              tag_63\n              jump\t// in\n            tag_62:\n              mload(0x40)\n              dup1\n              swap2\n              sub\n              swap1\n              return\n                /* \"Campaign.sol\":1155:1185  string public campaignImageURL */\n            tag_10:\n              callvalue\n              dup1\n              iszero\n              tag_64\n              jumpi\n              0x00\n              dup1\n              revert\n            tag_64:\n              pop\n              tag_65\n              tag_66\n              jump\t// in\n            tag_65:\n              mload(0x40)\n              tag_67\n              swap2\n              swap1\n              tag_33\n              jump\t// in\n            tag_67:\n              mload(0x40)\n              dup1\n              swap2\n              sub\n              swap1\n              return\n                /* \"Campaign.sol\":2576:2688  function isContributer() external view returns (bool) {... */\n            tag_11:\n              callvalue\n              dup1\n              iszero\n              tag_68\n              jumpi\n              0x00\n              dup1\n              revert\n            tag_68:\n              pop\n              tag_69\n              tag_70\n              jump\t// in\n            tag_69:\n              mload(0x40)\n              tag_71\n              swap2\n              swap1\n              tag_72\n              jump\t// in\n            tag_71:\n              mload(0x40)\n              dup1\n              swap2\n              sub\n              swap1\n              return\n                /* \"Campaign.sol\":976:1001  Request[] public requests */\n            tag_12:\n              callvalue\n              dup1\n              iszero\n              tag_73\n              jumpi\n              0x00\n              dup1\n              revert\n            tag_73:\n              pop\n              tag_74\n              0x04\n              dup1\n              calldatasize\n              sub\n              dup2\n              add\n              swap1\n              tag_75\n              swap2\n              swap1\n              tag_27\n              jump\t// in\n            tag_75:\n              tag_76\n              jump\t// in\n            tag_74:\n              mload(0x40)\n              tag_77\n              swap7\n              swap6\n              swap5\n              swap4\n              swap3\n              swap2\n              swap1\n              tag_78\n              jump\t// in\n            tag_77:\n              mload(0x40)\n              dup1\n              swap2\n              sub\n              swap1\n              return\n                /* \"Campaign.sol\":5700:5794  function getRequests() public view returns (Request[] memory) {... */\n            tag_13:\n              callvalue\n              dup1\n              iszero\n              tag_79\n              jumpi\n              0x00\n              dup1\n              revert\n            tag_79:\n              pop\n              tag_80\n              tag_81\n              jump\t// in\n            tag_80:\n              mload(0x40)\n              tag_82\n              swap2\n              swap1\n              tag_83\n              jump\t// in\n            tag_82:\n              mload(0x40)\n              dup1\n              swap2\n              sub\n              swap1\n              return\n                /* \"Campaign.sol\":2694:3135  function createRequest(... */\n            tag_14:\n              callvalue\n              dup1\n              iszero\n              tag_84\n              jumpi\n              0x00\n              dup1\n              revert\n            tag_84:\n              pop\n              tag_85\n              0x04\n              dup1\n              calldatasize\n              sub\n              dup2\n              add\n              swap1\n              tag_86\n              swap2\n              swap1\n              tag_87\n              jump\t// in\n            tag_86:\n              tag_88\n              jump\t// in\n            tag_85:\n              stop\n                /* \"Campaign.sol\":1306:1334  uint public contributerCount */\n            tag_15:\n              callvalue\n              dup1\n              iszero\n              tag_89\n              jumpi\n              0x00\n              dup1\n              revert\n            tag_89:\n              pop\n              tag_90\n              tag_91\n              jump\t// in\n            tag_90:\n              mload(0x40)\n              tag_92\n              swap2\n              swap1\n              tag_42\n              jump\t// in\n            tag_92:\n              mload(0x40)\n              dup1\n              swap2\n              sub\n              swap1\n              return\n                /* \"Campaign.sol\":1223:1250  uint public minContribution */\n            tag_16:\n              callvalue\n              dup1\n              iszero\n              tag_93\n              jumpi\n              0x00\n              dup1\n              revert\n            tag_93:\n              pop\n              tag_94\n              tag_95\n              jump\t// in\n            tag_94:\n              mload(0x40)\n              tag_96\n              swap2\n              swap1\n              tag_42\n              jump\t// in\n            tag_96:\n              mload(0x40)\n              dup1\n              swap2\n              sub\n              swap1\n              return\n                /* \"Campaign.sol\":2170:2271  function isManager() external view returns (bool) {... */\n            tag_17:\n              callvalue\n              dup1\n              iszero\n              tag_97\n              jumpi\n              0x00\n              dup1\n              revert\n            tag_97:\n              pop\n              tag_98\n              tag_99\n              jump\t// in\n            tag_98:\n              mload(0x40)\n              tag_100\n              swap2\n              swap1\n              tag_72\n              jump\t// in\n            tag_100:\n              mload(0x40)\n              dup1\n              swap2\n              sub\n              swap1\n              return\n                /* \"Campaign.sol\":2277:2570  function contribute() public payable {... */\n            tag_18:\n              tag_101\n              tag_102\n              jump\t// in\n            tag_101:\n              stop\n                /* \"Campaign.sol\":3141:3506  function approveRequest(uint requestIdx) public {... */\n            tag_19:\n              callvalue\n              dup1\n              iszero\n              tag_103\n              jumpi\n              0x00\n              dup1\n              revert\n            tag_103:\n              pop\n              tag_104\n              0x04\n              dup1\n              calldatasize\n              sub\n              dup2\n              add\n              swap1\n              tag_105\n              swap2\n              swap1\n              tag_27\n              jump\t// in\n            tag_105:\n              tag_106\n              jump\t// in\n            tag_104:\n              stop\n                /* \"Campaign.sol\":1191:1217  uint public campaignTarget */\n            tag_20:\n              callvalue\n              dup1\n              iszero\n              tag_107\n              jumpi\n              0x00\n              dup1\n              revert\n            tag_107:\n              pop\n              tag_108\n              tag_109\n              jump\t// in\n            tag_108:\n              mload(0x40)\n              tag_110\n              swap2\n              swap1\n              tag_42\n              jump\t// in\n            tag_110:\n              mload(0x40)\n              dup1\n              swap2\n              sub\n              swap1\n              return\n                /* \"Campaign.sol\":4657:5073  function finalizeRequest(uint requestIdx) public restrictToManager {... */\n            tag_28:\n                /* \"Campaign.sol\":1890:1897  manager */\n              0x02\n              0x00\n              swap1\n              sload\n              swap1\n              0x0100\n              exp\n              swap1\n              div\n              0xffffffffffffffffffffffffffffffffffffffff\n              and\n                /* \"Campaign.sol\":1876:1897  msg.sender == manager */\n              0xffffffffffffffffffffffffffffffffffffffff\n              and\n                /* \"Campaign.sol\":1876:1886  msg.sender */\n              caller\n                /* \"Campaign.sol\":1876:1897  msg.sender == manager */\n              0xffffffffffffffffffffffffffffffffffffffff\n              and\n              eq\n                /* \"Campaign.sol\":1868:1898  require(msg.sender == manager) */\n              tag_112\n              jumpi\n              0x00\n              dup1\n              revert\n            tag_112:\n                /* \"Campaign.sol\":4734:4757  Request storage request */\n              0x00\n                /* \"Campaign.sol\":4760:4768  requests */\n              dup1\n                /* \"Campaign.sol\":4769:4779  requestIdx */\n              dup3\n                /* \"Campaign.sol\":4760:4780  requests[requestIdx] */\n              dup2\n              sload\n              dup2\n              lt\n              tag_114\n              jumpi\n              tag_115\n              tag_116\n              jump\t// in\n            tag_115:\n            tag_114:\n              swap1\n              0x00\n              mstore\n              keccak256(0x00, 0x20)\n              swap1\n              0x06\n              mul\n              add\n                /* \"Campaign.sol\":4734:4780  Request storage request = requests[requestIdx] */\n              swap1\n              pop\n                /* \"Campaign.sol\":4890:4907  bytes(\"approved\") */\n              mload(0x40)\n              dup1\n              0x40\n              add\n              0x40\n              mstore\n              dup1\n              0x08\n              dup2\n              mstore\n              0x20\n              add\n              0x617070726f766564000000000000000000000000000000000000000000000000\n              dup2\n              mstore\n              pop\n                /* \"Campaign.sol\":4880:4908  keccak256(bytes(\"approved\")) */\n              dup1\n              mload\n              swap1\n              0x20\n              add\n              keccak256\n                /* \"Campaign.sol\":4827:4858  checkApprovalStatus(requestIdx) */\n              tag_118\n                /* \"Campaign.sol\":4847:4857  requestIdx */\n              dup4\n                /* \"Campaign.sol\":4827:4846  checkApprovalStatus */\n              tag_52\n                /* \"Campaign.sol\":4827:4858  checkApprovalStatus(requestIdx) */\n              jump\t// in\n            tag_118:\n                /* \"Campaign.sol\":4811:4860  keccak256(bytes(checkApprovalStatus(requestIdx))) */\n              dup1\n              mload\n              swap1\n              0x20\n              add\n              keccak256\n                /* \"Campaign.sol\":4811:4908  keccak256(bytes(checkApprovalStatus(requestIdx))) ==... */\n              eq\n                /* \"Campaign.sol\":4790:4918  require(... */\n              tag_119\n              jumpi\n              0x00\n              dup1\n              revert\n            tag_119:\n                /* \"Campaign.sol\":4954:4975  address(this).balance */\n              selfbalance\n                /* \"Campaign.sol\":4936:4943  request */\n              dup2\n                /* \"Campaign.sol\":4936:4950  request.amount */\n              0x01\n              add\n              sload\n                /* \"Campaign.sol\":4936:4975  request.amount <= address(this).balance */\n              gt\n              iszero\n                /* \"Campaign.sol\":4928:4976  require(request.amount <= address(this).balance) */\n              tag_120\n              jumpi\n              0x00\n              dup1\n              revert\n            tag_120:\n                /* \"Campaign.sol\":4986:4993  request */\n              dup1\n                /* \"Campaign.sol\":4986:5003  request.recipient */\n              0x02\n              add\n              0x00\n              swap1\n              sload\n              swap1\n              0x0100\n              exp\n              swap1\n              div\n              0xffffffffffffffffffffffffffffffffffffffff\n              and\n                /* \"Campaign.sol\":4986:5012  request.recipient.transfer */\n              0xffffffffffffffffffffffffffffffffffffffff\n              and\n                /* \"Campaign.sol\":4986:5028  request.recipient.transfer(request.amount) */\n              0x08fc\n                /* \"Campaign.sol\":5013:5020  request */\n              dup3\n                /* \"Campaign.sol\":5013:5027  request.amount */\n              0x01\n              add\n              sload\n                /* \"Campaign.sol\":4986:5028  request.recipient.transfer(request.amount) */\n              swap1\n              dup2\n              iszero\n              mul\n              swap1\n              mload(0x40)\n              0x00\n              mload(0x40)\n              dup1\n              dup4\n              sub\n              dup2\n              dup6\n              dup9\n              dup9\n              call\n              swap4\n              pop\n              pop\n              pop\n              pop\n              iszero\n              dup1\n              iszero\n              tag_122\n              jumpi\n              returndatasize\n              0x00\n              dup1\n              returndatacopy\n              revert(0x00, returndatasize)\n            tag_122:\n              pop\n                /* \"Campaign.sol\":5038:5066  request.status = \"finalized\" */\n              mload(0x40)\n              dup1\n              0x40\n              add\n              0x40\n              mstore\n              dup1\n              0x09\n              dup2\n              mstore\n              0x20\n              add\n              0x66696e616c697a65640000000000000000000000000000000000000000000000\n              dup2\n              mstore\n              pop\n                /* \"Campaign.sol\":5038:5045  request */\n              dup2\n                /* \"Campaign.sol\":5038:5052  request.status */\n              0x05\n              add\n                /* \"Campaign.sol\":5038:5066  request.status = \"finalized\" */\n              swap1\n              dup2\n              tag_123\n              swap2\n              swap1\n              tag_124\n              jump\t// in\n            tag_123:\n              pop\n                /* \"Campaign.sol\":4724:5073  {... */\n              pop\n                /* \"Campaign.sol\":4657:5073  function finalizeRequest(uint requestIdx) public restrictToManager {... */\n              pop\n              jump\t// out\n                /* \"Campaign.sol\":1084:1110  string public campaignName */\n            tag_31:\n              0x03\n              dup1\n              sload\n              tag_125\n              swap1\n              tag_126\n              jump\t// in\n            tag_125:\n              dup1\n              0x1f\n              add\n              0x20\n              dup1\n              swap2\n              div\n              mul\n              0x20\n              add\n              mload(0x40)\n              swap1\n              dup2\n              add\n              0x40\n              mstore\n              dup1\n              swap3\n              swap2\n              swap1\n              dup2\n              dup2\n              mstore\n              0x20\n              add\n              dup3\n              dup1\n              sload\n              tag_127\n              swap1\n              tag_126\n              jump\t// in\n            tag_127:\n              dup1\n              iszero\n              tag_128\n              jumpi\n              dup1\n              0x1f\n              lt\n              tag_129\n              jumpi\n              0x0100\n              dup1\n              dup4\n              sload\n              div\n              mul\n              dup4\n              mstore\n              swap2\n              0x20\n              add\n              swap2\n              jump(tag_128)\n            tag_129:\n              dup3\n              add\n              swap2\n              swap1\n              0x00\n              mstore\n              keccak256(0x00, 0x20)\n              swap1\n            tag_130:\n              dup2\n              sload\n              dup2\n              mstore\n              swap1\n              0x01\n              add\n              swap1\n              0x20\n              add\n              dup1\n              dup4\n              gt\n              tag_130\n              jumpi\n              dup3\n              swap1\n              sub\n              0x1f\n              and\n              dup3\n              add\n              swap2\n            tag_128:\n              pop\n              pop\n              pop\n              pop\n              pop\n              dup2\n              jump\t// out\n                /* \"Campaign.sol\":1116:1149  string public campaignDescription */\n            tag_36:\n              0x04\n              dup1\n              sload\n              tag_131\n              swap1\n              tag_126\n              jump\t// in\n            tag_131:\n              dup1\n              0x1f\n              add\n              0x20\n              dup1\n              swap2\n              div\n              mul\n              0x20\n              add\n              mload(0x40)\n              swap1\n              dup2\n              add\n              0x40\n              mstore\n              dup1\n              swap3\n              swap2\n              swap1\n              dup2\n              dup2\n              mstore\n              0x20\n              add\n              dup3\n              dup1\n              sload\n              tag_132\n              swap1\n              tag_126\n              jump\t// in\n            tag_132:\n              dup1\n              iszero\n              tag_133\n              jumpi\n              dup1\n              0x1f\n              lt\n              tag_134\n              jumpi\n              0x0100\n              dup1\n              dup4\n              sload\n              div\n              mul\n              dup4\n              mstore\n              swap2\n              0x20\n              add\n              swap2\n              jump(tag_133)\n            tag_134:\n              dup3\n              add\n              swap2\n              swap1\n              0x00\n              mstore\n              keccak256(0x00, 0x20)\n              swap1\n            tag_135:\n              dup2\n              sload\n              dup2\n              mstore\n              swap1\n              0x01\n              add\n              swap1\n              0x20\n              add\n              dup1\n              dup4\n              gt\n              tag_135\n              jumpi\n              dup3\n              swap1\n              sub\n              0x1f\n              and\n              dup3\n              add\n              swap2\n            tag_133:\n              pop\n              pop\n              pop\n              pop\n              pop\n              dup2\n              jump\t// out\n                /* \"Campaign.sol\":1340:1371  uint public amountCollected = 0 */\n            tag_40:\n              sload(0x0a)\n              dup2\n              jump\t// out\n                /* \"Campaign.sol\":1256:1300  mapping(address => uint) public contributers */\n            tag_47:\n              mstore(0x20, 0x08)\n              dup1\n              0x00\n              mstore\n              keccak256(0x00, 0x40)\n              0x00\n              swap2\n              pop\n              swap1\n              pop\n              sload\n              dup2\n              jump\t// out\n                /* \"Campaign.sol\":3512:4651  function checkApprovalStatus(... */\n            tag_52:\n                /* \"Campaign.sol\":3593:3606  string memory */\n              0x60\n                /* \"Campaign.sol\":3618:3641  Request storage request */\n              0x00\n                /* \"Campaign.sol\":3644:3652  requests */\n              dup1\n                /* \"Campaign.sol\":3653:3663  requestIdx */\n              dup4\n                /* \"Campaign.sol\":3644:3664  requests[requestIdx] */\n              dup2\n              sload\n              dup2\n              lt\n              tag_137\n              jumpi\n              tag_138\n              tag_116\n              jump\t// in\n            tag_138:\n            tag_137:\n              swap1\n              0x00\n              mstore\n              keccak256(0x00, 0x20)\n              swap1\n              0x06\n              mul\n              add\n                /* \"Campaign.sol\":3618:3664  Request storage request = requests[requestIdx] */\n              swap1\n              pop\n                /* \"Campaign.sol\":3698:3699  1 */\n              0x01\n                /* \"Campaign.sol\":3678:3694  contributerCount */\n              sload(0x09)\n                /* \"Campaign.sol\":3678:3699  contributerCount <= 1 */\n              gt\n                /* \"Campaign.sol\":3674:3810  if (contributerCount <= 1) {... */\n              tag_140\n              jumpi\n                /* \"Campaign.sol\":3744:3745  1 */\n              0x01\n                /* \"Campaign.sol\":3719:3726  request */\n              dup2\n                /* \"Campaign.sol\":3719:3740  request.approvalCount */\n              0x03\n              add\n              sload\n                /* \"Campaign.sol\":3719:3745  request.approvalCount == 1 */\n              sub\n                /* \"Campaign.sol\":3715:3799  if (request.approvalCount == 1) return \"approved\";... */\n              tag_141\n              jumpi\n                /* \"Campaign.sol\":3747:3764  return \"approved\" */\n              mload(0x40)\n              dup1\n              0x40\n              add\n              0x40\n              mstore\n              dup1\n              0x08\n              dup2\n              mstore\n              0x20\n              add\n              0x617070726f766564000000000000000000000000000000000000000000000000\n              dup2\n              mstore\n              pop\n              swap2\n              pop\n              pop\n              jump(tag_136)\n                /* \"Campaign.sol\":3715:3799  if (request.approvalCount == 1) return \"approved\";... */\n            tag_141:\n                /* \"Campaign.sol\":3783:3799  return \"pending\" */\n              mload(0x40)\n              dup1\n              0x40\n              add\n              0x40\n              mstore\n              dup1\n              0x07\n              dup2\n              mstore\n              0x20\n              add\n              0x70656e64696e6700000000000000000000000000000000000000000000000000\n              dup2\n              mstore\n              pop\n              swap2\n              pop\n              pop\n              jump(tag_136)\n                /* \"Campaign.sol\":3674:3810  if (contributerCount <= 1) {... */\n            tag_140:\n                /* \"Campaign.sol\":3819:3829  uint256 mu */\n              0x00\n                /* \"Campaign.sol\":3850:3866  contributerCount */\n              sload(0x09)\n                /* \"Campaign.sol\":3832:3847  amountCollected */\n              sload(0x0a)\n                /* \"Campaign.sol\":3832:3866  amountCollected / contributerCount */\n              tag_143\n              swap2\n              swap1\n              tag_144\n              jump\t// in\n            tag_143:\n                /* \"Campaign.sol\":3819:3866  uint256 mu = amountCollected / contributerCount */\n              swap1\n              pop\n                /* \"Campaign.sol\":3876:3886  uint256 sd */\n              0x00\n                /* \"Campaign.sol\":3889:4018  sqrt(... */\n              tag_145\n                /* \"Campaign.sol\":4006:4007  1 */\n              0x01\n                /* \"Campaign.sol\":3987:4003  contributerCount */\n              sload(0x09)\n                /* \"Campaign.sol\":3987:4007  contributerCount - 1 */\n              tag_146\n              swap2\n              swap1\n              tag_147\n              jump\t// in\n            tag_146:\n                /* \"Campaign.sol\":3949:3965  contributerCount */\n              sload(0x09)\n                /* \"Campaign.sol\":3944:3945  2 */\n              0x02\n                /* \"Campaign.sol\":3925:3940  amountCollected */\n              sload(0x0a)\n                /* \"Campaign.sol\":3925:3945  amountCollected ** 2 */\n              tag_148\n              swap2\n              swap1\n              tag_149\n              jump\t// in\n            tag_148:\n                /* \"Campaign.sol\":3924:3965  (amountCollected ** 2) / contributerCount */\n              tag_150\n              swap2\n              swap1\n              tag_144\n              jump\t// in\n            tag_150:\n                /* \"Campaign.sol\":3908:3920  sigmaXSquare */\n              sload(0x0b)\n                /* \"Campaign.sol\":3908:3966  sigmaXSquare - ((amountCollected ** 2) / contributerCount) */\n              tag_151\n              swap2\n              swap1\n              tag_147\n              jump\t// in\n            tag_151:\n                /* \"Campaign.sol\":3907:4008  (sigmaXSquare - ((amountCollected ** 2) / contributerCount)) /... */\n              tag_152\n              swap2\n              swap1\n              tag_144\n              jump\t// in\n            tag_152:\n                /* \"Campaign.sol\":3889:3893  sqrt */\n              tag_153\n                /* \"Campaign.sol\":3889:4018  sqrt(... */\n              jump\t// in\n            tag_145:\n                /* \"Campaign.sol\":3876:4018  uint256 sd = sqrt(... */\n              swap1\n              pop\n                /* \"Campaign.sol\":4028:4050  uint256 approvalWeight */\n              0x00\n                /* \"Campaign.sol\":4158:4174  contributerCount */\n              sload(0x09)\n                /* \"Campaign.sol\":4152:4154  50 */\n              0x32\n                /* \"Campaign.sol\":4128:4135  request */\n              dup6\n                /* \"Campaign.sol\":4128:4149  request.approvalCount */\n              0x03\n              add\n              sload\n                /* \"Campaign.sol\":4128:4154  request.approvalCount * 50 */\n              tag_154\n              swap2\n              swap1\n              tag_155\n              jump\t// in\n            tag_154:\n                /* \"Campaign.sol\":4127:4174  (request.approvalCount * 50) / contributerCount */\n              tag_156\n              swap2\n              swap1\n              tag_144\n              jump\t// in\n            tag_156:\n                /* \"Campaign.sol\":4095:4110  amountCollected */\n              sload(0x0a)\n                /* \"Campaign.sol\":4077:4079  50 */\n              0x32\n                /* \"Campaign.sol\":4055:4062  request */\n              dup7\n                /* \"Campaign.sol\":4055:4074  request.approvalSum */\n              0x04\n              add\n              sload\n                /* \"Campaign.sol\":4055:4079  request.approvalSum * 50 */\n              tag_157\n              swap2\n              swap1\n              tag_155\n              jump\t// in\n            tag_157:\n                /* \"Campaign.sol\":4054:4110  (request.approvalSum * 50) /... */\n              tag_158\n              swap2\n              swap1\n              tag_144\n              jump\t// in\n            tag_158:\n                /* \"Campaign.sol\":4053:4175  ((request.approvalSum * 50) /... */\n              tag_159\n              swap2\n              swap1\n              tag_160\n              jump\t// in\n            tag_159:\n                /* \"Campaign.sol\":4028:4175  uint256 approvalWeight = ((request.approvalSum * 50) /... */\n              swap1\n              pop\n                /* \"Campaign.sol\":4185:4195  uint quota */\n              0x00\n                /* \"Campaign.sol\":4198:4200  51 */\n              0x33\n                /* \"Campaign.sol\":4185:4200  uint quota = 51 */\n              swap1\n              pop\n                /* \"Campaign.sol\":4224:4226  sd */\n              dup3\n                /* \"Campaign.sol\":4220:4221  2 */\n              0x02\n                /* \"Campaign.sol\":4220:4226  2 * sd */\n              tag_161\n              swap2\n              swap1\n              tag_155\n              jump\t// in\n            tag_161:\n                /* \"Campaign.sol\":4214:4216  mu */\n              dup5\n                /* \"Campaign.sol\":4214:4226  mu >= 2 * sd */\n              lt\n              iszero\n                /* \"Campaign.sol\":4214:4260  mu >= 2 * sd && request.amount < (mu - 2 * sd) */\n              dup1\n              iszero\n              tag_162\n              jumpi\n              pop\n                /* \"Campaign.sol\":4257:4259  sd */\n              dup3\n                /* \"Campaign.sol\":4253:4254  2 */\n              0x02\n                /* \"Campaign.sol\":4253:4259  2 * sd */\n              tag_163\n              swap2\n              swap1\n              tag_155\n              jump\t// in\n            tag_163:\n                /* \"Campaign.sol\":4248:4250  mu */\n              dup5\n                /* \"Campaign.sol\":4248:4259  mu - 2 * sd */\n              tag_164\n              swap2\n              swap1\n              tag_147\n              jump\t// in\n            tag_164:\n                /* \"Campaign.sol\":4230:4237  request */\n              dup6\n                /* \"Campaign.sol\":4230:4244  request.amount */\n              0x01\n              add\n              sload\n                /* \"Campaign.sol\":4230:4260  request.amount < (mu - 2 * sd) */\n              lt\n                /* \"Campaign.sol\":4214:4260  mu >= 2 * sd && request.amount < (mu - 2 * sd) */\n            tag_162:\n                /* \"Campaign.sol\":4210:4557  if (mu >= 2 * sd && request.amount < (mu - 2 * sd)) quota -= 6;... */\n              iszero\n              tag_165\n              jumpi\n                /* \"Campaign.sol\":4271:4272  6 */\n              0x06\n                /* \"Campaign.sol\":4262:4272  quota -= 6 */\n              dup2\n              tag_166\n              swap2\n              swap1\n              tag_147\n              jump\t// in\n            tag_166:\n              swap1\n              pop\n                /* \"Campaign.sol\":4210:4557  if (mu >= 2 * sd && request.amount < (mu - 2 * sd)) quota -= 6;... */\n              jump(tag_167)\n            tag_165:\n                /* \"Campaign.sol\":4297:4299  sd */\n              dup3\n                /* \"Campaign.sol\":4291:4293  mu */\n              dup5\n                /* \"Campaign.sol\":4291:4299  mu >= sd */\n              lt\n              iszero\n                /* \"Campaign.sol\":4291:4329  mu >= sd && request.amount < (mu - sd) */\n              dup1\n              iszero\n              tag_168\n              jumpi\n              pop\n                /* \"Campaign.sol\":4326:4328  sd */\n              dup3\n                /* \"Campaign.sol\":4321:4323  mu */\n              dup5\n                /* \"Campaign.sol\":4321:4328  mu - sd */\n              tag_169\n              swap2\n              swap1\n              tag_147\n              jump\t// in\n            tag_169:\n                /* \"Campaign.sol\":4303:4310  request */\n              dup6\n                /* \"Campaign.sol\":4303:4317  request.amount */\n              0x01\n              add\n              sload\n                /* \"Campaign.sol\":4303:4329  request.amount < (mu - sd) */\n              lt\n                /* \"Campaign.sol\":4291:4329  mu >= sd && request.amount < (mu - sd) */\n            tag_168:\n                /* \"Campaign.sol\":4287:4557  if (mu >= sd && request.amount < (mu - sd)) quota -= 4;... */\n              iszero\n              tag_170\n              jumpi\n                /* \"Campaign.sol\":4340:4341  4 */\n              0x04\n                /* \"Campaign.sol\":4331:4341  quota -= 4 */\n              dup2\n              tag_171\n              swap2\n              swap1\n              tag_147\n              jump\t// in\n            tag_171:\n              swap1\n              pop\n                /* \"Campaign.sol\":4287:4557  if (mu >= sd && request.amount < (mu - sd)) quota -= 4;... */\n              jump(tag_172)\n            tag_170:\n                /* \"Campaign.sol\":4377:4379  mu */\n              dup4\n                /* \"Campaign.sol\":4360:4367  request */\n              dup6\n                /* \"Campaign.sol\":4360:4374  request.amount */\n              0x01\n              add\n              sload\n                /* \"Campaign.sol\":4360:4379  request.amount < mu */\n              lt\n                /* \"Campaign.sol\":4356:4557  if (request.amount < mu) quota -= 2;... */\n              iszero\n              tag_173\n              jumpi\n                /* \"Campaign.sol\":4390:4391  2 */\n              0x02\n                /* \"Campaign.sol\":4381:4391  quota -= 2 */\n              dup2\n              tag_174\n              swap2\n              swap1\n              tag_147\n              jump\t// in\n            tag_174:\n              swap1\n              pop\n                /* \"Campaign.sol\":4356:4557  if (request.amount < mu) quota -= 2;... */\n              jump(tag_175)\n            tag_173:\n                /* \"Campaign.sol\":4415:4422  request */\n              dup5\n                /* \"Campaign.sol\":4415:4429  request.amount */\n              0x01\n              add\n              sload\n                /* \"Campaign.sol\":4410:4412  mu */\n              dup5\n                /* \"Campaign.sol\":4410:4429  mu < request.amount */\n              lt\n                /* \"Campaign.sol\":4410:4459  mu < request.amount && request.amount < (mu + sd) */\n              dup1\n              iszero\n              tag_176\n              jumpi\n              pop\n                /* \"Campaign.sol\":4456:4458  sd */\n              dup3\n                /* \"Campaign.sol\":4451:4453  mu */\n              dup5\n                /* \"Campaign.sol\":4451:4458  mu + sd */\n              tag_177\n              swap2\n              swap1\n              tag_160\n              jump\t// in\n            tag_177:\n                /* \"Campaign.sol\":4433:4440  request */\n              dup6\n                /* \"Campaign.sol\":4433:4447  request.amount */\n              0x01\n              add\n              sload\n                /* \"Campaign.sol\":4433:4459  request.amount < (mu + sd) */\n              lt\n                /* \"Campaign.sol\":4410:4459  mu < request.amount && request.amount < (mu + sd) */\n            tag_176:\n                /* \"Campaign.sol\":4406:4557  if (mu < request.amount && request.amount < (mu + sd)) quota += 2;... */\n              iszero\n              tag_178\n              jumpi\n                /* \"Campaign.sol\":4470:4471  2 */\n              0x02\n                /* \"Campaign.sol\":4461:4471  quota += 2 */\n              dup2\n              tag_179\n              swap2\n              swap1\n              tag_160\n              jump\t// in\n            tag_179:\n              swap1\n              pop\n                /* \"Campaign.sol\":4406:4557  if (mu < request.amount && request.amount < (mu + sd)) quota += 2;... */\n              jump(tag_180)\n            tag_178:\n                /* \"Campaign.sol\":4517:4519  sd */\n              dup3\n                /* \"Campaign.sol\":4513:4514  2 */\n              0x02\n                /* \"Campaign.sol\":4513:4519  2 * sd */\n              tag_181\n              swap2\n              swap1\n              tag_155\n              jump\t// in\n            tag_181:\n                /* \"Campaign.sol\":4508:4510  mu */\n              dup5\n                /* \"Campaign.sol\":4508:4519  mu + 2 * sd */\n              tag_182\n              swap2\n              swap1\n              tag_160\n              jump\t// in\n            tag_182:\n                /* \"Campaign.sol\":4490:4497  request */\n              dup6\n                /* \"Campaign.sol\":4490:4504  request.amount */\n              0x01\n              add\n              sload\n                /* \"Campaign.sol\":4490:4520  request.amount < (mu + 2 * sd) */\n              lt\n                /* \"Campaign.sol\":4486:4557  if (request.amount < (mu + 2 * sd)) quota += 4;... */\n              iszero\n              tag_183\n              jumpi\n                /* \"Campaign.sol\":4531:4532  4 */\n              0x04\n                /* \"Campaign.sol\":4522:4532  quota += 4 */\n              dup2\n              tag_184\n              swap2\n              swap1\n              tag_160\n              jump\t// in\n            tag_184:\n              swap1\n              pop\n                /* \"Campaign.sol\":4486:4557  if (request.amount < (mu + 2 * sd)) quota += 4;... */\n              jump(tag_185)\n            tag_183:\n                /* \"Campaign.sol\":4556:4557  6 */\n              0x06\n                /* \"Campaign.sol\":4547:4557  quota += 6 */\n              dup2\n              tag_186\n              swap2\n              swap1\n              tag_160\n              jump\t// in\n            tag_186:\n              swap1\n              pop\n                /* \"Campaign.sol\":4486:4557  if (request.amount < (mu + 2 * sd)) quota += 4;... */\n            tag_185:\n                /* \"Campaign.sol\":4406:4557  if (mu < request.amount && request.amount < (mu + sd)) quota += 2;... */\n            tag_180:\n                /* \"Campaign.sol\":4356:4557  if (request.amount < mu) quota -= 2;... */\n            tag_175:\n                /* \"Campaign.sol\":4287:4557  if (mu >= sd && request.amount < (mu - sd)) quota -= 4;... */\n            tag_172:\n                /* \"Campaign.sol\":4210:4557  if (mu >= 2 * sd && request.amount < (mu - 2 * sd)) quota -= 6;... */\n            tag_167:\n                /* \"Campaign.sol\":4589:4594  quota */\n              dup1\n                /* \"Campaign.sol\":4571:4585  approvalWeight */\n              dup3\n                /* \"Campaign.sol\":4571:4594  approvalWeight >= quota */\n              lt\n                /* \"Campaign.sol\":4567:4644  if (approvalWeight >= quota) return \"approved\";... */\n              tag_187\n              jumpi\n                /* \"Campaign.sol\":4596:4613  return \"approved\" */\n              mload(0x40)\n              dup1\n              0x40\n              add\n              0x40\n              mstore\n              dup1\n              0x08\n              dup2\n              mstore\n              0x20\n              add\n              0x617070726f766564000000000000000000000000000000000000000000000000\n              dup2\n              mstore\n              pop\n              swap6\n              pop\n              pop\n              pop\n              pop\n              pop\n              pop\n              jump(tag_136)\n                /* \"Campaign.sol\":4567:4644  if (approvalWeight >= quota) return \"approved\";... */\n            tag_187:\n                /* \"Campaign.sol\":4628:4644  return \"pending\" */\n              mload(0x40)\n              dup1\n              0x40\n              add\n              0x40\n              mstore\n              dup1\n              0x07\n              dup2\n              mstore\n              0x20\n              add\n              0x70656e64696e6700000000000000000000000000000000000000000000000000\n              dup2\n              mstore\n              pop\n              swap6\n              pop\n              pop\n              pop\n              pop\n              pop\n              pop\n                /* \"Campaign.sol\":3512:4651  function checkApprovalStatus(... */\n            tag_136:\n              swap2\n              swap1\n              pop\n              jump\t// out\n                /* \"Campaign.sol\":5079:5694  function getSummary()... */\n            tag_56:\n                /* \"Campaign.sol\":5159:5172  string memory */\n              0x60\n                /* \"Campaign.sol\":5186:5199  string memory */\n              dup1\n                /* \"Campaign.sol\":5213:5226  string memory */\n              0x60\n                /* \"Campaign.sol\":5240:5244  uint */\n              0x00\n                /* \"Campaign.sol\":5258:5262  uint */\n              dup1\n                /* \"Campaign.sol\":5276:5280  uint */\n              0x00\n                /* \"Campaign.sol\":5294:5298  uint */\n              dup1\n                /* \"Campaign.sol\":5312:5316  uint */\n              0x00\n                /* \"Campaign.sol\":5330:5334  uint */\n              dup1\n                /* \"Campaign.sol\":5348:5355  address */\n              0x00\n                /* \"Campaign.sol\":5401:5413  campaignName */\n              0x03\n                /* \"Campaign.sol\":5427:5446  campaignDescription */\n              0x04\n                /* \"Campaign.sol\":5460:5476  campaignImageURL */\n              0x05\n                /* \"Campaign.sol\":5490:5504  campaignTarget */\n              sload(0x06)\n                /* \"Campaign.sol\":5518:5533  minContribution */\n              sload(0x07)\n                /* \"Campaign.sol\":5547:5562  amountCollected */\n              sload(0x0a)\n                /* \"Campaign.sol\":5576:5597  address(this).balance */\n              selfbalance\n                /* \"Campaign.sol\":5611:5619  requests */\n              0x00\n                /* \"Campaign.sol\":5611:5626  requests.length */\n              dup1\n              sload\n              swap1\n              pop\n                /* \"Campaign.sol\":5640:5656  contributerCount */\n              sload(0x09)\n                /* \"Campaign.sol\":5670:5677  manager */\n              0x02\n              0x00\n              swap1\n              sload\n              swap1\n              0x0100\n              exp\n              swap1\n              div\n              0xffffffffffffffffffffffffffffffffffffffff\n              and\n                /* \"Campaign.sol\":5380:5687  return (... */\n              dup10\n              dup1\n              sload\n              tag_190\n              swap1\n              tag_126\n              jump\t// in\n            tag_190:\n              dup1\n              0x1f\n              add\n              0x20\n              dup1\n              swap2\n              div\n              mul\n              0x20\n              add\n              mload(0x40)\n              swap1\n              dup2\n              add\n              0x40\n              mstore\n              dup1\n              swap3\n              swap2\n              swap1\n              dup2\n              dup2\n              mstore\n              0x20\n              add\n              dup3\n              dup1\n              sload\n              tag_191\n              swap1\n              tag_126\n              jump\t// in\n            tag_191:\n              dup1\n              iszero\n              tag_192\n              jumpi\n              dup1\n              0x1f\n              lt\n              tag_193\n              jumpi\n              0x0100\n              dup1\n              dup4\n              sload\n              div\n              mul\n              dup4\n              mstore\n              swap2\n              0x20\n              add\n              swap2\n              jump(tag_192)\n            tag_193:\n              dup3\n              add\n              swap2\n              swap1\n              0x00\n              mstore\n              keccak256(0x00, 0x20)\n              swap1\n            tag_194:\n              dup2\n              sload\n              dup2\n              mstore\n              swap1\n              0x01\n              add\n              swap1\n              0x20\n              add\n              dup1\n              dup4\n              gt\n              tag_194\n              jumpi\n              dup3\n              swap1\n              sub\n              0x1f\n              and\n              dup3\n              add\n              swap2\n            tag_192:\n              pop\n              pop\n              pop\n              pop\n              pop\n              swap10\n              pop\n              dup9\n              dup1\n              sload\n              tag_195\n              swap1\n              tag_126\n              jump\t// in\n            tag_195:\n              dup1\n              0x1f\n              add\n              0x20\n              dup1\n              swap2\n              div\n              mul\n              0x20\n              add\n              mload(0x40)\n              swap1\n              dup2\n              add\n              0x40\n              mstore\n              dup1\n              swap3\n              swap2\n              swap1\n              dup2\n              dup2\n              mstore\n              0x20\n              add\n              dup3\n              dup1\n              sload\n              tag_196\n              swap1\n              tag_126\n              jump\t// in\n            tag_196:\n              dup1\n              iszero\n              tag_197\n              jumpi\n              dup1\n              0x1f\n              lt\n              tag_198\n              jumpi\n              0x0100\n              dup1\n              dup4\n              sload\n              div\n              mul\n              dup4\n              mstore\n              swap2\n              0x20\n              add\n              swap2\n              jump(tag_197)\n            tag_198:\n              dup3\n              add\n              swap2\n              swap1\n              0x00\n              mstore\n              keccak256(0x00, 0x20)\n              swap1\n            tag_199:\n              dup2\n              sload\n              dup2\n              mstore\n              swap1\n              0x01\n              add\n              swap1\n              0x20\n              add\n              dup1\n              dup4\n              gt\n              tag_199\n              jumpi\n              dup3\n              swap1\n              sub\n              0x1f\n              and\n              dup3\n              add\n              swap2\n            tag_197:\n              pop\n              pop\n              pop\n              pop\n              pop\n              swap9\n              pop\n              dup8\n              dup1\n              sload\n              tag_200\n              swap1\n              tag_126\n              jump\t// in\n            tag_200:\n              dup1\n              0x1f\n              add\n              0x20\n              dup1\n              swap2\n              div\n              mul\n              0x20\n              add\n              mload(0x40)\n              swap1\n              dup2\n              add\n              0x40\n              mstore\n              dup1\n              swap3\n              swap2\n              swap1\n              dup2\n              dup2\n              mstore\n              0x20\n              add\n              dup3\n              dup1\n              sload\n              tag_201\n              swap1\n              tag_126\n              jump\t// in\n            tag_201:\n              dup1\n              iszero\n              tag_202\n              jumpi\n              dup1\n              0x1f\n              lt\n              tag_203\n              jumpi\n              0x0100\n              dup1\n              dup4\n              sload\n              div\n              mul\n              dup4\n              mstore\n              swap2\n              0x20\n              add\n              swap2\n              jump(tag_202)\n            tag_203:\n              dup3\n              add\n              swap2\n              swap1\n              0x00\n              mstore\n              keccak256(0x00, 0x20)\n              swap1\n            tag_204:\n              dup2\n              sload\n              dup2\n              mstore\n              swap1\n              0x01\n              add\n              swap1\n              0x20\n              add\n              dup1\n              dup4\n              gt\n              tag_204\n              jumpi\n              dup3\n              swap1\n              sub\n              0x1f\n              and\n              dup3\n              add\n              swap2\n            tag_202:\n              pop\n              pop\n              pop\n              pop\n              pop\n              swap8\n              pop\n              swap10\n              pop\n              swap10\n              pop\n              swap10\n              pop\n              swap10\n              pop\n              swap10\n              pop\n              swap10\n              pop\n              swap10\n              pop\n              swap10\n              pop\n              swap10\n              pop\n              swap10\n              pop\n                /* \"Campaign.sol\":5079:5694  function getSummary()... */\n              swap1\n              swap2\n              swap3\n              swap4\n              swap5\n              swap6\n              swap7\n              swap8\n              swap9\n              swap10\n              jump\t// out\n                /* \"Campaign.sol\":1056:1078  address public manager */\n            tag_61:\n              0x02\n              0x00\n              swap1\n              sload\n              swap1\n              0x0100\n              exp\n              swap1\n              div\n              0xffffffffffffffffffffffffffffffffffffffff\n              and\n              dup2\n              jump\t// out\n                /* \"Campaign.sol\":1155:1185  string public campaignImageURL */\n            tag_66:\n              0x05\n              dup1\n              sload\n              tag_205\n              swap1\n              tag_126\n              jump\t// in\n            tag_205:\n              dup1\n              0x1f\n              add\n              0x20\n              dup1\n              swap2\n              div\n              mul\n              0x20\n              add\n              mload(0x40)\n              swap1\n              dup2\n              add\n              0x40\n              mstore\n              dup1\n              swap3\n              swap2\n              swap1\n              dup2\n              dup2\n              mstore\n              0x20\n              add\n              dup3\n              dup1\n              sload\n              tag_206\n              swap1\n              tag_126\n              jump\t// in\n            tag_206:\n              dup1\n              iszero\n              tag_207\n              jumpi\n              dup1\n              0x1f\n              lt\n              tag_208\n              jumpi\n              0x0100\n              dup1\n              dup4\n              sload\n              div\n              mul\n              dup4\n              mstore\n              swap2\n              0x20\n              add\n              swap2\n              jump(tag_207)\n            tag_208:\n              dup3\n              add\n              swap2\n              swap1\n              0x00\n              mstore\n              keccak256(0x00, 0x20)\n              swap1\n            tag_209:\n              dup2\n              sload\n              dup2\n              mstore\n              swap1\n              0x01\n              add\n              swap1\n              0x20\n              add\n              dup1\n              dup4\n              gt\n              tag_209\n              jumpi\n              dup3\n              swap1\n              sub\n              0x1f\n              and\n              dup3\n              add\n              swap2\n            tag_207:\n              pop\n              pop\n              pop\n              pop\n              pop\n              dup2\n              jump\t// out\n                /* \"Campaign.sol\":2576:2688  function isContributer() external view returns (bool) {... */\n            tag_70:\n                /* \"Campaign.sol\":2624:2628  bool */\n              0x00\n                /* \"Campaign.sol\":2679:2680  0 */\n              dup1\n                /* \"Campaign.sol\":2652:2664  contributers */\n              0x08\n                /* \"Campaign.sol\":2652:2676  contributers[msg.sender] */\n              0x00\n                /* \"Campaign.sol\":2665:2675  msg.sender */\n              caller\n                /* \"Campaign.sol\":2652:2676  contributers[msg.sender] */\n              0xffffffffffffffffffffffffffffffffffffffff\n              and\n              0xffffffffffffffffffffffffffffffffffffffff\n              and\n              dup2\n              mstore\n              0x20\n              add\n              swap1\n              dup2\n              mstore\n              0x20\n              add\n              0x00\n              keccak256\n              sload\n                /* \"Campaign.sol\":2652:2680  contributers[msg.sender] > 0 */\n              gt\n                /* \"Campaign.sol\":2640:2681  return bool(contributers[msg.sender] > 0) */\n              swap1\n              pop\n                /* \"Campaign.sol\":2576:2688  function isContributer() external view returns (bool) {... */\n              swap1\n              jump\t// out\n                /* \"Campaign.sol\":976:1001  Request[] public requests */\n            tag_76:\n              0x00\n              dup2\n              dup2\n              sload\n              dup2\n              lt\n              tag_211\n              jumpi\n              0x00\n              dup1\n              revert\n            tag_211:\n              swap1\n              0x00\n              mstore\n              keccak256(0x00, 0x20)\n              swap1\n              0x06\n              mul\n              add\n              0x00\n              swap2\n              pop\n              swap1\n              pop\n              dup1\n              0x00\n              add\n              dup1\n              sload\n              tag_213\n              swap1\n              tag_126\n              jump\t// in\n            tag_213:\n              dup1\n              0x1f\n              add\n              0x20\n              dup1\n              swap2\n              div\n              mul\n              0x20\n              add\n              mload(0x40)\n              swap1\n              dup2\n              add\n              0x40\n              mstore\n              dup1\n              swap3\n              swap2\n              swap1\n              dup2\n              dup2\n              mstore\n              0x20\n              add\n              dup3\n              dup1\n              sload\n              tag_214\n              swap1\n              tag_126\n              jump\t// in\n            tag_214:\n              dup1\n              iszero\n              tag_215\n              jumpi\n              dup1\n              0x1f\n              lt\n              tag_216\n              jumpi\n              0x0100\n              dup1\n              dup4\n              sload\n              div\n              mul\n              dup4\n              mstore\n              swap2\n              0x20\n              add\n              swap2\n              jump(tag_215)\n            tag_216:\n              dup3\n              add\n              swap2\n              swap1\n              0x00\n              mstore\n              keccak256(0x00, 0x20)\n              swap1\n            tag_217:\n              dup2\n              sload\n              dup2\n              mstore\n              swap1\n              0x01\n              add\n              swap1\n              0x20\n              add\n              dup1\n              dup4\n              gt\n              tag_217\n              jumpi\n              dup3\n              swap1\n              sub\n              0x1f\n              and\n              dup3\n              add\n              swap2\n            tag_215:\n              pop\n              pop\n              pop\n              pop\n              pop\n              swap1\n              dup1\n              0x01\n              add\n              sload\n              swap1\n              dup1\n              0x02\n              add\n              0x00\n              swap1\n              sload\n              swap1\n              0x0100\n              exp\n              swap1\n              div\n              0xffffffffffffffffffffffffffffffffffffffff\n              and\n              swap1\n              dup1\n              0x03\n              add\n              sload\n              swap1\n              dup1\n              0x04\n              add\n              sload\n              swap1\n              dup1\n              0x05\n              add\n              dup1\n              sload\n              tag_218\n              swap1\n              tag_126\n              jump\t// in\n            tag_218:\n              dup1\n              0x1f\n              add\n              0x20\n              dup1\n              swap2\n              div\n              mul\n              0x20\n              add\n              mload(0x40)\n              swap1\n              dup2\n              add\n              0x40\n              mstore\n              dup1\n              swap3\n              swap2\n              swap1\n              dup2\n              dup2\n              mstore\n              0x20\n              add\n              dup3\n              dup1\n              sload\n              tag_219\n              swap1\n              tag_126\n              jump\t// in\n            tag_219:\n              dup1\n              iszero\n              tag_220\n              jumpi\n              dup1\n              0x1f\n              lt\n              tag_221\n              jumpi\n              0x0100\n              dup1\n              dup4\n              sload\n              div\n              mul\n              dup4\n              mstore\n              swap2\n              0x20\n              add\n              swap2\n              jump(tag_220)\n            tag_221:\n              dup3\n              add\n              swap2\n              swap1\n              0x00\n              mstore\n              keccak256(0x00, 0x20)\n              swap1\n            tag_222:\n              dup2\n              sload\n              dup2\n              mstore\n              swap1\n              0x01\n              add\n              swap1\n              0x20\n              add\n              dup1\n              dup4\n              gt\n              tag_222\n              jumpi\n              dup3\n              swap1\n              sub\n              0x1f\n              and\n              dup3\n              add\n              swap2\n            tag_220:\n              pop\n              pop\n              pop\n              pop\n              pop\n              swap1\n              pop\n              dup7\n              jump\t// out\n                /* \"Campaign.sol\":5700:5794  function getRequests() public view returns (Request[] memory) {... */\n            tag_81:\n                /* \"Campaign.sol\":5744:5760  Request[] memory */\n              0x60\n                /* \"Campaign.sol\":5779:5787  requests */\n              0x00\n                /* \"Campaign.sol\":5772:5787  return requests */\n              dup1\n              sload\n              dup1\n              0x20\n              mul\n              0x20\n              add\n              mload(0x40)\n              swap1\n              dup2\n              add\n              0x40\n              mstore\n              dup1\n              swap3\n              swap2\n              swap1\n              dup2\n              dup2\n              mstore\n              0x20\n              add\n              0x00\n              swap1\n            tag_224:\n              dup3\n              dup3\n              lt\n              iszero\n              tag_225\n              jumpi\n              dup4\n              dup3\n              swap1\n              0x00\n              mstore\n              keccak256(0x00, 0x20)\n              swap1\n              0x06\n              mul\n              add\n              mload(0x40)\n              dup1\n              0xc0\n              add\n              0x40\n              mstore\n              swap1\n              dup2\n              0x00\n              dup3\n              add\n              dup1\n              sload\n              tag_227\n              swap1\n              tag_126\n              jump\t// in\n            tag_227:\n              dup1\n              0x1f\n              add\n              0x20\n              dup1\n              swap2\n              div\n              mul\n              0x20\n              add\n              mload(0x40)\n              swap1\n              dup2\n              add\n              0x40\n              mstore\n              dup1\n              swap3\n              swap2\n              swap1\n              dup2\n              dup2\n              mstore\n              0x20\n              add\n              dup3\n              dup1\n              sload\n              tag_228\n              swap1\n              tag_126\n              jump\t// in\n            tag_228:\n              dup1\n              iszero\n              tag_229\n              jumpi\n              dup1\n              0x1f\n              lt\n              tag_230\n              jumpi\n              0x0100\n              dup1\n              dup4\n              sload\n              div\n              mul\n              dup4\n              mstore\n              swap2\n              0x20\n              add\n              swap2\n              jump(tag_229)\n            tag_230:\n              dup3\n              add\n              swap2\n              swap1\n              0x00\n              mstore\n              keccak256(0x00, 0x20)\n              swap1\n            tag_231:\n              dup2\n              sload\n              dup2\n              mstore\n              swap1\n              0x01\n              add\n              swap1\n              0x20\n              add\n              dup1\n              dup4\n              gt\n              tag_231\n              jumpi\n              dup3\n              swap1\n              sub\n              0x1f\n              and\n              dup3\n              add\n              swap2\n            tag_229:\n              pop\n              pop\n              pop\n              pop\n              pop\n              dup2\n              mstore\n              0x20\n              add\n              0x01\n              dup3\n              add\n              sload\n              dup2\n              mstore\n              0x20\n              add\n              0x02\n              dup3\n              add\n              0x00\n              swap1\n              sload\n              swap1\n              0x0100\n              exp\n              swap1\n              div\n              0xffffffffffffffffffffffffffffffffffffffff\n              and\n              0xffffffffffffffffffffffffffffffffffffffff\n              and\n              0xffffffffffffffffffffffffffffffffffffffff\n              and\n              dup2\n              mstore\n              0x20\n              add\n              0x03\n              dup3\n              add\n              sload\n              dup2\n              mstore\n              0x20\n              add\n              0x04\n              dup3\n              add\n              sload\n              dup2\n              mstore\n              0x20\n              add\n              0x05\n              dup3\n              add\n              dup1\n              sload\n              tag_232\n              swap1\n              tag_126\n              jump\t// in\n            tag_232:\n              dup1\n              0x1f\n              add\n              0x20\n              dup1\n              swap2\n              div\n              mul\n              0x20\n              add\n              mload(0x40)\n              swap1\n              dup2\n              add\n              0x40\n              mstore\n              dup1\n              swap3\n              swap2\n              swap1\n              dup2\n              dup2\n              mstore\n              0x20\n              add\n              dup3\n              dup1\n              sload\n              tag_233\n              swap1\n              tag_126\n              jump\t// in\n            tag_233:\n              dup1\n              iszero\n              tag_234\n              jumpi\n              dup1\n              0x1f\n              lt\n              tag_235\n              jumpi\n              0x0100\n              dup1\n              dup4\n              sload\n              div\n              mul\n              dup4\n              mstore\n              swap2\n              0x20\n              add\n              swap2\n              jump(tag_234)\n            tag_235:\n              dup3\n              add\n              swap2\n              swap1\n              0x00\n              mstore\n              keccak256(0x00, 0x20)\n              swap1\n            tag_236:\n              dup2\n              sload\n              dup2\n              mstore\n              swap1\n              0x01\n              add\n              swap1\n              0x20\n              add\n              dup1\n              dup4\n              gt\n              tag_236\n              jumpi\n              dup3\n              swap1\n              sub\n              0x1f\n              and\n              dup3\n              add\n              swap2\n            tag_234:\n              pop\n              pop\n              pop\n              pop\n              pop\n              dup2\n              mstore\n              pop\n              pop\n              dup2\n              mstore\n              0x20\n              add\n              swap1\n              0x01\n              add\n              swap1\n              jump(tag_224)\n            tag_225:\n              pop\n              pop\n              pop\n              pop\n              swap1\n              pop\n                /* \"Campaign.sol\":5700:5794  function getRequests() public view returns (Request[] memory) {... */\n              swap1\n              jump\t// out\n                /* \"Campaign.sol\":2694:3135  function createRequest(... */\n            tag_88:\n                /* \"Campaign.sol\":1890:1897  manager */\n              0x02\n              0x00\n              swap1\n              sload\n              swap1\n              0x0100\n              exp\n              swap1\n              div\n              0xffffffffffffffffffffffffffffffffffffffff\n              and\n                /* \"Campaign.sol\":1876:1897  msg.sender == manager */\n              0xffffffffffffffffffffffffffffffffffffffff\n              and\n                /* \"Campaign.sol\":1876:1886  msg.sender */\n              caller\n                /* \"Campaign.sol\":1876:1897  msg.sender == manager */\n              0xffffffffffffffffffffffffffffffffffffffff\n              and\n              eq\n                /* \"Campaign.sol\":1868:1898  require(msg.sender == manager) */\n              tag_238\n              jumpi\n              0x00\n              dup1\n              revert\n            tag_238:\n                /* \"Campaign.sol\":2849:2857  requests */\n              0x00\n                /* \"Campaign.sol\":2849:2864  requests.push() */\n              0x01\n              dup2\n              0x01\n              dup2\n              sload\n              add\n              dup1\n              dup3\n              sstore\n              dup1\n              swap2\n              pop\n              pop\n              sub\n              swap1\n              0x00\n              mstore\n              keccak256(0x00, 0x20)\n              swap1\n              pop\n              pop\n                /* \"Campaign.sol\":2874:2900  Request storage newRequest */\n              0x00\n                /* \"Campaign.sol\":2903:2911  requests */\n              dup1\n                /* \"Campaign.sol\":2930:2931  1 */\n              0x01\n                /* \"Campaign.sol\":2912:2920  requests */\n              0x00\n                /* \"Campaign.sol\":2912:2927  requests.length */\n              dup1\n              sload\n              swap1\n              pop\n                /* \"Campaign.sol\":2912:2931  requests.length - 1 */\n              tag_241\n              swap2\n              swap1\n              tag_147\n              jump\t// in\n            tag_241:\n                /* \"Campaign.sol\":2903:2932  requests[requests.length - 1] */\n              dup2\n              sload\n              dup2\n              lt\n              tag_242\n              jumpi\n              tag_243\n              tag_116\n              jump\t// in\n            tag_243:\n            tag_242:\n              swap1\n              0x00\n              mstore\n              keccak256(0x00, 0x20)\n              swap1\n              0x06\n              mul\n              add\n                /* \"Campaign.sol\":2874:2932  Request storage newRequest = requests[requests.length - 1] */\n              swap1\n              pop\n                /* \"Campaign.sol\":2967:2978  description */\n              dup4\n                /* \"Campaign.sol\":2942:2952  newRequest */\n              dup2\n                /* \"Campaign.sol\":2942:2964  newRequest.description */\n              0x00\n              add\n                /* \"Campaign.sol\":2942:2978  newRequest.description = description */\n              swap1\n              dup2\n              tag_245\n              swap2\n              swap1\n              tag_124\n              jump\t// in\n            tag_245:\n              pop\n                /* \"Campaign.sol\":3008:3014  amount */\n              dup3\n                /* \"Campaign.sol\":2988:2998  newRequest */\n              dup2\n                /* \"Campaign.sol\":2988:3005  newRequest.amount */\n              0x01\n              add\n                /* \"Campaign.sol\":2988:3014  newRequest.amount = amount */\n              dup2\n              swap1\n              sstore\n              pop\n                /* \"Campaign.sol\":3047:3056  recipient */\n              dup2\n                /* \"Campaign.sol\":3024:3034  newRequest */\n              dup2\n                /* \"Campaign.sol\":3024:3044  newRequest.recipient */\n              0x02\n              add\n              0x00\n                /* \"Campaign.sol\":3024:3056  newRequest.recipient = recipient */\n              0x0100\n              exp\n              dup2\n              sload\n              dup2\n              0xffffffffffffffffffffffffffffffffffffffff\n              mul\n              not\n              and\n              swap1\n              dup4\n              0xffffffffffffffffffffffffffffffffffffffff\n              and\n              mul\n              or\n              swap1\n              sstore\n              pop\n                /* \"Campaign.sol\":3066:3095  newRequest.status = \"pending\" */\n              mload(0x40)\n              dup1\n              0x40\n              add\n              0x40\n              mstore\n              dup1\n              0x07\n              dup2\n              mstore\n              0x20\n              add\n              0x70656e64696e6700000000000000000000000000000000000000000000000000\n              dup2\n              mstore\n              pop\n                /* \"Campaign.sol\":3066:3076  newRequest */\n              dup2\n                /* \"Campaign.sol\":3066:3083  newRequest.status */\n              0x05\n              add\n                /* \"Campaign.sol\":3066:3095  newRequest.status = \"pending\" */\n              swap1\n              dup2\n              tag_246\n              swap2\n              swap1\n              tag_124\n              jump\t// in\n            tag_246:\n              pop\n                /* \"Campaign.sol\":3105:3121  requestApprovers */\n              0x01\n                /* \"Campaign.sol\":3105:3128  requestApprovers.push() */\n              dup1\n              dup2\n              0x01\n              dup2\n              sload\n              add\n              dup1\n              dup3\n              sstore\n              dup1\n              swap2\n              pop\n              pop\n              sub\n              swap1\n              0x00\n              mstore\n              pop(keccak256(0x00, 0x20))\n              pop\n                /* \"Campaign.sol\":2839:3135  {... */\n              pop\n                /* \"Campaign.sol\":2694:3135  function createRequest(... */\n              pop\n              pop\n              pop\n              jump\t// out\n                /* \"Campaign.sol\":1306:1334  uint public contributerCount */\n            tag_91:\n              sload(0x09)\n              dup2\n              jump\t// out\n                /* \"Campaign.sol\":1223:1250  uint public minContribution */\n            tag_95:\n              sload(0x07)\n              dup2\n              jump\t// out\n                /* \"Campaign.sol\":2170:2271  function isManager() external view returns (bool) {... */\n            tag_99:\n                /* \"Campaign.sol\":2214:2218  bool */\n              0x00\n                /* \"Campaign.sol\":2253:2263  msg.sender */\n              caller\n                /* \"Campaign.sol\":2242:2263  manager == msg.sender */\n              0xffffffffffffffffffffffffffffffffffffffff\n              and\n                /* \"Campaign.sol\":2242:2249  manager */\n              0x02\n              0x00\n              swap1\n              sload\n              swap1\n              0x0100\n              exp\n              swap1\n              div\n              0xffffffffffffffffffffffffffffffffffffffff\n              and\n                /* \"Campaign.sol\":2242:2263  manager == msg.sender */\n              0xffffffffffffffffffffffffffffffffffffffff\n              and\n              eq\n                /* \"Campaign.sol\":2230:2264  return bool(manager == msg.sender) */\n              swap1\n              pop\n                /* \"Campaign.sol\":2170:2271  function isManager() external view returns (bool) {... */\n              swap1\n              jump\t// out\n                /* \"Campaign.sol\":2277:2570  function contribute() public payable {... */\n            tag_102:\n                /* \"Campaign.sol\":2360:2361  0 */\n              0x00\n                /* \"Campaign.sol\":2332:2344  contributers */\n              0x08\n                /* \"Campaign.sol\":2332:2356  contributers[msg.sender] */\n              0x00\n                /* \"Campaign.sol\":2345:2355  msg.sender */\n              caller\n                /* \"Campaign.sol\":2332:2356  contributers[msg.sender] */\n              0xffffffffffffffffffffffffffffffffffffffff\n              and\n              0xffffffffffffffffffffffffffffffffffffffff\n              and\n              dup2\n              mstore\n              0x20\n              add\n              swap1\n              dup2\n              mstore\n              0x20\n              add\n              0x00\n              keccak256\n              sload\n                /* \"Campaign.sol\":2332:2361  contributers[msg.sender] == 0 */\n              eq\n                /* \"Campaign.sol\":2324:2362  require(contributers[msg.sender] == 0) */\n              tag_250\n              jumpi\n              0x00\n              dup1\n              revert\n            tag_250:\n                /* \"Campaign.sol\":2393:2408  minContribution */\n              sload(0x07)\n                /* \"Campaign.sol\":2380:2389  msg.value */\n              callvalue\n                /* \"Campaign.sol\":2380:2408  msg.value >= minContribution */\n              lt\n              iszero\n                /* \"Campaign.sol\":2372:2409  require(msg.value >= minContribution) */\n              tag_251\n              jumpi\n              0x00\n              dup1\n              revert\n            tag_251:\n                /* \"Campaign.sol\":2446:2455  msg.value */\n              callvalue\n                /* \"Campaign.sol\":2419:2431  contributers */\n              0x08\n                /* \"Campaign.sol\":2419:2443  contributers[msg.sender] */\n              0x00\n                /* \"Campaign.sol\":2432:2442  msg.sender */\n              caller\n                /* \"Campaign.sol\":2419:2443  contributers[msg.sender] */\n              0xffffffffffffffffffffffffffffffffffffffff\n              and\n              0xffffffffffffffffffffffffffffffffffffffff\n              and\n              dup2\n              mstore\n              0x20\n              add\n              swap1\n              dup2\n              mstore\n              0x20\n              add\n              0x00\n              keccak256\n                /* \"Campaign.sol\":2419:2455  contributers[msg.sender] = msg.value */\n              dup2\n              swap1\n              sstore\n              pop\n                /* \"Campaign.sol\":2465:2481  contributerCount */\n              0x09\n              0x00\n                /* \"Campaign.sol\":2465:2483  contributerCount++ */\n              dup2\n              sload\n              dup1\n              swap3\n              swap2\n              swap1\n              tag_252\n              swap1\n              tag_253\n              jump\t// in\n            tag_252:\n              swap2\n              swap1\n              pop\n              sstore\n              pop\n                /* \"Campaign.sol\":2512:2521  msg.value */\n              callvalue\n                /* \"Campaign.sol\":2493:2508  amountCollected */\n              0x0a\n              0x00\n                /* \"Campaign.sol\":2493:2521  amountCollected += msg.value */\n              dup3\n              dup3\n              sload\n              tag_254\n              swap2\n              swap1\n              tag_160\n              jump\t// in\n            tag_254:\n              swap3\n              pop\n              pop\n              dup2\n              swap1\n              sstore\n              pop\n                /* \"Campaign.sol\":2562:2563  2 */\n              0x02\n                /* \"Campaign.sol\":2548:2557  msg.value */\n              callvalue\n                /* \"Campaign.sol\":2547:2563  (msg.value) ** 2 */\n              tag_255\n              swap2\n              swap1\n              tag_149\n              jump\t// in\n            tag_255:\n                /* \"Campaign.sol\":2531:2543  sigmaXSquare */\n              0x0b\n              0x00\n                /* \"Campaign.sol\":2531:2563  sigmaXSquare += (msg.value) ** 2 */\n              dup3\n              dup3\n              sload\n              tag_256\n              swap2\n              swap1\n              tag_160\n              jump\t// in\n            tag_256:\n              swap3\n              pop\n              pop\n              dup2\n              swap1\n              sstore\n              pop\n                /* \"Campaign.sol\":2277:2570  function contribute() public payable {... */\n              jump\t// out\n                /* \"Campaign.sol\":3141:3506  function approveRequest(uint requestIdx) public {... */\n            tag_106:\n                /* \"Campaign.sol\":3199:3222  Request storage request */\n              0x00\n                /* \"Campaign.sol\":3225:3233  requests */\n              dup1\n                /* \"Campaign.sol\":3234:3244  requestIdx */\n              dup3\n                /* \"Campaign.sol\":3225:3245  requests[requestIdx] */\n              dup2\n              sload\n              dup2\n              lt\n              tag_258\n              jumpi\n              tag_259\n              tag_116\n              jump\t// in\n            tag_259:\n            tag_258:\n              swap1\n              0x00\n              mstore\n              keccak256(0x00, 0x20)\n              swap1\n              0x06\n              mul\n              add\n                /* \"Campaign.sol\":3199:3245  Request storage request = requests[requestIdx] */\n              swap1\n              pop\n                /* \"Campaign.sol\":3290:3291  0 */\n              0x00\n                /* \"Campaign.sol\":3263:3275  contributers */\n              0x08\n                /* \"Campaign.sol\":3263:3287  contributers[msg.sender] */\n              0x00\n                /* \"Campaign.sol\":3276:3286  msg.sender */\n              caller\n                /* \"Campaign.sol\":3263:3287  contributers[msg.sender] */\n              0xffffffffffffffffffffffffffffffffffffffff\n              and\n              0xffffffffffffffffffffffffffffffffffffffff\n              and\n              dup2\n              mstore\n              0x20\n              add\n              swap1\n              dup2\n              mstore\n              0x20\n              add\n              0x00\n              keccak256\n              sload\n                /* \"Campaign.sol\":3263:3291  contributers[msg.sender] > 0 */\n              gt\n                /* \"Campaign.sol\":3255:3292  require(contributers[msg.sender] > 0) */\n              tag_261\n              jumpi\n              0x00\n              dup1\n              revert\n            tag_261:\n                /* \"Campaign.sol\":3311:3327  requestApprovers */\n              0x01\n                /* \"Campaign.sol\":3328:3338  requestIdx */\n              dup3\n                /* \"Campaign.sol\":3311:3339  requestApprovers[requestIdx] */\n              dup2\n              sload\n              dup2\n              lt\n              tag_262\n              jumpi\n              tag_263\n              tag_116\n              jump\t// in\n            tag_263:\n            tag_262:\n              swap1\n              0x00\n              mstore\n              keccak256(0x00, 0x20)\n              add\n                /* \"Campaign.sol\":3311:3351  requestApprovers[requestIdx][msg.sender] */\n              0x00\n                /* \"Campaign.sol\":3340:3350  msg.sender */\n              caller\n                /* \"Campaign.sol\":3311:3351  requestApprovers[requestIdx][msg.sender] */\n              0xffffffffffffffffffffffffffffffffffffffff\n              and\n              0xffffffffffffffffffffffffffffffffffffffff\n              and\n              dup2\n              mstore\n              0x20\n              add\n              swap1\n              dup2\n              mstore\n              0x20\n              add\n              0x00\n              keccak256\n              0x00\n              swap1\n              sload\n              swap1\n              0x0100\n              exp\n              swap1\n              div\n              0xff\n              and\n                /* \"Campaign.sol\":3310:3351  !requestApprovers[requestIdx][msg.sender] */\n              iszero\n                /* \"Campaign.sol\":3302:3352  require(!requestApprovers[requestIdx][msg.sender]) */\n              tag_265\n              jumpi\n              0x00\n              dup1\n              revert\n            tag_265:\n                /* \"Campaign.sol\":3362:3369  request */\n              dup1\n                /* \"Campaign.sol\":3362:3383  request.approvalCount */\n              0x03\n              add\n              0x00\n                /* \"Campaign.sol\":3362:3385  request.approvalCount++ */\n              dup2\n              sload\n              dup1\n              swap3\n              swap2\n              swap1\n              tag_266\n              swap1\n              tag_253\n              jump\t// in\n            tag_266:\n              swap2\n              swap1\n              pop\n              sstore\n              pop\n                /* \"Campaign.sol\":3438:3442  true */\n              0x01\n                /* \"Campaign.sol\":3395:3411  requestApprovers */\n              dup1\n                /* \"Campaign.sol\":3412:3422  requestIdx */\n              dup4\n                /* \"Campaign.sol\":3395:3423  requestApprovers[requestIdx] */\n              dup2\n              sload\n              dup2\n              lt\n              tag_267\n              jumpi\n              tag_268\n              tag_116\n              jump\t// in\n            tag_268:\n            tag_267:\n              swap1\n              0x00\n              mstore\n              keccak256(0x00, 0x20)\n              add\n                /* \"Campaign.sol\":3395:3435  requestApprovers[requestIdx][msg.sender] */\n              0x00\n                /* \"Campaign.sol\":3424:3434  msg.sender */\n              caller\n                /* \"Campaign.sol\":3395:3435  requestApprovers[requestIdx][msg.sender] */\n              0xffffffffffffffffffffffffffffffffffffffff\n              and\n              0xffffffffffffffffffffffffffffffffffffffff\n              and\n              dup2\n              mstore\n              0x20\n              add\n              swap1\n              dup2\n              mstore\n              0x20\n              add\n              0x00\n              keccak256\n              0x00\n                /* \"Campaign.sol\":3395:3442  requestApprovers[requestIdx][msg.sender] = true */\n              0x0100\n              exp\n              dup2\n              sload\n              dup2\n              0xff\n              mul\n              not\n              and\n              swap1\n              dup4\n              iszero\n              iszero\n              mul\n              or\n              swap1\n              sstore\n              pop\n                /* \"Campaign.sol\":3475:3487  contributers */\n              0x08\n                /* \"Campaign.sol\":3475:3499  contributers[msg.sender] */\n              0x00\n                /* \"Campaign.sol\":3488:3498  msg.sender */\n              caller\n                /* \"Campaign.sol\":3475:3499  contributers[msg.sender] */\n              0xffffffffffffffffffffffffffffffffffffffff\n              and\n              0xffffffffffffffffffffffffffffffffffffffff\n              and\n              dup2\n              mstore\n              0x20\n              add\n              swap1\n              dup2\n              mstore\n              0x20\n              add\n              0x00\n              keccak256\n              sload\n                /* \"Campaign.sol\":3452:3459  request */\n              dup2\n                /* \"Campaign.sol\":3452:3471  request.approvalSum */\n              0x04\n              add\n              0x00\n                /* \"Campaign.sol\":3452:3499  request.approvalSum += contributers[msg.sender] */\n              dup3\n              dup3\n              sload\n              tag_270\n              swap2\n              swap1\n              tag_160\n              jump\t// in\n            tag_270:\n              swap3\n              pop\n              pop\n              dup2\n              swap1\n              sstore\n              pop\n                /* \"Campaign.sol\":3189:3506  {... */\n              pop\n                /* \"Campaign.sol\":3141:3506  function approveRequest(uint requestIdx) public {... */\n              pop\n              jump\t// out\n                /* \"Campaign.sol\":1191:1217  uint public campaignTarget */\n            tag_109:\n              sload(0x06)\n              dup2\n              jump\t// out\n                /* \"Campaign.sol\":1922:2164  function sqrt(uint x) internal pure returns (uint) {... */\n            tag_153:\n                /* \"Campaign.sol\":1967:1971  uint */\n              0x00\n                /* \"Campaign.sol\":1992:1993  0 */\n              dup1\n                /* \"Campaign.sol\":1987:1988  x */\n              dup3\n                /* \"Campaign.sol\":1987:1993  x == 0 */\n              sub\n                /* \"Campaign.sol\":1983:2003  if (x == 0) return 0 */\n              tag_272\n              jumpi\n                /* \"Campaign.sol\":2002:2003  0 */\n              0x00\n                /* \"Campaign.sol\":1995:2003  return 0 */\n              swap1\n              pop\n              jump(tag_271)\n                /* \"Campaign.sol\":1983:2003  if (x == 0) return 0 */\n            tag_272:\n                /* \"Campaign.sol\":2013:2019  uint z */\n              0x00\n                /* \"Campaign.sol\":2032:2033  2 */\n              0x02\n                /* \"Campaign.sol\":2027:2028  1 */\n              0x01\n                /* \"Campaign.sol\":2023:2024  x */\n              dup5\n                /* \"Campaign.sol\":2023:2028  x + 1 */\n              tag_273\n              swap2\n              swap1\n              tag_160\n              jump\t// in\n            tag_273:\n                /* \"Campaign.sol\":2022:2033  (x + 1) / 2 */\n              tag_274\n              swap2\n              swap1\n              tag_144\n              jump\t// in\n            tag_274:\n                /* \"Campaign.sol\":2013:2033  uint z = (x + 1) / 2 */\n              swap1\n              pop\n                /* \"Campaign.sol\":2043:2049  uint y */\n              0x00\n                /* \"Campaign.sol\":2052:2053  x */\n              dup4\n                /* \"Campaign.sol\":2043:2053  uint y = x */\n              swap1\n              pop\n                /* \"Campaign.sol\":2063:2140  while (z < y) {... */\n            tag_275:\n                /* \"Campaign.sol\":2074:2075  y */\n              dup1\n                /* \"Campaign.sol\":2070:2071  z */\n              dup3\n                /* \"Campaign.sol\":2070:2075  z < y */\n              lt\n                /* \"Campaign.sol\":2063:2140  while (z < y) {... */\n              iszero\n              tag_276\n              jumpi\n                /* \"Campaign.sol\":2095:2096  z */\n              dup2\n                /* \"Campaign.sol\":2091:2096  y = z */\n              swap1\n              pop\n                /* \"Campaign.sol\":2128:2129  2 */\n              0x02\n                /* \"Campaign.sol\":2123:2124  z */\n              dup3\n                /* \"Campaign.sol\":2119:2120  z */\n              dup4\n                /* \"Campaign.sol\":2115:2116  x */\n              dup7\n                /* \"Campaign.sol\":2115:2120  x / z */\n              tag_277\n              swap2\n              swap1\n              tag_144\n              jump\t// in\n            tag_277:\n                /* \"Campaign.sol\":2115:2124  x / z + z */\n              tag_278\n              swap2\n              swap1\n              tag_160\n              jump\t// in\n            tag_278:\n                /* \"Campaign.sol\":2114:2129  (x / z + z) / 2 */\n              tag_279\n              swap2\n              swap1\n              tag_144\n              jump\t// in\n            tag_279:\n                /* \"Campaign.sol\":2110:2129  z = (x / z + z) / 2 */\n              swap2\n              pop\n                /* \"Campaign.sol\":2063:2140  while (z < y) {... */\n              jump(tag_275)\n            tag_276:\n                /* \"Campaign.sol\":2156:2157  y */\n              dup1\n                /* \"Campaign.sol\":2149:2157  return y */\n              swap3\n              pop\n              pop\n              pop\n                /* \"Campaign.sol\":1922:2164  function sqrt(uint x) internal pure returns (uint) {... */\n            tag_271:\n              swap2\n              swap1\n              pop\n              jump\t// out\n                /* \"#utility.yul\":7:82   */\n            tag_280:\n                /* \"#utility.yul\":40:46   */\n              0x00\n                /* \"#utility.yul\":73:75   */\n              0x40\n                /* \"#utility.yul\":67:76   */\n              mload\n                /* \"#utility.yul\":57:76   */\n              swap1\n              pop\n                /* \"#utility.yul\":7:82   */\n              swap1\n              jump\t// out\n                /* \"#utility.yul\":88:205   */\n            tag_281:\n                /* \"#utility.yul\":197:198   */\n              0x00\n                /* \"#utility.yul\":194:195   */\n              dup1\n                /* \"#utility.yul\":187:199   */\n              revert\n                /* \"#utility.yul\":211:328   */\n            tag_282:\n                /* \"#utility.yul\":320:321   */\n              0x00\n                /* \"#utility.yul\":317:318   */\n              dup1\n                /* \"#utility.yul\":310:322   */\n              revert\n                /* \"#utility.yul\":334:411   */\n            tag_283:\n                /* \"#utility.yul\":371:378   */\n              0x00\n                /* \"#utility.yul\":400:405   */\n              dup2\n                /* \"#utility.yul\":389:405   */\n              swap1\n              pop\n                /* \"#utility.yul\":334:411   */\n              swap2\n              swap1\n              pop\n              jump\t// out\n                /* \"#utility.yul\":417:539   */\n            tag_284:\n                /* \"#utility.yul\":490:514   */\n              tag_351\n                /* \"#utility.yul\":508:513   */\n              dup2\n                /* \"#utility.yul\":490:514   */\n              tag_283\n              jump\t// in\n            tag_351:\n                /* \"#utility.yul\":483:488   */\n              dup2\n                /* \"#utility.yul\":480:515   */\n              eq\n                /* \"#utility.yul\":470:533   */\n              tag_352\n              jumpi\n                /* \"#utility.yul\":529:530   */\n              0x00\n                /* \"#utility.yul\":526:527   */\n              dup1\n                /* \"#utility.yul\":519:531   */\n              revert\n                /* \"#utility.yul\":470:533   */\n            tag_352:\n                /* \"#utility.yul\":417:539   */\n              pop\n              jump\t// out\n                /* \"#utility.yul\":545:684   */\n            tag_285:\n                /* \"#utility.yul\":591:596   */\n              0x00\n                /* \"#utility.yul\":629:635   */\n              dup2\n                /* \"#utility.yul\":616:636   */\n              calldataload\n                /* \"#utility.yul\":607:636   */\n              swap1\n              pop\n                /* \"#utility.yul\":645:678   */\n              tag_354\n                /* \"#utility.yul\":672:677   */\n              dup2\n                /* \"#utility.yul\":645:678   */\n              tag_284\n              jump\t// in\n            tag_354:\n                /* \"#utility.yul\":545:684   */\n              swap3\n              swap2\n              pop\n              pop\n              jump\t// out\n                /* \"#utility.yul\":690:1019   */\n            tag_27:\n                /* \"#utility.yul\":749:755   */\n              0x00\n                /* \"#utility.yul\":798:800   */\n              0x20\n                /* \"#utility.yul\":786:795   */\n              dup3\n                /* \"#utility.yul\":777:784   */\n              dup5\n                /* \"#utility.yul\":773:796   */\n              sub\n                /* \"#utility.yul\":769:801   */\n              slt\n                /* \"#utility.yul\":766:885   */\n              iszero\n              tag_356\n              jumpi\n                /* \"#utility.yul\":804:883   */\n              tag_357\n              tag_281\n              jump\t// in\n            tag_357:\n                /* \"#utility.yul\":766:885   */\n            tag_356:\n                /* \"#utility.yul\":924:925   */\n              0x00\n                /* \"#utility.yul\":949:1002   */\n              tag_358\n                /* \"#utility.yul\":994:1001   */\n              dup5\n                /* \"#utility.yul\":985:991   */\n              dup3\n                /* \"#utility.yul\":974:983   */\n              dup6\n                /* \"#utility.yul\":970:992   */\n              add\n                /* \"#utility.yul\":949:1002   */\n              tag_285\n              jump\t// in\n            tag_358:\n                /* \"#utility.yul\":939:1002   */\n              swap2\n              pop\n                /* \"#utility.yul\":895:1012   */\n              pop\n                /* \"#utility.yul\":690:1019   */\n              swap3\n              swap2\n              pop\n              pop\n              jump\t// out\n                /* \"#utility.yul\":1025:1124   */\n            tag_286:\n                /* \"#utility.yul\":1077:1083   */\n              0x00\n                /* \"#utility.yul\":1111:1116   */\n              dup2\n                /* \"#utility.yul\":1105:1117   */\n              mload\n                /* \"#utility.yul\":1095:1117   */\n              swap1\n              pop\n                /* \"#utility.yul\":1025:1124   */\n              swap2\n              swap1\n              pop\n              jump\t// out\n                /* \"#utility.yul\":1130:1299   */\n            tag_287:\n                /* \"#utility.yul\":1214:1225   */\n              0x00\n                /* \"#utility.yul\":1248:1254   */\n              dup3\n                /* \"#utility.yul\":1243:1246   */\n              dup3\n                /* \"#utility.yul\":1236:1255   */\n              mstore\n                /* \"#utility.yul\":1288:1292   */\n              0x20\n                /* \"#utility.yul\":1283:1286   */\n              dup3\n                /* \"#utility.yul\":1279:1293   */\n              add\n                /* \"#utility.yul\":1264:1293   */\n              swap1\n              pop\n                /* \"#utility.yul\":1130:1299   */\n              swap3\n              swap2\n              pop\n              pop\n              jump\t// out\n                /* \"#utility.yul\":1305:1551   */\n            tag_288:\n                /* \"#utility.yul\":1386:1387   */\n              0x00\n                /* \"#utility.yul\":1396:1509   */\n            tag_362:\n                /* \"#utility.yul\":1410:1416   */\n              dup4\n                /* \"#utility.yul\":1407:1408   */\n              dup2\n                /* \"#utility.yul\":1404:1417   */\n              lt\n                /* \"#utility.yul\":1396:1509   */\n              iszero\n              tag_364\n              jumpi\n                /* \"#utility.yul\":1495:1496   */\n              dup1\n                /* \"#utility.yul\":1490:1493   */\n              dup3\n                /* \"#utility.yul\":1486:1497   */\n              add\n                /* \"#utility.yul\":1480:1498   */\n              mload\n                /* \"#utility.yul\":1476:1477   */\n              dup2\n                /* \"#utility.yul\":1471:1474   */\n              dup5\n                /* \"#utility.yul\":1467:1478   */\n              add\n                /* \"#utility.yul\":1460:1499   */\n              mstore\n                /* \"#utility.yul\":1432:1434   */\n              0x20\n                /* \"#utility.yul\":1429:1430   */\n              dup2\n                /* \"#utility.yul\":1425:1435   */\n              add\n                /* \"#utility.yul\":1420:1435   */\n              swap1\n              pop\n                /* \"#utility.yul\":1396:1509   */\n              jump(tag_362)\n            tag_364:\n                /* \"#utility.yul\":1543:1544   */\n              0x00\n                /* \"#utility.yul\":1534:1540   */\n              dup5\n                /* \"#utility.yul\":1529:1532   */\n              dup5\n                /* \"#utility.yul\":1525:1541   */\n              add\n                /* \"#utility.yul\":1518:1545   */\n              mstore\n                /* \"#utility.yul\":1367:1551   */\n              pop\n                /* \"#utility.yul\":1305:1551   */\n              pop\n              pop\n              pop\n              jump\t// out\n                /* \"#utility.yul\":1557:1659   */\n            tag_289:\n                /* \"#utility.yul\":1598:1604   */\n              0x00\n                /* \"#utility.yul\":1649:1651   */\n              0x1f\n                /* \"#utility.yul\":1645:1652   */\n              not\n                /* \"#utility.yul\":1640:1642   */\n              0x1f\n                /* \"#utility.yul\":1633:1638   */\n              dup4\n                /* \"#utility.yul\":1629:1643   */\n              add\n                /* \"#utility.yul\":1625:1653   */\n              and\n                /* \"#utility.yul\":1615:1653   */\n              swap1\n              pop\n                /* \"#utility.yul\":1557:1659   */\n              swap2\n              swap1\n              pop\n              jump\t// out\n                /* \"#utility.yul\":1665:2042   */\n            tag_290:\n                /* \"#utility.yul\":1753:1756   */\n              0x00\n                /* \"#utility.yul\":1781:1820   */\n              tag_367\n                /* \"#utility.yul\":1814:1819   */\n              dup3\n                /* \"#utility.yul\":1781:1820   */\n              tag_286\n              jump\t// in\n            tag_367:\n                /* \"#utility.yul\":1836:1907   */\n              tag_368\n                /* \"#utility.yul\":1900:1906   */\n              dup2\n                /* \"#utility.yul\":1895:1898   */\n              dup6\n                /* \"#utility.yul\":1836:1907   */\n              tag_287\n              jump\t// in\n            tag_368:\n                /* \"#utility.yul\":1829:1907   */\n              swap4\n              pop\n                /* \"#utility.yul\":1916:1981   */\n              tag_369\n                /* \"#utility.yul\":1974:1980   */\n              dup2\n                /* \"#utility.yul\":1969:1972   */\n              dup6\n                /* \"#utility.yul\":1962:1966   */\n              0x20\n                /* \"#utility.yul\":1955:1960   */\n              dup7\n                /* \"#utility.yul\":1951:1967   */\n              add\n                /* \"#utility.yul\":1916:1981   */\n              tag_288\n              jump\t// in\n            tag_369:\n                /* \"#utility.yul\":2006:2035   */\n              tag_370\n                /* \"#utility.yul\":2028:2034   */\n              dup2\n                /* \"#utility.yul\":2006:2035   */\n              tag_289\n              jump\t// in\n            tag_370:\n                /* \"#utility.yul\":2001:2004   */\n              dup5\n                /* \"#utility.yul\":1997:2036   */\n              add\n                /* \"#utility.yul\":1990:2036   */\n              swap2\n              pop\n                /* \"#utility.yul\":1757:2042   */\n              pop\n                /* \"#utility.yul\":1665:2042   */\n              swap3\n              swap2\n              pop\n              pop\n              jump\t// out\n                /* \"#utility.yul\":2048:2361   */\n            tag_33:\n                /* \"#utility.yul\":2161:2165   */\n              0x00\n                /* \"#utility.yul\":2199:2201   */\n              0x20\n                /* \"#utility.yul\":2188:2197   */\n              dup3\n                /* \"#utility.yul\":2184:2202   */\n              add\n                /* \"#utility.yul\":2176:2202   */\n              swap1\n              pop\n                /* \"#utility.yul\":2248:2257   */\n              dup2\n                /* \"#utility.yul\":2242:2246   */\n              dup2\n                /* \"#utility.yul\":2238:2258   */\n              sub\n                /* \"#utility.yul\":2234:2235   */\n              0x00\n                /* \"#utility.yul\":2223:2232   */\n              dup4\n                /* \"#utility.yul\":2219:2236   */\n              add\n                /* \"#utility.yul\":2212:2259   */\n              mstore\n                /* \"#utility.yul\":2276:2354   */\n              tag_372\n                /* \"#utility.yul\":2349:2353   */\n              dup2\n                /* \"#utility.yul\":2340:2346   */\n              dup5\n                /* \"#utility.yul\":2276:2354   */\n              tag_290\n              jump\t// in\n            tag_372:\n                /* \"#utility.yul\":2268:2354   */\n              swap1\n              pop\n                /* \"#utility.yul\":2048:2361   */\n              swap3\n              swap2\n              pop\n              pop\n              jump\t// out\n                /* \"#utility.yul\":2367:2485   */\n            tag_291:\n                /* \"#utility.yul\":2454:2478   */\n              tag_374\n                /* \"#utility.yul\":2472:2477   */\n              dup2\n                /* \"#utility.yul\":2454:2478   */\n              tag_283\n              jump\t// in\n            tag_374:\n                /* \"#utility.yul\":2449:2452   */\n              dup3\n                /* \"#utility.yul\":2442:2479   */\n              mstore\n                /* \"#utility.yul\":2367:2485   */\n              pop\n              pop\n              jump\t// out\n                /* \"#utility.yul\":2491:2713   */\n            tag_42:\n                /* \"#utility.yul\":2584:2588   */\n              0x00\n                /* \"#utility.yul\":2622:2624   */\n              0x20\n                /* \"#utility.yul\":2611:2620   */\n              dup3\n                /* \"#utility.yul\":2607:2625   */\n              add\n                /* \"#utility.yul\":2599:2625   */\n              swap1\n              pop\n                /* \"#utility.yul\":2635:2706   */\n              tag_376\n                /* \"#utility.yul\":2703:2704   */\n              0x00\n                /* \"#utility.yul\":2692:2701   */\n              dup4\n                /* \"#utility.yul\":2688:2705   */\n              add\n                /* \"#utility.yul\":2679:2685   */\n              dup5\n                /* \"#utility.yul\":2635:2706   */\n              tag_291\n              jump\t// in\n            tag_376:\n                /* \"#utility.yul\":2491:2713   */\n              swap3\n              swap2\n              pop\n              pop\n              jump\t// out\n                /* \"#utility.yul\":2719:2845   */\n            tag_292:\n                /* \"#utility.yul\":2756:2763   */\n              0x00\n                /* \"#utility.yul\":2796:2838   */\n              0xffffffffffffffffffffffffffffffffffffffff\n                /* \"#utility.yul\":2789:2794   */\n              dup3\n                /* \"#utility.yul\":2785:2839   */\n              and\n                /* \"#utility.yul\":2774:2839   */\n              swap1\n              pop\n                /* \"#utility.yul\":2719:2845   */\n              swap2\n              swap1\n              pop\n              jump\t// out\n                /* \"#utility.yul\":2851:2947   */\n            tag_293:\n                /* \"#utility.yul\":2888:2895   */\n              0x00\n                /* \"#utility.yul\":2917:2941   */\n              tag_379\n                /* \"#utility.yul\":2935:2940   */\n              dup3\n                /* \"#utility.yul\":2917:2941   */\n              tag_292\n              jump\t// in\n            tag_379:\n                /* \"#utility.yul\":2906:2941   */\n              swap1\n              pop\n                /* \"#utility.yul\":2851:2947   */\n              swap2\n              swap1\n              pop\n              jump\t// out\n                /* \"#utility.yul\":2953:3075   */\n            tag_294:\n                /* \"#utility.yul\":3026:3050   */\n              tag_381\n                /* \"#utility.yul\":3044:3049   */\n              dup2\n                /* \"#utility.yul\":3026:3050   */\n              tag_293\n              jump\t// in\n            tag_381:\n                /* \"#utility.yul\":3019:3024   */\n              dup2\n                /* \"#utility.yul\":3016:3051   */\n              eq\n                /* \"#utility.yul\":3006:3069   */\n              tag_382\n              jumpi\n                /* \"#utility.yul\":3065:3066   */\n              0x00\n                /* \"#utility.yul\":3062:3063   */\n              dup1\n                /* \"#utility.yul\":3055:3067   */\n              revert\n                /* \"#utility.yul\":3006:3069   */\n            tag_382:\n                /* \"#utility.yul\":2953:3075   */\n              pop\n              jump\t// out\n                /* \"#utility.yul\":3081:3220   */\n            tag_295:\n                /* \"#utility.yul\":3127:3132   */\n              0x00\n                /* \"#utility.yul\":3165:3171   */\n              dup2\n                /* \"#utility.yul\":3152:3172   */\n              calldataload\n                /* \"#utility.yul\":3143:3172   */\n              swap1\n              pop\n                /* \"#utility.yul\":3181:3214   */\n              tag_384\n                /* \"#utility.yul\":3208:3213   */\n              dup2\n                /* \"#utility.yul\":3181:3214   */\n              tag_294\n              jump\t// in\n            tag_384:\n                /* \"#utility.yul\":3081:3220   */\n              swap3\n              swap2\n              pop\n              pop\n              jump\t// out\n                /* \"#utility.yul\":3226:3555   */\n            tag_46:\n                /* \"#utility.yul\":3285:3291   */\n              0x00\n                /* \"#utility.yul\":3334:3336   */\n              0x20\n                /* \"#utility.yul\":3322:3331   */\n              dup3\n                /* \"#utility.yul\":3313:3320   */\n              dup5\n                /* \"#utility.yul\":3309:3332   */\n              sub\n                /* \"#utility.yul\":3305:3337   */\n              slt\n                /* \"#utility.yul\":3302:3421   */\n              iszero\n              tag_386\n              jumpi\n                /* \"#utility.yul\":3340:3419   */\n              tag_387\n              tag_281\n              jump\t// in\n            tag_387:\n                /* \"#utility.yul\":3302:3421   */\n            tag_386:\n                /* \"#utility.yul\":3460:3461   */\n              0x00\n                /* \"#utility.yul\":3485:3538   */\n              tag_388\n                /* \"#utility.yul\":3530:3537   */\n              dup5\n                /* \"#utility.yul\":3521:3527   */\n              dup3\n                /* \"#utility.yul\":3510:3519   */\n              dup6\n                /* \"#utility.yul\":3506:3528   */\n              add\n                /* \"#utility.yul\":3485:3538   */\n              tag_295\n              jump\t// in\n            tag_388:\n                /* \"#utility.yul\":3475:3538   */\n              swap2\n              pop\n                /* \"#utility.yul\":3431:3548   */\n              pop\n                /* \"#utility.yul\":3226:3555   */\n              swap3\n              swap2\n              pop\n              pop\n              jump\t// out\n                /* \"#utility.yul\":3561:3679   */\n            tag_296:\n                /* \"#utility.yul\":3648:3672   */\n              tag_390\n                /* \"#utility.yul\":3666:3671   */\n              dup2\n                /* \"#utility.yul\":3648:3672   */\n              tag_293\n              jump\t// in\n            tag_390:\n                /* \"#utility.yul\":3643:3646   */\n              dup3\n                /* \"#utility.yul\":3636:3673   */\n              mstore\n                /* \"#utility.yul\":3561:3679   */\n              pop\n              pop\n              jump\t// out\n                /* \"#utility.yul\":3685:5177   */\n            tag_58:\n                /* \"#utility.yul\":4090:4094   */\n              0x00\n                /* \"#utility.yul\":4128:4131   */\n              0x0140\n                /* \"#utility.yul\":4117:4126   */\n              dup3\n                /* \"#utility.yul\":4113:4132   */\n              add\n                /* \"#utility.yul\":4105:4132   */\n              swap1\n              pop\n                /* \"#utility.yul\":4178:4187   */\n              dup2\n                /* \"#utility.yul\":4172:4176   */\n              dup2\n                /* \"#utility.yul\":4168:4188   */\n              sub\n                /* \"#utility.yul\":4164:4165   */\n              0x00\n                /* \"#utility.yul\":4153:4162   */\n              dup4\n                /* \"#utility.yul\":4149:4166   */\n              add\n                /* \"#utility.yul\":4142:4189   */\n              mstore\n                /* \"#utility.yul\":4206:4284   */\n              tag_392\n                /* \"#utility.yul\":4279:4283   */\n              dup2\n                /* \"#utility.yul\":4270:4276   */\n              dup14\n                /* \"#utility.yul\":4206:4284   */\n              tag_290\n              jump\t// in\n            tag_392:\n                /* \"#utility.yul\":4198:4284   */\n              swap1\n              pop\n                /* \"#utility.yul\":4331:4340   */\n              dup2\n                /* \"#utility.yul\":4325:4329   */\n              dup2\n                /* \"#utility.yul\":4321:4341   */\n              sub\n                /* \"#utility.yul\":4316:4318   */\n              0x20\n                /* \"#utility.yul\":4305:4314   */\n              dup4\n                /* \"#utility.yul\":4301:4319   */\n              add\n                /* \"#utility.yul\":4294:4342   */\n              mstore\n                /* \"#utility.yul\":4359:4437   */\n              tag_393\n                /* \"#utility.yul\":4432:4436   */\n              dup2\n                /* \"#utility.yul\":4423:4429   */\n              dup13\n                /* \"#utility.yul\":4359:4437   */\n              tag_290\n              jump\t// in\n            tag_393:\n                /* \"#utility.yul\":4351:4437   */\n              swap1\n              pop\n                /* \"#utility.yul\":4484:4493   */\n              dup2\n                /* \"#utility.yul\":4478:4482   */\n              dup2\n                /* \"#utility.yul\":4474:4494   */\n              sub\n                /* \"#utility.yul\":4469:4471   */\n              0x40\n                /* \"#utility.yul\":4458:4467   */\n              dup4\n                /* \"#utility.yul\":4454:4472   */\n              add\n                /* \"#utility.yul\":4447:4495   */\n              mstore\n                /* \"#utility.yul\":4512:4590   */\n              tag_394\n                /* \"#utility.yul\":4585:4589   */\n              dup2\n                /* \"#utility.yul\":4576:4582   */\n              dup12\n                /* \"#utility.yul\":4512:4590   */\n              tag_290\n              jump\t// in\n            tag_394:\n                /* \"#utility.yul\":4504:4590   */\n              swap1\n              pop\n                /* \"#utility.yul\":4600:4672   */\n              tag_395\n                /* \"#utility.yul\":4668:4670   */\n              0x60\n                /* \"#utility.yul\":4657:4666   */\n              dup4\n                /* \"#utility.yul\":4653:4671   */\n              add\n                /* \"#utility.yul\":4644:4650   */\n              dup11\n                /* \"#utility.yul\":4600:4672   */\n              tag_291\n              jump\t// in\n            tag_395:\n                /* \"#utility.yul\":4682:4755   */\n              tag_396\n                /* \"#utility.yul\":4750:4753   */\n              0x80\n                /* \"#utility.yul\":4739:4748   */\n              dup4\n                /* \"#utility.yul\":4735:4754   */\n              add\n                /* \"#utility.yul\":4726:4732   */\n              dup10\n                /* \"#utility.yul\":4682:4755   */\n              tag_291\n              jump\t// in\n            tag_396:\n                /* \"#utility.yul\":4765:4838   */\n              tag_397\n                /* \"#utility.yul\":4833:4836   */\n              0xa0\n                /* \"#utility.yul\":4822:4831   */\n              dup4\n                /* \"#utility.yul\":4818:4837   */\n              add\n                /* \"#utility.yul\":4809:4815   */\n              dup9\n                /* \"#utility.yul\":4765:4838   */\n              tag_291\n              jump\t// in\n            tag_397:\n                /* \"#utility.yul\":4848:4921   */\n              tag_398\n                /* \"#utility.yul\":4916:4919   */\n              0xc0\n                /* \"#utility.yul\":4905:4914   */\n              dup4\n                /* \"#utility.yul\":4901:4920   */\n              add\n                /* \"#utility.yul\":4892:4898   */\n              dup8\n                /* \"#utility.yul\":4848:4921   */\n              tag_291\n              jump\t// in\n            tag_398:\n                /* \"#utility.yul\":4931:5004   */\n              tag_399\n                /* \"#utility.yul\":4999:5002   */\n              0xe0\n                /* \"#utility.yul\":4988:4997   */\n              dup4\n                /* \"#utility.yul\":4984:5003   */\n              add\n                /* \"#utility.yul\":4975:4981   */\n              dup7\n                /* \"#utility.yul\":4931:5004   */\n              tag_291\n              jump\t// in\n            tag_399:\n                /* \"#utility.yul\":5014:5087   */\n              tag_400\n                /* \"#utility.yul\":5082:5085   */\n              0x0100\n                /* \"#utility.yul\":5071:5080   */\n              dup4\n                /* \"#utility.yul\":5067:5086   */\n              add\n                /* \"#utility.yul\":5058:5064   */\n              dup6\n                /* \"#utility.yul\":5014:5087   */\n              tag_291\n              jump\t// in\n            tag_400:\n                /* \"#utility.yul\":5097:5170   */\n              tag_401\n                /* \"#utility.yul\":5165:5168   */\n              0x0120\n                /* \"#utility.yul\":5154:5163   */\n              dup4\n                /* \"#utility.yul\":5150:5169   */\n              add\n                /* \"#utility.yul\":5141:5147   */\n              dup5\n                /* \"#utility.yul\":5097:5170   */\n              tag_296\n              jump\t// in\n            tag_401:\n                /* \"#utility.yul\":3685:5177   */\n              swap12\n              swap11\n              pop\n              pop\n              pop\n              pop\n              pop\n              pop\n              pop\n              pop\n              pop\n              pop\n              pop\n              jump\t// out\n                /* \"#utility.yul\":5183:5405   */\n            tag_63:\n                /* \"#utility.yul\":5276:5280   */\n              0x00\n                /* \"#utility.yul\":5314:5316   */\n              0x20\n                /* \"#utility.yul\":5303:5312   */\n              dup3\n                /* \"#utility.yul\":5299:5317   */\n              add\n                /* \"#utility.yul\":5291:5317   */\n              swap1\n              pop\n                /* \"#utility.yul\":5327:5398   */\n              tag_403\n                /* \"#utility.yul\":5395:5396   */\n              0x00\n                /* \"#utility.yul\":5384:5393   */\n              dup4\n                /* \"#utility.yul\":5380:5397   */\n              add\n                /* \"#utility.yul\":5371:5377   */\n              dup5\n                /* \"#utility.yul\":5327:5398   */\n              tag_296\n              jump\t// in\n            tag_403:\n                /* \"#utility.yul\":5183:5405   */\n              swap3\n              swap2\n              pop\n              pop\n              jump\t// out\n                /* \"#utility.yul\":5411:5501   */\n            tag_297:\n                /* \"#utility.yul\":5445:5452   */\n              0x00\n                /* \"#utility.yul\":5488:5493   */\n              dup2\n                /* \"#utility.yul\":5481:5494   */\n              iszero\n                /* \"#utility.yul\":5474:5495   */\n              iszero\n                /* \"#utility.yul\":5463:5495   */\n              swap1\n              pop\n                /* \"#utility.yul\":5411:5501   */\n              swap2\n              swap1\n              pop\n              jump\t// out\n                /* \"#utility.yul\":5507:5616   */\n            tag_298:\n                /* \"#utility.yul\":5588:5609   */\n              tag_406\n                /* \"#utility.yul\":5603:5608   */\n              dup2\n                /* \"#utility.yul\":5588:5609   */\n              tag_297\n              jump\t// in\n            tag_406:\n                /* \"#utility.yul\":5583:5586   */\n              dup3\n                /* \"#utility.yul\":5576:5610   */\n              mstore\n                /* \"#utility.yul\":5507:5616   */\n              pop\n              pop\n              jump\t// out\n                /* \"#utility.yul\":5622:5832   */\n            tag_72:\n                /* \"#utility.yul\":5709:5713   */\n              0x00\n                /* \"#utility.yul\":5747:5749   */\n              0x20\n                /* \"#utility.yul\":5736:5745   */\n              dup3\n                /* \"#utility.yul\":5732:5750   */\n              add\n                /* \"#utility.yul\":5724:5750   */\n              swap1\n              pop\n                /* \"#utility.yul\":5760:5825   */\n              tag_408\n                /* \"#utility.yul\":5822:5823   */\n              0x00\n                /* \"#utility.yul\":5811:5820   */\n              dup4\n                /* \"#utility.yul\":5807:5824   */\n              add\n                /* \"#utility.yul\":5798:5804   */\n              dup5\n                /* \"#utility.yul\":5760:5825   */\n              tag_298\n              jump\t// in\n            tag_408:\n                /* \"#utility.yul\":5622:5832   */\n              swap3\n              swap2\n              pop\n              pop\n              jump\t// out\n                /* \"#utility.yul\":5838:5942   */\n            tag_299:\n                /* \"#utility.yul\":5883:5890   */\n              0x00\n                /* \"#utility.yul\":5912:5936   */\n              tag_410\n                /* \"#utility.yul\":5930:5935   */\n              dup3\n                /* \"#utility.yul\":5912:5936   */\n              tag_292\n              jump\t// in\n            tag_410:\n                /* \"#utility.yul\":5901:5936   */\n              swap1\n              pop\n                /* \"#utility.yul\":5838:5942   */\n              swap2\n              swap1\n              pop\n              jump\t// out\n                /* \"#utility.yul\":5948:6090   */\n            tag_300:\n                /* \"#utility.yul\":6051:6083   */\n              tag_412\n                /* \"#utility.yul\":6077:6082   */\n              dup2\n                /* \"#utility.yul\":6051:6083   */\n              tag_299\n              jump\t// in\n            tag_412:\n                /* \"#utility.yul\":6046:6049   */\n              dup3\n                /* \"#utility.yul\":6039:6084   */\n              mstore\n                /* \"#utility.yul\":5948:6090   */\n              pop\n              pop\n              jump\t// out\n                /* \"#utility.yul\":6096:7085   */\n            tag_78:\n                /* \"#utility.yul\":6385:6389   */\n              0x00\n                /* \"#utility.yul\":6423:6426   */\n              0xc0\n                /* \"#utility.yul\":6412:6421   */\n              dup3\n                /* \"#utility.yul\":6408:6427   */\n              add\n                /* \"#utility.yul\":6400:6427   */\n              swap1\n              pop\n                /* \"#utility.yul\":6473:6482   */\n              dup2\n                /* \"#utility.yul\":6467:6471   */\n              dup2\n                /* \"#utility.yul\":6463:6483   */\n              sub\n                /* \"#utility.yul\":6459:6460   */\n              0x00\n                /* \"#utility.yul\":6448:6457   */\n              dup4\n                /* \"#utility.yul\":6444:6461   */\n              add\n                /* \"#utility.yul\":6437:6484   */\n              mstore\n                /* \"#utility.yul\":6501:6579   */\n              tag_414\n                /* \"#utility.yul\":6574:6578   */\n              dup2\n                /* \"#utility.yul\":6565:6571   */\n              dup10\n                /* \"#utility.yul\":6501:6579   */\n              tag_290\n              jump\t// in\n            tag_414:\n                /* \"#utility.yul\":6493:6579   */\n              swap1\n              pop\n                /* \"#utility.yul\":6589:6661   */\n              tag_415\n                /* \"#utility.yul\":6657:6659   */\n              0x20\n                /* \"#utility.yul\":6646:6655   */\n              dup4\n                /* \"#utility.yul\":6642:6660   */\n              add\n                /* \"#utility.yul\":6633:6639   */\n              dup9\n                /* \"#utility.yul\":6589:6661   */\n              tag_291\n              jump\t// in\n            tag_415:\n                /* \"#utility.yul\":6671:6759   */\n              tag_416\n                /* \"#utility.yul\":6755:6757   */\n              0x40\n                /* \"#utility.yul\":6744:6753   */\n              dup4\n                /* \"#utility.yul\":6740:6758   */\n              add\n                /* \"#utility.yul\":6731:6737   */\n              dup8\n                /* \"#utility.yul\":6671:6759   */\n              tag_300\n              jump\t// in\n            tag_416:\n                /* \"#utility.yul\":6769:6841   */\n              tag_417\n                /* \"#utility.yul\":6837:6839   */\n              0x60\n                /* \"#utility.yul\":6826:6835   */\n              dup4\n                /* \"#utility.yul\":6822:6840   */\n              add\n                /* \"#utility.yul\":6813:6819   */\n              dup7\n                /* \"#utility.yul\":6769:6841   */\n              tag_291\n              jump\t// in\n            tag_417:\n                /* \"#utility.yul\":6851:6924   */\n              tag_418\n                /* \"#utility.yul\":6919:6922   */\n              0x80\n                /* \"#utility.yul\":6908:6917   */\n              dup4\n                /* \"#utility.yul\":6904:6923   */\n              add\n                /* \"#utility.yul\":6895:6901   */\n              dup6\n                /* \"#utility.yul\":6851:6924   */\n              tag_291\n              jump\t// in\n            tag_418:\n                /* \"#utility.yul\":6972:6981   */\n              dup2\n                /* \"#utility.yul\":6966:6970   */\n              dup2\n                /* \"#utility.yul\":6962:6982   */\n              sub\n                /* \"#utility.yul\":6956:6959   */\n              0xa0\n                /* \"#utility.yul\":6945:6954   */\n              dup4\n                /* \"#utility.yul\":6941:6960   */\n              add\n                /* \"#utility.yul\":6934:6983   */\n              mstore\n                /* \"#utility.yul\":7000:7078   */\n              tag_419\n                /* \"#utility.yul\":7073:7077   */\n              dup2\n                /* \"#utility.yul\":7064:7070   */\n              dup5\n                /* \"#utility.yul\":7000:7078   */\n              tag_290\n              jump\t// in\n            tag_419:\n                /* \"#utility.yul\":6992:7078   */\n              swap1\n              pop\n                /* \"#utility.yul\":6096:7085   */\n              swap8\n              swap7\n              pop\n              pop\n              pop\n              pop\n              pop\n              pop\n              pop\n              jump\t// out\n                /* \"#utility.yul\":7091:7228   */\n            tag_301:\n                /* \"#utility.yul\":7181:7187   */\n              0x00\n                /* \"#utility.yul\":7215:7220   */\n              dup2\n                /* \"#utility.yul\":7209:7221   */\n              mload\n                /* \"#utility.yul\":7199:7221   */\n              swap1\n              pop\n                /* \"#utility.yul\":7091:7228   */\n              swap2\n              swap1\n              pop\n              jump\t// out\n                /* \"#utility.yul\":7234:7441   */\n            tag_302:\n                /* \"#utility.yul\":7356:7367   */\n              0x00\n                /* \"#utility.yul\":7390:7396   */\n              dup3\n                /* \"#utility.yul\":7385:7388   */\n              dup3\n                /* \"#utility.yul\":7378:7397   */\n              mstore\n                /* \"#utility.yul\":7430:7434   */\n              0x20\n                /* \"#utility.yul\":7425:7428   */\n              dup3\n                /* \"#utility.yul\":7421:7435   */\n              add\n                /* \"#utility.yul\":7406:7435   */\n              swap1\n              pop\n                /* \"#utility.yul\":7234:7441   */\n              swap3\n              swap2\n              pop\n              pop\n              jump\t// out\n                /* \"#utility.yul\":7447:7602   */\n            tag_303:\n                /* \"#utility.yul\":7537:7541   */\n              0x00\n                /* \"#utility.yul\":7560:7563   */\n              dup2\n                /* \"#utility.yul\":7552:7563   */\n              swap1\n              pop\n                /* \"#utility.yul\":7590:7594   */\n              0x20\n                /* \"#utility.yul\":7585:7588   */\n              dup3\n                /* \"#utility.yul\":7581:7595   */\n              add\n                /* \"#utility.yul\":7573:7595   */\n              swap1\n              pop\n                /* \"#utility.yul\":7447:7602   */\n              swap2\n              swap1\n              pop\n              jump\t// out\n                /* \"#utility.yul\":7608:7767   */\n            tag_304:\n                /* \"#utility.yul\":7682:7693   */\n              0x00\n                /* \"#utility.yul\":7716:7722   */\n              dup3\n                /* \"#utility.yul\":7711:7714   */\n              dup3\n                /* \"#utility.yul\":7704:7723   */\n              mstore\n                /* \"#utility.yul\":7756:7760   */\n              0x20\n                /* \"#utility.yul\":7751:7754   */\n              dup3\n                /* \"#utility.yul\":7747:7761   */\n              add\n                /* \"#utility.yul\":7732:7761   */\n              swap1\n              pop\n                /* \"#utility.yul\":7608:7767   */\n              swap3\n              swap2\n              pop\n              pop\n              jump\t// out\n                /* \"#utility.yul\":7773:8130   */\n            tag_305:\n                /* \"#utility.yul\":7851:7854   */\n              0x00\n                /* \"#utility.yul\":7879:7918   */\n              tag_425\n                /* \"#utility.yul\":7912:7917   */\n              dup3\n                /* \"#utility.yul\":7879:7918   */\n              tag_286\n              jump\t// in\n            tag_425:\n                /* \"#utility.yul\":7934:7995   */\n              tag_426\n                /* \"#utility.yul\":7988:7994   */\n              dup2\n                /* \"#utility.yul\":7983:7986   */\n              dup6\n                /* \"#utility.yul\":7934:7995   */\n              tag_304\n              jump\t// in\n            tag_426:\n                /* \"#utility.yul\":7927:7995   */\n              swap4\n              pop\n                /* \"#utility.yul\":8004:8069   */\n              tag_427\n                /* \"#utility.yul\":8062:8068   */\n              dup2\n                /* \"#utility.yul\":8057:8060   */\n              dup6\n                /* \"#utility.yul\":8050:8054   */\n              0x20\n                /* \"#utility.yul\":8043:8048   */\n              dup7\n                /* \"#utility.yul\":8039:8055   */\n              add\n                /* \"#utility.yul\":8004:8069   */\n              tag_288\n              jump\t// in\n            tag_427:\n                /* \"#utility.yul\":8094:8123   */\n              tag_428\n                /* \"#utility.yul\":8116:8122   */\n              dup2\n                /* \"#utility.yul\":8094:8123   */\n              tag_289\n              jump\t// in\n            tag_428:\n                /* \"#utility.yul\":8089:8092   */\n              dup5\n                /* \"#utility.yul\":8085:8124   */\n              add\n                /* \"#utility.yul\":8078:8124   */\n              swap2\n              pop\n                /* \"#utility.yul\":7855:8130   */\n              pop\n                /* \"#utility.yul\":7773:8130   */\n              swap3\n              swap2\n              pop\n              pop\n              jump\t// out\n                /* \"#utility.yul\":8136:8244   */\n            tag_306:\n                /* \"#utility.yul\":8213:8237   */\n              tag_430\n                /* \"#utility.yul\":8231:8236   */\n              dup2\n                /* \"#utility.yul\":8213:8237   */\n              tag_283\n              jump\t// in\n            tag_430:\n                /* \"#utility.yul\":8208:8211   */\n              dup3\n                /* \"#utility.yul\":8201:8238   */\n              mstore\n                /* \"#utility.yul\":8136:8244   */\n              pop\n              pop\n              jump\t// out\n                /* \"#utility.yul\":8250:8382   */\n            tag_307:\n                /* \"#utility.yul\":8343:8375   */\n              tag_432\n                /* \"#utility.yul\":8369:8374   */\n              dup2\n                /* \"#utility.yul\":8343:8375   */\n              tag_299\n              jump\t// in\n            tag_432:\n                /* \"#utility.yul\":8338:8341   */\n              dup3\n                /* \"#utility.yul\":8331:8376   */\n              mstore\n                /* \"#utility.yul\":8250:8382   */\n              pop\n              pop\n              jump\t// out\n                /* \"#utility.yul\":8446:9853   */\n            tag_308:\n                /* \"#utility.yul\":8551:8554   */\n              0x00\n                /* \"#utility.yul\":8587:8591   */\n              0xc0\n                /* \"#utility.yul\":8582:8585   */\n              dup4\n                /* \"#utility.yul\":8578:8592   */\n              add\n                /* \"#utility.yul\":8681:8685   */\n              0x00\n                /* \"#utility.yul\":8674:8679   */\n              dup4\n                /* \"#utility.yul\":8670:8686   */\n              add\n                /* \"#utility.yul\":8664:8687   */\n              mload\n                /* \"#utility.yul\":8734:8737   */\n              dup5\n                /* \"#utility.yul\":8728:8732   */\n              dup3\n                /* \"#utility.yul\":8724:8738   */\n              sub\n                /* \"#utility.yul\":8717:8721   */\n              0x00\n                /* \"#utility.yul\":8712:8715   */\n              dup7\n                /* \"#utility.yul\":8708:8722   */\n              add\n                /* \"#utility.yul\":8701:8739   */\n              mstore\n                /* \"#utility.yul\":8760:8833   */\n              tag_434\n                /* \"#utility.yul\":8828:8832   */\n              dup3\n                /* \"#utility.yul\":8814:8826   */\n              dup3\n                /* \"#utility.yul\":8760:8833   */\n              tag_305\n              jump\t// in\n            tag_434:\n                /* \"#utility.yul\":8752:8833   */\n              swap2\n              pop\n                /* \"#utility.yul\":8602:8844   */\n              pop\n                /* \"#utility.yul\":8928:8932   */\n              0x20\n                /* \"#utility.yul\":8921:8926   */\n              dup4\n                /* \"#utility.yul\":8917:8933   */\n              add\n                /* \"#utility.yul\":8911:8934   */\n              mload\n                /* \"#utility.yul\":8947:9010   */\n              tag_435\n                /* \"#utility.yul\":9004:9008   */\n              0x20\n                /* \"#utility.yul\":8999:9002   */\n              dup7\n                /* \"#utility.yul\":8995:9009   */\n              add\n                /* \"#utility.yul\":8981:8993   */\n              dup3\n                /* \"#utility.yul\":8947:9010   */\n              tag_306\n              jump\t// in\n            tag_435:\n                /* \"#utility.yul\":8854:9020   */\n              pop\n                /* \"#utility.yul\":9107:9111   */\n              0x40\n                /* \"#utility.yul\":9100:9105   */\n              dup4\n                /* \"#utility.yul\":9096:9112   */\n              add\n                /* \"#utility.yul\":9090:9113   */\n              mload\n                /* \"#utility.yul\":9126:9205   */\n              tag_436\n                /* \"#utility.yul\":9199:9203   */\n              0x40\n                /* \"#utility.yul\":9194:9197   */\n              dup7\n                /* \"#utility.yul\":9190:9204   */\n              add\n                /* \"#utility.yul\":9176:9188   */\n              dup3\n                /* \"#utility.yul\":9126:9205   */\n              tag_307\n              jump\t// in\n            tag_436:\n                /* \"#utility.yul\":9030:9215   */\n              pop\n                /* \"#utility.yul\":9306:9310   */\n              0x60\n                /* \"#utility.yul\":9299:9304   */\n              dup4\n                /* \"#utility.yul\":9295:9311   */\n              add\n                /* \"#utility.yul\":9289:9312   */\n              mload\n                /* \"#utility.yul\":9325:9388   */\n              tag_437\n                /* \"#utility.yul\":9382:9386   */\n              0x60\n                /* \"#utility.yul\":9377:9380   */\n              dup7\n                /* \"#utility.yul\":9373:9387   */\n              add\n                /* \"#utility.yul\":9359:9371   */\n              dup3\n                /* \"#utility.yul\":9325:9388   */\n              tag_306\n              jump\t// in\n            tag_437:\n                /* \"#utility.yul\":9225:9398   */\n              pop\n                /* \"#utility.yul\":9487:9491   */\n              0x80\n                /* \"#utility.yul\":9480:9485   */\n              dup4\n                /* \"#utility.yul\":9476:9492   */\n              add\n                /* \"#utility.yul\":9470:9493   */\n              mload\n                /* \"#utility.yul\":9506:9569   */\n              tag_438\n                /* \"#utility.yul\":9563:9567   */\n              0x80\n                /* \"#utility.yul\":9558:9561   */\n              dup7\n                /* \"#utility.yul\":9554:9568   */\n              add\n                /* \"#utility.yul\":9540:9552   */\n              dup3\n                /* \"#utility.yul\":9506:9569   */\n              tag_306\n              jump\t// in\n            tag_438:\n                /* \"#utility.yul\":9408:9579   */\n              pop\n                /* \"#utility.yul\":9663:9667   */\n              0xa0\n                /* \"#utility.yul\":9656:9661   */\n              dup4\n                /* \"#utility.yul\":9652:9668   */\n              add\n                /* \"#utility.yul\":9646:9669   */\n              mload\n                /* \"#utility.yul\":9716:9719   */\n              dup5\n                /* \"#utility.yul\":9710:9714   */\n              dup3\n                /* \"#utility.yul\":9706:9720   */\n              sub\n                /* \"#utility.yul\":9699:9703   */\n              0xa0\n                /* \"#utility.yul\":9694:9697   */\n              dup7\n                /* \"#utility.yul\":9690:9704   */\n              add\n                /* \"#utility.yul\":9683:9721   */\n              mstore\n                /* \"#utility.yul\":9742:9815   */\n              tag_439\n                /* \"#utility.yul\":9810:9814   */\n              dup3\n                /* \"#utility.yul\":9796:9808   */\n              dup3\n                /* \"#utility.yul\":9742:9815   */\n              tag_305\n              jump\t// in\n            tag_439:\n                /* \"#utility.yul\":9734:9815   */\n              swap2\n              pop\n                /* \"#utility.yul\":9589:9826   */\n              pop\n                /* \"#utility.yul\":9843:9847   */\n              dup1\n                /* \"#utility.yul\":9836:9847   */\n              swap2\n              pop\n                /* \"#utility.yul\":8556:9853   */\n              pop\n                /* \"#utility.yul\":8446:9853   */\n              swap3\n              swap2\n              pop\n              pop\n              jump\t// out\n                /* \"#utility.yul\":9859:10107   */\n            tag_309:\n                /* \"#utility.yul\":9974:9984   */\n              0x00\n                /* \"#utility.yul\":10009:10101   */\n              tag_441\n                /* \"#utility.yul\":10097:10100   */\n              dup4\n                /* \"#utility.yul\":10089:10095   */\n              dup4\n                /* \"#utility.yul\":10009:10101   */\n              tag_308\n              jump\t// in\n            tag_441:\n                /* \"#utility.yul\":9995:10101   */\n              swap1\n              pop\n                /* \"#utility.yul\":9859:10107   */\n              swap3\n              swap2\n              pop\n              pop\n              jump\t// out\n                /* \"#utility.yul\":10113:10249   */\n            tag_310:\n                /* \"#utility.yul\":10206:10210   */\n              0x00\n                /* \"#utility.yul\":10238:10242   */\n              0x20\n                /* \"#utility.yul\":10233:10236   */\n              dup3\n                /* \"#utility.yul\":10229:10243   */\n              add\n                /* \"#utility.yul\":10221:10243   */\n              swap1\n              pop\n                /* \"#utility.yul\":10113:10249   */\n              swap2\n              swap1\n              pop\n              jump\t// out\n                /* \"#utility.yul\":10317:11412   */\n            tag_311:\n                /* \"#utility.yul\":10482:10485   */\n              0x00\n                /* \"#utility.yul\":10511:10588   */\n              tag_444\n                /* \"#utility.yul\":10582:10587   */\n              dup3\n                /* \"#utility.yul\":10511:10588   */\n              tag_301\n              jump\t// in\n            tag_444:\n                /* \"#utility.yul\":10604:10713   */\n              tag_445\n                /* \"#utility.yul\":10706:10712   */\n              dup2\n                /* \"#utility.yul\":10701:10704   */\n              dup6\n                /* \"#utility.yul\":10604:10713   */\n              tag_302\n              jump\t// in\n            tag_445:\n                /* \"#utility.yul\":10597:10713   */\n              swap4\n              pop\n                /* \"#utility.yul\":10739:10742   */\n              dup4\n                /* \"#utility.yul\":10784:10788   */\n              0x20\n                /* \"#utility.yul\":10776:10782   */\n              dup3\n                /* \"#utility.yul\":10772:10789   */\n              mul\n                /* \"#utility.yul\":10767:10770   */\n              dup6\n                /* \"#utility.yul\":10763:10790   */\n              add\n                /* \"#utility.yul\":10814:10893   */\n              tag_446\n                /* \"#utility.yul\":10887:10892   */\n              dup6\n                /* \"#utility.yul\":10814:10893   */\n              tag_303\n              jump\t// in\n            tag_446:\n                /* \"#utility.yul\":10916:10923   */\n              dup1\n                /* \"#utility.yul\":10947:10948   */\n              0x00\n                /* \"#utility.yul\":10932:11367   */\n            tag_447:\n                /* \"#utility.yul\":10957:10963   */\n              dup6\n                /* \"#utility.yul\":10954:10955   */\n              dup2\n                /* \"#utility.yul\":10951:10964   */\n              lt\n                /* \"#utility.yul\":10932:11367   */\n              iszero\n              tag_449\n              jumpi\n                /* \"#utility.yul\":11028:11037   */\n              dup5\n                /* \"#utility.yul\":11022:11026   */\n              dup5\n                /* \"#utility.yul\":11018:11038   */\n              sub\n                /* \"#utility.yul\":11013:11016   */\n              dup10\n                /* \"#utility.yul\":11006:11039   */\n              mstore\n                /* \"#utility.yul\":11079:11085   */\n              dup2\n                /* \"#utility.yul\":11073:11086   */\n              mload\n                /* \"#utility.yul\":11107:11217   */\n              tag_450\n                /* \"#utility.yul\":11212:11216   */\n              dup6\n                /* \"#utility.yul\":11197:11210   */\n              dup3\n                /* \"#utility.yul\":11107:11217   */\n              tag_309\n              jump\t// in\n            tag_450:\n                /* \"#utility.yul\":11099:11217   */\n              swap5\n              pop\n                /* \"#utility.yul\":11240:11323   */\n              tag_451\n                /* \"#utility.yul\":11316:11322   */\n              dup4\n                /* \"#utility.yul\":11240:11323   */\n              tag_310\n              jump\t// in\n            tag_451:\n                /* \"#utility.yul\":11230:11323   */\n              swap3\n              pop\n                /* \"#utility.yul\":11352:11356   */\n              0x20\n                /* \"#utility.yul\":11347:11350   */\n              dup11\n                /* \"#utility.yul\":11343:11357   */\n              add\n                /* \"#utility.yul\":11336:11357   */\n              swap10\n              pop\n                /* \"#utility.yul\":10992:11367   */\n              pop\n                /* \"#utility.yul\":10979:10980   */\n              0x01\n                /* \"#utility.yul\":10976:10977   */\n              dup2\n                /* \"#utility.yul\":10972:10981   */\n              add\n                /* \"#utility.yul\":10967:10981   */\n              swap1\n              pop\n                /* \"#utility.yul\":10932:11367   */\n              jump(tag_447)\n            tag_449:\n                /* \"#utility.yul\":10936:10950   */\n              pop\n                /* \"#utility.yul\":11383:11387   */\n              dup3\n                /* \"#utility.yul\":11376:11387   */\n              swap8\n              pop\n                /* \"#utility.yul\":11403:11406   */\n              dup8\n                /* \"#utility.yul\":11396:11406   */\n              swap6\n              pop\n                /* \"#utility.yul\":10487:11412   */\n              pop\n              pop\n              pop\n              pop\n              pop\n                /* \"#utility.yul\":10317:11412   */\n              swap3\n              swap2\n              pop\n              pop\n              jump\t// out\n                /* \"#utility.yul\":11418:11883   */\n            tag_83:\n                /* \"#utility.yul\":11607:11611   */\n              0x00\n                /* \"#utility.yul\":11645:11647   */\n              0x20\n                /* \"#utility.yul\":11634:11643   */\n              dup3\n                /* \"#utility.yul\":11630:11648   */\n              add\n                /* \"#utility.yul\":11622:11648   */\n              swap1\n              pop\n                /* \"#utility.yul\":11694:11703   */\n              dup2\n                /* \"#utility.yul\":11688:11692   */\n              dup2\n                /* \"#utility.yul\":11684:11704   */\n              sub\n                /* \"#utility.yul\":11680:11681   */\n              0x00\n                /* \"#utility.yul\":11669:11678   */\n              dup4\n                /* \"#utility.yul\":11665:11682   */\n              add\n                /* \"#utility.yul\":11658:11705   */\n              mstore\n                /* \"#utility.yul\":11722:11876   */\n              tag_453\n                /* \"#utility.yul\":11871:11875   */\n              dup2\n                /* \"#utility.yul\":11862:11868   */\n              dup5\n                /* \"#utility.yul\":11722:11876   */\n              tag_311\n              jump\t// in\n            tag_453:\n                /* \"#utility.yul\":11714:11876   */\n              swap1\n              pop\n                /* \"#utility.yul\":11418:11883   */\n              swap3\n              swap2\n              pop\n              pop\n              jump\t// out\n                /* \"#utility.yul\":11889:12006   */\n            tag_312:\n                /* \"#utility.yul\":11998:11999   */\n              0x00\n                /* \"#utility.yul\":11995:11996   */\n              dup1\n                /* \"#utility.yul\":11988:12000   */\n              revert\n                /* \"#utility.yul\":12012:12129   */\n            tag_313:\n                /* \"#utility.yul\":12121:12122   */\n              0x00\n                /* \"#utility.yul\":12118:12119   */\n              dup1\n                /* \"#utility.yul\":12111:12123   */\n              revert\n                /* \"#utility.yul\":12135:12315   */\n            tag_314:\n                /* \"#utility.yul\":12183:12260   */\n              0x4e487b7100000000000000000000000000000000000000000000000000000000\n                /* \"#utility.yul\":12180:12181   */\n              0x00\n                /* \"#utility.yul\":12173:12261   */\n              mstore\n                /* \"#utility.yul\":12280:12284   */\n              0x41\n                /* \"#utility.yul\":12277:12278   */\n              0x04\n                /* \"#utility.yul\":12270:12285   */\n              mstore\n                /* \"#utility.yul\":12304:12308   */\n              0x24\n                /* \"#utility.yul\":12301:12302   */\n              0x00\n                /* \"#utility.yul\":12294:12309   */\n              revert\n                /* \"#utility.yul\":12321:12602   */\n            tag_315:\n                /* \"#utility.yul\":12404:12431   */\n              tag_458\n                /* \"#utility.yul\":12426:12430   */\n              dup3\n                /* \"#utility.yul\":12404:12431   */\n              tag_289\n              jump\t// in\n            tag_458:\n                /* \"#utility.yul\":12396:12402   */\n              dup2\n                /* \"#utility.yul\":12392:12432   */\n              add\n                /* \"#utility.yul\":12534:12540   */\n              dup2\n                /* \"#utility.yul\":12522:12532   */\n              dup2\n                /* \"#utility.yul\":12519:12541   */\n              lt\n                /* \"#utility.yul\":12498:12516   */\n              0xffffffffffffffff\n                /* \"#utility.yul\":12486:12496   */\n              dup3\n                /* \"#utility.yul\":12483:12517   */\n              gt\n                /* \"#utility.yul\":12480:12542   */\n              or\n                /* \"#utility.yul\":12477:12565   */\n              iszero\n              tag_459\n              jumpi\n                /* \"#utility.yul\":12545:12563   */\n              tag_460\n              tag_314\n              jump\t// in\n            tag_460:\n                /* \"#utility.yul\":12477:12565   */\n            tag_459:\n                /* \"#utility.yul\":12585:12595   */\n              dup1\n                /* \"#utility.yul\":12581:12583   */\n              0x40\n                /* \"#utility.yul\":12574:12596   */\n              mstore\n                /* \"#utility.yul\":12364:12602   */\n              pop\n                /* \"#utility.yul\":12321:12602   */\n              pop\n              pop\n              jump\t// out\n                /* \"#utility.yul\":12608:12737   */\n            tag_316:\n                /* \"#utility.yul\":12642:12648   */\n              0x00\n                /* \"#utility.yul\":12669:12689   */\n              tag_462\n              tag_280\n              jump\t// in\n            tag_462:\n                /* \"#utility.yul\":12659:12689   */\n              swap1\n              pop\n                /* \"#utility.yul\":12698:12731   */\n              tag_463\n                /* \"#utility.yul\":12726:12730   */\n              dup3\n                /* \"#utility.yul\":12718:12724   */\n              dup3\n                /* \"#utility.yul\":12698:12731   */\n              tag_315\n              jump\t// in\n            tag_463:\n                /* \"#utility.yul\":12608:12737   */\n              swap2\n              swap1\n              pop\n              jump\t// out\n                /* \"#utility.yul\":12743:13051   */\n            tag_317:\n                /* \"#utility.yul\":12805:12809   */\n              0x00\n                /* \"#utility.yul\":12895:12913   */\n              0xffffffffffffffff\n                /* \"#utility.yul\":12887:12893   */\n              dup3\n                /* \"#utility.yul\":12884:12914   */\n              gt\n                /* \"#utility.yul\":12881:12937   */\n              iszero\n              tag_465\n              jumpi\n                /* \"#utility.yul\":12917:12935   */\n              tag_466\n              tag_314\n              jump\t// in\n            tag_466:\n                /* \"#utility.yul\":12881:12937   */\n            tag_465:\n                /* \"#utility.yul\":12955:12984   */\n              tag_467\n                /* \"#utility.yul\":12977:12983   */\n              dup3\n                /* \"#utility.yul\":12955:12984   */\n              tag_289\n              jump\t// in\n            tag_467:\n                /* \"#utility.yul\":12947:12984   */\n              swap1\n              pop\n                /* \"#utility.yul\":13039:13043   */\n              0x20\n                /* \"#utility.yul\":13033:13037   */\n              dup2\n                /* \"#utility.yul\":13029:13044   */\n              add\n                /* \"#utility.yul\":13021:13044   */\n              swap1\n              pop\n                /* \"#utility.yul\":12743:13051   */\n              swap2\n              swap1\n              pop\n              jump\t// out\n                /* \"#utility.yul\":13057:13203   */\n            tag_318:\n                /* \"#utility.yul\":13154:13160   */\n              dup3\n                /* \"#utility.yul\":13149:13152   */\n              dup2\n                /* \"#utility.yul\":13144:13147   */\n              dup4\n                /* \"#utility.yul\":13131:13161   */\n              calldatacopy\n                /* \"#utility.yul\":13195:13196   */\n              0x00\n                /* \"#utility.yul\":13186:13192   */\n              dup4\n                /* \"#utility.yul\":13181:13184   */\n              dup4\n                /* \"#utility.yul\":13177:13193   */\n              add\n                /* \"#utility.yul\":13170:13197   */\n              mstore\n                /* \"#utility.yul\":13057:13203   */\n              pop\n              pop\n              pop\n              jump\t// out\n                /* \"#utility.yul\":13209:13634   */\n            tag_319:\n                /* \"#utility.yul\":13287:13292   */\n              0x00\n                /* \"#utility.yul\":13312:13378   */\n              tag_470\n                /* \"#utility.yul\":13328:13377   */\n              tag_471\n                /* \"#utility.yul\":13370:13376   */\n              dup5\n                /* \"#utility.yul\":13328:13377   */\n              tag_317\n              jump\t// in\n            tag_471:\n                /* \"#utility.yul\":13312:13378   */\n              tag_316\n              jump\t// in\n            tag_470:\n                /* \"#utility.yul\":13303:13378   */\n              swap1\n              pop\n                /* \"#utility.yul\":13401:13407   */\n              dup3\n                /* \"#utility.yul\":13394:13399   */\n              dup2\n                /* \"#utility.yul\":13387:13408   */\n              mstore\n                /* \"#utility.yul\":13439:13443   */\n              0x20\n                /* \"#utility.yul\":13432:13437   */\n              dup2\n                /* \"#utility.yul\":13428:13444   */\n              add\n                /* \"#utility.yul\":13477:13480   */\n              dup5\n                /* \"#utility.yul\":13468:13474   */\n              dup5\n                /* \"#utility.yul\":13463:13466   */\n              dup5\n                /* \"#utility.yul\":13459:13475   */\n              add\n                /* \"#utility.yul\":13456:13481   */\n              gt\n                /* \"#utility.yul\":13453:13565   */\n              iszero\n              tag_472\n              jumpi\n                /* \"#utility.yul\":13484:13563   */\n              tag_473\n              tag_313\n              jump\t// in\n            tag_473:\n                /* \"#utility.yul\":13453:13565   */\n            tag_472:\n                /* \"#utility.yul\":13574:13628   */\n              tag_474\n                /* \"#utility.yul\":13621:13627   */\n              dup5\n                /* \"#utility.yul\":13616:13619   */\n              dup3\n                /* \"#utility.yul\":13611:13614   */\n              dup6\n                /* \"#utility.yul\":13574:13628   */\n              tag_318\n              jump\t// in\n            tag_474:\n                /* \"#utility.yul\":13293:13634   */\n              pop\n                /* \"#utility.yul\":13209:13634   */\n              swap4\n              swap3\n              pop\n              pop\n              pop\n              jump\t// out\n                /* \"#utility.yul\":13654:13994   */\n            tag_320:\n                /* \"#utility.yul\":13710:13715   */\n              0x00\n                /* \"#utility.yul\":13759:13762   */\n              dup3\n                /* \"#utility.yul\":13752:13756   */\n              0x1f\n                /* \"#utility.yul\":13744:13750   */\n              dup4\n                /* \"#utility.yul\":13740:13757   */\n              add\n                /* \"#utility.yul\":13736:13763   */\n              slt\n                /* \"#utility.yul\":13726:13848   */\n              tag_476\n              jumpi\n                /* \"#utility.yul\":13767:13846   */\n              tag_477\n              tag_312\n              jump\t// in\n            tag_477:\n                /* \"#utility.yul\":13726:13848   */\n            tag_476:\n                /* \"#utility.yul\":13884:13890   */\n              dup2\n                /* \"#utility.yul\":13871:13891   */\n              calldataload\n                /* \"#utility.yul\":13909:13988   */\n              tag_478\n                /* \"#utility.yul\":13984:13987   */\n              dup5\n                /* \"#utility.yul\":13976:13982   */\n              dup3\n                /* \"#utility.yul\":13969:13973   */\n              0x20\n                /* \"#utility.yul\":13961:13967   */\n              dup7\n                /* \"#utility.yul\":13957:13974   */\n              add\n                /* \"#utility.yul\":13909:13988   */\n              tag_319\n              jump\t// in\n            tag_478:\n                /* \"#utility.yul\":13900:13988   */\n              swap2\n              pop\n                /* \"#utility.yul\":13716:13994   */\n              pop\n                /* \"#utility.yul\":13654:13994   */\n              swap3\n              swap2\n              pop\n              pop\n              jump\t// out\n                /* \"#utility.yul\":14000:14138   */\n            tag_321:\n                /* \"#utility.yul\":14081:14113   */\n              tag_480\n                /* \"#utility.yul\":14107:14112   */\n              dup2\n                /* \"#utility.yul\":14081:14113   */\n              tag_299\n              jump\t// in\n            tag_480:\n                /* \"#utility.yul\":14074:14079   */\n              dup2\n                /* \"#utility.yul\":14071:14114   */\n              eq\n                /* \"#utility.yul\":14061:14132   */\n              tag_481\n              jumpi\n                /* \"#utility.yul\":14128:14129   */\n              0x00\n                /* \"#utility.yul\":14125:14126   */\n              dup1\n                /* \"#utility.yul\":14118:14130   */\n              revert\n                /* \"#utility.yul\":14061:14132   */\n            tag_481:\n                /* \"#utility.yul\":14000:14138   */\n              pop\n              jump\t// out\n                /* \"#utility.yul\":14144:14299   */\n            tag_322:\n                /* \"#utility.yul\":14198:14203   */\n              0x00\n                /* \"#utility.yul\":14236:14242   */\n              dup2\n                /* \"#utility.yul\":14223:14243   */\n              calldataload\n                /* \"#utility.yul\":14214:14243   */\n              swap1\n              pop\n                /* \"#utility.yul\":14252:14293   */\n              tag_483\n                /* \"#utility.yul\":14287:14292   */\n              dup2\n                /* \"#utility.yul\":14252:14293   */\n              tag_321\n              jump\t// in\n            tag_483:\n                /* \"#utility.yul\":14144:14299   */\n              swap3\n              swap2\n              pop\n              pop\n              jump\t// out\n                /* \"#utility.yul\":14305:15120   */\n            tag_87:\n                /* \"#utility.yul\":14400:14406   */\n              0x00\n                /* \"#utility.yul\":14408:14414   */\n              dup1\n                /* \"#utility.yul\":14416:14422   */\n              0x00\n                /* \"#utility.yul\":14465:14467   */\n              0x60\n                /* \"#utility.yul\":14453:14462   */\n              dup5\n                /* \"#utility.yul\":14444:14451   */\n              dup7\n                /* \"#utility.yul\":14440:14463   */\n              sub\n                /* \"#utility.yul\":14436:14468   */\n              slt\n                /* \"#utility.yul\":14433:14552   */\n              iszero\n              tag_485\n              jumpi\n                /* \"#utility.yul\":14471:14550   */\n              tag_486\n              tag_281\n              jump\t// in\n            tag_486:\n                /* \"#utility.yul\":14433:14552   */\n            tag_485:\n                /* \"#utility.yul\":14619:14620   */\n              0x00\n                /* \"#utility.yul\":14608:14617   */\n              dup5\n                /* \"#utility.yul\":14604:14621   */\n              add\n                /* \"#utility.yul\":14591:14622   */\n              calldataload\n                /* \"#utility.yul\":14649:14667   */\n              0xffffffffffffffff\n                /* \"#utility.yul\":14641:14647   */\n              dup2\n                /* \"#utility.yul\":14638:14668   */\n              gt\n                /* \"#utility.yul\":14635:14752   */\n              iszero\n              tag_487\n              jumpi\n                /* \"#utility.yul\":14671:14750   */\n              tag_488\n              tag_282\n              jump\t// in\n            tag_488:\n                /* \"#utility.yul\":14635:14752   */\n            tag_487:\n                /* \"#utility.yul\":14776:14839   */\n              tag_489\n                /* \"#utility.yul\":14831:14838   */\n              dup7\n                /* \"#utility.yul\":14822:14828   */\n              dup3\n                /* \"#utility.yul\":14811:14820   */\n              dup8\n                /* \"#utility.yul\":14807:14829   */\n              add\n                /* \"#utility.yul\":14776:14839   */\n              tag_320\n              jump\t// in\n            tag_489:\n                /* \"#utility.yul\":14766:14839   */\n              swap4\n              pop\n                /* \"#utility.yul\":14562:14849   */\n              pop\n                /* \"#utility.yul\":14888:14890   */\n              0x20\n                /* \"#utility.yul\":14914:14967   */\n              tag_490\n                /* \"#utility.yul\":14959:14966   */\n              dup7\n                /* \"#utility.yul\":14950:14956   */\n              dup3\n                /* \"#utility.yul\":14939:14948   */\n              dup8\n                /* \"#utility.yul\":14935:14957   */\n              add\n                /* \"#utility.yul\":14914:14967   */\n              tag_285\n              jump\t// in\n            tag_490:\n                /* \"#utility.yul\":14904:14967   */\n              swap3\n              pop\n                /* \"#utility.yul\":14859:14977   */\n              pop\n                /* \"#utility.yul\":15016:15018   */\n              0x40\n                /* \"#utility.yul\":15042:15103   */\n              tag_491\n                /* \"#utility.yul\":15095:15102   */\n              dup7\n                /* \"#utility.yul\":15086:15092   */\n              dup3\n                /* \"#utility.yul\":15075:15084   */\n              dup8\n                /* \"#utility.yul\":15071:15093   */\n              add\n                /* \"#utility.yul\":15042:15103   */\n              tag_322\n              jump\t// in\n            tag_491:\n                /* \"#utility.yul\":15032:15103   */\n              swap2\n              pop\n                /* \"#utility.yul\":14987:15113   */\n              pop\n                /* \"#utility.yul\":14305:15120   */\n              swap3\n              pop\n              swap3\n              pop\n              swap3\n              jump\t// out\n                /* \"#utility.yul\":15126:15306   */\n            tag_116:\n                /* \"#utility.yul\":15174:15251   */\n              0x4e487b7100000000000000000000000000000000000000000000000000000000\n                /* \"#utility.yul\":15171:15172   */\n              0x00\n                /* \"#utility.yul\":15164:15252   */\n              mstore\n                /* \"#utility.yul\":15271:15275   */\n              0x32\n                /* \"#utility.yul\":15268:15269   */\n              0x04\n                /* \"#utility.yul\":15261:15276   */\n              mstore\n                /* \"#utility.yul\":15295:15299   */\n              0x24\n                /* \"#utility.yul\":15292:15293   */\n              0x00\n                /* \"#utility.yul\":15285:15300   */\n              revert\n                /* \"#utility.yul\":15312:15492   */\n            tag_323:\n                /* \"#utility.yul\":15360:15437   */\n              0x4e487b7100000000000000000000000000000000000000000000000000000000\n                /* \"#utility.yul\":15357:15358   */\n              0x00\n                /* \"#utility.yul\":15350:15438   */\n              mstore\n                /* \"#utility.yul\":15457:15461   */\n              0x22\n                /* \"#utility.yul\":15454:15455   */\n              0x04\n                /* \"#utility.yul\":15447:15462   */\n              mstore\n                /* \"#utility.yul\":15481:15485   */\n              0x24\n                /* \"#utility.yul\":15478:15479   */\n              0x00\n                /* \"#utility.yul\":15471:15486   */\n              revert\n                /* \"#utility.yul\":15498:15818   */\n            tag_126:\n                /* \"#utility.yul\":15542:15548   */\n              0x00\n                /* \"#utility.yul\":15579:15580   */\n              0x02\n                /* \"#utility.yul\":15573:15577   */\n              dup3\n                /* \"#utility.yul\":15569:15581   */\n              div\n                /* \"#utility.yul\":15559:15581   */\n              swap1\n              pop\n                /* \"#utility.yul\":15626:15627   */\n              0x01\n                /* \"#utility.yul\":15620:15624   */\n              dup3\n                /* \"#utility.yul\":15616:15628   */\n              and\n                /* \"#utility.yul\":15647:15665   */\n              dup1\n                /* \"#utility.yul\":15637:15718   */\n              tag_495\n              jumpi\n                /* \"#utility.yul\":15703:15707   */\n              0x7f\n                /* \"#utility.yul\":15695:15701   */\n              dup3\n                /* \"#utility.yul\":15691:15708   */\n              and\n                /* \"#utility.yul\":15681:15708   */\n              swap2\n              pop\n                /* \"#utility.yul\":15637:15718   */\n            tag_495:\n                /* \"#utility.yul\":15765:15767   */\n              0x20\n                /* \"#utility.yul\":15757:15763   */\n              dup3\n                /* \"#utility.yul\":15754:15768   */\n              lt\n                /* \"#utility.yul\":15734:15752   */\n              dup2\n                /* \"#utility.yul\":15731:15769   */\n              sub\n                /* \"#utility.yul\":15728:15812   */\n              tag_496\n              jumpi\n                /* \"#utility.yul\":15784:15802   */\n              tag_497\n              tag_323\n              jump\t// in\n            tag_497:\n                /* \"#utility.yul\":15728:15812   */\n            tag_496:\n                /* \"#utility.yul\":15549:15818   */\n              pop\n                /* \"#utility.yul\":15498:15818   */\n              swap2\n              swap1\n              pop\n              jump\t// out\n                /* \"#utility.yul\":15824:15965   */\n            tag_324:\n                /* \"#utility.yul\":15873:15877   */\n              0x00\n                /* \"#utility.yul\":15896:15899   */\n              dup2\n                /* \"#utility.yul\":15888:15899   */\n              swap1\n              pop\n                /* \"#utility.yul\":15919:15922   */\n              dup2\n                /* \"#utility.yul\":15916:15917   */\n              0x00\n                /* \"#utility.yul\":15909:15923   */\n              mstore\n                /* \"#utility.yul\":15953:15957   */\n              0x20\n                /* \"#utility.yul\":15950:15951   */\n              0x00\n                /* \"#utility.yul\":15940:15958   */\n              keccak256\n                /* \"#utility.yul\":15932:15958   */\n              swap1\n              pop\n                /* \"#utility.yul\":15824:15965   */\n              swap2\n              swap1\n              pop\n              jump\t// out\n                /* \"#utility.yul\":15971:16064   */\n            tag_325:\n                /* \"#utility.yul\":16008:16014   */\n              0x00\n                /* \"#utility.yul\":16055:16057   */\n              0x20\n                /* \"#utility.yul\":16050:16052   */\n              0x1f\n                /* \"#utility.yul\":16043:16048   */\n              dup4\n                /* \"#utility.yul\":16039:16053   */\n              add\n                /* \"#utility.yul\":16035:16058   */\n              div\n                /* \"#utility.yul\":16025:16058   */\n              swap1\n              pop\n                /* \"#utility.yul\":15971:16064   */\n              swap2\n              swap1\n              pop\n              jump\t// out\n                /* \"#utility.yul\":16070:16177   */\n            tag_326:\n                /* \"#utility.yul\":16114:16122   */\n              0x00\n                /* \"#utility.yul\":16164:16169   */\n              dup3\n                /* \"#utility.yul\":16158:16162   */\n              dup3\n                /* \"#utility.yul\":16154:16170   */\n              shl\n                /* \"#utility.yul\":16133:16170   */\n              swap1\n              pop\n                /* \"#utility.yul\":16070:16177   */\n              swap3\n              swap2\n              pop\n              pop\n              jump\t// out\n                /* \"#utility.yul\":16183:16576   */\n            tag_327:\n                /* \"#utility.yul\":16252:16258   */\n              0x00\n                /* \"#utility.yul\":16302:16303   */\n              0x08\n                /* \"#utility.yul\":16290:16300   */\n              dup4\n                /* \"#utility.yul\":16286:16304   */\n              mul\n                /* \"#utility.yul\":16325:16422   */\n              tag_502\n                /* \"#utility.yul\":16355:16421   */\n              0xffffffffffffffffffffffffffffffffffffffffffffffffffffffffffffffff\n                /* \"#utility.yul\":16344:16353   */\n              dup3\n                /* \"#utility.yul\":16325:16422   */\n              tag_326\n              jump\t// in\n            tag_502:\n                /* \"#utility.yul\":16443:16482   */\n              tag_503\n                /* \"#utility.yul\":16473:16481   */\n              dup7\n                /* \"#utility.yul\":16462:16471   */\n              dup4\n                /* \"#utility.yul\":16443:16482   */\n              tag_326\n              jump\t// in\n            tag_503:\n                /* \"#utility.yul\":16431:16482   */\n              swap6\n              pop\n                /* \"#utility.yul\":16515:16519   */\n              dup1\n                /* \"#utility.yul\":16511:16520   */\n              not\n                /* \"#utility.yul\":16504:16509   */\n              dup5\n                /* \"#utility.yul\":16500:16521   */\n              and\n                /* \"#utility.yul\":16491:16521   */\n              swap4\n              pop\n                /* \"#utility.yul\":16564:16568   */\n              dup1\n                /* \"#utility.yul\":16554:16562   */\n              dup7\n                /* \"#utility.yul\":16550:16569   */\n              and\n                /* \"#utility.yul\":16543:16548   */\n              dup5\n                /* \"#utility.yul\":16540:16570   */\n              or\n                /* \"#utility.yul\":16530:16570   */\n              swap3\n              pop\n                /* \"#utility.yul\":16259:16576   */\n              pop\n              pop\n                /* \"#utility.yul\":16183:16576   */\n              swap4\n              swap3\n              pop\n              pop\n              pop\n              jump\t// out\n                /* \"#utility.yul\":16582:16642   */\n            tag_328:\n                /* \"#utility.yul\":16610:16613   */\n              0x00\n                /* \"#utility.yul\":16631:16636   */\n              dup2\n                /* \"#utility.yul\":16624:16636   */\n              swap1\n              pop\n                /* \"#utility.yul\":16582:16642   */\n              swap2\n              swap1\n              pop\n              jump\t// out\n                /* \"#utility.yul\":16648:16790   */\n            tag_329:\n                /* \"#utility.yul\":16698:16707   */\n              0x00\n                /* \"#utility.yul\":16731:16784   */\n              tag_506\n                /* \"#utility.yul\":16749:16783   */\n              tag_507\n                /* \"#utility.yul\":16758:16782   */\n              tag_508\n                /* \"#utility.yul\":16776:16781   */\n              dup5\n                /* \"#utility.yul\":16758:16782   */\n              tag_283\n              jump\t// in\n            tag_508:\n                /* \"#utility.yul\":16749:16783   */\n              tag_328\n              jump\t// in\n            tag_507:\n                /* \"#utility.yul\":16731:16784   */\n              tag_283\n              jump\t// in\n            tag_506:\n                /* \"#utility.yul\":16718:16784   */\n              swap1\n              pop\n                /* \"#utility.yul\":16648:16790   */\n              swap2\n              swap1\n              pop\n              jump\t// out\n                /* \"#utility.yul\":16796:16871   */\n            tag_330:\n                /* \"#utility.yul\":16839:16842   */\n              0x00\n                /* \"#utility.yul\":16860:16865   */\n              dup2\n                /* \"#utility.yul\":16853:16865   */\n              swap1\n              pop\n                /* \"#utility.yul\":16796:16871   */\n              swap2\n              swap1\n              pop\n              jump\t// out\n                /* \"#utility.yul\":16877:17146   */\n            tag_331:\n                /* \"#utility.yul\":16987:17026   */\n              tag_511\n                /* \"#utility.yul\":17018:17025   */\n              dup4\n                /* \"#utility.yul\":16987:17026   */\n              tag_329\n              jump\t// in\n            tag_511:\n                /* \"#utility.yul\":17048:17139   */\n              tag_512\n                /* \"#utility.yul\":17097:17138   */\n              tag_513\n                /* \"#utility.yul\":17121:17137   */\n              dup3\n                /* \"#utility.yul\":17097:17138   */\n              tag_330\n              jump\t// in\n            tag_513:\n                /* \"#utility.yul\":17089:17095   */\n              dup5\n                /* \"#utility.yul\":17082:17086   */\n              dup5\n                /* \"#utility.yul\":17076:17087   */\n              sload\n                /* \"#utility.yul\":17048:17139   */\n              tag_327\n              jump\t// in\n            tag_512:\n                /* \"#utility.yul\":17042:17046   */\n              dup3\n                /* \"#utility.yul\":17035:17140   */\n              sstore\n                /* \"#utility.yul\":16953:17146   */\n              pop\n                /* \"#utility.yul\":16877:17146   */\n              pop\n              pop\n              pop\n              jump\t// out\n                /* \"#utility.yul\":17152:17225   */\n            tag_332:\n                /* \"#utility.yul\":17197:17200   */\n              0x00\n                /* \"#utility.yul\":17152:17225   */\n              swap1\n              jump\t// out\n                /* \"#utility.yul\":17231:17420   */\n            tag_333:\n                /* \"#utility.yul\":17308:17340   */\n              tag_516\n              tag_332\n              jump\t// in\n            tag_516:\n                /* \"#utility.yul\":17349:17414   */\n              tag_517\n                /* \"#utility.yul\":17407:17413   */\n              dup2\n                /* \"#utility.yul\":17399:17405   */\n              dup5\n                /* \"#utility.yul\":17393:17397   */\n              dup5\n                /* \"#utility.yul\":17349:17414   */\n              tag_331\n              jump\t// in\n            tag_517:\n                /* \"#utility.yul\":17284:17420   */\n              pop\n                /* \"#utility.yul\":17231:17420   */\n              pop\n              pop\n              jump\t// out\n                /* \"#utility.yul\":17426:17612   */\n            tag_334:\n                /* \"#utility.yul\":17486:17606   */\n            tag_519:\n                /* \"#utility.yul\":17503:17506   */\n              dup2\n                /* \"#utility.yul\":17496:17501   */\n              dup2\n                /* \"#utility.yul\":17493:17507   */\n              lt\n                /* \"#utility.yul\":17486:17606   */\n              iszero\n              tag_521\n              jumpi\n                /* \"#utility.yul\":17557:17596   */\n              tag_522\n                /* \"#utility.yul\":17594:17595   */\n              0x00\n                /* \"#utility.yul\":17587:17592   */\n              dup3\n                /* \"#utility.yul\":17557:17596   */\n              tag_333\n              jump\t// in\n            tag_522:\n                /* \"#utility.yul\":17530:17531   */\n              0x01\n                /* \"#utility.yul\":17523:17528   */\n              dup2\n                /* \"#utility.yul\":17519:17532   */\n              add\n                /* \"#utility.yul\":17510:17532   */\n              swap1\n              pop\n                /* \"#utility.yul\":17486:17606   */\n              jump(tag_519)\n            tag_521:\n                /* \"#utility.yul\":17426:17612   */\n              pop\n              pop\n              jump\t// out\n                /* \"#utility.yul\":17618:18161   */\n            tag_335:\n                /* \"#utility.yul\":17719:17721   */\n              0x1f\n                /* \"#utility.yul\":17714:17717   */\n              dup3\n                /* \"#utility.yul\":17711:17722   */\n              gt\n                /* \"#utility.yul\":17708:18154   */\n              iszero\n              tag_524\n              jumpi\n                /* \"#utility.yul\":17753:17791   */\n              tag_525\n                /* \"#utility.yul\":17785:17790   */\n              dup2\n                /* \"#utility.yul\":17753:17791   */\n              tag_324\n              jump\t// in\n            tag_525:\n                /* \"#utility.yul\":17837:17866   */\n              tag_526\n                /* \"#utility.yul\":17855:17865   */\n              dup5\n                /* \"#utility.yul\":17837:17866   */\n              tag_325\n              jump\t// in\n            tag_526:\n                /* \"#utility.yul\":17827:17835   */\n              dup2\n                /* \"#utility.yul\":17823:17867   */\n              add\n                /* \"#utility.yul\":18020:18022   */\n              0x20\n                /* \"#utility.yul\":18008:18018   */\n              dup6\n                /* \"#utility.yul\":18005:18023   */\n              lt\n                /* \"#utility.yul\":18002:18051   */\n              iszero\n              tag_527\n              jumpi\n                /* \"#utility.yul\":18041:18049   */\n              dup2\n                /* \"#utility.yul\":18026:18049   */\n              swap1\n              pop\n                /* \"#utility.yul\":18002:18051   */\n            tag_527:\n                /* \"#utility.yul\":18064:18144   */\n              tag_528\n                /* \"#utility.yul\":18120:18142   */\n              tag_529\n                /* \"#utility.yul\":18138:18141   */\n              dup6\n                /* \"#utility.yul\":18120:18142   */\n              tag_325\n              jump\t// in\n            tag_529:\n                /* \"#utility.yul\":18110:18118   */\n              dup4\n                /* \"#utility.yul\":18106:18143   */\n              add\n                /* \"#utility.yul\":18093:18104   */\n              dup3\n                /* \"#utility.yul\":18064:18144   */\n              tag_334\n              jump\t// in\n            tag_528:\n                /* \"#utility.yul\":17723:18154   */\n              pop\n              pop\n                /* \"#utility.yul\":17708:18154   */\n            tag_524:\n                /* \"#utility.yul\":17618:18161   */\n              pop\n              pop\n              pop\n              jump\t// out\n                /* \"#utility.yul\":18167:18284   */\n            tag_336:\n                /* \"#utility.yul\":18221:18229   */\n              0x00\n                /* \"#utility.yul\":18271:18276   */\n              dup3\n                /* \"#utility.yul\":18265:18269   */\n              dup3\n                /* \"#utility.yul\":18261:18277   */\n              shr\n                /* \"#utility.yul\":18240:18277   */\n              swap1\n              pop\n                /* \"#utility.yul\":18167:18284   */\n              swap3\n              swap2\n              pop\n              pop\n              jump\t// out\n                /* \"#utility.yul\":18290:18459   */\n            tag_337:\n                /* \"#utility.yul\":18334:18340   */\n              0x00\n                /* \"#utility.yul\":18367:18418   */\n              tag_532\n                /* \"#utility.yul\":18415:18416   */\n              0x00\n                /* \"#utility.yul\":18411:18417   */\n              not\n                /* \"#utility.yul\":18403:18408   */\n              dup5\n                /* \"#utility.yul\":18400:18401   */\n              0x08\n                /* \"#utility.yul\":18396:18409   */\n              mul\n                /* \"#utility.yul\":18367:18418   */\n              tag_336\n              jump\t// in\n            tag_532:\n                /* \"#utility.yul\":18363:18419   */\n              not\n                /* \"#utility.yul\":18448:18452   */\n              dup1\n                /* \"#utility.yul\":18442:18446   */\n              dup4\n                /* \"#utility.yul\":18438:18453   */\n              and\n                /* \"#utility.yul\":18428:18453   */\n              swap2\n              pop\n                /* \"#utility.yul\":18341:18459   */\n              pop\n                /* \"#utility.yul\":18290:18459   */\n              swap3\n              swap2\n              pop\n              pop\n              jump\t// out\n                /* \"#utility.yul\":18464:18759   */\n            tag_338:\n                /* \"#utility.yul\":18540:18544   */\n              0x00\n                /* \"#utility.yul\":18686:18715   */\n              tag_534\n                /* \"#utility.yul\":18711:18714   */\n              dup4\n                /* \"#utility.yul\":18705:18709   */\n              dup4\n                /* \"#utility.yul\":18686:18715   */\n              tag_337\n              jump\t// in\n            tag_534:\n                /* \"#utility.yul\":18678:18715   */\n              swap2\n              pop\n                /* \"#utility.yul\":18748:18751   */\n              dup3\n                /* \"#utility.yul\":18745:18746   */\n              0x02\n                /* \"#utility.yul\":18741:18752   */\n              mul\n                /* \"#utility.yul\":18735:18739   */\n              dup3\n                /* \"#utility.yul\":18732:18753   */\n              or\n                /* \"#utility.yul\":18724:18753   */\n              swap1\n              pop\n                /* \"#utility.yul\":18464:18759   */\n              swap3\n              swap2\n              pop\n              pop\n              jump\t// out\n                /* \"#utility.yul\":18764:20159   */\n            tag_124:\n                /* \"#utility.yul\":18881:18918   */\n              tag_536\n                /* \"#utility.yul\":18914:18917   */\n              dup3\n                /* \"#utility.yul\":18881:18918   */\n              tag_286\n              jump\t// in\n            tag_536:\n                /* \"#utility.yul\":18983:19001   */\n              0xffffffffffffffff\n                /* \"#utility.yul\":18975:18981   */\n              dup2\n                /* \"#utility.yul\":18972:19002   */\n              gt\n                /* \"#utility.yul\":18969:19025   */\n              iszero\n              tag_537\n              jumpi\n                /* \"#utility.yul\":19005:19023   */\n              tag_538\n              tag_314\n              jump\t// in\n            tag_538:\n                /* \"#utility.yul\":18969:19025   */\n            tag_537:\n                /* \"#utility.yul\":19049:19087   */\n              tag_539\n                /* \"#utility.yul\":19081:19085   */\n              dup3\n                /* \"#utility.yul\":19075:19086   */\n              sload\n                /* \"#utility.yul\":19049:19087   */\n              tag_126\n              jump\t// in\n            tag_539:\n                /* \"#utility.yul\":19134:19201   */\n              tag_540\n                /* \"#utility.yul\":19194:19200   */\n              dup3\n                /* \"#utility.yul\":19186:19192   */\n              dup3\n                /* \"#utility.yul\":19180:19184   */\n              dup6\n                /* \"#utility.yul\":19134:19201   */\n              tag_335\n              jump\t// in\n            tag_540:\n                /* \"#utility.yul\":19228:19229   */\n              0x00\n                /* \"#utility.yul\":19252:19256   */\n              0x20\n                /* \"#utility.yul\":19239:19256   */\n              swap1\n              pop\n                /* \"#utility.yul\":19284:19286   */\n              0x1f\n                /* \"#utility.yul\":19276:19282   */\n              dup4\n                /* \"#utility.yul\":19273:19287   */\n              gt\n                /* \"#utility.yul\":19301:19302   */\n              0x01\n                /* \"#utility.yul\":19296:19914   */\n              dup2\n              eq\n              tag_542\n              jumpi\n                /* \"#utility.yul\":19958:19959   */\n              0x00\n                /* \"#utility.yul\":19975:19981   */\n              dup5\n                /* \"#utility.yul\":19972:20049   */\n              iszero\n              tag_543\n              jumpi\n                /* \"#utility.yul\":20024:20033   */\n              dup3\n                /* \"#utility.yul\":20019:20022   */\n              dup8\n                /* \"#utility.yul\":20015:20034   */\n              add\n                /* \"#utility.yul\":20009:20035   */\n              mload\n                /* \"#utility.yul\":20000:20035   */\n              swap1\n              pop\n                /* \"#utility.yul\":19972:20049   */\n            tag_543:\n                /* \"#utility.yul\":20075:20142   */\n              tag_544\n                /* \"#utility.yul\":20135:20141   */\n              dup6\n                /* \"#utility.yul\":20128:20133   */\n              dup3\n                /* \"#utility.yul\":20075:20142   */\n              tag_338\n              jump\t// in\n            tag_544:\n                /* \"#utility.yul\":20069:20073   */\n              dup7\n                /* \"#utility.yul\":20062:20143   */\n              sstore\n                /* \"#utility.yul\":19931:20153   */\n              pop\n                /* \"#utility.yul\":19266:20153   */\n              jump(tag_541)\n                /* \"#utility.yul\":19296:19914   */\n            tag_542:\n                /* \"#utility.yul\":19348:19352   */\n              0x1f\n                /* \"#utility.yul\":19344:19353   */\n              not\n                /* \"#utility.yul\":19336:19342   */\n              dup5\n                /* \"#utility.yul\":19332:19354   */\n              and\n                /* \"#utility.yul\":19382:19419   */\n              tag_545\n                /* \"#utility.yul\":19414:19418   */\n              dup7\n                /* \"#utility.yul\":19382:19419   */\n              tag_324\n              jump\t// in\n            tag_545:\n                /* \"#utility.yul\":19441:19442   */\n              0x00\n                /* \"#utility.yul\":19455:19663   */\n            tag_546:\n                /* \"#utility.yul\":19469:19476   */\n              dup3\n                /* \"#utility.yul\":19466:19467   */\n              dup2\n                /* \"#utility.yul\":19463:19477   */\n              lt\n                /* \"#utility.yul\":19455:19663   */\n              iszero\n              tag_548\n              jumpi\n                /* \"#utility.yul\":19548:19557   */\n              dup5\n                /* \"#utility.yul\":19543:19546   */\n              dup10\n                /* \"#utility.yul\":19539:19558   */\n              add\n                /* \"#utility.yul\":19533:19559   */\n              mload\n                /* \"#utility.yul\":19525:19531   */\n              dup3\n                /* \"#utility.yul\":19518:19560   */\n              sstore\n                /* \"#utility.yul\":19599:19600   */\n              0x01\n                /* \"#utility.yul\":19591:19597   */\n              dup3\n                /* \"#utility.yul\":19587:19601   */\n              add\n                /* \"#utility.yul\":19577:19601   */\n              swap2\n              pop\n                /* \"#utility.yul\":19646:19648   */\n              0x20\n                /* \"#utility.yul\":19635:19644   */\n              dup6\n                /* \"#utility.yul\":19631:19649   */\n              add\n                /* \"#utility.yul\":19618:19649   */\n              swap5\n              pop\n                /* \"#utility.yul\":19492:19496   */\n              0x20\n                /* \"#utility.yul\":19489:19490   */\n              dup2\n                /* \"#utility.yul\":19485:19497   */\n              add\n                /* \"#utility.yul\":19480:19497   */\n              swap1\n              pop\n                /* \"#utility.yul\":19455:19663   */\n              jump(tag_546)\n            tag_548:\n                /* \"#utility.yul\":19691:19697   */\n              dup7\n                /* \"#utility.yul\":19682:19689   */\n              dup4\n                /* \"#utility.yul\":19679:19698   */\n              lt\n                /* \"#utility.yul\":19676:19855   */\n              iszero\n              tag_549\n              jumpi\n                /* \"#utility.yul\":19749:19758   */\n              dup5\n                /* \"#utility.yul\":19744:19747   */\n              dup10\n                /* \"#utility.yul\":19740:19759   */\n              add\n                /* \"#utility.yul\":19734:19760   */\n              mload\n                /* \"#utility.yul\":19792:19840   */\n              tag_550\n                /* \"#utility.yul\":19834:19838   */\n              0x1f\n                /* \"#utility.yul\":19826:19832   */\n              dup10\n                /* \"#utility.yul\":19822:19839   */\n              and\n                /* \"#utility.yul\":19811:19820   */\n              dup3\n                /* \"#utility.yul\":19792:19840   */\n              tag_337\n              jump\t// in\n            tag_550:\n                /* \"#utility.yul\":19784:19790   */\n              dup4\n                /* \"#utility.yul\":19777:19841   */\n              sstore\n                /* \"#utility.yul\":19699:19855   */\n              pop\n                /* \"#utility.yul\":19676:19855   */\n            tag_549:\n                /* \"#utility.yul\":19901:19902   */\n              0x01\n                /* \"#utility.yul\":19897:19898   */\n              0x02\n                /* \"#utility.yul\":19889:19895   */\n              dup9\n                /* \"#utility.yul\":19885:19899   */\n              mul\n                /* \"#utility.yul\":19881:19903   */\n              add\n                /* \"#utility.yul\":19875:19879   */\n              dup9\n                /* \"#utility.yul\":19868:19904   */\n              sstore\n                /* \"#utility.yul\":19303:19914   */\n              pop\n              pop\n              pop\n                /* \"#utility.yul\":19266:20153   */\n            tag_541:\n              pop\n                /* \"#utility.yul\":18856:20159   */\n              pop\n              pop\n              pop\n                /* \"#utility.yul\":18764:20159   */\n              pop\n              pop\n              jump\t// out\n                /* \"#utility.yul\":20165:20345   */\n            tag_339:\n                /* \"#utility.yul\":20213:20290   */\n              0x4e487b7100000000000000000000000000000000000000000000000000000000\n                /* \"#utility.yul\":20210:20211   */\n              0x00\n                /* \"#utility.yul\":20203:20291   */\n              mstore\n                /* \"#utility.yul\":20310:20314   */\n              0x12\n                /* \"#utility.yul\":20307:20308   */\n              0x04\n                /* \"#utility.yul\":20300:20315   */\n              mstore\n                /* \"#utility.yul\":20334:20338   */\n              0x24\n                /* \"#utility.yul\":20331:20332   */\n              0x00\n                /* \"#utility.yul\":20324:20339   */\n              revert\n                /* \"#utility.yul\":20351:20531   */\n            tag_340:\n                /* \"#utility.yul\":20399:20476   */\n              0x4e487b7100000000000000000000000000000000000000000000000000000000\n                /* \"#utility.yul\":20396:20397   */\n              0x00\n                /* \"#utility.yul\":20389:20477   */\n              mstore\n                /* \"#utility.yul\":20496:20500   */\n              0x11\n                /* \"#utility.yul\":20493:20494   */\n              0x04\n                /* \"#utility.yul\":20486:20501   */\n              mstore\n                /* \"#utility.yul\":20520:20524   */\n              0x24\n                /* \"#utility.yul\":20517:20518   */\n              0x00\n                /* \"#utility.yul\":20510:20525   */\n              revert\n                /* \"#utility.yul\":20537:20722   */\n            tag_144:\n                /* \"#utility.yul\":20577:20578   */\n              0x00\n                /* \"#utility.yul\":20594:20614   */\n              tag_554\n                /* \"#utility.yul\":20612:20613   */\n              dup3\n                /* \"#utility.yul\":20594:20614   */\n              tag_283\n              jump\t// in\n            tag_554:\n                /* \"#utility.yul\":20589:20614   */\n              swap2\n              pop\n                /* \"#utility.yul\":20628:20648   */\n              tag_555\n                /* \"#utility.yul\":20646:20647   */\n              dup4\n                /* \"#utility.yul\":20628:20648   */\n              tag_283\n              jump\t// in\n            tag_555:\n                /* \"#utility.yul\":20623:20648   */\n              swap3\n              pop\n                /* \"#utility.yul\":20667:20668   */\n              dup3\n                /* \"#utility.yul\":20657:20692   */\n              tag_556\n              jumpi\n                /* \"#utility.yul\":20672:20690   */\n              tag_557\n              tag_339\n              jump\t// in\n            tag_557:\n                /* \"#utility.yul\":20657:20692   */\n            tag_556:\n                /* \"#utility.yul\":20714:20715   */\n              dup3\n                /* \"#utility.yul\":20711:20712   */\n              dup3\n                /* \"#utility.yul\":20707:20716   */\n              div\n                /* \"#utility.yul\":20702:20716   */\n              swap1\n              pop\n                /* \"#utility.yul\":20537:20722   */\n              swap3\n              swap2\n              pop\n              pop\n              jump\t// out\n                /* \"#utility.yul\":20728:20922   */\n            tag_147:\n                /* \"#utility.yul\":20768:20772   */\n              0x00\n                /* \"#utility.yul\":20788:20808   */\n              tag_559\n                /* \"#utility.yul\":20806:20807   */\n              dup3\n                /* \"#utility.yul\":20788:20808   */\n              tag_283\n              jump\t// in\n            tag_559:\n                /* \"#utility.yul\":20783:20808   */\n              swap2\n              pop\n                /* \"#utility.yul\":20822:20842   */\n              tag_560\n                /* \"#utility.yul\":20840:20841   */\n              dup4\n                /* \"#utility.yul\":20822:20842   */\n              tag_283\n              jump\t// in\n            tag_560:\n                /* \"#utility.yul\":20817:20842   */\n              swap3\n              pop\n                /* \"#utility.yul\":20866:20867   */\n              dup3\n                /* \"#utility.yul\":20863:20864   */\n              dup3\n                /* \"#utility.yul\":20859:20868   */\n              sub\n                /* \"#utility.yul\":20851:20868   */\n              swap1\n              pop\n                /* \"#utility.yul\":20890:20891   */\n              dup2\n                /* \"#utility.yul\":20884:20888   */\n              dup2\n                /* \"#utility.yul\":20881:20892   */\n              gt\n                /* \"#utility.yul\":20878:20915   */\n              iszero\n              tag_561\n              jumpi\n                /* \"#utility.yul\":20895:20913   */\n              tag_562\n              tag_340\n              jump\t// in\n            tag_562:\n                /* \"#utility.yul\":20878:20915   */\n            tag_561:\n                /* \"#utility.yul\":20728:20922   */\n              swap3\n              swap2\n              pop\n              pop\n              jump\t// out\n                /* \"#utility.yul\":20928:21030   */\n            tag_341:\n                /* \"#utility.yul\":20970:20978   */\n              0x00\n                /* \"#utility.yul\":21017:21022   */\n              dup2\n                /* \"#utility.yul\":21014:21015   */\n              0x01\n                /* \"#utility.yul\":21010:21023   */\n              shr\n                /* \"#utility.yul\":20989:21023   */\n              swap1\n              pop\n                /* \"#utility.yul\":20928:21030   */\n              swap2\n              swap1\n              pop\n              jump\t// out\n                /* \"#utility.yul\":21036:21884   */\n            tag_342:\n                /* \"#utility.yul\":21097:21102   */\n              0x00\n                /* \"#utility.yul\":21104:21108   */\n              dup1\n                /* \"#utility.yul\":21128:21134   */\n              dup3\n                /* \"#utility.yul\":21119:21134   */\n              swap2\n              pop\n                /* \"#utility.yul\":21152:21157   */\n              dup4\n                /* \"#utility.yul\":21143:21157   */\n              swap1\n              pop\n                /* \"#utility.yul\":21166:21878   */\n            tag_565:\n                /* \"#utility.yul\":21187:21188   */\n              0x01\n                /* \"#utility.yul\":21177:21185   */\n              dup6\n                /* \"#utility.yul\":21174:21189   */\n              gt\n                /* \"#utility.yul\":21166:21878   */\n              iszero\n              tag_567\n              jumpi\n                /* \"#utility.yul\":21282:21286   */\n              dup1\n                /* \"#utility.yul\":21277:21280   */\n              dup7\n                /* \"#utility.yul\":21273:21287   */\n              div\n                /* \"#utility.yul\":21267:21271   */\n              dup2\n                /* \"#utility.yul\":21264:21288   */\n              gt\n                /* \"#utility.yul\":21261:21311   */\n              iszero\n              tag_568\n              jumpi\n                /* \"#utility.yul\":21291:21309   */\n              tag_569\n              tag_340\n              jump\t// in\n            tag_569:\n                /* \"#utility.yul\":21261:21311   */\n            tag_568:\n                /* \"#utility.yul\":21341:21342   */\n              0x01\n                /* \"#utility.yul\":21331:21339   */\n              dup6\n                /* \"#utility.yul\":21327:21343   */\n              and\n                /* \"#utility.yul\":21324:21775   */\n              iszero\n              tag_570\n              jumpi\n                /* \"#utility.yul\":21756:21760   */\n              dup1\n                /* \"#utility.yul\":21749:21754   */\n              dup3\n                /* \"#utility.yul\":21745:21761   */\n              mul\n                /* \"#utility.yul\":21736:21761   */\n              swap2\n              pop\n                /* \"#utility.yul\":21324:21775   */\n            tag_570:\n                /* \"#utility.yul\":21806:21810   */\n              dup1\n                /* \"#utility.yul\":21800:21804   */\n              dup2\n                /* \"#utility.yul\":21796:21811   */\n              mul\n                /* \"#utility.yul\":21788:21811   */\n              swap1\n              pop\n                /* \"#utility.yul\":21836:21868   */\n              tag_571\n                /* \"#utility.yul\":21859:21867   */\n              dup6\n                /* \"#utility.yul\":21836:21868   */\n              tag_341\n              jump\t// in\n            tag_571:\n                /* \"#utility.yul\":21824:21868   */\n              swap5\n              pop\n                /* \"#utility.yul\":21166:21878   */\n              jump(tag_565)\n            tag_567:\n                /* \"#utility.yul\":21036:21884   */\n              swap5\n              pop\n              swap5\n              swap3\n              pop\n              pop\n              pop\n              jump\t// out\n                /* \"#utility.yul\":21890:22963   */\n            tag_343:\n                /* \"#utility.yul\":21944:21949   */\n              0x00\n                /* \"#utility.yul\":22135:22143   */\n              dup3\n                /* \"#utility.yul\":22125:22165   */\n              tag_573\n              jumpi\n                /* \"#utility.yul\":22156:22157   */\n              0x01\n                /* \"#utility.yul\":22147:22157   */\n              swap1\n              pop\n                /* \"#utility.yul\":22158:22163   */\n              jump(tag_572)\n                /* \"#utility.yul\":22125:22165   */\n            tag_573:\n                /* \"#utility.yul\":22184:22188   */\n              dup2\n                /* \"#utility.yul\":22174:22210   */\n              tag_574\n              jumpi\n                /* \"#utility.yul\":22201:22202   */\n              0x00\n                /* \"#utility.yul\":22192:22202   */\n              swap1\n              pop\n                /* \"#utility.yul\":22203:22208   */\n              jump(tag_572)\n                /* \"#utility.yul\":22174:22210   */\n            tag_574:\n                /* \"#utility.yul\":22270:22274   */\n              dup2\n                /* \"#utility.yul\":22318:22319   */\n              0x01\n                /* \"#utility.yul\":22313:22340   */\n              dup2\n              eq\n              tag_576\n              jumpi\n                /* \"#utility.yul\":22354:22355   */\n              0x02\n                /* \"#utility.yul\":22349:22540   */\n              dup2\n              eq\n              tag_577\n              jumpi\n                /* \"#utility.yul\":22263:22540   */\n              jump(tag_575)\n                /* \"#utility.yul\":22313:22340   */\n            tag_576:\n                /* \"#utility.yul\":22331:22332   */\n              0x01\n                /* \"#utility.yul\":22322:22332   */\n              swap2\n              pop\n                /* \"#utility.yul\":22333:22338   */\n              pop\n              jump(tag_572)\n                /* \"#utility.yul\":22349:22540   */\n            tag_577:\n                /* \"#utility.yul\":22394:22397   */\n              0xff\n                /* \"#utility.yul\":22384:22392   */\n              dup5\n                /* \"#utility.yul\":22381:22398   */\n              gt\n                /* \"#utility.yul\":22378:22421   */\n              iszero\n              tag_578\n              jumpi\n                /* \"#utility.yul\":22401:22419   */\n              tag_579\n              tag_340\n              jump\t// in\n            tag_579:\n                /* \"#utility.yul\":22378:22421   */\n            tag_578:\n                /* \"#utility.yul\":22450:22458   */\n              dup4\n                /* \"#utility.yul\":22447:22448   */\n              0x02\n                /* \"#utility.yul\":22443:22459   */\n              exp\n                /* \"#utility.yul\":22434:22459   */\n              swap2\n              pop\n                /* \"#utility.yul\":22485:22488   */\n              dup5\n                /* \"#utility.yul\":22478:22483   */\n              dup3\n                /* \"#utility.yul\":22475:22489   */\n              gt\n                /* \"#utility.yul\":22472:22512   */\n              iszero\n              tag_580\n              jumpi\n                /* \"#utility.yul\":22492:22510   */\n              tag_581\n              tag_340\n              jump\t// in\n            tag_581:\n                /* \"#utility.yul\":22472:22512   */\n            tag_580:\n                /* \"#utility.yul\":22525:22530   */\n              pop\n              jump(tag_572)\n                /* \"#utility.yul\":22263:22540   */\n            tag_575:\n              pop\n                /* \"#utility.yul\":22649:22651   */\n              0x20\n                /* \"#utility.yul\":22639:22647   */\n              dup4\n                /* \"#utility.yul\":22636:22652   */\n              lt\n                /* \"#utility.yul\":22630:22633   */\n              0x0133\n                /* \"#utility.yul\":22624:22628   */\n              dup4\n                /* \"#utility.yul\":22621:22634   */\n              lt\n                /* \"#utility.yul\":22617:22653   */\n              and\n                /* \"#utility.yul\":22599:22601   */\n              0x4e\n                /* \"#utility.yul\":22589:22597   */\n              dup5\n                /* \"#utility.yul\":22586:22602   */\n              lt\n                /* \"#utility.yul\":22581:22583   */\n              0x0b\n                /* \"#utility.yul\":22575:22579   */\n              dup5\n                /* \"#utility.yul\":22572:22584   */\n              lt\n                /* \"#utility.yul\":22568:22603   */\n              and\n                /* \"#utility.yul\":22552:22663   */\n              or\n                /* \"#utility.yul\":22549:22795   */\n              iszero\n              tag_582\n              jumpi\n                /* \"#utility.yul\":22705:22713   */\n              dup3\n                /* \"#utility.yul\":22699:22703   */\n              dup3\n                /* \"#utility.yul\":22695:22714   */\n              exp\n                /* \"#utility.yul\":22686:22714   */\n              swap1\n              pop\n                /* \"#utility.yul\":22740:22743   */\n              dup4\n                /* \"#utility.yul\":22733:22738   */\n              dup2\n                /* \"#utility.yul\":22730:22744   */\n              gt\n                /* \"#utility.yul\":22727:22767   */\n              iszero\n              tag_583\n              jumpi\n                /* \"#utility.yul\":22747:22765   */\n              tag_584\n              tag_340\n              jump\t// in\n            tag_584:\n                /* \"#utility.yul\":22727:22767   */\n            tag_583:\n                /* \"#utility.yul\":22780:22785   */\n              jump(tag_572)\n                /* \"#utility.yul\":22549:22795   */\n            tag_582:\n                /* \"#utility.yul\":22820:22862   */\n              tag_585\n                /* \"#utility.yul\":22858:22861   */\n              dup5\n                /* \"#utility.yul\":22848:22856   */\n              dup5\n                /* \"#utility.yul\":22842:22846   */\n              dup5\n                /* \"#utility.yul\":22839:22840   */\n              0x01\n                /* \"#utility.yul\":22820:22862   */\n              tag_342\n              jump\t// in\n            tag_585:\n                /* \"#utility.yul\":22805:22862   */\n              swap3\n              pop\n              swap1\n              pop\n                /* \"#utility.yul\":22894:22898   */\n              dup2\n                /* \"#utility.yul\":22889:22892   */\n              dup5\n                /* \"#utility.yul\":22885:22899   */\n              div\n                /* \"#utility.yul\":22878:22883   */\n              dup2\n                /* \"#utility.yul\":22875:22900   */\n              gt\n                /* \"#utility.yul\":22872:22923   */\n              iszero\n              tag_586\n              jumpi\n                /* \"#utility.yul\":22903:22921   */\n              tag_587\n              tag_340\n              jump\t// in\n            tag_587:\n                /* \"#utility.yul\":22872:22923   */\n            tag_586:\n                /* \"#utility.yul\":22952:22956   */\n              dup2\n                /* \"#utility.yul\":22945:22950   */\n              dup2\n                /* \"#utility.yul\":22941:22957   */\n              mul\n                /* \"#utility.yul\":22932:22957   */\n              swap1\n              pop\n                /* \"#utility.yul\":21890:22963   */\n            tag_572:\n              swap4\n              swap3\n              pop\n              pop\n              pop\n              jump\t// out\n                /* \"#utility.yul\":22969:23055   */\n            tag_344:\n                /* \"#utility.yul\":23004:23011   */\n              0x00\n                /* \"#utility.yul\":23044:23048   */\n              0xff\n                /* \"#utility.yul\":23037:23042   */\n              dup3\n                /* \"#utility.yul\":23033:23049   */\n              and\n                /* \"#utility.yul\":23022:23049   */\n              swap1\n              pop\n                /* \"#utility.yul\":22969:23055   */\n              swap2\n              swap1\n              pop\n              jump\t// out\n                /* \"#utility.yul\":23061:23342   */\n            tag_149:\n                /* \"#utility.yul\":23119:23124   */\n              0x00\n                /* \"#utility.yul\":23143:23166   */\n              tag_590\n                /* \"#utility.yul\":23161:23165   */\n              dup3\n                /* \"#utility.yul\":23143:23166   */\n              tag_283\n              jump\t// in\n            tag_590:\n                /* \"#utility.yul\":23135:23166   */\n              swap2\n              pop\n                /* \"#utility.yul\":23187:23212   */\n              tag_591\n                /* \"#utility.yul\":23203:23211   */\n              dup4\n                /* \"#utility.yul\":23187:23212   */\n              tag_344\n              jump\t// in\n            tag_591:\n                /* \"#utility.yul\":23175:23212   */\n              swap3\n              pop\n                /* \"#utility.yul\":23231:23335   */\n              tag_592\n                /* \"#utility.yul\":23268:23334   */\n              0xffffffffffffffffffffffffffffffffffffffffffffffffffffffffffffffff\n                /* \"#utility.yul\":23258:23266   */\n              dup5\n                /* \"#utility.yul\":23252:23256   */\n              dup5\n                /* \"#utility.yul\":23231:23335   */\n              tag_343\n              jump\t// in\n            tag_592:\n                /* \"#utility.yul\":23222:23335   */\n              swap1\n              pop\n                /* \"#utility.yul\":23061:23342   */\n              swap3\n              swap2\n              pop\n              pop\n              jump\t// out\n                /* \"#utility.yul\":23348:23758   */\n            tag_155:\n                /* \"#utility.yul\":23388:23395   */\n              0x00\n                /* \"#utility.yul\":23411:23431   */\n              tag_594\n                /* \"#utility.yul\":23429:23430   */\n              dup3\n                /* \"#utility.yul\":23411:23431   */\n              tag_283\n              jump\t// in\n            tag_594:\n                /* \"#utility.yul\":23406:23431   */\n              swap2\n              pop\n                /* \"#utility.yul\":23445:23465   */\n              tag_595\n                /* \"#utility.yul\":23463:23464   */\n              dup4\n                /* \"#utility.yul\":23445:23465   */\n              tag_283\n              jump\t// in\n            tag_595:\n                /* \"#utility.yul\":23440:23465   */\n              swap3\n              pop\n                /* \"#utility.yul\":23500:23501   */\n              dup3\n                /* \"#utility.yul\":23497:23498   */\n              dup3\n                /* \"#utility.yul\":23493:23502   */\n              mul\n                /* \"#utility.yul\":23522:23552   */\n              tag_596\n                /* \"#utility.yul\":23540:23551   */\n              dup2\n                /* \"#utility.yul\":23522:23552   */\n              tag_283\n              jump\t// in\n            tag_596:\n                /* \"#utility.yul\":23511:23552   */\n              swap2\n              pop\n                /* \"#utility.yul\":23701:23702   */\n              dup3\n                /* \"#utility.yul\":23692:23699   */\n              dup3\n                /* \"#utility.yul\":23688:23703   */\n              div\n                /* \"#utility.yul\":23685:23686   */\n              dup5\n                /* \"#utility.yul\":23682:23704   */\n              eq\n                /* \"#utility.yul\":23662:23663   */\n              dup4\n                /* \"#utility.yul\":23655:23664   */\n              iszero\n                /* \"#utility.yul\":23635:23718   */\n              or\n                /* \"#utility.yul\":23612:23751   */\n              tag_597\n              jumpi\n                /* \"#utility.yul\":23731:23749   */\n              tag_598\n              tag_340\n              jump\t// in\n            tag_598:\n                /* \"#utility.yul\":23612:23751   */\n            tag_597:\n                /* \"#utility.yul\":23396:23758   */\n              pop\n                /* \"#utility.yul\":23348:23758   */\n              swap3\n              swap2\n              pop\n              pop\n              jump\t// out\n                /* \"#utility.yul\":23764:23955   */\n            tag_160:\n                /* \"#utility.yul\":23804:23807   */\n              0x00\n                /* \"#utility.yul\":23823:23843   */\n              tag_600\n                /* \"#utility.yul\":23841:23842   */\n              dup3\n                /* \"#utility.yul\":23823:23843   */\n              tag_283\n              jump\t// in\n            tag_600:\n                /* \"#utility.yul\":23818:23843   */\n              swap2\n              pop\n                /* \"#utility.yul\":23857:23877   */\n              tag_601\n                /* \"#utility.yul\":23875:23876   */\n              dup4\n                /* \"#utility.yul\":23857:23877   */\n              tag_283\n              jump\t// in\n            tag_601:\n                /* \"#utility.yul\":23852:23877   */\n              swap3\n              pop\n                /* \"#utility.yul\":23900:23901   */\n              dup3\n                /* \"#utility.yul\":23897:23898   */\n              dup3\n                /* \"#utility.yul\":23893:23902   */\n              add\n                /* \"#utility.yul\":23886:23902   */\n              swap1\n              pop\n                /* \"#utility.yul\":23921:23924   */\n              dup1\n                /* \"#utility.yul\":23918:23919   */\n              dup3\n                /* \"#utility.yul\":23915:23925   */\n              gt\n                /* \"#utility.yul\":23912:23948   */\n              iszero\n              tag_602\n              jumpi\n                /* \"#utility.yul\":23928:23946   */\n              tag_603\n              tag_340\n              jump\t// in\n            tag_603:\n                /* \"#utility.yul\":23912:23948   */\n            tag_602:\n                /* \"#utility.yul\":23764:23955   */\n              swap3\n              swap2\n              pop\n              pop\n              jump\t// out\n                /* \"#utility.yul\":23961:24194   */\n            tag_253:\n                /* \"#utility.yul\":24000:24003   */\n              0x00\n                /* \"#utility.yul\":24023:24047   */\n              tag_605\n                /* \"#utility.yul\":24041:24046   */\n              dup3\n                /* \"#utility.yul\":24023:24047   */\n              tag_283\n              jump\t// in\n            tag_605:\n                /* \"#utility.yul\":24014:24047   */\n              swap2\n              pop\n                /* \"#utility.yul\":24069:24135   */\n              0xffffffffffffffffffffffffffffffffffffffffffffffffffffffffffffffff\n                /* \"#utility.yul\":24062:24067   */\n              dup3\n                /* \"#utility.yul\":24059:24136   */\n              sub\n                /* \"#utility.yul\":24056:24159   */\n              tag_606\n              jumpi\n                /* \"#utility.yul\":24139:24157   */\n              tag_607\n              tag_340\n              jump\t// in\n            tag_607:\n                /* \"#utility.yul\":24056:24159   */\n            tag_606:\n                /* \"#utility.yul\":24186:24187   */\n              0x01\n                /* \"#utility.yul\":24179:24184   */\n              dup3\n                /* \"#utility.yul\":24175:24188   */\n              add\n                /* \"#utility.yul\":24168:24188   */\n              swap1\n              pop\n                /* \"#utility.yul\":23961:24194   */\n              swap2\n              swap1\n              pop\n              jump\t// out\n\n            auxdata: 0xa26469706673582212202efe4fa13d441ece2134c42648ed7d7b3d556beb34a963ca329a0ed584932a7164736f6c63430008140033\n        }\n    }\n\n    auxdata: 0xa264697066735822122092e294e7afd54b55776532755789fecddb5a61da46dcaca33c34d6290ad7b77964736f6c63430008140033\n}\n","bytecode":{"linkReferences":{},"object":"608060405234801561000f575f80fd5b506131118061001d5f395ff3fe608060405234801562000010575f80fd5b506004361062000044575f3560e01c8063141961bc14620000485780634acb9d4f146200007e57806371572a5614620000a0575b5f80fd5b62000066600480360381019062000060919062000288565b620000c0565b604051620000759190620002fb565b60405180910390f35b62000088620000fb565b604051620000979190620003dd565b60405180910390f35b620000be6004803603810190620000b8919062000557565b62000187565b005b5f8181548110620000cf575f80fd5b905f5260205f20015f915054906101000a900473ffffffffffffffffffffffffffffffffffffffff1681565b60605f8054806020026020016040519081016040528092919081815260200182805480156200017d57602002820191905f5260205f20905b815f9054906101000a900473ffffffffffffffffffffffffffffffffffffffff1673ffffffffffffffffffffffffffffffffffffffff168152602001906001019080831162000133575b5050505050905090565b5f8585858585336040516200019c9062000231565b620001ad96959493929190620006cd565b604051809103905ff080158015620001c7573d5f803e3d5ffd5b5090505f81908060018154018082558091505060019003905f5260205f20015f9091909190916101000a81548173ffffffffffffffffffffffffffffffffffffffff021916908373ffffffffffffffffffffffffffffffffffffffff160217905550505050505050565b61298e806200074e83390190565b5f604051905090565b5f80fd5b5f80fd5b5f819050919050565b620002648162000250565b81146200026f575f80fd5b50565b5f81359050620002828162000259565b92915050565b5f60208284031215620002a0576200029f62000248565b5b5f620002af8482850162000272565b91505092915050565b5f73ffffffffffffffffffffffffffffffffffffffff82169050919050565b5f620002e382620002b8565b9050919050565b620002f581620002d7565b82525050565b5f602082019050620003105f830184620002ea565b92915050565b5f81519050919050565b5f82825260208201905092915050565b5f819050602082019050919050565b6200034a81620002d7565b82525050565b5f6200035d83836200033f565b60208301905092915050565b5f602082019050919050565b5f620003818262000316565b6200038d818562000320565b93506200039a8362000330565b805f5b83811015620003d0578151620003b4888262000350565b9750620003c18362000369565b9250506001810190506200039d565b5085935050505092915050565b5f6020820190508181035f830152620003f7818462000375565b905092915050565b5f80fd5b5f80fd5b5f601f19601f8301169050919050565b7f4e487b71000000000000000000000000000000000000000000000000000000005f52604160045260245ffd5b6200044f8262000407565b810181811067ffffffffffffffff8211171562000471576200047062000417565b5b80604052505050565b5f620004856200023f565b905062000493828262000444565b919050565b5f67ffffffffffffffff821115620004b557620004b462000417565b5b620004c08262000407565b9050602081019050919050565b828183375f83830152505050565b5f620004f1620004eb8462000498565b6200047a565b90508281526020810184848401111562000510576200050f62000403565b5b6200051d848285620004cd565b509392505050565b5f82601f8301126200053c576200053b620003ff565b5b81356200054e848260208601620004db565b91505092915050565b5f805f805f60a0868803121562000573576200057262000248565b5b5f620005828882890162000272565b9550506020620005958882890162000272565b945050604086013567ffffffffffffffff811115620005b957620005b86200024c565b5b620005c78882890162000525565b935050606086013567ffffffffffffffff811115620005eb57620005ea6200024c565b5b620005f98882890162000525565b925050608086013567ffffffffffffffff8111156200061d576200061c6200024c565b5b6200062b8882890162000525565b9150509295509295909350565b620006438162000250565b82525050565b5f81519050919050565b5f82825260208201905092915050565b5f5b838110156200068257808201518184015260208101905062000665565b5f8484015250505050565b5f620006998262000649565b620006a5818562000653565b9350620006b781856020860162000663565b620006c28162000407565b840191505092915050565b5f60c082019050620006e25f83018962000638565b620006f1602083018862000638565b81810360408301526200070581876200068d565b905081810360608301526200071b81866200068d565b905081810360808301526200073181856200068d565b90506200074260a0830184620002ea565b97965050505050505056fe60806040525f600a555f600b5534801562000018575f80fd5b506040516200298e3803806200298e83398181016040528101906200003e9190620002ec565b856007819055508060025f6101000a81548173ffffffffffffffffffffffffffffffffffffffff021916908373ffffffffffffffffffffffffffffffffffffffff16021790555083600390816200009691906200060f565b508260049081620000a891906200060f565b508160059081620000ba91906200060f565b5084600681905550505050505050620006f3565b5f604051905090565b5f80fd5b5f80fd5b5f819050919050565b620000f381620000df565b8114620000fe575f80fd5b50565b5f815190506200011181620000e8565b92915050565b5f80fd5b5f80fd5b5f601f19601f8301169050919050565b7f4e487b71000000000000000000000000000000000000000000000000000000005f52604160045260245ffd5b62000167826200011f565b810181811067ffffffffffffffff821117156200018957620001886200012f565b5b80604052505050565b5f6200019d620000ce565b9050620001ab82826200015c565b919050565b5f67ffffffffffffffff821115620001cd57620001cc6200012f565b5b620001d8826200011f565b9050602081019050919050565b5f5b8381101562000204578082015181840152602081019050620001e7565b5f8484015250505050565b5f620002256200021f84620001b0565b62000192565b9050828152602081018484840111156200024457620002436200011b565b5b62000251848285620001e5565b509392505050565b5f82601f83011262000270576200026f62000117565b5b8151620002828482602086016200020f565b91505092915050565b5f73ffffffffffffffffffffffffffffffffffffffff82169050919050565b5f620002b6826200028b565b9050919050565b620002c881620002aa565b8114620002d3575f80fd5b50565b5f81519050620002e681620002bd565b92915050565b5f805f805f8060c08789031215620003095762000308620000d7565b5b5f6200031889828a0162000101565b96505060206200032b89828a0162000101565b955050604087015167ffffffffffffffff8111156200034f576200034e620000db565b5b6200035d89828a0162000259565b945050606087015167ffffffffffffffff811115620003815762000380620000db565b5b6200038f89828a0162000259565b935050608087015167ffffffffffffffff811115620003b357620003b2620000db565b5b620003c189828a0162000259565b92505060a0620003d489828a01620002d6565b9150509295509295509295565b5f81519050919050565b7f4e487b71000000000000000000000000000000000000000000000000000000005f52602260045260245ffd5b5f60028204905060018216806200043057607f821691505b602082108103620004465762000445620003eb565b5b50919050565b5f819050815f5260205f209050919050565b5f6020601f8301049050919050565b5f82821b905092915050565b5f60088302620004aa7fffffffffffffffffffffffffffffffffffffffffffffffffffffffffffffffff826200046d565b620004b686836200046d565b95508019841693508086168417925050509392505050565b5f819050919050565b5f620004f7620004f1620004eb84620000df565b620004ce565b620000df565b9050919050565b5f819050919050565b6200051283620004d7565b6200052a6200052182620004fe565b84845462000479565b825550505050565b5f90565b6200054062000532565b6200054d81848462000507565b505050565b5b818110156200057457620005685f8262000536565b60018101905062000553565b5050565b601f821115620005c3576200058d816200044c565b62000598846200045e565b81016020851015620005a8578190505b620005c0620005b7856200045e565b83018262000552565b50505b505050565b5f82821c905092915050565b5f620005e55f1984600802620005c8565b1980831691505092915050565b5f620005ff8383620005d4565b9150826002028217905092915050565b6200061a82620003e1565b67ffffffffffffffff8111156200063657620006356200012f565b5b62000642825462000418565b6200064f82828562000578565b5f60209050601f83116001811462000685575f841562000670578287015190505b6200067c8582620005f2565b865550620006eb565b601f19841662000695866200044c565b5f5b82811015620006be5784890151825560018201915060208501945060208101905062000697565b86831015620006de5784890151620006da601f891682620005d4565b8355505b6001600288020188555050505b505050505050565b61228d80620007015f395ff3fe608060405260043610610113575f3560e01c8063702645de1161009f578063aaffadf311610063578063aaffadf3146103a3578063c56a3e88146103cd578063d7bb99ba146103f7578063d7d1bbdb14610401578063f99ea1a51461042957610113565b8063702645de146102bc57806381d12c58146102e65780638813ce12146103275780638a9cfd55146103515780638ad5f3581461037957610113565b806334b66460116100e657806334b66460146101bd5780633c746b26146101f95780634051ddac14610235578063481c6a75146102685780636f412a611461029257610113565b806303441006146101175780630724fda91461013f578063110842cb14610169578063332f7acf14610193575b5f80fd5b348015610122575f80fd5b5061013d600480360381019061013891906115bb565b610453565b005b34801561014a575f80fd5b506101536105e9565b6040516101609190611670565b60405180910390f35b348015610174575f80fd5b5061017d610675565b60405161018a9190611670565b60405180910390f35b34801561019e575f80fd5b506101a7610701565b6040516101b4919061169f565b60405180910390f35b3480156101c8575f80fd5b506101e360048036038101906101de9190611712565b610707565b6040516101f0919061169f565b60405180910390f35b348015610204575f80fd5b5061021f600480360381019061021a91906115bb565b61071c565b60405161022c9190611670565b60405180910390f35b348015610240575f80fd5b50610249610a37565b60405161025f9a9998979695949392919061174c565b60405180910390f35b348015610273575f80fd5b5061027c610c3b565b60405161028991906117fb565b60405180910390f35b34801561029d575f80fd5b506102a6610c60565b6040516102b39190611670565b60405180910390f35b3480156102c7575f80fd5b506102d0610cec565b6040516102dd919061182e565b60405180910390f35b3480156102f1575f80fd5b5061030c600480360381019061030791906115bb565b610d32565b60405161031e96959493929190611867565b60405180910390f35b348015610332575f80fd5b5061033b610ea3565b6040516103489190611a82565b60405180910390f35b34801561035c575f80fd5b5061037760048036038101906103729190611bf8565b611090565b005b348015610384575f80fd5b5061038d6111f8565b60405161039a919061169f565b60405180910390f35b3480156103ae575f80fd5b506103b76111fe565b6040516103c4919061169f565b60405180910390f35b3480156103d8575f80fd5b506103e1611204565b6040516103ee919061182e565b60405180910390f35b6103ff61125a565b005b34801561040c575f80fd5b50610427600480360381019061042291906115bb565b611347565b005b348015610434575f80fd5b5061043d611500565b60405161044a919061169f565b60405180910390f35b60025f9054906101000a900473ffffffffffffffffffffffffffffffffffffffff1673ffffffffffffffffffffffffffffffffffffffff163373ffffffffffffffffffffffffffffffffffffffff16146104ab575f80fd5b5f8082815481106104bf576104be611c64565b5b905f5260205f20906006020190506040518060400160405280600881526020017f617070726f766564000000000000000000000000000000000000000000000000815250805190602001206105138361071c565b8051906020012014610523575f80fd5b4781600101541115610533575f80fd5b806002015f9054906101000a900473ffffffffffffffffffffffffffffffffffffffff1673ffffffffffffffffffffffffffffffffffffffff166108fc826001015490811502906040515f60405180830381858888f1935050505015801561059d573d5f803e3d5ffd5b506040518060400160405280600981526020017f66696e616c697a656400000000000000000000000000000000000000000000008152508160050190816105e49190611e8b565b505050565b600380546105f690611cbe565b80601f016020809104026020016040519081016040528092919081815260200182805461062290611cbe565b801561066d5780601f106106445761010080835404028352916020019161066d565b820191905f5260205f20905b81548152906001019060200180831161065057829003601f168201915b505050505081565b6004805461068290611cbe565b80601f01602080910402602001604051908101604052809291908181526020018280546106ae90611cbe565b80156106f95780601f106106d0576101008083540402835291602001916106f9565b820191905f5260205f20905b8154815290600101906020018083116106dc57829003601f168201915b505050505081565b600a5481565b6008602052805f5260405f205f915090505481565b60605f80838154811061073257610731611c64565b5b905f5260205f20906006020190506001600954116107d2576001816003015403610794576040518060400160405280600881526020017f617070726f766564000000000000000000000000000000000000000000000000815250915050610a32565b6040518060400160405280600781526020017f70656e64696e6700000000000000000000000000000000000000000000000000815250915050610a32565b5f600954600a546107e39190611fb4565b90505f61083060016009546107f89190611fe4565b6009546002600a5461080a9190612152565b6108149190611fb4565b600b546108219190611fe4565b61082b9190611fb4565b611506565b90505f60095460328560030154610847919061219c565b6108519190611fb4565b600a5460328660040154610865919061219c565b61086f9190611fb4565b61087991906121dd565b90505f6033905082600261088d919061219c565b84101580156108b657508260026108a4919061219c565b846108af9190611fe4565b8560010154105b156108cf576006816108c89190611fe4565b90506109ab565b8284101580156108ed575082846108e69190611fe4565b8560010154105b15610906576004816108ff9190611fe4565b90506109aa565b83856001015410156109265760028161091f9190611fe4565b90506109a9565b8460010154841080156109475750828461094091906121dd565b8560010154105b156109605760028161095991906121dd565b90506109a8565b82600261096d919061219c565b8461097891906121dd565b856001015410156109975760048161099091906121dd565b90506109a7565b6006816109a491906121dd565b90505b5b5b5b5b8082106109f4576040518060400160405280600881526020017f617070726f76656400000000000000000000000000000000000000000000000081525095505050505050610a32565b6040518060400160405280600781526020017f70656e64696e6700000000000000000000000000000000000000000000000000815250955050505050505b919050565b60608060605f805f805f805f600360046005600654600754600a54475f8054905060095460025f9054906101000a900473ffffffffffffffffffffffffffffffffffffffff16898054610a8990611cbe565b80601f0160208091040260200160405190810160405280929190818152602001828054610ab590611cbe565b8015610b005780601f10610ad757610100808354040283529160200191610b00565b820191905f5260205f20905b815481529060010190602001808311610ae357829003601f168201915b50505050509950888054610b1390611cbe565b80601f0160208091040260200160405190810160405280929190818152602001828054610b3f90611cbe565b8015610b8a5780601f10610b6157610100808354040283529160200191610b8a565b820191905f5260205f20905b815481529060010190602001808311610b6d57829003601f168201915b50505050509850878054610b9d90611cbe565b80601f0160208091040260200160405190810160405280929190818152602001828054610bc990611cbe565b8015610c145780601f10610beb57610100808354040283529160200191610c14565b820191905f5260205f20905b815481529060010190602001808311610bf757829003601f168201915b50505050509750995099509950995099509950995099509950995090919293949596979899565b60025f9054906101000a900473ffffffffffffffffffffffffffffffffffffffff1681565b60058054610c6d90611cbe565b80601f0160208091040260200160405190810160405280929190818152602001828054610c9990611cbe565b8015610ce45780601f10610cbb57610100808354040283529160200191610ce4565b820191905f5260205f20905b815481529060010190602001808311610cc757829003601f168201915b505050505081565b5f8060085f3373ffffffffffffffffffffffffffffffffffffffff1673ffffffffffffffffffffffffffffffffffffffff1681526020019081526020015f205411905090565b5f8181548110610d40575f80fd5b905f5260205f2090600602015f91509050805f018054610d5f90611cbe565b80601f0160208091040260200160405190810160405280929190818152602001828054610d8b90611cbe565b8015610dd65780601f10610dad57610100808354040283529160200191610dd6565b820191905f5260205f20905b815481529060010190602001808311610db957829003601f168201915b505050505090806001015490806002015f9054906101000a900473ffffffffffffffffffffffffffffffffffffffff1690806003015490806004015490806005018054610e2290611cbe565b80601f0160208091040260200160405190810160405280929190818152602001828054610e4e90611cbe565b8015610e995780601f10610e7057610100808354040283529160200191610e99565b820191905f5260205f20905b815481529060010190602001808311610e7c57829003601f168201915b5050505050905086565b60605f805480602002602001604051908101604052809291908181526020015f905b82821015611087578382905f5260205f2090600602016040518060c00160405290815f82018054610ef590611cbe565b80601f0160208091040260200160405190810160405280929190818152602001828054610f2190611cbe565b8015610f6c5780601f10610f4357610100808354040283529160200191610f6c565b820191905f5260205f20905b815481529060010190602001808311610f4f57829003601f168201915b5050505050815260200160018201548152602001600282015f9054906101000a900473ffffffffffffffffffffffffffffffffffffffff1673ffffffffffffffffffffffffffffffffffffffff1673ffffffffffffffffffffffffffffffffffffffff1681526020016003820154815260200160048201548152602001600582018054610ff890611cbe565b80601f016020809104026020016040519081016040528092919081815260200182805461102490611cbe565b801561106f5780601f106110465761010080835404028352916020019161106f565b820191905f5260205f20905b81548152906001019060200180831161105257829003601f168201915b50505050508152505081526020019060010190610ec5565b50505050905090565b60025f9054906101000a900473ffffffffffffffffffffffffffffffffffffffff1673ffffffffffffffffffffffffffffffffffffffff163373ffffffffffffffffffffffffffffffffffffffff16146110e8575f80fd5b5f60018160018154018082558091505003905f5260205f209050505f8060015f805490506111169190611fe4565b8154811061112757611126611c64565b5b905f5260205f209060060201905083815f0190816111459190611e8b565b5082816001018190555081816002015f6101000a81548173ffffffffffffffffffffffffffffffffffffffff021916908373ffffffffffffffffffffffffffffffffffffffff1602179055506040518060400160405280600781526020017f70656e64696e67000000000000000000000000000000000000000000000000008152508160050190816111d79190611e8b565b506001808160018154018082558091505003905f5260205f20505050505050565b60095481565b60075481565b5f3373ffffffffffffffffffffffffffffffffffffffff1660025f9054906101000a900473ffffffffffffffffffffffffffffffffffffffff1673ffffffffffffffffffffffffffffffffffffffff1614905090565b5f60085f3373ffffffffffffffffffffffffffffffffffffffff1673ffffffffffffffffffffffffffffffffffffffff1681526020019081526020015f2054146112a2575f80fd5b6007543410156112b0575f80fd5b3460085f3373ffffffffffffffffffffffffffffffffffffffff1673ffffffffffffffffffffffffffffffffffffffff1681526020019081526020015f208190555060095f81548092919061130490612210565b919050555034600a5f82825461131a91906121dd565b9250508190555060023461132e9190612152565b600b5f82825461133e91906121dd565b92505081905550565b5f80828154811061135b5761135a611c64565b5b905f5260205f20906006020190505f60085f3373ffffffffffffffffffffffffffffffffffffffff1673ffffffffffffffffffffffffffffffffffffffff1681526020019081526020015f2054116113b1575f80fd5b600182815481106113c5576113c4611c64565b5b905f5260205f20015f3373ffffffffffffffffffffffffffffffffffffffff1673ffffffffffffffffffffffffffffffffffffffff1681526020019081526020015f205f9054906101000a900460ff161561141e575f80fd5b806003015f81548092919061143290612210565b9190505550600180838154811061144c5761144b611c64565b5b905f5260205f20015f3373ffffffffffffffffffffffffffffffffffffffff1673ffffffffffffffffffffffffffffffffffffffff1681526020019081526020015f205f6101000a81548160ff02191690831515021790555060085f3373ffffffffffffffffffffffffffffffffffffffff1673ffffffffffffffffffffffffffffffffffffffff1681526020019081526020015f2054816004015f8282546114f591906121dd565b925050819055505050565b60065481565b5f808203611516575f9050611572565b5f600260018461152691906121dd565b6115309190611fb4565b90505f8390505b8082101561156c5781905060028283866115519190611fb4565b61155b91906121dd565b6115659190611fb4565b9150611537565b80925050505b919050565b5f604051905090565b5f80fd5b5f80fd5b5f819050919050565b61159a81611588565b81146115a4575f80fd5b50565b5f813590506115b581611591565b92915050565b5f602082840312156115d0576115cf611580565b5b5f6115dd848285016115a7565b91505092915050565b5f81519050919050565b5f82825260208201905092915050565b5f5b8381101561161d578082015181840152602081019050611602565b5f8484015250505050565b5f601f19601f8301169050919050565b5f611642826115e6565b61164c81856115f0565b935061165c818560208601611600565b61166581611628565b840191505092915050565b5f6020820190508181035f8301526116888184611638565b905092915050565b61169981611588565b82525050565b5f6020820190506116b25f830184611690565b92915050565b5f73ffffffffffffffffffffffffffffffffffffffff82169050919050565b5f6116e1826116b8565b9050919050565b6116f1816116d7565b81146116fb575f80fd5b50565b5f8135905061170c816116e8565b92915050565b5f6020828403121561172757611726611580565b5b5f611734848285016116fe565b91505092915050565b611746816116d7565b82525050565b5f610140820190508181035f830152611765818d611638565b90508181036020830152611779818c611638565b9050818103604083015261178d818b611638565b905061179c606083018a611690565b6117a96080830189611690565b6117b660a0830188611690565b6117c360c0830187611690565b6117d060e0830186611690565b6117de610100830185611690565b6117ec61012083018461173d565b9b9a5050505050505050505050565b5f60208201905061180e5f83018461173d565b92915050565b5f8115159050919050565b61182881611814565b82525050565b5f6020820190506118415f83018461181f565b92915050565b5f611851826116b8565b9050919050565b61186181611847565b82525050565b5f60c0820190508181035f83015261187f8189611638565b905061188e6020830188611690565b61189b6040830187611858565b6118a86060830186611690565b6118b56080830185611690565b81810360a08301526118c78184611638565b9050979650505050505050565b5f81519050919050565b5f82825260208201905092915050565b5f819050602082019050919050565b5f82825260208201905092915050565b5f611917826115e6565b61192181856118fd565b9350611931818560208601611600565b61193a81611628565b840191505092915050565b61194e81611588565b82525050565b61195d81611847565b82525050565b5f60c083015f8301518482035f86015261197d828261190d565b91505060208301516119926020860182611945565b5060408301516119a56040860182611954565b5060608301516119b86060860182611945565b5060808301516119cb6080860182611945565b5060a083015184820360a08601526119e3828261190d565b9150508091505092915050565b5f6119fb8383611963565b905092915050565b5f602082019050919050565b5f611a19826118d4565b611a2381856118de565b935083602082028501611a35856118ee565b805f5b85811015611a705784840389528151611a5185826119f0565b9450611a5c83611a03565b925060208a01995050600181019050611a38565b50829750879550505050505092915050565b5f6020820190508181035f830152611a9a8184611a0f565b905092915050565b5f80fd5b5f80fd5b7f4e487b71000000000000000000000000000000000000000000000000000000005f52604160045260245ffd5b611ae082611628565b810181811067ffffffffffffffff82111715611aff57611afe611aaa565b5b80604052505050565b5f611b11611577565b9050611b1d8282611ad7565b919050565b5f67ffffffffffffffff821115611b3c57611b3b611aaa565b5b611b4582611628565b9050602081019050919050565b828183375f83830152505050565b5f611b72611b6d84611b22565b611b08565b905082815260208101848484011115611b8e57611b8d611aa6565b5b611b99848285611b52565b509392505050565b5f82601f830112611bb557611bb4611aa2565b5b8135611bc5848260208601611b60565b91505092915050565b611bd781611847565b8114611be1575f80fd5b50565b5f81359050611bf281611bce565b92915050565b5f805f60608486031215611c0f57611c0e611580565b5b5f84013567ffffffffffffffff811115611c2c57611c2b611584565b5b611c3886828701611ba1565b9350506020611c49868287016115a7565b9250506040611c5a86828701611be4565b9150509250925092565b7f4e487b71000000000000000000000000000000000000000000000000000000005f52603260045260245ffd5b7f4e487b71000000000000000000000000000000000000000000000000000000005f52602260045260245ffd5b5f6002820490506001821680611cd557607f821691505b602082108103611ce857611ce7611c91565b5b50919050565b5f819050815f5260205f209050919050565b5f6020601f8301049050919050565b5f82821b905092915050565b5f60088302611d4a7fffffffffffffffffffffffffffffffffffffffffffffffffffffffffffffffff82611d0f565b611d548683611d0f565b95508019841693508086168417925050509392505050565b5f819050919050565b5f611d8f611d8a611d8584611588565b611d6c565b611588565b9050919050565b5f819050919050565b611da883611d75565b611dbc611db482611d96565b848454611d1b565b825550505050565b5f90565b611dd0611dc4565b611ddb818484611d9f565b505050565b5b81811015611dfe57611df35f82611dc8565b600181019050611de1565b5050565b601f821115611e4357611e1481611cee565b611e1d84611d00565b81016020851015611e2c578190505b611e40611e3885611d00565b830182611de0565b50505b505050565b5f82821c905092915050565b5f611e635f1984600802611e48565b1980831691505092915050565b5f611e7b8383611e54565b9150826002028217905092915050565b611e94826115e6565b67ffffffffffffffff811115611ead57611eac611aaa565b5b611eb78254611cbe565b611ec2828285611e02565b5f60209050601f831160018114611ef3575f8415611ee1578287015190505b611eeb8582611e70565b865550611f52565b601f198416611f0186611cee565b5f5b82811015611f2857848901518255600182019150602085019450602081019050611f03565b86831015611f455784890151611f41601f891682611e54565b8355505b6001600288020188555050505b505050505050565b7f4e487b71000000000000000000000000000000000000000000000000000000005f52601260045260245ffd5b7f4e487b71000000000000000000000000000000000000000000000000000000005f52601160045260245ffd5b5f611fbe82611588565b9150611fc983611588565b925082611fd957611fd8611f5a565b5b828204905092915050565b5f611fee82611588565b9150611ff983611588565b925082820390508181111561201157612010611f87565b5b92915050565b5f8160011c9050919050565b5f808291508390505b600185111561206c5780860481111561204857612047611f87565b5b60018516156120575780820291505b808102905061206585612017565b945061202c565b94509492505050565b5f82612084576001905061213f565b81612091575f905061213f565b81600181146120a757600281146120b1576120e0565b600191505061213f565b60ff8411156120c3576120c2611f87565b5b8360020a9150848211156120da576120d9611f87565b5b5061213f565b5060208310610133831016604e8410600b84101617156121155782820a9050838111156121105761210f611f87565b5b61213f565b6121228484846001612023565b9250905081840481111561213957612138611f87565b5b81810290505b9392505050565b5f60ff82169050919050565b5f61215c82611588565b915061216783612146565b92506121947fffffffffffffffffffffffffffffffffffffffffffffffffffffffffffffffff8484612075565b905092915050565b5f6121a682611588565b91506121b183611588565b92508282026121bf81611588565b915082820484148315176121d6576121d5611f87565b5b5092915050565b5f6121e782611588565b91506121f283611588565b925082820190508082111561220a57612209611f87565b5b92915050565b5f61221a82611588565b91507fffffffffffffffffffffffffffffffffffffffffffffffffffffffffffffffff820361224c5761224b611f87565b5b60018201905091905056fea26469706673582212202efe4fa13d441ece2134c42648ed7d7b3d556beb34a963ca329a0ed584932a7164736f6c63430008140033a264697066735822122092e294e7afd54b55776532755789fecddb5a61da46dcaca33c34d6290ad7b77964736f6c63430008140033","opcodes":"PUSH1 0x80 PUSH1 0x40 MSTORE CALLVALUE DUP1 ISZERO PUSH2 0xF JUMPI PUSH0 DUP1 REVERT JUMPDEST POP PUSH2 0x3111 DUP1 PUSH2 0x1D PUSH0 CODECOPY PUSH0 RETURN INVALID PUSH1 0x80 PUSH1 0x40 MSTORE CALLVALUE DUP1 ISZERO PUSH3 0x10 JUMPI PUSH0 DUP1 REVERT JUMPDEST POP PUSH1 0x4 CALLDATASIZE LT PUSH3 0x44 JUMPI PUSH0 CALLDATALOAD PUSH1 0xE0 SHR DUP1 PUSH4 0x141961BC EQ PUSH3 0x48 JUMPI DUP1 PUSH4 0x4ACB9D4F EQ PUSH3 0x7E JUMPI DUP1 PUSH4 0x71572A56 EQ PUSH3 0xA0 JUMPI JUMPDEST PUSH0 DUP1 REVERT JUMPDEST PUSH3 0x66 PUSH1 0x4 DUP1 CALLDATASIZE SUB DUP2 ADD SWAP1 PUSH3 0x60 SWAP2 SWAP1 PUSH3 0x288 JUMP JUMPDEST PUSH3 0xC0 JUMP JUMPDEST PUSH1 0x40 MLOAD PUSH3 0x75 SWAP2 SWAP1 PUSH3 0x2FB JUMP JUMPDEST PUSH1 0x40 MLOAD DUP1 SWAP2 SUB SWAP1 RETURN JUMPDEST PUSH3 0x88 PUSH3 0xFB JUMP JUMPDEST PUSH1 0x40 MLOAD PUSH3 0x97 SWAP2 SWAP1 PUSH3 0x3DD JUMP JUMPDEST PUSH1 0x40 MLOAD DUP1 SWAP2 SUB SWAP1 RETURN JUMPDEST PUSH3 0xBE PUSH1 0x4 DUP1 CALLDATASIZE SUB DUP2 ADD SWAP1 PUSH3 0xB8 SWAP2 SWAP1 PUSH3 0x557 JUMP JUMPDEST PUSH3 0x187 JUMP JUMPDEST STOP JUMPDEST PUSH0 DUP2 DUP2 SLOAD DUP2 LT PUSH3 0xCF JUMPI PUSH0 DUP1 REVERT JUMPDEST SWAP1 PUSH0 MSTORE PUSH1 0x20 PUSH0 KECCAK256 ADD PUSH0 SWAP2 POP SLOAD SWAP1 PUSH2 0x100 EXP SWAP1 DIV PUSH20 0xFFFFFFFFFFFFFFFFFFFFFFFFFFFFFFFFFFFFFFFF AND DUP2 JUMP JUMPDEST PUSH1 0x60 PUSH0 DUP1 SLOAD DUP1 PUSH1 0x20 MUL PUSH1 0x20 ADD PUSH1 0x40 MLOAD SWAP1 DUP2 ADD PUSH1 0x40 MSTORE DUP1 SWAP3 SWAP2 SWAP1 DUP2 DUP2 MSTORE PUSH1 0x20 ADD DUP3 DUP1 SLOAD DUP1 ISZERO PUSH3 0x17D JUMPI PUSH1 0x20 MUL DUP3 ADD SWAP2 SWAP1 PUSH0 MSTORE PUSH1 0x20 PUSH0 KECCAK256 SWAP1 JUMPDEST DUP2 PUSH0 SWAP1 SLOAD SWAP1 PUSH2 0x100 EXP SWAP1 DIV PUSH20 0xFFFFFFFFFFFFFFFFFFFFFFFFFFFFFFFFFFFFFFFF AND PUSH20 0xFFFFFFFFFFFFFFFFFFFFFFFFFFFFFFFFFFFFFFFF AND DUP2 MSTORE PUSH1 0x20 ADD SWAP1 PUSH1 0x1 ADD SWAP1 DUP1 DUP4 GT PUSH3 0x133 JUMPI JUMPDEST POP POP POP POP POP SWAP1 POP SWAP1 JUMP JUMPDEST PUSH0 DUP6 DUP6 DUP6 DUP6 DUP6 CALLER PUSH1 0x40 MLOAD PUSH3 0x19C SWAP1 PUSH3 0x231 JUMP JUMPDEST PUSH3 0x1AD SWAP7 SWAP6 SWAP5 SWAP4 SWAP3 SWAP2 SWAP1 PUSH3 0x6CD JUMP JUMPDEST PUSH1 0x40 MLOAD DUP1 SWAP2 SUB SWAP1 PUSH0 CREATE DUP1 ISZERO DUP1 ISZERO PUSH3 0x1C7 JUMPI RETURNDATASIZE PUSH0 DUP1 RETURNDATACOPY RETURNDATASIZE PUSH0 REVERT JUMPDEST POP SWAP1 POP PUSH0 DUP2 SWAP1 DUP1 PUSH1 0x1 DUP2 SLOAD ADD DUP1 DUP3 SSTORE DUP1 SWAP2 POP POP PUSH1 0x1 SWAP1 SUB SWAP1 PUSH0 MSTORE PUSH1 0x20 PUSH0 KECCAK256 ADD PUSH0 SWAP1 SWAP2 SWAP1 SWAP2 SWAP1 SWAP2 PUSH2 0x100 EXP DUP2 SLOAD DUP2 PUSH20 0xFFFFFFFFFFFFFFFFFFFFFFFFFFFFFFFFFFFFFFFF MUL NOT AND SWAP1 DUP4 PUSH20 0xFFFFFFFFFFFFFFFFFFFFFFFFFFFFFFFFFFFFFFFF AND MUL OR SWAP1 SSTORE POP POP POP POP POP POP POP JUMP JUMPDEST PUSH2 0x298E DUP1 PUSH3 0x74E DUP4 CODECOPY ADD SWAP1 JUMP JUMPDEST PUSH0 PUSH1 0x40 MLOAD SWAP1 POP SWAP1 JUMP JUMPDEST PUSH0 DUP1 REVERT JUMPDEST PUSH0 DUP1 REVERT JUMPDEST PUSH0 DUP2 SWAP1 POP SWAP2 SWAP1 POP JUMP JUMPDEST PUSH3 0x264 DUP2 PUSH3 0x250 JUMP JUMPDEST DUP2 EQ PUSH3 0x26F JUMPI PUSH0 DUP1 REVERT JUMPDEST POP JUMP JUMPDEST PUSH0 DUP2 CALLDATALOAD SWAP1 POP PUSH3 0x282 DUP2 PUSH3 0x259 JUMP JUMPDEST SWAP3 SWAP2 POP POP JUMP JUMPDEST PUSH0 PUSH1 0x20 DUP3 DUP5 SUB SLT ISZERO PUSH3 0x2A0 JUMPI PUSH3 0x29F PUSH3 0x248 JUMP JUMPDEST JUMPDEST PUSH0 PUSH3 0x2AF DUP5 DUP3 DUP6 ADD PUSH3 0x272 JUMP JUMPDEST SWAP2 POP POP SWAP3 SWAP2 POP POP JUMP JUMPDEST PUSH0 PUSH20 0xFFFFFFFFFFFFFFFFFFFFFFFFFFFFFFFFFFFFFFFF DUP3 AND SWAP1 POP SWAP2 SWAP1 POP JUMP JUMPDEST PUSH0 PUSH3 0x2E3 DUP3 PUSH3 0x2B8 JUMP JUMPDEST SWAP1 POP SWAP2 SWAP1 POP JUMP JUMPDEST PUSH3 0x2F5 DUP2 PUSH3 0x2D7 JUMP JUMPDEST DUP3 MSTORE POP POP JUMP JUMPDEST PUSH0 PUSH1 0x20 DUP3 ADD SWAP1 POP PUSH3 0x310 PUSH0 DUP4 ADD DUP5 PUSH3 0x2EA JUMP JUMPDEST SWAP3 SWAP2 POP POP JUMP JUMPDEST PUSH0 DUP2 MLOAD SWAP1 POP SWAP2 SWAP1 POP JUMP JUMPDEST PUSH0 DUP3 DUP3 MSTORE PUSH1 0x20 DUP3 ADD SWAP1 POP SWAP3 SWAP2 POP POP JUMP JUMPDEST PUSH0 DUP2 SWAP1 POP PUSH1 0x20 DUP3 ADD SWAP1 POP SWAP2 SWAP1 POP JUMP JUMPDEST PUSH3 0x34A DUP2 PUSH3 0x2D7 JUMP JUMPDEST DUP3 MSTORE POP POP JUMP JUMPDEST PUSH0 PUSH3 0x35D DUP4 DUP4 PUSH3 0x33F JUMP JUMPDEST PUSH1 0x20 DUP4 ADD SWAP1 POP SWAP3 SWAP2 POP POP JUMP JUMPDEST PUSH0 PUSH1 0x20 DUP3 ADD SWAP1 POP SWAP2 SWAP1 POP JUMP JUMPDEST PUSH0 PUSH3 0x381 DUP3 PUSH3 0x316 JUMP JUMPDEST PUSH3 0x38D DUP2 DUP6 PUSH3 0x320 JUMP JUMPDEST SWAP4 POP PUSH3 0x39A DUP4 PUSH3 0x330 JUMP JUMPDEST DUP1 PUSH0 JUMPDEST DUP4 DUP2 LT ISZERO PUSH3 0x3D0 JUMPI DUP2 MLOAD PUSH3 0x3B4 DUP9 DUP3 PUSH3 0x350 JUMP JUMPDEST SWAP8 POP PUSH3 0x3C1 DUP4 PUSH3 0x369 JUMP JUMPDEST SWAP3 POP POP PUSH1 0x1 DUP2 ADD SWAP1 POP PUSH3 0x39D JUMP JUMPDEST POP DUP6 SWAP4 POP POP POP POP SWAP3 SWAP2 POP POP JUMP JUMPDEST PUSH0 PUSH1 0x20 DUP3 ADD SWAP1 POP DUP2 DUP2 SUB PUSH0 DUP4 ADD MSTORE PUSH3 0x3F7 DUP2 DUP5 PUSH3 0x375 JUMP JUMPDEST SWAP1 POP SWAP3 SWAP2 POP POP JUMP JUMPDEST PUSH0 DUP1 REVERT JUMPDEST PUSH0 DUP1 REVERT JUMPDEST PUSH0 PUSH1 0x1F NOT PUSH1 0x1F DUP4 ADD AND SWAP1 POP SWAP2 SWAP1 POP JUMP JUMPDEST PUSH32 0x4E487B7100000000000000000000000000000000000000000000000000000000 PUSH0 MSTORE PUSH1 0x41 PUSH1 0x4 MSTORE PUSH1 0x24 PUSH0 REVERT JUMPDEST PUSH3 0x44F DUP3 PUSH3 0x407 JUMP JUMPDEST DUP2 ADD DUP2 DUP2 LT PUSH8 0xFFFFFFFFFFFFFFFF DUP3 GT OR ISZERO PUSH3 0x471 JUMPI PUSH3 0x470 PUSH3 0x417 JUMP JUMPDEST JUMPDEST DUP1 PUSH1 0x40 MSTORE POP POP POP JUMP JUMPDEST PUSH0 PUSH3 0x485 PUSH3 0x23F JUMP JUMPDEST SWAP1 POP PUSH3 0x493 DUP3 DUP3 PUSH3 0x444 JUMP JUMPDEST SWAP2 SWAP1 POP JUMP JUMPDEST PUSH0 PUSH8 0xFFFFFFFFFFFFFFFF DUP3 GT ISZERO PUSH3 0x4B5 JUMPI PUSH3 0x4B4 PUSH3 0x417 JUMP JUMPDEST JUMPDEST PUSH3 0x4C0 DUP3 PUSH3 0x407 JUMP JUMPDEST SWAP1 POP PUSH1 0x20 DUP2 ADD SWAP1 POP SWAP2 SWAP1 POP JUMP JUMPDEST DUP3 DUP2 DUP4 CALLDATACOPY PUSH0 DUP4 DUP4 ADD MSTORE POP POP POP JUMP JUMPDEST PUSH0 PUSH3 0x4F1 PUSH3 0x4EB DUP5 PUSH3 0x498 JUMP JUMPDEST PUSH3 0x47A JUMP JUMPDEST SWAP1 POP DUP3 DUP2 MSTORE PUSH1 0x20 DUP2 ADD DUP5 DUP5 DUP5 ADD GT ISZERO PUSH3 0x510 JUMPI PUSH3 0x50F PUSH3 0x403 JUMP JUMPDEST JUMPDEST PUSH3 0x51D DUP5 DUP3 DUP6 PUSH3 0x4CD JUMP JUMPDEST POP SWAP4 SWAP3 POP POP POP JUMP JUMPDEST PUSH0 DUP3 PUSH1 0x1F DUP4 ADD SLT PUSH3 0x53C JUMPI PUSH3 0x53B PUSH3 0x3FF JUMP JUMPDEST JUMPDEST DUP2 CALLDATALOAD PUSH3 0x54E DUP5 DUP3 PUSH1 0x20 DUP7 ADD PUSH3 0x4DB JUMP JUMPDEST SWAP2 POP POP SWAP3 SWAP2 POP POP JUMP JUMPDEST PUSH0 DUP1 PUSH0 DUP1 PUSH0 PUSH1 0xA0 DUP7 DUP9 SUB SLT ISZERO PUSH3 0x573 JUMPI PUSH3 0x572 PUSH3 0x248 JUMP JUMPDEST JUMPDEST PUSH0 PUSH3 0x582 DUP9 DUP3 DUP10 ADD PUSH3 0x272 JUMP JUMPDEST SWAP6 POP POP PUSH1 0x20 PUSH3 0x595 DUP9 DUP3 DUP10 ADD PUSH3 0x272 JUMP JUMPDEST SWAP5 POP POP PUSH1 0x40 DUP7 ADD CALLDATALOAD PUSH8 0xFFFFFFFFFFFFFFFF DUP2 GT ISZERO PUSH3 0x5B9 JUMPI PUSH3 0x5B8 PUSH3 0x24C JUMP JUMPDEST JUMPDEST PUSH3 0x5C7 DUP9 DUP3 DUP10 ADD PUSH3 0x525 JUMP JUMPDEST SWAP4 POP POP PUSH1 0x60 DUP7 ADD CALLDATALOAD PUSH8 0xFFFFFFFFFFFFFFFF DUP2 GT ISZERO PUSH3 0x5EB JUMPI PUSH3 0x5EA PUSH3 0x24C JUMP JUMPDEST JUMPDEST PUSH3 0x5F9 DUP9 DUP3 DUP10 ADD PUSH3 0x525 JUMP JUMPDEST SWAP3 POP POP PUSH1 0x80 DUP7 ADD CALLDATALOAD PUSH8 0xFFFFFFFFFFFFFFFF DUP2 GT ISZERO PUSH3 0x61D JUMPI PUSH3 0x61C PUSH3 0x24C JUMP JUMPDEST JUMPDEST PUSH3 0x62B DUP9 DUP3 DUP10 ADD PUSH3 0x525 JUMP JUMPDEST SWAP2 POP POP SWAP3 SWAP6 POP SWAP3 SWAP6 SWAP1 SWAP4 POP JUMP JUMPDEST PUSH3 0x643 DUP2 PUSH3 0x250 JUMP JUMPDEST DUP3 MSTORE POP POP JUMP JUMPDEST PUSH0 DUP2 MLOAD SWAP1 POP SWAP2 SWAP1 POP JUMP JUMPDEST PUSH0 DUP3 DUP3 MSTORE PUSH1 0x20 DUP3 ADD SWAP1 POP SWAP3 SWAP2 POP POP JUMP JUMPDEST PUSH0 JUMPDEST DUP4 DUP2 LT ISZERO PUSH3 0x682 JUMPI DUP1 DUP3 ADD MLOAD DUP2 DUP5 ADD MSTORE PUSH1 0x20 DUP2 ADD SWAP1 POP PUSH3 0x665 JUMP JUMPDEST PUSH0 DUP5 DUP5 ADD MSTORE POP POP POP POP JUMP JUMPDEST PUSH0 PUSH3 0x699 DUP3 PUSH3 0x649 JUMP JUMPDEST PUSH3 0x6A5 DUP2 DUP6 PUSH3 0x653 JUMP JUMPDEST SWAP4 POP PUSH3 0x6B7 DUP2 DUP6 PUSH1 0x20 DUP7 ADD PUSH3 0x663 JUMP JUMPDEST PUSH3 0x6C2 DUP2 PUSH3 0x407 JUMP JUMPDEST DUP5 ADD SWAP2 POP POP SWAP3 SWAP2 POP POP JUMP JUMPDEST PUSH0 PUSH1 0xC0 DUP3 ADD SWAP1 POP PUSH3 0x6E2 PUSH0 DUP4 ADD DUP10 PUSH3 0x638 JUMP JUMPDEST PUSH3 0x6F1 PUSH1 0x20 DUP4 ADD DUP9 PUSH3 0x638 JUMP JUMPDEST DUP2 DUP2 SUB PUSH1 0x40 DUP4 ADD MSTORE PUSH3 0x705 DUP2 DUP8 PUSH3 0x68D JUMP JUMPDEST SWAP1 POP DUP2 DUP2 SUB PUSH1 0x60 DUP4 ADD MSTORE PUSH3 0x71B DUP2 DUP7 PUSH3 0x68D JUMP JUMPDEST SWAP1 POP DUP2 DUP2 SUB PUSH1 0x80 DUP4 ADD MSTORE PUSH3 0x731 DUP2 DUP6 PUSH3 0x68D JUMP JUMPDEST SWAP1 POP PUSH3 0x742 PUSH1 0xA0 DUP4 ADD DUP5 PUSH3 0x2EA JUMP JUMPDEST SWAP8 SWAP7 POP POP POP POP POP POP POP JUMP INVALID PUSH1 0x80 PUSH1 0x40 MSTORE PUSH0 PUSH1 0xA SSTORE PUSH0 PUSH1 0xB SSTORE CALLVALUE DUP1 ISZERO PUSH3 0x18 JUMPI PUSH0 DUP1 REVERT JUMPDEST POP PUSH1 0x40 MLOAD PUSH3 0x298E CODESIZE SUB DUP1 PUSH3 0x298E DUP4 CODECOPY DUP2 DUP2 ADD PUSH1 0x40 MSTORE DUP2 ADD SWAP1 PUSH3 0x3E SWAP2 SWAP1 PUSH3 0x2EC JUMP JUMPDEST DUP6 PUSH1 0x7 DUP2 SWAP1 SSTORE POP DUP1 PUSH1 0x2 PUSH0 PUSH2 0x100 EXP DUP2 SLOAD DUP2 PUSH20 0xFFFFFFFFFFFFFFFFFFFFFFFFFFFFFFFFFFFFFFFF MUL NOT AND SWAP1 DUP4 PUSH20 0xFFFFFFFFFFFFFFFFFFFFFFFFFFFFFFFFFFFFFFFF AND MUL OR SWAP1 SSTORE POP DUP4 PUSH1 0x3 SWAP1 DUP2 PUSH3 0x96 SWAP2 SWAP1 PUSH3 0x60F JUMP JUMPDEST POP DUP3 PUSH1 0x4 SWAP1 DUP2 PUSH3 0xA8 SWAP2 SWAP1 PUSH3 0x60F JUMP JUMPDEST POP DUP2 PUSH1 0x5 SWAP1 DUP2 PUSH3 0xBA SWAP2 SWAP1 PUSH3 0x60F JUMP JUMPDEST POP DUP5 PUSH1 0x6 DUP2 SWAP1 SSTORE POP POP POP POP POP POP POP PUSH3 0x6F3 JUMP JUMPDEST PUSH0 PUSH1 0x40 MLOAD SWAP1 POP SWAP1 JUMP JUMPDEST PUSH0 DUP1 REVERT JUMPDEST PUSH0 DUP1 REVERT JUMPDEST PUSH0 DUP2 SWAP1 POP SWAP2 SWAP1 POP JUMP JUMPDEST PUSH3 0xF3 DUP2 PUSH3 0xDF JUMP JUMPDEST DUP2 EQ PUSH3 0xFE JUMPI PUSH0 DUP1 REVERT JUMPDEST POP JUMP JUMPDEST PUSH0 DUP2 MLOAD SWAP1 POP PUSH3 0x111 DUP2 PUSH3 0xE8 JUMP JUMPDEST SWAP3 SWAP2 POP POP JUMP JUMPDEST PUSH0 DUP1 REVERT JUMPDEST PUSH0 DUP1 REVERT JUMPDEST PUSH0 PUSH1 0x1F NOT PUSH1 0x1F DUP4 ADD AND SWAP1 POP SWAP2 SWAP1 POP JUMP JUMPDEST PUSH32 0x4E487B7100000000000000000000000000000000000000000000000000000000 PUSH0 MSTORE PUSH1 0x41 PUSH1 0x4 MSTORE PUSH1 0x24 PUSH0 REVERT JUMPDEST PUSH3 0x167 DUP3 PUSH3 0x11F JUMP JUMPDEST DUP2 ADD DUP2 DUP2 LT PUSH8 0xFFFFFFFFFFFFFFFF DUP3 GT OR ISZERO PUSH3 0x189 JUMPI PUSH3 0x188 PUSH3 0x12F JUMP JUMPDEST JUMPDEST DUP1 PUSH1 0x40 MSTORE POP POP POP JUMP JUMPDEST PUSH0 PUSH3 0x19D PUSH3 0xCE JUMP JUMPDEST SWAP1 POP PUSH3 0x1AB DUP3 DUP3 PUSH3 0x15C JUMP JUMPDEST SWAP2 SWAP1 POP JUMP JUMPDEST PUSH0 PUSH8 0xFFFFFFFFFFFFFFFF DUP3 GT ISZERO PUSH3 0x1CD JUMPI PUSH3 0x1CC PUSH3 0x12F JUMP JUMPDEST JUMPDEST PUSH3 0x1D8 DUP3 PUSH3 0x11F JUMP JUMPDEST SWAP1 POP PUSH1 0x20 DUP2 ADD SWAP1 POP SWAP2 SWAP1 POP JUMP JUMPDEST PUSH0 JUMPDEST DUP4 DUP2 LT ISZERO PUSH3 0x204 JUMPI DUP1 DUP3 ADD MLOAD DUP2 DUP5 ADD MSTORE PUSH1 0x20 DUP2 ADD SWAP1 POP PUSH3 0x1E7 JUMP JUMPDEST PUSH0 DUP5 DUP5 ADD MSTORE POP POP POP POP JUMP JUMPDEST PUSH0 PUSH3 0x225 PUSH3 0x21F DUP5 PUSH3 0x1B0 JUMP JUMPDEST PUSH3 0x192 JUMP JUMPDEST SWAP1 POP DUP3 DUP2 MSTORE PUSH1 0x20 DUP2 ADD DUP5 DUP5 DUP5 ADD GT ISZERO PUSH3 0x244 JUMPI PUSH3 0x243 PUSH3 0x11B JUMP JUMPDEST JUMPDEST PUSH3 0x251 DUP5 DUP3 DUP6 PUSH3 0x1E5 JUMP JUMPDEST POP SWAP4 SWAP3 POP POP POP JUMP JUMPDEST PUSH0 DUP3 PUSH1 0x1F DUP4 ADD SLT PUSH3 0x270 JUMPI PUSH3 0x26F PUSH3 0x117 JUMP JUMPDEST JUMPDEST DUP2 MLOAD PUSH3 0x282 DUP5 DUP3 PUSH1 0x20 DUP7 ADD PUSH3 0x20F JUMP JUMPDEST SWAP2 POP POP SWAP3 SWAP2 POP POP JUMP JUMPDEST PUSH0 PUSH20 0xFFFFFFFFFFFFFFFFFFFFFFFFFFFFFFFFFFFFFFFF DUP3 AND SWAP1 POP SWAP2 SWAP1 POP JUMP JUMPDEST PUSH0 PUSH3 0x2B6 DUP3 PUSH3 0x28B JUMP JUMPDEST SWAP1 POP SWAP2 SWAP1 POP JUMP JUMPDEST PUSH3 0x2C8 DUP2 PUSH3 0x2AA JUMP JUMPDEST DUP2 EQ PUSH3 0x2D3 JUMPI PUSH0 DUP1 REVERT JUMPDEST POP JUMP JUMPDEST PUSH0 DUP2 MLOAD SWAP1 POP PUSH3 0x2E6 DUP2 PUSH3 0x2BD JUMP JUMPDEST SWAP3 SWAP2 POP POP JUMP JUMPDEST PUSH0 DUP1 PUSH0 DUP1 PUSH0 DUP1 PUSH1 0xC0 DUP8 DUP10 SUB SLT ISZERO PUSH3 0x309 JUMPI PUSH3 0x308 PUSH3 0xD7 JUMP JUMPDEST JUMPDEST PUSH0 PUSH3 0x318 DUP10 DUP3 DUP11 ADD PUSH3 0x101 JUMP JUMPDEST SWAP7 POP POP PUSH1 0x20 PUSH3 0x32B DUP10 DUP3 DUP11 ADD PUSH3 0x101 JUMP JUMPDEST SWAP6 POP POP PUSH1 0x40 DUP8 ADD MLOAD PUSH8 0xFFFFFFFFFFFFFFFF DUP2 GT ISZERO PUSH3 0x34F JUMPI PUSH3 0x34E PUSH3 0xDB JUMP JUMPDEST JUMPDEST PUSH3 0x35D DUP10 DUP3 DUP11 ADD PUSH3 0x259 JUMP JUMPDEST SWAP5 POP POP PUSH1 0x60 DUP8 ADD MLOAD PUSH8 0xFFFFFFFFFFFFFFFF DUP2 GT ISZERO PUSH3 0x381 JUMPI PUSH3 0x380 PUSH3 0xDB JUMP JUMPDEST JUMPDEST PUSH3 0x38F DUP10 DUP3 DUP11 ADD PUSH3 0x259 JUMP JUMPDEST SWAP4 POP POP PUSH1 0x80 DUP8 ADD MLOAD PUSH8 0xFFFFFFFFFFFFFFFF DUP2 GT ISZERO PUSH3 0x3B3 JUMPI PUSH3 0x3B2 PUSH3 0xDB JUMP JUMPDEST JUMPDEST PUSH3 0x3C1 DUP10 DUP3 DUP11 ADD PUSH3 0x259 JUMP JUMPDEST SWAP3 POP POP PUSH1 0xA0 PUSH3 0x3D4 DUP10 DUP3 DUP11 ADD PUSH3 0x2D6 JUMP JUMPDEST SWAP2 POP POP SWAP3 SWAP6 POP SWAP3 SWAP6 POP SWAP3 SWAP6 JUMP JUMPDEST PUSH0 DUP2 MLOAD SWAP1 POP SWAP2 SWAP1 POP JUMP JUMPDEST PUSH32 0x4E487B7100000000000000000000000000000000000000000000000000000000 PUSH0 MSTORE PUSH1 0x22 PUSH1 0x4 MSTORE PUSH1 0x24 PUSH0 REVERT JUMPDEST PUSH0 PUSH1 0x2 DUP3 DIV SWAP1 POP PUSH1 0x1 DUP3 AND DUP1 PUSH3 0x430 JUMPI PUSH1 0x7F DUP3 AND SWAP2 POP JUMPDEST PUSH1 0x20 DUP3 LT DUP2 SUB PUSH3 0x446 JUMPI PUSH3 0x445 PUSH3 0x3EB JUMP JUMPDEST JUMPDEST POP SWAP2 SWAP1 POP JUMP JUMPDEST PUSH0 DUP2 SWAP1 POP DUP2 PUSH0 MSTORE PUSH1 0x20 PUSH0 KECCAK256 SWAP1 POP SWAP2 SWAP1 POP JUMP JUMPDEST PUSH0 PUSH1 0x20 PUSH1 0x1F DUP4 ADD DIV SWAP1 POP SWAP2 SWAP1 POP JUMP JUMPDEST PUSH0 DUP3 DUP3 SHL SWAP1 POP SWAP3 SWAP2 POP POP JUMP JUMPDEST PUSH0 PUSH1 0x8 DUP4 MUL PUSH3 0x4AA PUSH32 0xFFFFFFFFFFFFFFFFFFFFFFFFFFFFFFFFFFFFFFFFFFFFFFFFFFFFFFFFFFFFFFFF DUP3 PUSH3 0x46D JUMP JUMPDEST PUSH3 0x4B6 DUP7 DUP4 PUSH3 0x46D JUMP JUMPDEST SWAP6 POP DUP1 NOT DUP5 AND SWAP4 POP DUP1 DUP7 AND DUP5 OR SWAP3 POP POP POP SWAP4 SWAP3 POP POP POP JUMP JUMPDEST PUSH0 DUP2 SWAP1 POP SWAP2 SWAP1 POP JUMP JUMPDEST PUSH0 PUSH3 0x4F7 PUSH3 0x4F1 PUSH3 0x4EB DUP5 PUSH3 0xDF JUMP JUMPDEST PUSH3 0x4CE JUMP JUMPDEST PUSH3 0xDF JUMP JUMPDEST SWAP1 POP SWAP2 SWAP1 POP JUMP JUMPDEST PUSH0 DUP2 SWAP1 POP SWAP2 SWAP1 POP JUMP JUMPDEST PUSH3 0x512 DUP4 PUSH3 0x4D7 JUMP JUMPDEST PUSH3 0x52A PUSH3 0x521 DUP3 PUSH3 0x4FE JUMP JUMPDEST DUP5 DUP5 SLOAD PUSH3 0x479 JUMP JUMPDEST DUP3 SSTORE POP POP POP POP JUMP JUMPDEST PUSH0 SWAP1 JUMP JUMPDEST PUSH3 0x540 PUSH3 0x532 JUMP JUMPDEST PUSH3 0x54D DUP2 DUP5 DUP5 PUSH3 0x507 JUMP JUMPDEST POP POP POP JUMP JUMPDEST JUMPDEST DUP2 DUP2 LT ISZERO PUSH3 0x574 JUMPI PUSH3 0x568 PUSH0 DUP3 PUSH3 0x536 JUMP JUMPDEST PUSH1 0x1 DUP2 ADD SWAP1 POP PUSH3 0x553 JUMP JUMPDEST POP POP JUMP JUMPDEST PUSH1 0x1F DUP3 GT ISZERO PUSH3 0x5C3 JUMPI PUSH3 0x58D DUP2 PUSH3 0x44C JUMP JUMPDEST PUSH3 0x598 DUP5 PUSH3 0x45E JUMP JUMPDEST DUP2 ADD PUSH1 0x20 DUP6 LT ISZERO PUSH3 0x5A8 JUMPI DUP2 SWAP1 POP JUMPDEST PUSH3 0x5C0 PUSH3 0x5B7 DUP6 PUSH3 0x45E JUMP JUMPDEST DUP4 ADD DUP3 PUSH3 0x552 JUMP JUMPDEST POP POP JUMPDEST POP POP POP JUMP JUMPDEST PUSH0 DUP3 DUP3 SHR SWAP1 POP SWAP3 SWAP2 POP POP JUMP JUMPDEST PUSH0 PUSH3 0x5E5 PUSH0 NOT DUP5 PUSH1 0x8 MUL PUSH3 0x5C8 JUMP JUMPDEST NOT DUP1 DUP4 AND SWAP2 POP POP SWAP3 SWAP2 POP POP JUMP JUMPDEST PUSH0 PUSH3 0x5FF DUP4 DUP4 PUSH3 0x5D4 JUMP JUMPDEST SWAP2 POP DUP3 PUSH1 0x2 MUL DUP3 OR SWAP1 POP SWAP3 SWAP2 POP POP JUMP JUMPDEST PUSH3 0x61A DUP3 PUSH3 0x3E1 JUMP JUMPDEST PUSH8 0xFFFFFFFFFFFFFFFF DUP2 GT ISZERO PUSH3 0x636 JUMPI PUSH3 0x635 PUSH3 0x12F JUMP JUMPDEST JUMPDEST PUSH3 0x642 DUP3 SLOAD PUSH3 0x418 JUMP JUMPDEST PUSH3 0x64F DUP3 DUP3 DUP6 PUSH3 0x578 JUMP JUMPDEST PUSH0 PUSH1 0x20 SWAP1 POP PUSH1 0x1F DUP4 GT PUSH1 0x1 DUP2 EQ PUSH3 0x685 JUMPI PUSH0 DUP5 ISZERO PUSH3 0x670 JUMPI DUP3 DUP8 ADD MLOAD SWAP1 POP JUMPDEST PUSH3 0x67C DUP6 DUP3 PUSH3 0x5F2 JUMP JUMPDEST DUP7 SSTORE POP PUSH3 0x6EB JUMP JUMPDEST PUSH1 0x1F NOT DUP5 AND PUSH3 0x695 DUP7 PUSH3 0x44C JUMP JUMPDEST PUSH0 JUMPDEST DUP3 DUP2 LT ISZERO PUSH3 0x6BE JUMPI DUP5 DUP10 ADD MLOAD DUP3 SSTORE PUSH1 0x1 DUP3 ADD SWAP2 POP PUSH1 0x20 DUP6 ADD SWAP5 POP PUSH1 0x20 DUP2 ADD SWAP1 POP PUSH3 0x697 JUMP JUMPDEST DUP7 DUP4 LT ISZERO PUSH3 0x6DE JUMPI DUP5 DUP10 ADD MLOAD PUSH3 0x6DA PUSH1 0x1F DUP10 AND DUP3 PUSH3 0x5D4 JUMP JUMPDEST DUP4 SSTORE POP JUMPDEST PUSH1 0x1 PUSH1 0x2 DUP9 MUL ADD DUP9 SSTORE POP POP POP JUMPDEST POP POP POP POP POP POP JUMP JUMPDEST PUSH2 0x228D DUP1 PUSH3 0x701 PUSH0 CODECOPY PUSH0 RETURN INVALID PUSH1 0x80 PUSH1 0x40 MSTORE PUSH1 0x4 CALLDATASIZE LT PUSH2 0x113 JUMPI PUSH0 CALLDATALOAD PUSH1 0xE0 SHR DUP1 PUSH4 0x702645DE GT PUSH2 0x9F JUMPI DUP1 PUSH4 0xAAFFADF3 GT PUSH2 0x63 JUMPI DUP1 PUSH4 0xAAFFADF3 EQ PUSH2 0x3A3 JUMPI DUP1 PUSH4 0xC56A3E88 EQ PUSH2 0x3CD JUMPI DUP1 PUSH4 0xD7BB99BA EQ PUSH2 0x3F7 JUMPI DUP1 PUSH4 0xD7D1BBDB EQ PUSH2 0x401 JUMPI DUP1 PUSH4 0xF99EA1A5 EQ PUSH2 0x429 JUMPI PUSH2 0x113 JUMP JUMPDEST DUP1 PUSH4 0x702645DE EQ PUSH2 0x2BC JUMPI DUP1 PUSH4 0x81D12C58 EQ PUSH2 0x2E6 JUMPI DUP1 PUSH4 0x8813CE12 EQ PUSH2 0x327 JUMPI DUP1 PUSH4 0x8A9CFD55 EQ PUSH2 0x351 JUMPI DUP1 PUSH4 0x8AD5F358 EQ PUSH2 0x379 JUMPI PUSH2 0x113 JUMP JUMPDEST DUP1 PUSH4 0x34B66460 GT PUSH2 0xE6 JUMPI DUP1 PUSH4 0x34B66460 EQ PUSH2 0x1BD JUMPI DUP1 PUSH4 0x3C746B26 EQ PUSH2 0x1F9 JUMPI DUP1 PUSH4 0x4051DDAC EQ PUSH2 0x235 JUMPI DUP1 PUSH4 0x481C6A75 EQ PUSH2 0x268 JUMPI DUP1 PUSH4 0x6F412A61 EQ PUSH2 0x292 JUMPI PUSH2 0x113 JUMP JUMPDEST DUP1 PUSH4 0x3441006 EQ PUSH2 0x117 JUMPI DUP1 PUSH4 0x724FDA9 EQ PUSH2 0x13F JUMPI DUP1 PUSH4 0x110842CB EQ PUSH2 0x169 JUMPI DUP1 PUSH4 0x332F7ACF EQ PUSH2 0x193 JUMPI JUMPDEST PUSH0 DUP1 REVERT JUMPDEST CALLVALUE DUP1 ISZERO PUSH2 0x122 JUMPI PUSH0 DUP1 REVERT JUMPDEST POP PUSH2 0x13D PUSH1 0x4 DUP1 CALLDATASIZE SUB DUP2 ADD SWAP1 PUSH2 0x138 SWAP2 SWAP1 PUSH2 0x15BB JUMP JUMPDEST PUSH2 0x453 JUMP JUMPDEST STOP JUMPDEST CALLVALUE DUP1 ISZERO PUSH2 0x14A JUMPI PUSH0 DUP1 REVERT JUMPDEST POP PUSH2 0x153 PUSH2 0x5E9 JUMP JUMPDEST PUSH1 0x40 MLOAD PUSH2 0x160 SWAP2 SWAP1 PUSH2 0x1670 JUMP JUMPDEST PUSH1 0x40 MLOAD DUP1 SWAP2 SUB SWAP1 RETURN JUMPDEST CALLVALUE DUP1 ISZERO PUSH2 0x174 JUMPI PUSH0 DUP1 REVERT JUMPDEST POP PUSH2 0x17D PUSH2 0x675 JUMP JUMPDEST PUSH1 0x40 MLOAD PUSH2 0x18A SWAP2 SWAP1 PUSH2 0x1670 JUMP JUMPDEST PUSH1 0x40 MLOAD DUP1 SWAP2 SUB SWAP1 RETURN JUMPDEST CALLVALUE DUP1 ISZERO PUSH2 0x19E JUMPI PUSH0 DUP1 REVERT JUMPDEST POP PUSH2 0x1A7 PUSH2 0x701 JUMP JUMPDEST PUSH1 0x40 MLOAD PUSH2 0x1B4 SWAP2 SWAP1 PUSH2 0x169F JUMP JUMPDEST PUSH1 0x40 MLOAD DUP1 SWAP2 SUB SWAP1 RETURN JUMPDEST CALLVALUE DUP1 ISZERO PUSH2 0x1C8 JUMPI PUSH0 DUP1 REVERT JUMPDEST POP PUSH2 0x1E3 PUSH1 0x4 DUP1 CALLDATASIZE SUB DUP2 ADD SWAP1 PUSH2 0x1DE SWAP2 SWAP1 PUSH2 0x1712 JUMP JUMPDEST PUSH2 0x707 JUMP JUMPDEST PUSH1 0x40 MLOAD PUSH2 0x1F0 SWAP2 SWAP1 PUSH2 0x169F JUMP JUMPDEST PUSH1 0x40 MLOAD DUP1 SWAP2 SUB SWAP1 RETURN JUMPDEST CALLVALUE DUP1 ISZERO PUSH2 0x204 JUMPI PUSH0 DUP1 REVERT JUMPDEST POP PUSH2 0x21F PUSH1 0x4 DUP1 CALLDATASIZE SUB DUP2 ADD SWAP1 PUSH2 0x21A SWAP2 SWAP1 PUSH2 0x15BB JUMP JUMPDEST PUSH2 0x71C JUMP JUMPDEST PUSH1 0x40 MLOAD PUSH2 0x22C SWAP2 SWAP1 PUSH2 0x1670 JUMP JUMPDEST PUSH1 0x40 MLOAD DUP1 SWAP2 SUB SWAP1 RETURN JUMPDEST CALLVALUE DUP1 ISZERO PUSH2 0x240 JUMPI PUSH0 DUP1 REVERT JUMPDEST POP PUSH2 0x249 PUSH2 0xA37 JUMP JUMPDEST PUSH1 0x40 MLOAD PUSH2 0x25F SWAP11 SWAP10 SWAP9 SWAP8 SWAP7 SWAP6 SWAP5 SWAP4 SWAP3 SWAP2 SWAP1 PUSH2 0x174C JUMP JUMPDEST PUSH1 0x40 MLOAD DUP1 SWAP2 SUB SWAP1 RETURN JUMPDEST CALLVALUE DUP1 ISZERO PUSH2 0x273 JUMPI PUSH0 DUP1 REVERT JUMPDEST POP PUSH2 0x27C PUSH2 0xC3B JUMP JUMPDEST PUSH1 0x40 MLOAD PUSH2 0x289 SWAP2 SWAP1 PUSH2 0x17FB JUMP JUMPDEST PUSH1 0x40 MLOAD DUP1 SWAP2 SUB SWAP1 RETURN JUMPDEST CALLVALUE DUP1 ISZERO PUSH2 0x29D JUMPI PUSH0 DUP1 REVERT JUMPDEST POP PUSH2 0x2A6 PUSH2 0xC60 JUMP JUMPDEST PUSH1 0x40 MLOAD PUSH2 0x2B3 SWAP2 SWAP1 PUSH2 0x1670 JUMP JUMPDEST PUSH1 0x40 MLOAD DUP1 SWAP2 SUB SWAP1 RETURN JUMPDEST CALLVALUE DUP1 ISZERO PUSH2 0x2C7 JUMPI PUSH0 DUP1 REVERT JUMPDEST POP PUSH2 0x2D0 PUSH2 0xCEC JUMP JUMPDEST PUSH1 0x40 MLOAD PUSH2 0x2DD SWAP2 SWAP1 PUSH2 0x182E JUMP JUMPDEST PUSH1 0x40 MLOAD DUP1 SWAP2 SUB SWAP1 RETURN JUMPDEST CALLVALUE DUP1 ISZERO PUSH2 0x2F1 JUMPI PUSH0 DUP1 REVERT JUMPDEST POP PUSH2 0x30C PUSH1 0x4 DUP1 CALLDATASIZE SUB DUP2 ADD SWAP1 PUSH2 0x307 SWAP2 SWAP1 PUSH2 0x15BB JUMP JUMPDEST PUSH2 0xD32 JUMP JUMPDEST PUSH1 0x40 MLOAD PUSH2 0x31E SWAP7 SWAP6 SWAP5 SWAP4 SWAP3 SWAP2 SWAP1 PUSH2 0x1867 JUMP JUMPDEST PUSH1 0x40 MLOAD DUP1 SWAP2 SUB SWAP1 RETURN JUMPDEST CALLVALUE DUP1 ISZERO PUSH2 0x332 JUMPI PUSH0 DUP1 REVERT JUMPDEST POP PUSH2 0x33B PUSH2 0xEA3 JUMP JUMPDEST PUSH1 0x40 MLOAD PUSH2 0x348 SWAP2 SWAP1 PUSH2 0x1A82 JUMP JUMPDEST PUSH1 0x40 MLOAD DUP1 SWAP2 SUB SWAP1 RETURN JUMPDEST CALLVALUE DUP1 ISZERO PUSH2 0x35C JUMPI PUSH0 DUP1 REVERT JUMPDEST POP PUSH2 0x377 PUSH1 0x4 DUP1 CALLDATASIZE SUB DUP2 ADD SWAP1 PUSH2 0x372 SWAP2 SWAP1 PUSH2 0x1BF8 JUMP JUMPDEST PUSH2 0x1090 JUMP JUMPDEST STOP JUMPDEST CALLVALUE DUP1 ISZERO PUSH2 0x384 JUMPI PUSH0 DUP1 REVERT JUMPDEST POP PUSH2 0x38D PUSH2 0x11F8 JUMP JUMPDEST PUSH1 0x40 MLOAD PUSH2 0x39A SWAP2 SWAP1 PUSH2 0x169F JUMP JUMPDEST PUSH1 0x40 MLOAD DUP1 SWAP2 SUB SWAP1 RETURN JUMPDEST CALLVALUE DUP1 ISZERO PUSH2 0x3AE JUMPI PUSH0 DUP1 REVERT JUMPDEST POP PUSH2 0x3B7 PUSH2 0x11FE JUMP JUMPDEST PUSH1 0x40 MLOAD PUSH2 0x3C4 SWAP2 SWAP1 PUSH2 0x169F JUMP JUMPDEST PUSH1 0x40 MLOAD DUP1 SWAP2 SUB SWAP1 RETURN JUMPDEST CALLVALUE DUP1 ISZERO PUSH2 0x3D8 JUMPI PUSH0 DUP1 REVERT JUMPDEST POP PUSH2 0x3E1 PUSH2 0x1204 JUMP JUMPDEST PUSH1 0x40 MLOAD PUSH2 0x3EE SWAP2 SWAP1 PUSH2 0x182E JUMP JUMPDEST PUSH1 0x40 MLOAD DUP1 SWAP2 SUB SWAP1 RETURN JUMPDEST PUSH2 0x3FF PUSH2 0x125A JUMP JUMPDEST STOP JUMPDEST CALLVALUE DUP1 ISZERO PUSH2 0x40C JUMPI PUSH0 DUP1 REVERT JUMPDEST POP PUSH2 0x427 PUSH1 0x4 DUP1 CALLDATASIZE SUB DUP2 ADD SWAP1 PUSH2 0x422 SWAP2 SWAP1 PUSH2 0x15BB JUMP JUMPDEST PUSH2 0x1347 JUMP JUMPDEST STOP JUMPDEST CALLVALUE DUP1 ISZERO PUSH2 0x434 JUMPI PUSH0 DUP1 REVERT JUMPDEST POP PUSH2 0x43D PUSH2 0x1500 JUMP JUMPDEST PUSH1 0x40 MLOAD PUSH2 0x44A SWAP2 SWAP1 PUSH2 0x169F JUMP JUMPDEST PUSH1 0x40 MLOAD DUP1 SWAP2 SUB SWAP1 RETURN JUMPDEST PUSH1 0x2 PUSH0 SWAP1 SLOAD SWAP1 PUSH2 0x100 EXP SWAP1 DIV PUSH20 0xFFFFFFFFFFFFFFFFFFFFFFFFFFFFFFFFFFFFFFFF AND PUSH20 0xFFFFFFFFFFFFFFFFFFFFFFFFFFFFFFFFFFFFFFFF AND CALLER PUSH20 0xFFFFFFFFFFFFFFFFFFFFFFFFFFFFFFFFFFFFFFFF AND EQ PUSH2 0x4AB JUMPI PUSH0 DUP1 REVERT JUMPDEST PUSH0 DUP1 DUP3 DUP2 SLOAD DUP2 LT PUSH2 0x4BF JUMPI PUSH2 0x4BE PUSH2 0x1C64 JUMP JUMPDEST JUMPDEST SWAP1 PUSH0 MSTORE PUSH1 0x20 PUSH0 KECCAK256 SWAP1 PUSH1 0x6 MUL ADD SWAP1 POP PUSH1 0x40 MLOAD DUP1 PUSH1 0x40 ADD PUSH1 0x40 MSTORE DUP1 PUSH1 0x8 DUP2 MSTORE PUSH1 0x20 ADD PUSH32 0x617070726F766564000000000000000000000000000000000000000000000000 DUP2 MSTORE POP DUP1 MLOAD SWAP1 PUSH1 0x20 ADD KECCAK256 PUSH2 0x513 DUP4 PUSH2 0x71C JUMP JUMPDEST DUP1 MLOAD SWAP1 PUSH1 0x20 ADD KECCAK256 EQ PUSH2 0x523 JUMPI PUSH0 DUP1 REVERT JUMPDEST SELFBALANCE DUP2 PUSH1 0x1 ADD SLOAD GT ISZERO PUSH2 0x533 JUMPI PUSH0 DUP1 REVERT JUMPDEST DUP1 PUSH1 0x2 ADD PUSH0 SWAP1 SLOAD SWAP1 PUSH2 0x100 EXP SWAP1 DIV PUSH20 0xFFFFFFFFFFFFFFFFFFFFFFFFFFFFFFFFFFFFFFFF AND PUSH20 0xFFFFFFFFFFFFFFFFFFFFFFFFFFFFFFFFFFFFFFFF AND PUSH2 0x8FC DUP3 PUSH1 0x1 ADD SLOAD SWAP1 DUP2 ISZERO MUL SWAP1 PUSH1 0x40 MLOAD PUSH0 PUSH1 0x40 MLOAD DUP1 DUP4 SUB DUP2 DUP6 DUP9 DUP9 CALL SWAP4 POP POP POP POP ISZERO DUP1 ISZERO PUSH2 0x59D JUMPI RETURNDATASIZE PUSH0 DUP1 RETURNDATACOPY RETURNDATASIZE PUSH0 REVERT JUMPDEST POP PUSH1 0x40 MLOAD DUP1 PUSH1 0x40 ADD PUSH1 0x40 MSTORE DUP1 PUSH1 0x9 DUP2 MSTORE PUSH1 0x20 ADD PUSH32 0x66696E616C697A65640000000000000000000000000000000000000000000000 DUP2 MSTORE POP DUP2 PUSH1 0x5 ADD SWAP1 DUP2 PUSH2 0x5E4 SWAP2 SWAP1 PUSH2 0x1E8B JUMP JUMPDEST POP POP POP JUMP JUMPDEST PUSH1 0x3 DUP1 SLOAD PUSH2 0x5F6 SWAP1 PUSH2 0x1CBE JUMP JUMPDEST DUP1 PUSH1 0x1F ADD PUSH1 0x20 DUP1 SWAP2 DIV MUL PUSH1 0x20 ADD PUSH1 0x40 MLOAD SWAP1 DUP2 ADD PUSH1 0x40 MSTORE DUP1 SWAP3 SWAP2 SWAP1 DUP2 DUP2 MSTORE PUSH1 0x20 ADD DUP3 DUP1 SLOAD PUSH2 0x622 SWAP1 PUSH2 0x1CBE JUMP JUMPDEST DUP1 ISZERO PUSH2 0x66D JUMPI DUP1 PUSH1 0x1F LT PUSH2 0x644 JUMPI PUSH2 0x100 DUP1 DUP4 SLOAD DIV MUL DUP4 MSTORE SWAP2 PUSH1 0x20 ADD SWAP2 PUSH2 0x66D JUMP JUMPDEST DUP3 ADD SWAP2 SWAP1 PUSH0 MSTORE PUSH1 0x20 PUSH0 KECCAK256 SWAP1 JUMPDEST DUP2 SLOAD DUP2 MSTORE SWAP1 PUSH1 0x1 ADD SWAP1 PUSH1 0x20 ADD DUP1 DUP4 GT PUSH2 0x650 JUMPI DUP3 SWAP1 SUB PUSH1 0x1F AND DUP3 ADD SWAP2 JUMPDEST POP POP POP POP POP DUP2 JUMP JUMPDEST PUSH1 0x4 DUP1 SLOAD PUSH2 0x682 SWAP1 PUSH2 0x1CBE JUMP JUMPDEST DUP1 PUSH1 0x1F ADD PUSH1 0x20 DUP1 SWAP2 DIV MUL PUSH1 0x20 ADD PUSH1 0x40 MLOAD SWAP1 DUP2 ADD PUSH1 0x40 MSTORE DUP1 SWAP3 SWAP2 SWAP1 DUP2 DUP2 MSTORE PUSH1 0x20 ADD DUP3 DUP1 SLOAD PUSH2 0x6AE SWAP1 PUSH2 0x1CBE JUMP JUMPDEST DUP1 ISZERO PUSH2 0x6F9 JUMPI DUP1 PUSH1 0x1F LT PUSH2 0x6D0 JUMPI PUSH2 0x100 DUP1 DUP4 SLOAD DIV MUL DUP4 MSTORE SWAP2 PUSH1 0x20 ADD SWAP2 PUSH2 0x6F9 JUMP JUMPDEST DUP3 ADD SWAP2 SWAP1 PUSH0 MSTORE PUSH1 0x20 PUSH0 KECCAK256 SWAP1 JUMPDEST DUP2 SLOAD DUP2 MSTORE SWAP1 PUSH1 0x1 ADD SWAP1 PUSH1 0x20 ADD DUP1 DUP4 GT PUSH2 0x6DC JUMPI DUP3 SWAP1 SUB PUSH1 0x1F AND DUP3 ADD SWAP2 JUMPDEST POP POP POP POP POP DUP2 JUMP JUMPDEST PUSH1 0xA SLOAD DUP2 JUMP JUMPDEST PUSH1 0x8 PUSH1 0x20 MSTORE DUP1 PUSH0 MSTORE PUSH1 0x40 PUSH0 KECCAK256 PUSH0 SWAP2 POP SWAP1 POP SLOAD DUP2 JUMP JUMPDEST PUSH1 0x60 PUSH0 DUP1 DUP4 DUP2 SLOAD DUP2 LT PUSH2 0x732 JUMPI PUSH2 0x731 PUSH2 0x1C64 JUMP JUMPDEST JUMPDEST SWAP1 PUSH0 MSTORE PUSH1 0x20 PUSH0 KECCAK256 SWAP1 PUSH1 0x6 MUL ADD SWAP1 POP PUSH1 0x1 PUSH1 0x9 SLOAD GT PUSH2 0x7D2 JUMPI PUSH1 0x1 DUP2 PUSH1 0x3 ADD SLOAD SUB PUSH2 0x794 JUMPI PUSH1 0x40 MLOAD DUP1 PUSH1 0x40 ADD PUSH1 0x40 MSTORE DUP1 PUSH1 0x8 DUP2 MSTORE PUSH1 0x20 ADD PUSH32 0x617070726F766564000000000000000000000000000000000000000000000000 DUP2 MSTORE POP SWAP2 POP POP PUSH2 0xA32 JUMP JUMPDEST PUSH1 0x40 MLOAD DUP1 PUSH1 0x40 ADD PUSH1 0x40 MSTORE DUP1 PUSH1 0x7 DUP2 MSTORE PUSH1 0x20 ADD PUSH32 0x70656E64696E6700000000000000000000000000000000000000000000000000 DUP2 MSTORE POP SWAP2 POP POP PUSH2 0xA32 JUMP JUMPDEST PUSH0 PUSH1 0x9 SLOAD PUSH1 0xA SLOAD PUSH2 0x7E3 SWAP2 SWAP1 PUSH2 0x1FB4 JUMP JUMPDEST SWAP1 POP PUSH0 PUSH2 0x830 PUSH1 0x1 PUSH1 0x9 SLOAD PUSH2 0x7F8 SWAP2 SWAP1 PUSH2 0x1FE4 JUMP JUMPDEST PUSH1 0x9 SLOAD PUSH1 0x2 PUSH1 0xA SLOAD PUSH2 0x80A SWAP2 SWAP1 PUSH2 0x2152 JUMP JUMPDEST PUSH2 0x814 SWAP2 SWAP1 PUSH2 0x1FB4 JUMP JUMPDEST PUSH1 0xB SLOAD PUSH2 0x821 SWAP2 SWAP1 PUSH2 0x1FE4 JUMP JUMPDEST PUSH2 0x82B SWAP2 SWAP1 PUSH2 0x1FB4 JUMP JUMPDEST PUSH2 0x1506 JUMP JUMPDEST SWAP1 POP PUSH0 PUSH1 0x9 SLOAD PUSH1 0x32 DUP6 PUSH1 0x3 ADD SLOAD PUSH2 0x847 SWAP2 SWAP1 PUSH2 0x219C JUMP JUMPDEST PUSH2 0x851 SWAP2 SWAP1 PUSH2 0x1FB4 JUMP JUMPDEST PUSH1 0xA SLOAD PUSH1 0x32 DUP7 PUSH1 0x4 ADD SLOAD PUSH2 0x865 SWAP2 SWAP1 PUSH2 0x219C JUMP JUMPDEST PUSH2 0x86F SWAP2 SWAP1 PUSH2 0x1FB4 JUMP JUMPDEST PUSH2 0x879 SWAP2 SWAP1 PUSH2 0x21DD JUMP JUMPDEST SWAP1 POP PUSH0 PUSH1 0x33 SWAP1 POP DUP3 PUSH1 0x2 PUSH2 0x88D SWAP2 SWAP1 PUSH2 0x219C JUMP JUMPDEST DUP5 LT ISZERO DUP1 ISZERO PUSH2 0x8B6 JUMPI POP DUP3 PUSH1 0x2 PUSH2 0x8A4 SWAP2 SWAP1 PUSH2 0x219C JUMP JUMPDEST DUP5 PUSH2 0x8AF SWAP2 SWAP1 PUSH2 0x1FE4 JUMP JUMPDEST DUP6 PUSH1 0x1 ADD SLOAD LT JUMPDEST ISZERO PUSH2 0x8CF JUMPI PUSH1 0x6 DUP2 PUSH2 0x8C8 SWAP2 SWAP1 PUSH2 0x1FE4 JUMP JUMPDEST SWAP1 POP PUSH2 0x9AB JUMP JUMPDEST DUP3 DUP5 LT ISZERO DUP1 ISZERO PUSH2 0x8ED JUMPI POP DUP3 DUP5 PUSH2 0x8E6 SWAP2 SWAP1 PUSH2 0x1FE4 JUMP JUMPDEST DUP6 PUSH1 0x1 ADD SLOAD LT JUMPDEST ISZERO PUSH2 0x906 JUMPI PUSH1 0x4 DUP2 PUSH2 0x8FF SWAP2 SWAP1 PUSH2 0x1FE4 JUMP JUMPDEST SWAP1 POP PUSH2 0x9AA JUMP JUMPDEST DUP4 DUP6 PUSH1 0x1 ADD SLOAD LT ISZERO PUSH2 0x926 JUMPI PUSH1 0x2 DUP2 PUSH2 0x91F SWAP2 SWAP1 PUSH2 0x1FE4 JUMP JUMPDEST SWAP1 POP PUSH2 0x9A9 JUMP JUMPDEST DUP5 PUSH1 0x1 ADD SLOAD DUP5 LT DUP1 ISZERO PUSH2 0x947 JUMPI POP DUP3 DUP5 PUSH2 0x940 SWAP2 SWAP1 PUSH2 0x21DD JUMP JUMPDEST DUP6 PUSH1 0x1 ADD SLOAD LT JUMPDEST ISZERO PUSH2 0x960 JUMPI PUSH1 0x2 DUP2 PUSH2 0x959 SWAP2 SWAP1 PUSH2 0x21DD JUMP JUMPDEST SWAP1 POP PUSH2 0x9A8 JUMP JUMPDEST DUP3 PUSH1 0x2 PUSH2 0x96D SWAP2 SWAP1 PUSH2 0x219C JUMP JUMPDEST DUP5 PUSH2 0x978 SWAP2 SWAP1 PUSH2 0x21DD JUMP JUMPDEST DUP6 PUSH1 0x1 ADD SLOAD LT ISZERO PUSH2 0x997 JUMPI PUSH1 0x4 DUP2 PUSH2 0x990 SWAP2 SWAP1 PUSH2 0x21DD JUMP JUMPDEST SWAP1 POP PUSH2 0x9A7 JUMP JUMPDEST PUSH1 0x6 DUP2 PUSH2 0x9A4 SWAP2 SWAP1 PUSH2 0x21DD JUMP JUMPDEST SWAP1 POP JUMPDEST JUMPDEST JUMPDEST JUMPDEST JUMPDEST DUP1 DUP3 LT PUSH2 0x9F4 JUMPI PUSH1 0x40 MLOAD DUP1 PUSH1 0x40 ADD PUSH1 0x40 MSTORE DUP1 PUSH1 0x8 DUP2 MSTORE PUSH1 0x20 ADD PUSH32 0x617070726F766564000000000000000000000000000000000000000000000000 DUP2 MSTORE POP SWAP6 POP POP POP POP POP POP PUSH2 0xA32 JUMP JUMPDEST PUSH1 0x40 MLOAD DUP1 PUSH1 0x40 ADD PUSH1 0x40 MSTORE DUP1 PUSH1 0x7 DUP2 MSTORE PUSH1 0x20 ADD PUSH32 0x70656E64696E6700000000000000000000000000000000000000000000000000 DUP2 MSTORE POP SWAP6 POP POP POP POP POP POP JUMPDEST SWAP2 SWAP1 POP JUMP JUMPDEST PUSH1 0x60 DUP1 PUSH1 0x60 PUSH0 DUP1 PUSH0 DUP1 PUSH0 DUP1 PUSH0 PUSH1 0x3 PUSH1 0x4 PUSH1 0x5 PUSH1 0x6 SLOAD PUSH1 0x7 SLOAD PUSH1 0xA SLOAD SELFBALANCE PUSH0 DUP1 SLOAD SWAP1 POP PUSH1 0x9 SLOAD PUSH1 0x2 PUSH0 SWAP1 SLOAD SWAP1 PUSH2 0x100 EXP SWAP1 DIV PUSH20 0xFFFFFFFFFFFFFFFFFFFFFFFFFFFFFFFFFFFFFFFF AND DUP10 DUP1 SLOAD PUSH2 0xA89 SWAP1 PUSH2 0x1CBE JUMP JUMPDEST DUP1 PUSH1 0x1F ADD PUSH1 0x20 DUP1 SWAP2 DIV MUL PUSH1 0x20 ADD PUSH1 0x40 MLOAD SWAP1 DUP2 ADD PUSH1 0x40 MSTORE DUP1 SWAP3 SWAP2 SWAP1 DUP2 DUP2 MSTORE PUSH1 0x20 ADD DUP3 DUP1 SLOAD PUSH2 0xAB5 SWAP1 PUSH2 0x1CBE JUMP JUMPDEST DUP1 ISZERO PUSH2 0xB00 JUMPI DUP1 PUSH1 0x1F LT PUSH2 0xAD7 JUMPI PUSH2 0x100 DUP1 DUP4 SLOAD DIV MUL DUP4 MSTORE SWAP2 PUSH1 0x20 ADD SWAP2 PUSH2 0xB00 JUMP JUMPDEST DUP3 ADD SWAP2 SWAP1 PUSH0 MSTORE PUSH1 0x20 PUSH0 KECCAK256 SWAP1 JUMPDEST DUP2 SLOAD DUP2 MSTORE SWAP1 PUSH1 0x1 ADD SWAP1 PUSH1 0x20 ADD DUP1 DUP4 GT PUSH2 0xAE3 JUMPI DUP3 SWAP1 SUB PUSH1 0x1F AND DUP3 ADD SWAP2 JUMPDEST POP POP POP POP POP SWAP10 POP DUP9 DUP1 SLOAD PUSH2 0xB13 SWAP1 PUSH2 0x1CBE JUMP JUMPDEST DUP1 PUSH1 0x1F ADD PUSH1 0x20 DUP1 SWAP2 DIV MUL PUSH1 0x20 ADD PUSH1 0x40 MLOAD SWAP1 DUP2 ADD PUSH1 0x40 MSTORE DUP1 SWAP3 SWAP2 SWAP1 DUP2 DUP2 MSTORE PUSH1 0x20 ADD DUP3 DUP1 SLOAD PUSH2 0xB3F SWAP1 PUSH2 0x1CBE JUMP JUMPDEST DUP1 ISZERO PUSH2 0xB8A JUMPI DUP1 PUSH1 0x1F LT PUSH2 0xB61 JUMPI PUSH2 0x100 DUP1 DUP4 SLOAD DIV MUL DUP4 MSTORE SWAP2 PUSH1 0x20 ADD SWAP2 PUSH2 0xB8A JUMP JUMPDEST DUP3 ADD SWAP2 SWAP1 PUSH0 MSTORE PUSH1 0x20 PUSH0 KECCAK256 SWAP1 JUMPDEST DUP2 SLOAD DUP2 MSTORE SWAP1 PUSH1 0x1 ADD SWAP1 PUSH1 0x20 ADD DUP1 DUP4 GT PUSH2 0xB6D JUMPI DUP3 SWAP1 SUB PUSH1 0x1F AND DUP3 ADD SWAP2 JUMPDEST POP POP POP POP POP SWAP9 POP DUP8 DUP1 SLOAD PUSH2 0xB9D SWAP1 PUSH2 0x1CBE JUMP JUMPDEST DUP1 PUSH1 0x1F ADD PUSH1 0x20 DUP1 SWAP2 DIV MUL PUSH1 0x20 ADD PUSH1 0x40 MLOAD SWAP1 DUP2 ADD PUSH1 0x40 MSTORE DUP1 SWAP3 SWAP2 SWAP1 DUP2 DUP2 MSTORE PUSH1 0x20 ADD DUP3 DUP1 SLOAD PUSH2 0xBC9 SWAP1 PUSH2 0x1CBE JUMP JUMPDEST DUP1 ISZERO PUSH2 0xC14 JUMPI DUP1 PUSH1 0x1F LT PUSH2 0xBEB JUMPI PUSH2 0x100 DUP1 DUP4 SLOAD DIV MUL DUP4 MSTORE SWAP2 PUSH1 0x20 ADD SWAP2 PUSH2 0xC14 JUMP JUMPDEST DUP3 ADD SWAP2 SWAP1 PUSH0 MSTORE PUSH1 0x20 PUSH0 KECCAK256 SWAP1 JUMPDEST DUP2 SLOAD DUP2 MSTORE SWAP1 PUSH1 0x1 ADD SWAP1 PUSH1 0x20 ADD DUP1 DUP4 GT PUSH2 0xBF7 JUMPI DUP3 SWAP1 SUB PUSH1 0x1F AND DUP3 ADD SWAP2 JUMPDEST POP POP POP POP POP SWAP8 POP SWAP10 POP SWAP10 POP SWAP10 POP SWAP10 POP SWAP10 POP SWAP10 POP SWAP10 POP SWAP10 POP SWAP10 POP SWAP10 POP SWAP1 SWAP2 SWAP3 SWAP4 SWAP5 SWAP6 SWAP7 SWAP8 SWAP9 SWAP10 JUMP JUMPDEST PUSH1 0x2 PUSH0 SWAP1 SLOAD SWAP1 PUSH2 0x100 EXP SWAP1 DIV PUSH20 0xFFFFFFFFFFFFFFFFFFFFFFFFFFFFFFFFFFFFFFFF AND DUP2 JUMP JUMPDEST PUSH1 0x5 DUP1 SLOAD PUSH2 0xC6D SWAP1 PUSH2 0x1CBE JUMP JUMPDEST DUP1 PUSH1 0x1F ADD PUSH1 0x20 DUP1 SWAP2 DIV MUL PUSH1 0x20 ADD PUSH1 0x40 MLOAD SWAP1 DUP2 ADD PUSH1 0x40 MSTORE DUP1 SWAP3 SWAP2 SWAP1 DUP2 DUP2 MSTORE PUSH1 0x20 ADD DUP3 DUP1 SLOAD PUSH2 0xC99 SWAP1 PUSH2 0x1CBE JUMP JUMPDEST DUP1 ISZERO PUSH2 0xCE4 JUMPI DUP1 PUSH1 0x1F LT PUSH2 0xCBB JUMPI PUSH2 0x100 DUP1 DUP4 SLOAD DIV MUL DUP4 MSTORE SWAP2 PUSH1 0x20 ADD SWAP2 PUSH2 0xCE4 JUMP JUMPDEST DUP3 ADD SWAP2 SWAP1 PUSH0 MSTORE PUSH1 0x20 PUSH0 KECCAK256 SWAP1 JUMPDEST DUP2 SLOAD DUP2 MSTORE SWAP1 PUSH1 0x1 ADD SWAP1 PUSH1 0x20 ADD DUP1 DUP4 GT PUSH2 0xCC7 JUMPI DUP3 SWAP1 SUB PUSH1 0x1F AND DUP3 ADD SWAP2 JUMPDEST POP POP POP POP POP DUP2 JUMP JUMPDEST PUSH0 DUP1 PUSH1 0x8 PUSH0 CALLER PUSH20 0xFFFFFFFFFFFFFFFFFFFFFFFFFFFFFFFFFFFFFFFF AND PUSH20 0xFFFFFFFFFFFFFFFFFFFFFFFFFFFFFFFFFFFFFFFF AND DUP2 MSTORE PUSH1 0x20 ADD SWAP1 DUP2 MSTORE PUSH1 0x20 ADD PUSH0 KECCAK256 SLOAD GT SWAP1 POP SWAP1 JUMP JUMPDEST PUSH0 DUP2 DUP2 SLOAD DUP2 LT PUSH2 0xD40 JUMPI PUSH0 DUP1 REVERT JUMPDEST SWAP1 PUSH0 MSTORE PUSH1 0x20 PUSH0 KECCAK256 SWAP1 PUSH1 0x6 MUL ADD PUSH0 SWAP2 POP SWAP1 POP DUP1 PUSH0 ADD DUP1 SLOAD PUSH2 0xD5F SWAP1 PUSH2 0x1CBE JUMP JUMPDEST DUP1 PUSH1 0x1F ADD PUSH1 0x20 DUP1 SWAP2 DIV MUL PUSH1 0x20 ADD PUSH1 0x40 MLOAD SWAP1 DUP2 ADD PUSH1 0x40 MSTORE DUP1 SWAP3 SWAP2 SWAP1 DUP2 DUP2 MSTORE PUSH1 0x20 ADD DUP3 DUP1 SLOAD PUSH2 0xD8B SWAP1 PUSH2 0x1CBE JUMP JUMPDEST DUP1 ISZERO PUSH2 0xDD6 JUMPI DUP1 PUSH1 0x1F LT PUSH2 0xDAD JUMPI PUSH2 0x100 DUP1 DUP4 SLOAD DIV MUL DUP4 MSTORE SWAP2 PUSH1 0x20 ADD SWAP2 PUSH2 0xDD6 JUMP JUMPDEST DUP3 ADD SWAP2 SWAP1 PUSH0 MSTORE PUSH1 0x20 PUSH0 KECCAK256 SWAP1 JUMPDEST DUP2 SLOAD DUP2 MSTORE SWAP1 PUSH1 0x1 ADD SWAP1 PUSH1 0x20 ADD DUP1 DUP4 GT PUSH2 0xDB9 JUMPI DUP3 SWAP1 SUB PUSH1 0x1F AND DUP3 ADD SWAP2 JUMPDEST POP POP POP POP POP SWAP1 DUP1 PUSH1 0x1 ADD SLOAD SWAP1 DUP1 PUSH1 0x2 ADD PUSH0 SWAP1 SLOAD SWAP1 PUSH2 0x100 EXP SWAP1 DIV PUSH20 0xFFFFFFFFFFFFFFFFFFFFFFFFFFFFFFFFFFFFFFFF AND SWAP1 DUP1 PUSH1 0x3 ADD SLOAD SWAP1 DUP1 PUSH1 0x4 ADD SLOAD SWAP1 DUP1 PUSH1 0x5 ADD DUP1 SLOAD PUSH2 0xE22 SWAP1 PUSH2 0x1CBE JUMP JUMPDEST DUP1 PUSH1 0x1F ADD PUSH1 0x20 DUP1 SWAP2 DIV MUL PUSH1 0x20 ADD PUSH1 0x40 MLOAD SWAP1 DUP2 ADD PUSH1 0x40 MSTORE DUP1 SWAP3 SWAP2 SWAP1 DUP2 DUP2 MSTORE PUSH1 0x20 ADD DUP3 DUP1 SLOAD PUSH2 0xE4E SWAP1 PUSH2 0x1CBE JUMP JUMPDEST DUP1 ISZERO PUSH2 0xE99 JUMPI DUP1 PUSH1 0x1F LT PUSH2 0xE70 JUMPI PUSH2 0x100 DUP1 DUP4 SLOAD DIV MUL DUP4 MSTORE SWAP2 PUSH1 0x20 ADD SWAP2 PUSH2 0xE99 JUMP JUMPDEST DUP3 ADD SWAP2 SWAP1 PUSH0 MSTORE PUSH1 0x20 PUSH0 KECCAK256 SWAP1 JUMPDEST DUP2 SLOAD DUP2 MSTORE SWAP1 PUSH1 0x1 ADD SWAP1 PUSH1 0x20 ADD DUP1 DUP4 GT PUSH2 0xE7C JUMPI DUP3 SWAP1 SUB PUSH1 0x1F AND DUP3 ADD SWAP2 JUMPDEST POP POP POP POP POP SWAP1 POP DUP7 JUMP JUMPDEST PUSH1 0x60 PUSH0 DUP1 SLOAD DUP1 PUSH1 0x20 MUL PUSH1 0x20 ADD PUSH1 0x40 MLOAD SWAP1 DUP2 ADD PUSH1 0x40 MSTORE DUP1 SWAP3 SWAP2 SWAP1 DUP2 DUP2 MSTORE PUSH1 0x20 ADD PUSH0 SWAP1 JUMPDEST DUP3 DUP3 LT ISZERO PUSH2 0x1087 JUMPI DUP4 DUP3 SWAP1 PUSH0 MSTORE PUSH1 0x20 PUSH0 KECCAK256 SWAP1 PUSH1 0x6 MUL ADD PUSH1 0x40 MLOAD DUP1 PUSH1 0xC0 ADD PUSH1 0x40 MSTORE SWAP1 DUP2 PUSH0 DUP3 ADD DUP1 SLOAD PUSH2 0xEF5 SWAP1 PUSH2 0x1CBE JUMP JUMPDEST DUP1 PUSH1 0x1F ADD PUSH1 0x20 DUP1 SWAP2 DIV MUL PUSH1 0x20 ADD PUSH1 0x40 MLOAD SWAP1 DUP2 ADD PUSH1 0x40 MSTORE DUP1 SWAP3 SWAP2 SWAP1 DUP2 DUP2 MSTORE PUSH1 0x20 ADD DUP3 DUP1 SLOAD PUSH2 0xF21 SWAP1 PUSH2 0x1CBE JUMP JUMPDEST DUP1 ISZERO PUSH2 0xF6C JUMPI DUP1 PUSH1 0x1F LT PUSH2 0xF43 JUMPI PUSH2 0x100 DUP1 DUP4 SLOAD DIV MUL DUP4 MSTORE SWAP2 PUSH1 0x20 ADD SWAP2 PUSH2 0xF6C JUMP JUMPDEST DUP3 ADD SWAP2 SWAP1 PUSH0 MSTORE PUSH1 0x20 PUSH0 KECCAK256 SWAP1 JUMPDEST DUP2 SLOAD DUP2 MSTORE SWAP1 PUSH1 0x1 ADD SWAP1 PUSH1 0x20 ADD DUP1 DUP4 GT PUSH2 0xF4F JUMPI DUP3 SWAP1 SUB PUSH1 0x1F AND DUP3 ADD SWAP2 JUMPDEST POP POP POP POP POP DUP2 MSTORE PUSH1 0x20 ADD PUSH1 0x1 DUP3 ADD SLOAD DUP2 MSTORE PUSH1 0x20 ADD PUSH1 0x2 DUP3 ADD PUSH0 SWAP1 SLOAD SWAP1 PUSH2 0x100 EXP SWAP1 DIV PUSH20 0xFFFFFFFFFFFFFFFFFFFFFFFFFFFFFFFFFFFFFFFF AND PUSH20 0xFFFFFFFFFFFFFFFFFFFFFFFFFFFFFFFFFFFFFFFF AND PUSH20 0xFFFFFFFFFFFFFFFFFFFFFFFFFFFFFFFFFFFFFFFF AND DUP2 MSTORE PUSH1 0x20 ADD PUSH1 0x3 DUP3 ADD SLOAD DUP2 MSTORE PUSH1 0x20 ADD PUSH1 0x4 DUP3 ADD SLOAD DUP2 MSTORE PUSH1 0x20 ADD PUSH1 0x5 DUP3 ADD DUP1 SLOAD PUSH2 0xFF8 SWAP1 PUSH2 0x1CBE JUMP JUMPDEST DUP1 PUSH1 0x1F ADD PUSH1 0x20 DUP1 SWAP2 DIV MUL PUSH1 0x20 ADD PUSH1 0x40 MLOAD SWAP1 DUP2 ADD PUSH1 0x40 MSTORE DUP1 SWAP3 SWAP2 SWAP1 DUP2 DUP2 MSTORE PUSH1 0x20 ADD DUP3 DUP1 SLOAD PUSH2 0x1024 SWAP1 PUSH2 0x1CBE JUMP JUMPDEST DUP1 ISZERO PUSH2 0x106F JUMPI DUP1 PUSH1 0x1F LT PUSH2 0x1046 JUMPI PUSH2 0x100 DUP1 DUP4 SLOAD DIV MUL DUP4 MSTORE SWAP2 PUSH1 0x20 ADD SWAP2 PUSH2 0x106F JUMP JUMPDEST DUP3 ADD SWAP2 SWAP1 PUSH0 MSTORE PUSH1 0x20 PUSH0 KECCAK256 SWAP1 JUMPDEST DUP2 SLOAD DUP2 MSTORE SWAP1 PUSH1 0x1 ADD SWAP1 PUSH1 0x20 ADD DUP1 DUP4 GT PUSH2 0x1052 JUMPI DUP3 SWAP1 SUB PUSH1 0x1F AND DUP3 ADD SWAP2 JUMPDEST POP POP POP POP POP DUP2 MSTORE POP POP DUP2 MSTORE PUSH1 0x20 ADD SWAP1 PUSH1 0x1 ADD SWAP1 PUSH2 0xEC5 JUMP JUMPDEST POP POP POP POP SWAP1 POP SWAP1 JUMP JUMPDEST PUSH1 0x2 PUSH0 SWAP1 SLOAD SWAP1 PUSH2 0x100 EXP SWAP1 DIV PUSH20 0xFFFFFFFFFFFFFFFFFFFFFFFFFFFFFFFFFFFFFFFF AND PUSH20 0xFFFFFFFFFFFFFFFFFFFFFFFFFFFFFFFFFFFFFFFF AND CALLER PUSH20 0xFFFFFFFFFFFFFFFFFFFFFFFFFFFFFFFFFFFFFFFF AND EQ PUSH2 0x10E8 JUMPI PUSH0 DUP1 REVERT JUMPDEST PUSH0 PUSH1 0x1 DUP2 PUSH1 0x1 DUP2 SLOAD ADD DUP1 DUP3 SSTORE DUP1 SWAP2 POP POP SUB SWAP1 PUSH0 MSTORE PUSH1 0x20 PUSH0 KECCAK256 SWAP1 POP POP PUSH0 DUP1 PUSH1 0x1 PUSH0 DUP1 SLOAD SWAP1 POP PUSH2 0x1116 SWAP2 SWAP1 PUSH2 0x1FE4 JUMP JUMPDEST DUP2 SLOAD DUP2 LT PUSH2 0x1127 JUMPI PUSH2 0x1126 PUSH2 0x1C64 JUMP JUMPDEST JUMPDEST SWAP1 PUSH0 MSTORE PUSH1 0x20 PUSH0 KECCAK256 SWAP1 PUSH1 0x6 MUL ADD SWAP1 POP DUP4 DUP2 PUSH0 ADD SWAP1 DUP2 PUSH2 0x1145 SWAP2 SWAP1 PUSH2 0x1E8B JUMP JUMPDEST POP DUP3 DUP2 PUSH1 0x1 ADD DUP2 SWAP1 SSTORE POP DUP2 DUP2 PUSH1 0x2 ADD PUSH0 PUSH2 0x100 EXP DUP2 SLOAD DUP2 PUSH20 0xFFFFFFFFFFFFFFFFFFFFFFFFFFFFFFFFFFFFFFFF MUL NOT AND SWAP1 DUP4 PUSH20 0xFFFFFFFFFFFFFFFFFFFFFFFFFFFFFFFFFFFFFFFF AND MUL OR SWAP1 SSTORE POP PUSH1 0x40 MLOAD DUP1 PUSH1 0x40 ADD PUSH1 0x40 MSTORE DUP1 PUSH1 0x7 DUP2 MSTORE PUSH1 0x20 ADD PUSH32 0x70656E64696E6700000000000000000000000000000000000000000000000000 DUP2 MSTORE POP DUP2 PUSH1 0x5 ADD SWAP1 DUP2 PUSH2 0x11D7 SWAP2 SWAP1 PUSH2 0x1E8B JUMP JUMPDEST POP PUSH1 0x1 DUP1 DUP2 PUSH1 0x1 DUP2 SLOAD ADD DUP1 DUP3 SSTORE DUP1 SWAP2 POP POP SUB SWAP1 PUSH0 MSTORE PUSH1 0x20 PUSH0 KECCAK256 POP POP POP POP POP POP JUMP JUMPDEST PUSH1 0x9 SLOAD DUP2 JUMP JUMPDEST PUSH1 0x7 SLOAD DUP2 JUMP JUMPDEST PUSH0 CALLER PUSH20 0xFFFFFFFFFFFFFFFFFFFFFFFFFFFFFFFFFFFFFFFF AND PUSH1 0x2 PUSH0 SWAP1 SLOAD SWAP1 PUSH2 0x100 EXP SWAP1 DIV PUSH20 0xFFFFFFFFFFFFFFFFFFFFFFFFFFFFFFFFFFFFFFFF AND PUSH20 0xFFFFFFFFFFFFFFFFFFFFFFFFFFFFFFFFFFFFFFFF AND EQ SWAP1 POP SWAP1 JUMP JUMPDEST PUSH0 PUSH1 0x8 PUSH0 CALLER PUSH20 0xFFFFFFFFFFFFFFFFFFFFFFFFFFFFFFFFFFFFFFFF AND PUSH20 0xFFFFFFFFFFFFFFFFFFFFFFFFFFFFFFFFFFFFFFFF AND DUP2 MSTORE PUSH1 0x20 ADD SWAP1 DUP2 MSTORE PUSH1 0x20 ADD PUSH0 KECCAK256 SLOAD EQ PUSH2 0x12A2 JUMPI PUSH0 DUP1 REVERT JUMPDEST PUSH1 0x7 SLOAD CALLVALUE LT ISZERO PUSH2 0x12B0 JUMPI PUSH0 DUP1 REVERT JUMPDEST CALLVALUE PUSH1 0x8 PUSH0 CALLER PUSH20 0xFFFFFFFFFFFFFFFFFFFFFFFFFFFFFFFFFFFFFFFF AND PUSH20 0xFFFFFFFFFFFFFFFFFFFFFFFFFFFFFFFFFFFFFFFF AND DUP2 MSTORE PUSH1 0x20 ADD SWAP1 DUP2 MSTORE PUSH1 0x20 ADD PUSH0 KECCAK256 DUP2 SWAP1 SSTORE POP PUSH1 0x9 PUSH0 DUP2 SLOAD DUP1 SWAP3 SWAP2 SWAP1 PUSH2 0x1304 SWAP1 PUSH2 0x2210 JUMP JUMPDEST SWAP2 SWAP1 POP SSTORE POP CALLVALUE PUSH1 0xA PUSH0 DUP3 DUP3 SLOAD PUSH2 0x131A SWAP2 SWAP1 PUSH2 0x21DD JUMP JUMPDEST SWAP3 POP POP DUP2 SWAP1 SSTORE POP PUSH1 0x2 CALLVALUE PUSH2 0x132E SWAP2 SWAP1 PUSH2 0x2152 JUMP JUMPDEST PUSH1 0xB PUSH0 DUP3 DUP3 SLOAD PUSH2 0x133E SWAP2 SWAP1 PUSH2 0x21DD JUMP JUMPDEST SWAP3 POP POP DUP2 SWAP1 SSTORE POP JUMP JUMPDEST PUSH0 DUP1 DUP3 DUP2 SLOAD DUP2 LT PUSH2 0x135B JUMPI PUSH2 0x135A PUSH2 0x1C64 JUMP JUMPDEST JUMPDEST SWAP1 PUSH0 MSTORE PUSH1 0x20 PUSH0 KECCAK256 SWAP1 PUSH1 0x6 MUL ADD SWAP1 POP PUSH0 PUSH1 0x8 PUSH0 CALLER PUSH20 0xFFFFFFFFFFFFFFFFFFFFFFFFFFFFFFFFFFFFFFFF AND PUSH20 0xFFFFFFFFFFFFFFFFFFFFFFFFFFFFFFFFFFFFFFFF AND DUP2 MSTORE PUSH1 0x20 ADD SWAP1 DUP2 MSTORE PUSH1 0x20 ADD PUSH0 KECCAK256 SLOAD GT PUSH2 0x13B1 JUMPI PUSH0 DUP1 REVERT JUMPDEST PUSH1 0x1 DUP3 DUP2 SLOAD DUP2 LT PUSH2 0x13C5 JUMPI PUSH2 0x13C4 PUSH2 0x1C64 JUMP JUMPDEST JUMPDEST SWAP1 PUSH0 MSTORE PUSH1 0x20 PUSH0 KECCAK256 ADD PUSH0 CALLER PUSH20 0xFFFFFFFFFFFFFFFFFFFFFFFFFFFFFFFFFFFFFFFF AND PUSH20 0xFFFFFFFFFFFFFFFFFFFFFFFFFFFFFFFFFFFFFFFF AND DUP2 MSTORE PUSH1 0x20 ADD SWAP1 DUP2 MSTORE PUSH1 0x20 ADD PUSH0 KECCAK256 PUSH0 SWAP1 SLOAD SWAP1 PUSH2 0x100 EXP SWAP1 DIV PUSH1 0xFF AND ISZERO PUSH2 0x141E JUMPI PUSH0 DUP1 REVERT JUMPDEST DUP1 PUSH1 0x3 ADD PUSH0 DUP2 SLOAD DUP1 SWAP3 SWAP2 SWAP1 PUSH2 0x1432 SWAP1 PUSH2 0x2210 JUMP JUMPDEST SWAP2 SWAP1 POP SSTORE POP PUSH1 0x1 DUP1 DUP4 DUP2 SLOAD DUP2 LT PUSH2 0x144C JUMPI PUSH2 0x144B PUSH2 0x1C64 JUMP JUMPDEST JUMPDEST SWAP1 PUSH0 MSTORE PUSH1 0x20 PUSH0 KECCAK256 ADD PUSH0 CALLER PUSH20 0xFFFFFFFFFFFFFFFFFFFFFFFFFFFFFFFFFFFFFFFF AND PUSH20 0xFFFFFFFFFFFFFFFFFFFFFFFFFFFFFFFFFFFFFFFF AND DUP2 MSTORE PUSH1 0x20 ADD SWAP1 DUP2 MSTORE PUSH1 0x20 ADD PUSH0 KECCAK256 PUSH0 PUSH2 0x100 EXP DUP2 SLOAD DUP2 PUSH1 0xFF MUL NOT AND SWAP1 DUP4 ISZERO ISZERO MUL OR SWAP1 SSTORE POP PUSH1 0x8 PUSH0 CALLER PUSH20 0xFFFFFFFFFFFFFFFFFFFFFFFFFFFFFFFFFFFFFFFF AND PUSH20 0xFFFFFFFFFFFFFFFFFFFFFFFFFFFFFFFFFFFFFFFF AND DUP2 MSTORE PUSH1 0x20 ADD SWAP1 DUP2 MSTORE PUSH1 0x20 ADD PUSH0 KECCAK256 SLOAD DUP2 PUSH1 0x4 ADD PUSH0 DUP3 DUP3 SLOAD PUSH2 0x14F5 SWAP2 SWAP1 PUSH2 0x21DD JUMP JUMPDEST SWAP3 POP POP DUP2 SWAP1 SSTORE POP POP POP JUMP JUMPDEST PUSH1 0x6 SLOAD DUP2 JUMP JUMPDEST PUSH0 DUP1 DUP3 SUB PUSH2 0x1516 JUMPI PUSH0 SWAP1 POP PUSH2 0x1572 JUMP JUMPDEST PUSH0 PUSH1 0x2 PUSH1 0x1 DUP5 PUSH2 0x1526 SWAP2 SWAP1 PUSH2 0x21DD JUMP JUMPDEST PUSH2 0x1530 SWAP2 SWAP1 PUSH2 0x1FB4 JUMP JUMPDEST SWAP1 POP PUSH0 DUP4 SWAP1 POP JUMPDEST DUP1 DUP3 LT ISZERO PUSH2 0x156C JUMPI DUP2 SWAP1 POP PUSH1 0x2 DUP3 DUP4 DUP7 PUSH2 0x1551 SWAP2 SWAP1 PUSH2 0x1FB4 JUMP JUMPDEST PUSH2 0x155B SWAP2 SWAP1 PUSH2 0x21DD JUMP JUMPDEST PUSH2 0x1565 SWAP2 SWAP1 PUSH2 0x1FB4 JUMP JUMPDEST SWAP2 POP PUSH2 0x1537 JUMP JUMPDEST DUP1 SWAP3 POP POP POP JUMPDEST SWAP2 SWAP1 POP JUMP JUMPDEST PUSH0 PUSH1 0x40 MLOAD SWAP1 POP SWAP1 JUMP JUMPDEST PUSH0 DUP1 REVERT JUMPDEST PUSH0 DUP1 REVERT JUMPDEST PUSH0 DUP2 SWAP1 POP SWAP2 SWAP1 POP JUMP JUMPDEST PUSH2 0x159A DUP2 PUSH2 0x1588 JUMP JUMPDEST DUP2 EQ PUSH2 0x15A4 JUMPI PUSH0 DUP1 REVERT JUMPDEST POP JUMP JUMPDEST PUSH0 DUP2 CALLDATALOAD SWAP1 POP PUSH2 0x15B5 DUP2 PUSH2 0x1591 JUMP JUMPDEST SWAP3 SWAP2 POP POP JUMP JUMPDEST PUSH0 PUSH1 0x20 DUP3 DUP5 SUB SLT ISZERO PUSH2 0x15D0 JUMPI PUSH2 0x15CF PUSH2 0x1580 JUMP JUMPDEST JUMPDEST PUSH0 PUSH2 0x15DD DUP5 DUP3 DUP6 ADD PUSH2 0x15A7 JUMP JUMPDEST SWAP2 POP POP SWAP3 SWAP2 POP POP JUMP JUMPDEST PUSH0 DUP2 MLOAD SWAP1 POP SWAP2 SWAP1 POP JUMP JUMPDEST PUSH0 DUP3 DUP3 MSTORE PUSH1 0x20 DUP3 ADD SWAP1 POP SWAP3 SWAP2 POP POP JUMP JUMPDEST PUSH0 JUMPDEST DUP4 DUP2 LT ISZERO PUSH2 0x161D JUMPI DUP1 DUP3 ADD MLOAD DUP2 DUP5 ADD MSTORE PUSH1 0x20 DUP2 ADD SWAP1 POP PUSH2 0x1602 JUMP JUMPDEST PUSH0 DUP5 DUP5 ADD MSTORE POP POP POP POP JUMP JUMPDEST PUSH0 PUSH1 0x1F NOT PUSH1 0x1F DUP4 ADD AND SWAP1 POP SWAP2 SWAP1 POP JUMP JUMPDEST PUSH0 PUSH2 0x1642 DUP3 PUSH2 0x15E6 JUMP JUMPDEST PUSH2 0x164C DUP2 DUP6 PUSH2 0x15F0 JUMP JUMPDEST SWAP4 POP PUSH2 0x165C DUP2 DUP6 PUSH1 0x20 DUP7 ADD PUSH2 0x1600 JUMP JUMPDEST PUSH2 0x1665 DUP2 PUSH2 0x1628 JUMP JUMPDEST DUP5 ADD SWAP2 POP POP SWAP3 SWAP2 POP POP JUMP JUMPDEST PUSH0 PUSH1 0x20 DUP3 ADD SWAP1 POP DUP2 DUP2 SUB PUSH0 DUP4 ADD MSTORE PUSH2 0x1688 DUP2 DUP5 PUSH2 0x1638 JUMP JUMPDEST SWAP1 POP SWAP3 SWAP2 POP POP JUMP JUMPDEST PUSH2 0x1699 DUP2 PUSH2 0x1588 JUMP JUMPDEST DUP3 MSTORE POP POP JUMP JUMPDEST PUSH0 PUSH1 0x20 DUP3 ADD SWAP1 POP PUSH2 0x16B2 PUSH0 DUP4 ADD DUP5 PUSH2 0x1690 JUMP JUMPDEST SWAP3 SWAP2 POP POP JUMP JUMPDEST PUSH0 PUSH20 0xFFFFFFFFFFFFFFFFFFFFFFFFFFFFFFFFFFFFFFFF DUP3 AND SWAP1 POP SWAP2 SWAP1 POP JUMP JUMPDEST PUSH0 PUSH2 0x16E1 DUP3 PUSH2 0x16B8 JUMP JUMPDEST SWAP1 POP SWAP2 SWAP1 POP JUMP JUMPDEST PUSH2 0x16F1 DUP2 PUSH2 0x16D7 JUMP JUMPDEST DUP2 EQ PUSH2 0x16FB JUMPI PUSH0 DUP1 REVERT JUMPDEST POP JUMP JUMPDEST PUSH0 DUP2 CALLDATALOAD SWAP1 POP PUSH2 0x170C DUP2 PUSH2 0x16E8 JUMP JUMPDEST SWAP3 SWAP2 POP POP JUMP JUMPDEST PUSH0 PUSH1 0x20 DUP3 DUP5 SUB SLT ISZERO PUSH2 0x1727 JUMPI PUSH2 0x1726 PUSH2 0x1580 JUMP JUMPDEST JUMPDEST PUSH0 PUSH2 0x1734 DUP5 DUP3 DUP6 ADD PUSH2 0x16FE JUMP JUMPDEST SWAP2 POP POP SWAP3 SWAP2 POP POP JUMP JUMPDEST PUSH2 0x1746 DUP2 PUSH2 0x16D7 JUMP JUMPDEST DUP3 MSTORE POP POP JUMP JUMPDEST PUSH0 PUSH2 0x140 DUP3 ADD SWAP1 POP DUP2 DUP2 SUB PUSH0 DUP4 ADD MSTORE PUSH2 0x1765 DUP2 DUP14 PUSH2 0x1638 JUMP JUMPDEST SWAP1 POP DUP2 DUP2 SUB PUSH1 0x20 DUP4 ADD MSTORE PUSH2 0x1779 DUP2 DUP13 PUSH2 0x1638 JUMP JUMPDEST SWAP1 POP DUP2 DUP2 SUB PUSH1 0x40 DUP4 ADD MSTORE PUSH2 0x178D DUP2 DUP12 PUSH2 0x1638 JUMP JUMPDEST SWAP1 POP PUSH2 0x179C PUSH1 0x60 DUP4 ADD DUP11 PUSH2 0x1690 JUMP JUMPDEST PUSH2 0x17A9 PUSH1 0x80 DUP4 ADD DUP10 PUSH2 0x1690 JUMP JUMPDEST PUSH2 0x17B6 PUSH1 0xA0 DUP4 ADD DUP9 PUSH2 0x1690 JUMP JUMPDEST PUSH2 0x17C3 PUSH1 0xC0 DUP4 ADD DUP8 PUSH2 0x1690 JUMP JUMPDEST PUSH2 0x17D0 PUSH1 0xE0 DUP4 ADD DUP7 PUSH2 0x1690 JUMP JUMPDEST PUSH2 0x17DE PUSH2 0x100 DUP4 ADD DUP6 PUSH2 0x1690 JUMP JUMPDEST PUSH2 0x17EC PUSH2 0x120 DUP4 ADD DUP5 PUSH2 0x173D JUMP JUMPDEST SWAP12 SWAP11 POP POP POP POP POP POP POP POP POP POP POP JUMP JUMPDEST PUSH0 PUSH1 0x20 DUP3 ADD SWAP1 POP PUSH2 0x180E PUSH0 DUP4 ADD DUP5 PUSH2 0x173D JUMP JUMPDEST SWAP3 SWAP2 POP POP JUMP JUMPDEST PUSH0 DUP2 ISZERO ISZERO SWAP1 POP SWAP2 SWAP1 POP JUMP JUMPDEST PUSH2 0x1828 DUP2 PUSH2 0x1814 JUMP JUMPDEST DUP3 MSTORE POP POP JUMP JUMPDEST PUSH0 PUSH1 0x20 DUP3 ADD SWAP1 POP PUSH2 0x1841 PUSH0 DUP4 ADD DUP5 PUSH2 0x181F JUMP JUMPDEST SWAP3 SWAP2 POP POP JUMP JUMPDEST PUSH0 PUSH2 0x1851 DUP3 PUSH2 0x16B8 JUMP JUMPDEST SWAP1 POP SWAP2 SWAP1 POP JUMP JUMPDEST PUSH2 0x1861 DUP2 PUSH2 0x1847 JUMP JUMPDEST DUP3 MSTORE POP POP JUMP JUMPDEST PUSH0 PUSH1 0xC0 DUP3 ADD SWAP1 POP DUP2 DUP2 SUB PUSH0 DUP4 ADD MSTORE PUSH2 0x187F DUP2 DUP10 PUSH2 0x1638 JUMP JUMPDEST SWAP1 POP PUSH2 0x188E PUSH1 0x20 DUP4 ADD DUP9 PUSH2 0x1690 JUMP JUMPDEST PUSH2 0x189B PUSH1 0x40 DUP4 ADD DUP8 PUSH2 0x1858 JUMP JUMPDEST PUSH2 0x18A8 PUSH1 0x60 DUP4 ADD DUP7 PUSH2 0x1690 JUMP JUMPDEST PUSH2 0x18B5 PUSH1 0x80 DUP4 ADD DUP6 PUSH2 0x1690 JUMP JUMPDEST DUP2 DUP2 SUB PUSH1 0xA0 DUP4 ADD MSTORE PUSH2 0x18C7 DUP2 DUP5 PUSH2 0x1638 JUMP JUMPDEST SWAP1 POP SWAP8 SWAP7 POP POP POP POP POP POP POP JUMP JUMPDEST PUSH0 DUP2 MLOAD SWAP1 POP SWAP2 SWAP1 POP JUMP JUMPDEST PUSH0 DUP3 DUP3 MSTORE PUSH1 0x20 DUP3 ADD SWAP1 POP SWAP3 SWAP2 POP POP JUMP JUMPDEST PUSH0 DUP2 SWAP1 POP PUSH1 0x20 DUP3 ADD SWAP1 POP SWAP2 SWAP1 POP JUMP JUMPDEST PUSH0 DUP3 DUP3 MSTORE PUSH1 0x20 DUP3 ADD SWAP1 POP SWAP3 SWAP2 POP POP JUMP JUMPDEST PUSH0 PUSH2 0x1917 DUP3 PUSH2 0x15E6 JUMP JUMPDEST PUSH2 0x1921 DUP2 DUP6 PUSH2 0x18FD JUMP JUMPDEST SWAP4 POP PUSH2 0x1931 DUP2 DUP6 PUSH1 0x20 DUP7 ADD PUSH2 0x1600 JUMP JUMPDEST PUSH2 0x193A DUP2 PUSH2 0x1628 JUMP JUMPDEST DUP5 ADD SWAP2 POP POP SWAP3 SWAP2 POP POP JUMP JUMPDEST PUSH2 0x194E DUP2 PUSH2 0x1588 JUMP JUMPDEST DUP3 MSTORE POP POP JUMP JUMPDEST PUSH2 0x195D DUP2 PUSH2 0x1847 JUMP JUMPDEST DUP3 MSTORE POP POP JUMP JUMPDEST PUSH0 PUSH1 0xC0 DUP4 ADD PUSH0 DUP4 ADD MLOAD DUP5 DUP3 SUB PUSH0 DUP7 ADD MSTORE PUSH2 0x197D DUP3 DUP3 PUSH2 0x190D JUMP JUMPDEST SWAP2 POP POP PUSH1 0x20 DUP4 ADD MLOAD PUSH2 0x1992 PUSH1 0x20 DUP7 ADD DUP3 PUSH2 0x1945 JUMP JUMPDEST POP PUSH1 0x40 DUP4 ADD MLOAD PUSH2 0x19A5 PUSH1 0x40 DUP7 ADD DUP3 PUSH2 0x1954 JUMP JUMPDEST POP PUSH1 0x60 DUP4 ADD MLOAD PUSH2 0x19B8 PUSH1 0x60 DUP7 ADD DUP3 PUSH2 0x1945 JUMP JUMPDEST POP PUSH1 0x80 DUP4 ADD MLOAD PUSH2 0x19CB PUSH1 0x80 DUP7 ADD DUP3 PUSH2 0x1945 JUMP JUMPDEST POP PUSH1 0xA0 DUP4 ADD MLOAD DUP5 DUP3 SUB PUSH1 0xA0 DUP7 ADD MSTORE PUSH2 0x19E3 DUP3 DUP3 PUSH2 0x190D JUMP JUMPDEST SWAP2 POP POP DUP1 SWAP2 POP POP SWAP3 SWAP2 POP POP JUMP JUMPDEST PUSH0 PUSH2 0x19FB DUP4 DUP4 PUSH2 0x1963 JUMP JUMPDEST SWAP1 POP SWAP3 SWAP2 POP POP JUMP JUMPDEST PUSH0 PUSH1 0x20 DUP3 ADD SWAP1 POP SWAP2 SWAP1 POP JUMP JUMPDEST PUSH0 PUSH2 0x1A19 DUP3 PUSH2 0x18D4 JUMP JUMPDEST PUSH2 0x1A23 DUP2 DUP6 PUSH2 0x18DE JUMP JUMPDEST SWAP4 POP DUP4 PUSH1 0x20 DUP3 MUL DUP6 ADD PUSH2 0x1A35 DUP6 PUSH2 0x18EE JUMP JUMPDEST DUP1 PUSH0 JUMPDEST DUP6 DUP2 LT ISZERO PUSH2 0x1A70 JUMPI DUP5 DUP5 SUB DUP10 MSTORE DUP2 MLOAD PUSH2 0x1A51 DUP6 DUP3 PUSH2 0x19F0 JUMP JUMPDEST SWAP5 POP PUSH2 0x1A5C DUP4 PUSH2 0x1A03 JUMP JUMPDEST SWAP3 POP PUSH1 0x20 DUP11 ADD SWAP10 POP POP PUSH1 0x1 DUP2 ADD SWAP1 POP PUSH2 0x1A38 JUMP JUMPDEST POP DUP3 SWAP8 POP DUP8 SWAP6 POP POP POP POP POP POP SWAP3 SWAP2 POP POP JUMP JUMPDEST PUSH0 PUSH1 0x20 DUP3 ADD SWAP1 POP DUP2 DUP2 SUB PUSH0 DUP4 ADD MSTORE PUSH2 0x1A9A DUP2 DUP5 PUSH2 0x1A0F JUMP JUMPDEST SWAP1 POP SWAP3 SWAP2 POP POP JUMP JUMPDEST PUSH0 DUP1 REVERT JUMPDEST PUSH0 DUP1 REVERT JUMPDEST PUSH32 0x4E487B7100000000000000000000000000000000000000000000000000000000 PUSH0 MSTORE PUSH1 0x41 PUSH1 0x4 MSTORE PUSH1 0x24 PUSH0 REVERT JUMPDEST PUSH2 0x1AE0 DUP3 PUSH2 0x1628 JUMP JUMPDEST DUP2 ADD DUP2 DUP2 LT PUSH8 0xFFFFFFFFFFFFFFFF DUP3 GT OR ISZERO PUSH2 0x1AFF JUMPI PUSH2 0x1AFE PUSH2 0x1AAA JUMP JUMPDEST JUMPDEST DUP1 PUSH1 0x40 MSTORE POP POP POP JUMP JUMPDEST PUSH0 PUSH2 0x1B11 PUSH2 0x1577 JUMP JUMPDEST SWAP1 POP PUSH2 0x1B1D DUP3 DUP3 PUSH2 0x1AD7 JUMP JUMPDEST SWAP2 SWAP1 POP JUMP JUMPDEST PUSH0 PUSH8 0xFFFFFFFFFFFFFFFF DUP3 GT ISZERO PUSH2 0x1B3C JUMPI PUSH2 0x1B3B PUSH2 0x1AAA JUMP JUMPDEST JUMPDEST PUSH2 0x1B45 DUP3 PUSH2 0x1628 JUMP JUMPDEST SWAP1 POP PUSH1 0x20 DUP2 ADD SWAP1 POP SWAP2 SWAP1 POP JUMP JUMPDEST DUP3 DUP2 DUP4 CALLDATACOPY PUSH0 DUP4 DUP4 ADD MSTORE POP POP POP JUMP JUMPDEST PUSH0 PUSH2 0x1B72 PUSH2 0x1B6D DUP5 PUSH2 0x1B22 JUMP JUMPDEST PUSH2 0x1B08 JUMP JUMPDEST SWAP1 POP DUP3 DUP2 MSTORE PUSH1 0x20 DUP2 ADD DUP5 DUP5 DUP5 ADD GT ISZERO PUSH2 0x1B8E JUMPI PUSH2 0x1B8D PUSH2 0x1AA6 JUMP JUMPDEST JUMPDEST PUSH2 0x1B99 DUP5 DUP3 DUP6 PUSH2 0x1B52 JUMP JUMPDEST POP SWAP4 SWAP3 POP POP POP JUMP JUMPDEST PUSH0 DUP3 PUSH1 0x1F DUP4 ADD SLT PUSH2 0x1BB5 JUMPI PUSH2 0x1BB4 PUSH2 0x1AA2 JUMP JUMPDEST JUMPDEST DUP2 CALLDATALOAD PUSH2 0x1BC5 DUP5 DUP3 PUSH1 0x20 DUP7 ADD PUSH2 0x1B60 JUMP JUMPDEST SWAP2 POP POP SWAP3 SWAP2 POP POP JUMP JUMPDEST PUSH2 0x1BD7 DUP2 PUSH2 0x1847 JUMP JUMPDEST DUP2 EQ PUSH2 0x1BE1 JUMPI PUSH0 DUP1 REVERT JUMPDEST POP JUMP JUMPDEST PUSH0 DUP2 CALLDATALOAD SWAP1 POP PUSH2 0x1BF2 DUP2 PUSH2 0x1BCE JUMP JUMPDEST SWAP3 SWAP2 POP POP JUMP JUMPDEST PUSH0 DUP1 PUSH0 PUSH1 0x60 DUP5 DUP7 SUB SLT ISZERO PUSH2 0x1C0F JUMPI PUSH2 0x1C0E PUSH2 0x1580 JUMP JUMPDEST JUMPDEST PUSH0 DUP5 ADD CALLDATALOAD PUSH8 0xFFFFFFFFFFFFFFFF DUP2 GT ISZERO PUSH2 0x1C2C JUMPI PUSH2 0x1C2B PUSH2 0x1584 JUMP JUMPDEST JUMPDEST PUSH2 0x1C38 DUP7 DUP3 DUP8 ADD PUSH2 0x1BA1 JUMP JUMPDEST SWAP4 POP POP PUSH1 0x20 PUSH2 0x1C49 DUP7 DUP3 DUP8 ADD PUSH2 0x15A7 JUMP JUMPDEST SWAP3 POP POP PUSH1 0x40 PUSH2 0x1C5A DUP7 DUP3 DUP8 ADD PUSH2 0x1BE4 JUMP JUMPDEST SWAP2 POP POP SWAP3 POP SWAP3 POP SWAP3 JUMP JUMPDEST PUSH32 0x4E487B7100000000000000000000000000000000000000000000000000000000 PUSH0 MSTORE PUSH1 0x32 PUSH1 0x4 MSTORE PUSH1 0x24 PUSH0 REVERT JUMPDEST PUSH32 0x4E487B7100000000000000000000000000000000000000000000000000000000 PUSH0 MSTORE PUSH1 0x22 PUSH1 0x4 MSTORE PUSH1 0x24 PUSH0 REVERT JUMPDEST PUSH0 PUSH1 0x2 DUP3 DIV SWAP1 POP PUSH1 0x1 DUP3 AND DUP1 PUSH2 0x1CD5 JUMPI PUSH1 0x7F DUP3 AND SWAP2 POP JUMPDEST PUSH1 0x20 DUP3 LT DUP2 SUB PUSH2 0x1CE8 JUMPI PUSH2 0x1CE7 PUSH2 0x1C91 JUMP JUMPDEST JUMPDEST POP SWAP2 SWAP1 POP JUMP JUMPDEST PUSH0 DUP2 SWAP1 POP DUP2 PUSH0 MSTORE PUSH1 0x20 PUSH0 KECCAK256 SWAP1 POP SWAP2 SWAP1 POP JUMP JUMPDEST PUSH0 PUSH1 0x20 PUSH1 0x1F DUP4 ADD DIV SWAP1 POP SWAP2 SWAP1 POP JUMP JUMPDEST PUSH0 DUP3 DUP3 SHL SWAP1 POP SWAP3 SWAP2 POP POP JUMP JUMPDEST PUSH0 PUSH1 0x8 DUP4 MUL PUSH2 0x1D4A PUSH32 0xFFFFFFFFFFFFFFFFFFFFFFFFFFFFFFFFFFFFFFFFFFFFFFFFFFFFFFFFFFFFFFFF DUP3 PUSH2 0x1D0F JUMP JUMPDEST PUSH2 0x1D54 DUP7 DUP4 PUSH2 0x1D0F JUMP JUMPDEST SWAP6 POP DUP1 NOT DUP5 AND SWAP4 POP DUP1 DUP7 AND DUP5 OR SWAP3 POP POP POP SWAP4 SWAP3 POP POP POP JUMP JUMPDEST PUSH0 DUP2 SWAP1 POP SWAP2 SWAP1 POP JUMP JUMPDEST PUSH0 PUSH2 0x1D8F PUSH2 0x1D8A PUSH2 0x1D85 DUP5 PUSH2 0x1588 JUMP JUMPDEST PUSH2 0x1D6C JUMP JUMPDEST PUSH2 0x1588 JUMP JUMPDEST SWAP1 POP SWAP2 SWAP1 POP JUMP JUMPDEST PUSH0 DUP2 SWAP1 POP SWAP2 SWAP1 POP JUMP JUMPDEST PUSH2 0x1DA8 DUP4 PUSH2 0x1D75 JUMP JUMPDEST PUSH2 0x1DBC PUSH2 0x1DB4 DUP3 PUSH2 0x1D96 JUMP JUMPDEST DUP5 DUP5 SLOAD PUSH2 0x1D1B JUMP JUMPDEST DUP3 SSTORE POP POP POP POP JUMP JUMPDEST PUSH0 SWAP1 JUMP JUMPDEST PUSH2 0x1DD0 PUSH2 0x1DC4 JUMP JUMPDEST PUSH2 0x1DDB DUP2 DUP5 DUP5 PUSH2 0x1D9F JUMP JUMPDEST POP POP POP JUMP JUMPDEST JUMPDEST DUP2 DUP2 LT ISZERO PUSH2 0x1DFE JUMPI PUSH2 0x1DF3 PUSH0 DUP3 PUSH2 0x1DC8 JUMP JUMPDEST PUSH1 0x1 DUP2 ADD SWAP1 POP PUSH2 0x1DE1 JUMP JUMPDEST POP POP JUMP JUMPDEST PUSH1 0x1F DUP3 GT ISZERO PUSH2 0x1E43 JUMPI PUSH2 0x1E14 DUP2 PUSH2 0x1CEE JUMP JUMPDEST PUSH2 0x1E1D DUP5 PUSH2 0x1D00 JUMP JUMPDEST DUP2 ADD PUSH1 0x20 DUP6 LT ISZERO PUSH2 0x1E2C JUMPI DUP2 SWAP1 POP JUMPDEST PUSH2 0x1E40 PUSH2 0x1E38 DUP6 PUSH2 0x1D00 JUMP JUMPDEST DUP4 ADD DUP3 PUSH2 0x1DE0 JUMP JUMPDEST POP POP JUMPDEST POP POP POP JUMP JUMPDEST PUSH0 DUP3 DUP3 SHR SWAP1 POP SWAP3 SWAP2 POP POP JUMP JUMPDEST PUSH0 PUSH2 0x1E63 PUSH0 NOT DUP5 PUSH1 0x8 MUL PUSH2 0x1E48 JUMP JUMPDEST NOT DUP1 DUP4 AND SWAP2 POP POP SWAP3 SWAP2 POP POP JUMP JUMPDEST PUSH0 PUSH2 0x1E7B DUP4 DUP4 PUSH2 0x1E54 JUMP JUMPDEST SWAP2 POP DUP3 PUSH1 0x2 MUL DUP3 OR SWAP1 POP SWAP3 SWAP2 POP POP JUMP JUMPDEST PUSH2 0x1E94 DUP3 PUSH2 0x15E6 JUMP JUMPDEST PUSH8 0xFFFFFFFFFFFFFFFF DUP2 GT ISZERO PUSH2 0x1EAD JUMPI PUSH2 0x1EAC PUSH2 0x1AAA JUMP JUMPDEST JUMPDEST PUSH2 0x1EB7 DUP3 SLOAD PUSH2 0x1CBE JUMP JUMPDEST PUSH2 0x1EC2 DUP3 DUP3 DUP6 PUSH2 0x1E02 JUMP JUMPDEST PUSH0 PUSH1 0x20 SWAP1 POP PUSH1 0x1F DUP4 GT PUSH1 0x1 DUP2 EQ PUSH2 0x1EF3 JUMPI PUSH0 DUP5 ISZERO PUSH2 0x1EE1 JUMPI DUP3 DUP8 ADD MLOAD SWAP1 POP JUMPDEST PUSH2 0x1EEB DUP6 DUP3 PUSH2 0x1E70 JUMP JUMPDEST DUP7 SSTORE POP PUSH2 0x1F52 JUMP JUMPDEST PUSH1 0x1F NOT DUP5 AND PUSH2 0x1F01 DUP7 PUSH2 0x1CEE JUMP JUMPDEST PUSH0 JUMPDEST DUP3 DUP2 LT ISZERO PUSH2 0x1F28 JUMPI DUP5 DUP10 ADD MLOAD DUP3 SSTORE PUSH1 0x1 DUP3 ADD SWAP2 POP PUSH1 0x20 DUP6 ADD SWAP5 POP PUSH1 0x20 DUP2 ADD SWAP1 POP PUSH2 0x1F03 JUMP JUMPDEST DUP7 DUP4 LT ISZERO PUSH2 0x1F45 JUMPI DUP5 DUP10 ADD MLOAD PUSH2 0x1F41 PUSH1 0x1F DUP10 AND DUP3 PUSH2 0x1E54 JUMP JUMPDEST DUP4 SSTORE POP JUMPDEST PUSH1 0x1 PUSH1 0x2 DUP9 MUL ADD DUP9 SSTORE POP POP POP JUMPDEST POP POP POP POP POP POP JUMP JUMPDEST PUSH32 0x4E487B7100000000000000000000000000000000000000000000000000000000 PUSH0 MSTORE PUSH1 0x12 PUSH1 0x4 MSTORE PUSH1 0x24 PUSH0 REVERT JUMPDEST PUSH32 0x4E487B7100000000000000000000000000000000000000000000000000000000 PUSH0 MSTORE PUSH1 0x11 PUSH1 0x4 MSTORE PUSH1 0x24 PUSH0 REVERT JUMPDEST PUSH0 PUSH2 0x1FBE DUP3 PUSH2 0x1588 JUMP JUMPDEST SWAP2 POP PUSH2 0x1FC9 DUP4 PUSH2 0x1588 JUMP JUMPDEST SWAP3 POP DUP3 PUSH2 0x1FD9 JUMPI PUSH2 0x1FD8 PUSH2 0x1F5A JUMP JUMPDEST JUMPDEST DUP3 DUP3 DIV SWAP1 POP SWAP3 SWAP2 POP POP JUMP JUMPDEST PUSH0 PUSH2 0x1FEE DUP3 PUSH2 0x1588 JUMP JUMPDEST SWAP2 POP PUSH2 0x1FF9 DUP4 PUSH2 0x1588 JUMP JUMPDEST SWAP3 POP DUP3 DUP3 SUB SWAP1 POP DUP2 DUP2 GT ISZERO PUSH2 0x2011 JUMPI PUSH2 0x2010 PUSH2 0x1F87 JUMP JUMPDEST JUMPDEST SWAP3 SWAP2 POP POP JUMP JUMPDEST PUSH0 DUP2 PUSH1 0x1 SHR SWAP1 POP SWAP2 SWAP1 POP JUMP JUMPDEST PUSH0 DUP1 DUP3 SWAP2 POP DUP4 SWAP1 POP JUMPDEST PUSH1 0x1 DUP6 GT ISZERO PUSH2 0x206C JUMPI DUP1 DUP7 DIV DUP2 GT ISZERO PUSH2 0x2048 JUMPI PUSH2 0x2047 PUSH2 0x1F87 JUMP JUMPDEST JUMPDEST PUSH1 0x1 DUP6 AND ISZERO PUSH2 0x2057 JUMPI DUP1 DUP3 MUL SWAP2 POP JUMPDEST DUP1 DUP2 MUL SWAP1 POP PUSH2 0x2065 DUP6 PUSH2 0x2017 JUMP JUMPDEST SWAP5 POP PUSH2 0x202C JUMP JUMPDEST SWAP5 POP SWAP5 SWAP3 POP POP POP JUMP JUMPDEST PUSH0 DUP3 PUSH2 0x2084 JUMPI PUSH1 0x1 SWAP1 POP PUSH2 0x213F JUMP JUMPDEST DUP2 PUSH2 0x2091 JUMPI PUSH0 SWAP1 POP PUSH2 0x213F JUMP JUMPDEST DUP2 PUSH1 0x1 DUP2 EQ PUSH2 0x20A7 JUMPI PUSH1 0x2 DUP2 EQ PUSH2 0x20B1 JUMPI PUSH2 0x20E0 JUMP JUMPDEST PUSH1 0x1 SWAP2 POP POP PUSH2 0x213F JUMP JUMPDEST PUSH1 0xFF DUP5 GT ISZERO PUSH2 0x20C3 JUMPI PUSH2 0x20C2 PUSH2 0x1F87 JUMP JUMPDEST JUMPDEST DUP4 PUSH1 0x2 EXP SWAP2 POP DUP5 DUP3 GT ISZERO PUSH2 0x20DA JUMPI PUSH2 0x20D9 PUSH2 0x1F87 JUMP JUMPDEST JUMPDEST POP PUSH2 0x213F JUMP JUMPDEST POP PUSH1 0x20 DUP4 LT PUSH2 0x133 DUP4 LT AND PUSH1 0x4E DUP5 LT PUSH1 0xB DUP5 LT AND OR ISZERO PUSH2 0x2115 JUMPI DUP3 DUP3 EXP SWAP1 POP DUP4 DUP2 GT ISZERO PUSH2 0x2110 JUMPI PUSH2 0x210F PUSH2 0x1F87 JUMP JUMPDEST JUMPDEST PUSH2 0x213F JUMP JUMPDEST PUSH2 0x2122 DUP5 DUP5 DUP5 PUSH1 0x1 PUSH2 0x2023 JUMP JUMPDEST SWAP3 POP SWAP1 POP DUP2 DUP5 DIV DUP2 GT ISZERO PUSH2 0x2139 JUMPI PUSH2 0x2138 PUSH2 0x1F87 JUMP JUMPDEST JUMPDEST DUP2 DUP2 MUL SWAP1 POP JUMPDEST SWAP4 SWAP3 POP POP POP JUMP JUMPDEST PUSH0 PUSH1 0xFF DUP3 AND SWAP1 POP SWAP2 SWAP1 POP JUMP JUMPDEST PUSH0 PUSH2 0x215C DUP3 PUSH2 0x1588 JUMP JUMPDEST SWAP2 POP PUSH2 0x2167 DUP4 PUSH2 0x2146 JUMP JUMPDEST SWAP3 POP PUSH2 0x2194 PUSH32 0xFFFFFFFFFFFFFFFFFFFFFFFFFFFFFFFFFFFFFFFFFFFFFFFFFFFFFFFFFFFFFFFF DUP5 DUP5 PUSH2 0x2075 JUMP JUMPDEST SWAP1 POP SWAP3 SWAP2 POP POP JUMP JUMPDEST PUSH0 PUSH2 0x21A6 DUP3 PUSH2 0x1588 JUMP JUMPDEST SWAP2 POP PUSH2 0x21B1 DUP4 PUSH2 0x1588 JUMP JUMPDEST SWAP3 POP DUP3 DUP3 MUL PUSH2 0x21BF DUP2 PUSH2 0x1588 JUMP JUMPDEST SWAP2 POP DUP3 DUP3 DIV DUP5 EQ DUP4 ISZERO OR PUSH2 0x21D6 JUMPI PUSH2 0x21D5 PUSH2 0x1F87 JUMP JUMPDEST JUMPDEST POP SWAP3 SWAP2 POP POP JUMP JUMPDEST PUSH0 PUSH2 0x21E7 DUP3 PUSH2 0x1588 JUMP JUMPDEST SWAP2 POP PUSH2 0x21F2 DUP4 PUSH2 0x1588 JUMP JUMPDEST SWAP3 POP DUP3 DUP3 ADD SWAP1 POP DUP1 DUP3 GT ISZERO PUSH2 0x220A JUMPI PUSH2 0x2209 PUSH2 0x1F87 JUMP JUMPDEST JUMPDEST SWAP3 SWAP2 POP POP JUMP JUMPDEST PUSH0 PUSH2 0x221A DUP3 PUSH2 0x1588 JUMP JUMPDEST SWAP2 POP PUSH32 0xFFFFFFFFFFFFFFFFFFFFFFFFFFFFFFFFFFFFFFFFFFFFFFFFFFFFFFFFFFFFFFFF DUP3 SUB PUSH2 0x224C JUMPI PUSH2 0x224B PUSH2 0x1F87 JUMP JUMPDEST JUMPDEST PUSH1 0x1 DUP3 ADD SWAP1 POP SWAP2 SWAP1 POP JUMP INVALID LOG2 PUSH5 0x6970667358 0x22 SLT KECCAK256 0x2E INVALID 0x4F LOG1 RETURNDATASIZE PREVRANDAO 0x1E 0xCE 0x21 CALLVALUE 0xC4 0x26 BASEFEE 0xED PUSH30 0x7B3D556BEB34A963CA329A0ED584932A7164736F6C63430008140033A264 PUSH10 0x7066735822122092E294 0xE7 0xAF 0xD5 0x4B SSTORE PUSH24 0x6532755789FECDDB5A61DA46DCACA33C34D6290AD7B77964 PUSH20 0x6F6C634300081400330000000000000000000000 "},"gasEstimates":{"creation":{"codeDepositCost":"2512200","executionCost":"2708","totalCost":"2514908"},"external":{"campaigns(uint256)":"4921","createCampaign(uint256,uint256,string,string,string)":"infinite","getDeployedCampaigns()":"infinite"}},"methodIdentifiers":{"campaigns(uint256)":"141961bc","createCampaign(uint256,uint256,string,string,string)":"71572a56","getDeployedCampaigns()":"4acb9d4f"}},"storageLayout":{"storage":[{"astId":4,"contract":"Campaign.sol:FactoryCampaign","label":"campaigns","offset":0,"slot":"0","type":"t_array(t_address)dyn_storage"}],"types":{"t_address":{"encoding":"inplace","label":"address","numberOfBytes":"20"},"t_array(t_address)dyn_storage":{"base":"t_address","encoding":"dynamic_array","label":"address[]","numberOfBytes":"32"}}},"userdoc":{"kind":"user","methods":{},"version":1}}